{
	"contracts/10_pureYulSolidity.sol": {
		"pureYulSolidity": {
			"abi": [
				{
					"inputs": [
						{
							"internalType": "contract ISimple",
							"name": "_target",
							"type": "address"
						}
					],
					"stateMutability": "nonpayable",
					"type": "constructor"
				},
				{
					"inputs": [],
					"name": "callSimpleString",
					"outputs": [
						{
							"internalType": "string",
							"name": "",
							"type": "string"
						}
					],
					"stateMutability": "view",
					"type": "function"
				},
				{
					"inputs": [],
					"name": "callSimpleUint",
					"outputs": [
						{
							"internalType": "uint256",
							"name": "",
							"type": "uint256"
						}
					],
					"stateMutability": "view",
					"type": "function"
				},
				{
					"inputs": [],
					"name": "target",
					"outputs": [
						{
							"internalType": "contract ISimple",
							"name": "",
							"type": "address"
						}
					],
					"stateMutability": "view",
					"type": "function"
				}
			],
			"devdoc": {
				"kind": "dev",
				"methods": {},
				"version": 1
			},
			"evm": {
				"assembly": "    /* \"contracts/10_pureYulSolidity.sol\":161:632  contract pureYulSolidity{... */\n  mstore(0x40, 0x80)\n    /* \"contracts/10_pureYulSolidity.sol\":219:280  constructor(ISimple _target){... */\n  callvalue\n  dup1\n  iszero\n  tag_1\n  jumpi\n  0x00\n  dup1\n  revert\ntag_1:\n  pop\n  mload(0x40)\n  sub(codesize, bytecodeSize)\n  dup1\n  bytecodeSize\n  dup4\n  codecopy\n  dup2\n  add\n  0x40\n  dup2\n  swap1\n  mstore\n  tag_2\n  swap2\n  tag_3\n  jump\t// in\ntag_2:\n    /* \"contracts/10_pureYulSolidity.sol\":257:263  target */\n  0x00\n    /* \"contracts/10_pureYulSolidity.sol\":257:273  target = _target */\n  dup1\n  sload\n  not(sub(shl(0xa0, 0x01), 0x01))\n  and\n  sub(shl(0xa0, 0x01), 0x01)\n  swap3\n  swap1\n  swap3\n  and\n  swap2\n  swap1\n  swap2\n  or\n  swap1\n  sstore\n    /* \"contracts/10_pureYulSolidity.sol\":161:632  contract pureYulSolidity{... */\n  jump(tag_7)\n    /* \"#utility.yul\":14:317   */\ntag_3:\n    /* \"#utility.yul\":97:103   */\n  0x00\n    /* \"#utility.yul\":150:152   */\n  0x20\n    /* \"#utility.yul\":138:147   */\n  dup3\n    /* \"#utility.yul\":129:136   */\n  dup5\n    /* \"#utility.yul\":125:148   */\n  sub\n    /* \"#utility.yul\":121:153   */\n  slt\n    /* \"#utility.yul\":118:170   */\n  iszero\n  tag_9\n  jumpi\n    /* \"#utility.yul\":166:167   */\n  0x00\n    /* \"#utility.yul\":163:164   */\n  dup1\n    /* \"#utility.yul\":156:168   */\n  revert\n    /* \"#utility.yul\":118:170   */\ntag_9:\n    /* \"#utility.yul\":192:208   */\n  dup2\n  mload\n  sub(shl(0xa0, 0x01), 0x01)\n    /* \"#utility.yul\":237:268   */\n  dup2\n  and\n    /* \"#utility.yul\":227:269   */\n  dup2\n  eq\n    /* \"#utility.yul\":217:287   */\n  tag_10\n  jumpi\n    /* \"#utility.yul\":283:284   */\n  0x00\n    /* \"#utility.yul\":280:281   */\n  dup1\n    /* \"#utility.yul\":273:285   */\n  revert\n    /* \"#utility.yul\":217:287   */\ntag_10:\n    /* \"#utility.yul\":306:311   */\n  swap4\n    /* \"#utility.yul\":14:317   */\n  swap3\n  pop\n  pop\n  pop\n  jump\t// out\ntag_7:\n    /* \"contracts/10_pureYulSolidity.sol\":161:632  contract pureYulSolidity{... */\n  dataSize(sub_0)\n  dup1\n  dataOffset(sub_0)\n  0x00\n  codecopy\n  0x00\n  return\nstop\n\nsub_0: assembly {\n        /* \"contracts/10_pureYulSolidity.sol\":161:632  contract pureYulSolidity{... */\n      mstore(0x40, 0x80)\n      callvalue\n      dup1\n      iszero\n      tag_1\n      jumpi\n      0x00\n      dup1\n      revert\n    tag_1:\n      pop\n      jumpi(tag_2, lt(calldatasize, 0x04))\n      shr(0xe0, calldataload(0x00))\n      dup1\n      0xd4b83992\n      eq\n      tag_3\n      jumpi\n      dup1\n      0xdeae91d4\n      eq\n      tag_4\n      jumpi\n      dup1\n      0xe9a937df\n      eq\n      tag_5\n      jumpi\n    tag_2:\n      0x00\n      dup1\n      revert\n        /* \"contracts/10_pureYulSolidity.sol\":191:212  ISimple public target */\n    tag_3:\n      sload(0x00)\n      tag_6\n      swap1\n      sub(shl(0xa0, 0x01), 0x01)\n      and\n      dup2\n      jump\n    tag_6:\n      mload(0x40)\n      sub(shl(0xa0, 0x01), 0x01)\n        /* \"#utility.yul\":590:622   */\n      swap1\n      swap2\n      and\n        /* \"#utility.yul\":572:623   */\n      dup2\n      mstore\n        /* \"#utility.yul\":560:562   */\n      0x20\n        /* \"#utility.yul\":545:563   */\n      add\n        /* \"contracts/10_pureYulSolidity.sol\":191:212  ISimple public target */\n    tag_8:\n      mload(0x40)\n      dup1\n      swap2\n      sub\n      swap1\n      return\n        /* \"contracts/10_pureYulSolidity.sol\":286:409  function callSimpleUint()external view returns(uint256){... */\n    tag_4:\n      tag_10\n      tag_11\n      jump\t// in\n    tag_10:\n      mload(0x40)\n        /* \"#utility.yul\":1716:1741   */\n      swap1\n      dup2\n      mstore\n        /* \"#utility.yul\":1704:1706   */\n      0x20\n        /* \"#utility.yul\":1689:1707   */\n      add\n        /* \"contracts/10_pureYulSolidity.sol\":286:409  function callSimpleUint()external view returns(uint256){... */\n      tag_8\n        /* \"#utility.yul\":1570:1747   */\n      jump\n        /* \"contracts/10_pureYulSolidity.sol\":415:630  function callSimpleString()external view returns(string memory){... */\n    tag_5:\n      tag_14\n      tag_15\n      jump\t// in\n    tag_14:\n      mload(0x40)\n      tag_8\n      swap2\n      swap1\n      tag_17\n      jump\t// in\n        /* \"contracts/10_pureYulSolidity.sol\":286:409  function callSimpleUint()external view returns(uint256){... */\n    tag_11:\n        /* \"contracts/10_pureYulSolidity.sol\":333:340  uint256 */\n      0x00\n        /* \"contracts/10_pureYulSolidity.sol\":358:364  target */\n      dup1\n      0x00\n      swap1\n      sload\n      swap1\n      0x0100\n      exp\n      swap1\n      div\n      sub(shl(0xa0, 0x01), 0x01)\n      and\n      sub(shl(0xa0, 0x01), 0x01)\n        /* \"contracts/10_pureYulSolidity.sol\":358:400  target.itDoesntMatterBecauseItJustReturns2 */\n      and\n      0xcdcd18da\n        /* \"contracts/10_pureYulSolidity.sol\":358:402  target.itDoesntMatterBecauseItJustReturns2() */\n      mload(0x40)\n      dup2\n      0xffffffff\n      and\n      0xe0\n      shl\n      dup2\n      mstore\n      0x04\n      add\n      0x20\n      mload(0x40)\n      dup1\n      dup4\n      sub\n      dup2\n      dup7\n      dup1\n      extcodesize\n      iszero\n      dup1\n      iszero\n      tag_19\n      jumpi\n      0x00\n      dup1\n      revert\n    tag_19:\n      pop\n      gas\n      staticcall\n      iszero\n      dup1\n      iszero\n      tag_21\n      jumpi\n      returndatasize\n      0x00\n      dup1\n      returndatacopy\n      revert(0x00, returndatasize)\n    tag_21:\n      pop\n      pop\n      pop\n      pop\n      mload(0x40)\n      returndatasize\n      not(0x1f)\n      0x1f\n      dup3\n      add\n      and\n      dup3\n      add\n      dup1\n      0x40\n      mstore\n      pop\n      dup2\n      add\n      swap1\n      tag_22\n      swap2\n      swap1\n      tag_23\n      jump\t// in\n    tag_22:\n        /* \"contracts/10_pureYulSolidity.sol\":351:402  return target.itDoesntMatterBecauseItJustReturns2() */\n      swap1\n      pop\n        /* \"contracts/10_pureYulSolidity.sol\":286:409  function callSimpleUint()external view returns(uint256){... */\n      swap1\n      jump\t// out\n        /* \"contracts/10_pureYulSolidity.sol\":415:630  function callSimpleString()external view returns(string memory){... */\n    tag_15:\n        /* \"contracts/10_pureYulSolidity.sol\":489:501  bool success */\n      0x00\n        /* \"contracts/10_pureYulSolidity.sol\":534:540  target */\n      dup1\n      sload\n        /* \"contracts/10_pureYulSolidity.sol\":526:556  address(target).staticcall(\"\") */\n      mload(0x40)\n        /* \"contracts/10_pureYulSolidity.sol\":464:477  string memory */\n      0x60\n      swap3\n        /* \"contracts/10_pureYulSolidity.sol\":489:501  bool success */\n      swap2\n      dup3\n      swap2\n      sub(shl(0xa0, 0x01), 0x01)\n        /* \"contracts/10_pureYulSolidity.sol\":534:540  target */\n      swap1\n      swap2\n      and\n      swap1\n        /* \"contracts/10_pureYulSolidity.sol\":489:501  bool success */\n      dup3\n        /* \"contracts/10_pureYulSolidity.sol\":526:556  address(target).staticcall(\"\") */\n      dup2\n        /* \"contracts/10_pureYulSolidity.sol\":489:501  bool success */\n      dup2\n        /* \"contracts/10_pureYulSolidity.sol\":526:556  address(target).staticcall(\"\") */\n      dup2\n        /* \"contracts/10_pureYulSolidity.sol\":534:540  target */\n      dup6\n        /* \"contracts/10_pureYulSolidity.sol\":526:556  address(target).staticcall(\"\") */\n      gas\n      staticcall\n      swap2\n      pop\n      pop\n      returndatasize\n      dup1\n      0x00\n      dup2\n      eq\n      tag_29\n      jumpi\n      mload(0x40)\n      swap2\n      pop\n      and(add(returndatasize, 0x3f), not(0x1f))\n      dup3\n      add\n      0x40\n      mstore\n      returndatasize\n      dup3\n      mstore\n      returndatasize\n      0x00\n      0x20\n      dup5\n      add\n      returndatacopy\n      jump(tag_28)\n    tag_29:\n      0x60\n      swap2\n      pop\n    tag_28:\n      pop\n        /* \"contracts/10_pureYulSolidity.sol\":488:556  (bool success, bytes memory result) = address(target).staticcall(\"\") */\n      swap2\n      pop\n      swap2\n      pop\n        /* \"contracts/10_pureYulSolidity.sol\":574:581  success */\n      dup2\n        /* \"contracts/10_pureYulSolidity.sol\":566:592  require(success, \"failed\") */\n      tag_30\n      jumpi\n      mload(0x40)\n      shl(0xe5, 0x461bcd)\n      dup2\n      mstore\n        /* \"#utility.yul\":1438:1440   */\n      0x20\n        /* \"contracts/10_pureYulSolidity.sol\":566:592  require(success, \"failed\") */\n      0x04\n      dup3\n      add\n        /* \"#utility.yul\":1420:1441   */\n      mstore\n        /* \"#utility.yul\":1477:1478   */\n      0x06\n        /* \"#utility.yul\":1457:1475   */\n      0x24\n      dup3\n      add\n        /* \"#utility.yul\":1450:1479   */\n      mstore\n      shl(0xd2, 0x19985a5b1959)\n        /* \"#utility.yul\":1495:1513   */\n      0x44\n      dup3\n      add\n        /* \"#utility.yul\":1488:1524   */\n      mstore\n        /* \"#utility.yul\":1541:1559   */\n      0x64\n      add\n        /* \"contracts/10_pureYulSolidity.sol\":566:592  require(success, \"failed\") */\n      mload(0x40)\n      dup1\n      swap2\n      sub\n      swap1\n      revert\n    tag_30:\n        /* \"contracts/10_pureYulSolidity.sol\":616:622  result */\n      swap3\n        /* \"contracts/10_pureYulSolidity.sol\":415:630  function callSimpleString()external view returns(string memory){... */\n      swap2\n      pop\n      pop\n      jump\t// out\n        /* \"#utility.yul\":14:198   */\n    tag_23:\n        /* \"#utility.yul\":84:90   */\n      0x00\n        /* \"#utility.yul\":137:139   */\n      0x20\n        /* \"#utility.yul\":125:134   */\n      dup3\n        /* \"#utility.yul\":116:123   */\n      dup5\n        /* \"#utility.yul\":112:135   */\n      sub\n        /* \"#utility.yul\":108:140   */\n      slt\n        /* \"#utility.yul\":105:157   */\n      iszero\n      tag_35\n      jumpi\n        /* \"#utility.yul\":153:154   */\n      0x00\n        /* \"#utility.yul\":150:151   */\n      dup1\n        /* \"#utility.yul\":143:155   */\n      revert\n        /* \"#utility.yul\":105:157   */\n    tag_35:\n      pop\n        /* \"#utility.yul\":176:192   */\n      mload\n      swap2\n        /* \"#utility.yul\":14:198   */\n      swap1\n      pop\n      jump\t// out\n        /* \"#utility.yul\":634:1231   */\n    tag_17:\n        /* \"#utility.yul\":746:750   */\n      0x00\n        /* \"#utility.yul\":775:777   */\n      0x20\n        /* \"#utility.yul\":804:806   */\n      dup1\n        /* \"#utility.yul\":793:802   */\n      dup4\n        /* \"#utility.yul\":786:807   */\n      mstore\n        /* \"#utility.yul\":836:842   */\n      dup4\n        /* \"#utility.yul\":830:843   */\n      mload\n        /* \"#utility.yul\":879:885   */\n      dup1\n        /* \"#utility.yul\":874:876   */\n      dup3\n        /* \"#utility.yul\":863:872   */\n      dup6\n        /* \"#utility.yul\":859:877   */\n      add\n        /* \"#utility.yul\":852:886   */\n      mstore\n        /* \"#utility.yul\":904:905   */\n      0x00\n        /* \"#utility.yul\":914:1054   */\n    tag_39:\n        /* \"#utility.yul\":928:934   */\n      dup2\n        /* \"#utility.yul\":925:926   */\n      dup2\n        /* \"#utility.yul\":922:935   */\n      lt\n        /* \"#utility.yul\":914:1054   */\n      iszero\n      tag_41\n      jumpi\n        /* \"#utility.yul\":1023:1037   */\n      dup6\n      dup2\n      add\n        /* \"#utility.yul\":1019:1042   */\n      dup4\n      add\n        /* \"#utility.yul\":1013:1043   */\n      mload\n        /* \"#utility.yul\":989:1006   */\n      dup6\n      dup3\n      add\n        /* \"#utility.yul\":1008:1010   */\n      0x40\n        /* \"#utility.yul\":985:1011   */\n      add\n        /* \"#utility.yul\":978:1044   */\n      mstore\n        /* \"#utility.yul\":943:953   */\n      dup3\n      add\n        /* \"#utility.yul\":914:1054   */\n      jump(tag_39)\n    tag_41:\n        /* \"#utility.yul\":1072:1078   */\n      dup2\n        /* \"#utility.yul\":1069:1070   */\n      dup2\n        /* \"#utility.yul\":1066:1079   */\n      gt\n        /* \"#utility.yul\":1063:1154   */\n      iszero\n      tag_42\n      jumpi\n        /* \"#utility.yul\":1142:1143   */\n      0x00\n        /* \"#utility.yul\":1137:1139   */\n      0x40\n        /* \"#utility.yul\":1128:1134   */\n      dup4\n        /* \"#utility.yul\":1117:1126   */\n      dup8\n        /* \"#utility.yul\":1113:1135   */\n      add\n        /* \"#utility.yul\":1109:1140   */\n      add\n        /* \"#utility.yul\":1102:1144   */\n      mstore\n        /* \"#utility.yul\":1063:1154   */\n    tag_42:\n      pop\n        /* \"#utility.yul\":1215:1217   */\n      0x1f\n        /* \"#utility.yul\":1194:1209   */\n      add\n      not(0x1f)\n        /* \"#utility.yul\":1190:1219   */\n      and\n        /* \"#utility.yul\":1175:1220   */\n      swap3\n      swap1\n      swap3\n      add\n        /* \"#utility.yul\":1222:1224   */\n      0x40\n        /* \"#utility.yul\":1171:1225   */\n      add\n      swap4\n        /* \"#utility.yul\":634:1231   */\n      swap3\n      pop\n      pop\n      pop\n      jump\t// out\n\n    auxdata: 0xa2646970667358221220fc49c6ecd66a13c64c95e2ac0cf3a9f3fe10f412d221e4d6b2d2905ae72e0ad664736f6c63430008070033\n}\n",
				"bytecode": {
					"linkReferences": {},
					"object": "608060405234801561001057600080fd5b506040516102fd3803806102fd83398101604081905261002f91610054565b600080546001600160a01b0319166001600160a01b0392909216919091179055610084565b60006020828403121561006657600080fd5b81516001600160a01b038116811461007d57600080fd5b9392505050565b61026a806100936000396000f3fe608060405234801561001057600080fd5b50600436106100415760003560e01c8063d4b8399214610046578063deae91d414610076578063e9a937df1461008c575b600080fd5b600054610059906001600160a01b031681565b6040516001600160a01b0390911681526020015b60405180910390f35b61007e6100a1565b60405190815260200161006d565b61009461012d565b60405161006d91906101df565b60008060009054906101000a90046001600160a01b03166001600160a01b031663cdcd18da6040518163ffffffff1660e01b815260040160206040518083038186803b1580156100f057600080fd5b505afa158015610104573d6000803e3d6000fd5b505050506040513d601f19601f8201168201806040525081019061012891906101c6565b905090565b600080546040516060929182916001600160a01b039091169082818181855afa9150503d806000811461017c576040519150601f19603f3d011682016040523d82523d6000602084013e610181565b606091505b5091509150816101c05760405162461bcd60e51b815260206004820152600660248201526519985a5b195960d21b604482015260640160405180910390fd5b92915050565b6000602082840312156101d857600080fd5b5051919050565b600060208083528351808285015260005b8181101561020c578581018301518582016040015282016101f0565b8181111561021e576000604083870101525b50601f01601f191692909201604001939250505056fea2646970667358221220fc49c6ecd66a13c64c95e2ac0cf3a9f3fe10f412d221e4d6b2d2905ae72e0ad664736f6c63430008070033",
					"opcodes": "PUSH1 0x80 PUSH1 0x40 MSTORE CALLVALUE DUP1 ISZERO PUSH2 0x10 JUMPI PUSH1 0x0 DUP1 REVERT JUMPDEST POP PUSH1 0x40 MLOAD PUSH2 0x2FD CODESIZE SUB DUP1 PUSH2 0x2FD DUP4 CODECOPY DUP2 ADD PUSH1 0x40 DUP2 SWAP1 MSTORE PUSH2 0x2F SWAP2 PUSH2 0x54 JUMP JUMPDEST PUSH1 0x0 DUP1 SLOAD PUSH1 0x1 PUSH1 0x1 PUSH1 0xA0 SHL SUB NOT AND PUSH1 0x1 PUSH1 0x1 PUSH1 0xA0 SHL SUB SWAP3 SWAP1 SWAP3 AND SWAP2 SWAP1 SWAP2 OR SWAP1 SSTORE PUSH2 0x84 JUMP JUMPDEST PUSH1 0x0 PUSH1 0x20 DUP3 DUP5 SUB SLT ISZERO PUSH2 0x66 JUMPI PUSH1 0x0 DUP1 REVERT JUMPDEST DUP2 MLOAD PUSH1 0x1 PUSH1 0x1 PUSH1 0xA0 SHL SUB DUP2 AND DUP2 EQ PUSH2 0x7D JUMPI PUSH1 0x0 DUP1 REVERT JUMPDEST SWAP4 SWAP3 POP POP POP JUMP JUMPDEST PUSH2 0x26A DUP1 PUSH2 0x93 PUSH1 0x0 CODECOPY PUSH1 0x0 RETURN INVALID PUSH1 0x80 PUSH1 0x40 MSTORE CALLVALUE DUP1 ISZERO PUSH2 0x10 JUMPI PUSH1 0x0 DUP1 REVERT JUMPDEST POP PUSH1 0x4 CALLDATASIZE LT PUSH2 0x41 JUMPI PUSH1 0x0 CALLDATALOAD PUSH1 0xE0 SHR DUP1 PUSH4 0xD4B83992 EQ PUSH2 0x46 JUMPI DUP1 PUSH4 0xDEAE91D4 EQ PUSH2 0x76 JUMPI DUP1 PUSH4 0xE9A937DF EQ PUSH2 0x8C JUMPI JUMPDEST PUSH1 0x0 DUP1 REVERT JUMPDEST PUSH1 0x0 SLOAD PUSH2 0x59 SWAP1 PUSH1 0x1 PUSH1 0x1 PUSH1 0xA0 SHL SUB AND DUP2 JUMP JUMPDEST PUSH1 0x40 MLOAD PUSH1 0x1 PUSH1 0x1 PUSH1 0xA0 SHL SUB SWAP1 SWAP2 AND DUP2 MSTORE PUSH1 0x20 ADD JUMPDEST PUSH1 0x40 MLOAD DUP1 SWAP2 SUB SWAP1 RETURN JUMPDEST PUSH2 0x7E PUSH2 0xA1 JUMP JUMPDEST PUSH1 0x40 MLOAD SWAP1 DUP2 MSTORE PUSH1 0x20 ADD PUSH2 0x6D JUMP JUMPDEST PUSH2 0x94 PUSH2 0x12D JUMP JUMPDEST PUSH1 0x40 MLOAD PUSH2 0x6D SWAP2 SWAP1 PUSH2 0x1DF JUMP JUMPDEST PUSH1 0x0 DUP1 PUSH1 0x0 SWAP1 SLOAD SWAP1 PUSH2 0x100 EXP SWAP1 DIV PUSH1 0x1 PUSH1 0x1 PUSH1 0xA0 SHL SUB AND PUSH1 0x1 PUSH1 0x1 PUSH1 0xA0 SHL SUB AND PUSH4 0xCDCD18DA PUSH1 0x40 MLOAD DUP2 PUSH4 0xFFFFFFFF AND PUSH1 0xE0 SHL DUP2 MSTORE PUSH1 0x4 ADD PUSH1 0x20 PUSH1 0x40 MLOAD DUP1 DUP4 SUB DUP2 DUP7 DUP1 EXTCODESIZE ISZERO DUP1 ISZERO PUSH2 0xF0 JUMPI PUSH1 0x0 DUP1 REVERT JUMPDEST POP GAS STATICCALL ISZERO DUP1 ISZERO PUSH2 0x104 JUMPI RETURNDATASIZE PUSH1 0x0 DUP1 RETURNDATACOPY RETURNDATASIZE PUSH1 0x0 REVERT JUMPDEST POP POP POP POP PUSH1 0x40 MLOAD RETURNDATASIZE PUSH1 0x1F NOT PUSH1 0x1F DUP3 ADD AND DUP3 ADD DUP1 PUSH1 0x40 MSTORE POP DUP2 ADD SWAP1 PUSH2 0x128 SWAP2 SWAP1 PUSH2 0x1C6 JUMP JUMPDEST SWAP1 POP SWAP1 JUMP JUMPDEST PUSH1 0x0 DUP1 SLOAD PUSH1 0x40 MLOAD PUSH1 0x60 SWAP3 SWAP2 DUP3 SWAP2 PUSH1 0x1 PUSH1 0x1 PUSH1 0xA0 SHL SUB SWAP1 SWAP2 AND SWAP1 DUP3 DUP2 DUP2 DUP2 DUP6 GAS STATICCALL SWAP2 POP POP RETURNDATASIZE DUP1 PUSH1 0x0 DUP2 EQ PUSH2 0x17C JUMPI PUSH1 0x40 MLOAD SWAP2 POP PUSH1 0x1F NOT PUSH1 0x3F RETURNDATASIZE ADD AND DUP3 ADD PUSH1 0x40 MSTORE RETURNDATASIZE DUP3 MSTORE RETURNDATASIZE PUSH1 0x0 PUSH1 0x20 DUP5 ADD RETURNDATACOPY PUSH2 0x181 JUMP JUMPDEST PUSH1 0x60 SWAP2 POP JUMPDEST POP SWAP2 POP SWAP2 POP DUP2 PUSH2 0x1C0 JUMPI PUSH1 0x40 MLOAD PUSH3 0x461BCD PUSH1 0xE5 SHL DUP2 MSTORE PUSH1 0x20 PUSH1 0x4 DUP3 ADD MSTORE PUSH1 0x6 PUSH1 0x24 DUP3 ADD MSTORE PUSH6 0x19985A5B1959 PUSH1 0xD2 SHL PUSH1 0x44 DUP3 ADD MSTORE PUSH1 0x64 ADD PUSH1 0x40 MLOAD DUP1 SWAP2 SUB SWAP1 REVERT JUMPDEST SWAP3 SWAP2 POP POP JUMP JUMPDEST PUSH1 0x0 PUSH1 0x20 DUP3 DUP5 SUB SLT ISZERO PUSH2 0x1D8 JUMPI PUSH1 0x0 DUP1 REVERT JUMPDEST POP MLOAD SWAP2 SWAP1 POP JUMP JUMPDEST PUSH1 0x0 PUSH1 0x20 DUP1 DUP4 MSTORE DUP4 MLOAD DUP1 DUP3 DUP6 ADD MSTORE PUSH1 0x0 JUMPDEST DUP2 DUP2 LT ISZERO PUSH2 0x20C JUMPI DUP6 DUP2 ADD DUP4 ADD MLOAD DUP6 DUP3 ADD PUSH1 0x40 ADD MSTORE DUP3 ADD PUSH2 0x1F0 JUMP JUMPDEST DUP2 DUP2 GT ISZERO PUSH2 0x21E JUMPI PUSH1 0x0 PUSH1 0x40 DUP4 DUP8 ADD ADD MSTORE JUMPDEST POP PUSH1 0x1F ADD PUSH1 0x1F NOT AND SWAP3 SWAP1 SWAP3 ADD PUSH1 0x40 ADD SWAP4 SWAP3 POP POP POP JUMP INVALID LOG2 PUSH5 0x6970667358 0x22 SLT KECCAK256 0xFC 0x49 0xC6 0xEC 0xD6 PUSH11 0x13C64C95E2AC0CF3A9F3FE LT DELEGATECALL SLT 0xD2 0x21 0xE4 0xD6 0xB2 0xD2 SWAP1 GAS 0xE7 0x2E EXP 0xD6 PUSH5 0x736F6C6343 STOP ADDMOD SMOD STOP CALLER "
				},
				"gasEstimates": {
					"creation": {
						"codeDepositCost": "123600",
						"executionCost": "infinite",
						"totalCost": "infinite"
					},
					"external": {
						"callSimpleString()": "infinite",
						"callSimpleUint()": "infinite",
						"target()": "2304"
					}
				},
				"methodIdentifiers": {
					"callSimpleString()": "e9a937df",
					"callSimpleUint()": "deae91d4",
					"target()": "d4b83992"
				}
			},
			"storageLayout": {
				"storage": [
					{
						"astId": 10,
						"contract": "contracts/10_pureYulSolidity.sol:pureYulSolidity",
						"label": "target",
						"offset": 0,
						"slot": "0",
						"type": "t_contract(ISimple)7"
					}
				],
				"types": {
					"t_contract(ISimple)7": {
						"encoding": "inplace",
						"label": "contract ISimple",
						"numberOfBytes": "20"
					}
				}
			},
			"userdoc": {
				"kind": "user",
				"methods": {},
				"version": 1
			}
		}
	}
}