{
	"contracts/2_BasicOperation.sol": {
		"BasicOperation": {
			"abi": [
				{
					"inputs": [
						{
							"internalType": "uint256",
							"name": "num",
							"type": "uint256"
						}
					],
					"name": "isPrime",
					"outputs": [
						{
							"internalType": "bool",
							"name": "result",
							"type": "bool"
						}
					],
					"stateMutability": "pure",
					"type": "function"
				},
				{
					"inputs": [],
					"name": "test",
					"outputs": [],
					"stateMutability": "pure",
					"type": "function"
				}
			],
			"devdoc": {
				"kind": "dev",
				"methods": {},
				"version": 1
			},
			"evm": {
				"assembly": "    /* \"contracts/2_BasicOperation.sol\":57:715  contract BasicOperation {... */\n  mstore(0x40, 0x80)\n  callvalue\n  dup1\n  iszero\n  tag_1\n  jumpi\n  0x00\n  dup1\n  revert\ntag_1:\n  pop\n  dataSize(sub_0)\n  dup1\n  dataOffset(sub_0)\n  0x00\n  codecopy\n  0x00\n  return\nstop\n\nsub_0: assembly {\n        /* \"contracts/2_BasicOperation.sol\":57:715  contract BasicOperation {... */\n      mstore(0x40, 0x80)\n      callvalue\n      dup1\n      iszero\n      tag_1\n      jumpi\n      0x00\n      dup1\n      revert\n    tag_1:\n      pop\n      jumpi(tag_2, lt(calldatasize, 0x04))\n      shr(0xe0, calldataload(0x00))\n      dup1\n      0x42703494\n      eq\n      tag_3\n      jumpi\n      dup1\n      0xf8a8fd6d\n      eq\n      tag_4\n      jumpi\n    tag_2:\n      0x00\n      dup1\n      revert\n        /* \"contracts/2_BasicOperation.sol\":87:551  function isPrime(uint256 num) public pure returns (bool result) {... */\n    tag_3:\n      tag_5\n      0x04\n      dup1\n      calldatasize\n      sub\n      dup2\n      add\n      swap1\n      tag_6\n      swap2\n      swap1\n      tag_7\n      jump\t// in\n    tag_6:\n      tag_8\n      jump\t// in\n    tag_5:\n      mload(0x40)\n      tag_9\n      swap2\n      swap1\n      tag_10\n      jump\t// in\n    tag_9:\n      mload(0x40)\n      dup1\n      swap2\n      sub\n      swap1\n      return\n        /* \"contracts/2_BasicOperation.sol\":557:713  function test() external pure {... */\n    tag_4:\n      tag_11\n      tag_12\n      jump\t// in\n    tag_11:\n      stop\n        /* \"contracts/2_BasicOperation.sol\":87:551  function isPrime(uint256 num) public pure returns (bool result) {... */\n    tag_8:\n        /* \"contracts/2_BasicOperation.sol\":138:149  bool result */\n      0x00\n        /* \"contracts/2_BasicOperation.sol\":170:174  true */\n      0x01\n        /* \"contracts/2_BasicOperation.sol\":161:174  result = true */\n      swap1\n      pop\n        /* \"contracts/2_BasicOperation.sol\":239:240  1 */\n      0x01\n        /* \"contracts/2_BasicOperation.sol\":235:236  2 */\n      0x02\n        /* \"contracts/2_BasicOperation.sol\":230:233  num */\n      dup4\n        /* \"contracts/2_BasicOperation.sol\":226:237  div(num, 2) */\n      div\n        /* \"contracts/2_BasicOperation.sol\":222:241  add(div(num, 2), 1) */\n      add\n        /* \"contracts/2_BasicOperation.sol\":263:264  2 */\n      0x02\n        /* \"contracts/2_BasicOperation.sol\":277:535  for {... */\n    tag_14:\n        /* \"contracts/2_BasicOperation.sol\":304:311  halfNum */\n      dup2\n        /* \"contracts/2_BasicOperation.sol\":301:302  i */\n      dup2\n        /* \"contracts/2_BasicOperation.sol\":298:312  lt(i, halfNum) */\n      lt\n        /* \"contracts/2_BasicOperation.sol\":277:535  for {... */\n      iszero\n      tag_16\n      jumpi\n        /* \"contracts/2_BasicOperation.sol\":440:441  i */\n      dup1\n        /* \"contracts/2_BasicOperation.sol\":435:438  num */\n      dup5\n        /* \"contracts/2_BasicOperation.sol\":431:442  mod(num, i) */\n      mod\n        /* \"contracts/2_BasicOperation.sol\":421:521  if iszero(mod(num, i)) {... */\n      tag_17\n      jumpi\n        /* \"contracts/2_BasicOperation.sol\":476:477  0 */\n      0x00\n        /* \"contracts/2_BasicOperation.sol\":466:477  result := 0 */\n      swap3\n      pop\n        /* \"contracts/2_BasicOperation.sol\":498:503  break */\n      jump(tag_16)\n        /* \"contracts/2_BasicOperation.sol\":421:521  if iszero(mod(num, i)) {... */\n    tag_17:\n        /* \"contracts/2_BasicOperation.sol\":343:344  1 */\n      0x01\n        /* \"contracts/2_BasicOperation.sol\":340:341  i */\n      dup2\n        /* \"contracts/2_BasicOperation.sol\":336:345  add(i, 1) */\n      add\n        /* \"contracts/2_BasicOperation.sol\":331:345  i := add(i, 1) */\n      swap1\n      pop\n        /* \"contracts/2_BasicOperation.sol\":277:535  for {... */\n      jump(tag_14)\n    tag_16:\n        /* \"contracts/2_BasicOperation.sol\":193:545  {... */\n      pop\n      pop\n        /* \"contracts/2_BasicOperation.sol\":87:551  function isPrime(uint256 num) public pure returns (bool result) {... */\n      swap2\n      swap1\n      pop\n      jump\t// out\n        /* \"contracts/2_BasicOperation.sol\":557:713  function test() external pure {... */\n    tag_12:\n        /* \"contracts/2_BasicOperation.sol\":605:615  isPrime(2) */\n      tag_19\n        /* \"contracts/2_BasicOperation.sol\":613:614  2 */\n      0x02\n        /* \"contracts/2_BasicOperation.sol\":605:612  isPrime */\n      tag_8\n        /* \"contracts/2_BasicOperation.sol\":605:615  isPrime(2) */\n      jump\t// in\n    tag_19:\n        /* \"contracts/2_BasicOperation.sol\":597:616  require(isPrime(2)) */\n      tag_20\n      jumpi\n      0x00\n      dup1\n      revert\n    tag_20:\n        /* \"contracts/2_BasicOperation.sol\":634:644  isPrime(3) */\n      tag_21\n        /* \"contracts/2_BasicOperation.sol\":642:643  3 */\n      0x03\n        /* \"contracts/2_BasicOperation.sol\":634:641  isPrime */\n      tag_8\n        /* \"contracts/2_BasicOperation.sol\":634:644  isPrime(3) */\n      jump\t// in\n    tag_21:\n        /* \"contracts/2_BasicOperation.sol\":626:645  require(isPrime(3)) */\n      tag_22\n      jumpi\n      0x00\n      dup1\n      revert\n    tag_22:\n        /* \"contracts/2_BasicOperation.sol\":664:674  isPrime(4) */\n      tag_23\n        /* \"contracts/2_BasicOperation.sol\":672:673  4 */\n      0x04\n        /* \"contracts/2_BasicOperation.sol\":664:671  isPrime */\n      tag_8\n        /* \"contracts/2_BasicOperation.sol\":664:674  isPrime(4) */\n      jump\t// in\n    tag_23:\n        /* \"contracts/2_BasicOperation.sol\":663:674  !isPrime(4) */\n      iszero\n        /* \"contracts/2_BasicOperation.sol\":655:675  require(!isPrime(4)) */\n      tag_24\n      jumpi\n      0x00\n      dup1\n      revert\n    tag_24:\n        /* \"contracts/2_BasicOperation.sol\":694:705  isPrime(15) */\n      tag_25\n        /* \"contracts/2_BasicOperation.sol\":702:704  15 */\n      0x0f\n        /* \"contracts/2_BasicOperation.sol\":694:701  isPrime */\n      tag_8\n        /* \"contracts/2_BasicOperation.sol\":694:705  isPrime(15) */\n      jump\t// in\n    tag_25:\n        /* \"contracts/2_BasicOperation.sol\":693:705  !isPrime(15) */\n      iszero\n        /* \"contracts/2_BasicOperation.sol\":685:706  require(!isPrime(15)) */\n      tag_26\n      jumpi\n      0x00\n      dup1\n      revert\n    tag_26:\n        /* \"contracts/2_BasicOperation.sol\":557:713  function test() external pure {... */\n      jump\t// out\n        /* \"#utility.yul\":88:205   */\n    tag_28:\n        /* \"#utility.yul\":197:198   */\n      0x00\n        /* \"#utility.yul\":194:195   */\n      dup1\n        /* \"#utility.yul\":187:199   */\n      revert\n        /* \"#utility.yul\":334:411   */\n    tag_30:\n        /* \"#utility.yul\":371:378   */\n      0x00\n        /* \"#utility.yul\":400:405   */\n      dup2\n        /* \"#utility.yul\":389:405   */\n      swap1\n      pop\n        /* \"#utility.yul\":334:411   */\n      swap2\n      swap1\n      pop\n      jump\t// out\n        /* \"#utility.yul\":417:539   */\n    tag_31:\n        /* \"#utility.yul\":490:514   */\n      tag_41\n        /* \"#utility.yul\":508:513   */\n      dup2\n        /* \"#utility.yul\":490:514   */\n      tag_30\n      jump\t// in\n    tag_41:\n        /* \"#utility.yul\":483:488   */\n      dup2\n        /* \"#utility.yul\":480:515   */\n      eq\n        /* \"#utility.yul\":470:533   */\n      tag_42\n      jumpi\n        /* \"#utility.yul\":529:530   */\n      0x00\n        /* \"#utility.yul\":526:527   */\n      dup1\n        /* \"#utility.yul\":519:531   */\n      revert\n        /* \"#utility.yul\":470:533   */\n    tag_42:\n        /* \"#utility.yul\":417:539   */\n      pop\n      jump\t// out\n        /* \"#utility.yul\":545:684   */\n    tag_32:\n        /* \"#utility.yul\":591:596   */\n      0x00\n        /* \"#utility.yul\":629:635   */\n      dup2\n        /* \"#utility.yul\":616:636   */\n      calldataload\n        /* \"#utility.yul\":607:636   */\n      swap1\n      pop\n        /* \"#utility.yul\":645:678   */\n      tag_44\n        /* \"#utility.yul\":672:677   */\n      dup2\n        /* \"#utility.yul\":645:678   */\n      tag_31\n      jump\t// in\n    tag_44:\n        /* \"#utility.yul\":545:684   */\n      swap3\n      swap2\n      pop\n      pop\n      jump\t// out\n        /* \"#utility.yul\":690:1019   */\n    tag_7:\n        /* \"#utility.yul\":749:755   */\n      0x00\n        /* \"#utility.yul\":798:800   */\n      0x20\n        /* \"#utility.yul\":786:795   */\n      dup3\n        /* \"#utility.yul\":777:784   */\n      dup5\n        /* \"#utility.yul\":773:796   */\n      sub\n        /* \"#utility.yul\":769:801   */\n      slt\n        /* \"#utility.yul\":766:885   */\n      iszero\n      tag_46\n      jumpi\n        /* \"#utility.yul\":804:883   */\n      tag_47\n      tag_28\n      jump\t// in\n    tag_47:\n        /* \"#utility.yul\":766:885   */\n    tag_46:\n        /* \"#utility.yul\":924:925   */\n      0x00\n        /* \"#utility.yul\":949:1002   */\n      tag_48\n        /* \"#utility.yul\":994:1001   */\n      dup5\n        /* \"#utility.yul\":985:991   */\n      dup3\n        /* \"#utility.yul\":974:983   */\n      dup6\n        /* \"#utility.yul\":970:992   */\n      add\n        /* \"#utility.yul\":949:1002   */\n      tag_32\n      jump\t// in\n    tag_48:\n        /* \"#utility.yul\":939:1002   */\n      swap2\n      pop\n        /* \"#utility.yul\":895:1012   */\n      pop\n        /* \"#utility.yul\":690:1019   */\n      swap3\n      swap2\n      pop\n      pop\n      jump\t// out\n        /* \"#utility.yul\":1025:1115   */\n    tag_33:\n        /* \"#utility.yul\":1059:1066   */\n      0x00\n        /* \"#utility.yul\":1102:1107   */\n      dup2\n        /* \"#utility.yul\":1095:1108   */\n      iszero\n        /* \"#utility.yul\":1088:1109   */\n      iszero\n        /* \"#utility.yul\":1077:1109   */\n      swap1\n      pop\n        /* \"#utility.yul\":1025:1115   */\n      swap2\n      swap1\n      pop\n      jump\t// out\n        /* \"#utility.yul\":1121:1230   */\n    tag_34:\n        /* \"#utility.yul\":1202:1223   */\n      tag_51\n        /* \"#utility.yul\":1217:1222   */\n      dup2\n        /* \"#utility.yul\":1202:1223   */\n      tag_33\n      jump\t// in\n    tag_51:\n        /* \"#utility.yul\":1197:1200   */\n      dup3\n        /* \"#utility.yul\":1190:1224   */\n      mstore\n        /* \"#utility.yul\":1121:1230   */\n      pop\n      pop\n      jump\t// out\n        /* \"#utility.yul\":1236:1446   */\n    tag_10:\n        /* \"#utility.yul\":1323:1327   */\n      0x00\n        /* \"#utility.yul\":1361:1363   */\n      0x20\n        /* \"#utility.yul\":1350:1359   */\n      dup3\n        /* \"#utility.yul\":1346:1364   */\n      add\n        /* \"#utility.yul\":1338:1364   */\n      swap1\n      pop\n        /* \"#utility.yul\":1374:1439   */\n      tag_53\n        /* \"#utility.yul\":1436:1437   */\n      0x00\n        /* \"#utility.yul\":1425:1434   */\n      dup4\n        /* \"#utility.yul\":1421:1438   */\n      add\n        /* \"#utility.yul\":1412:1418   */\n      dup5\n        /* \"#utility.yul\":1374:1439   */\n      tag_34\n      jump\t// in\n    tag_53:\n        /* \"#utility.yul\":1236:1446   */\n      swap3\n      swap2\n      pop\n      pop\n      jump\t// out\n\n    auxdata: 0xa264697066735822122063c4b2b3fd79cfc7c1447ef65eb2430afbf3c6695d7b7871f76833fd139f486c64736f6c63430008110033\n}\n",
				"bytecode": {
					"linkReferences": {},
					"object": "608060405234801561001057600080fd5b506101d3806100206000396000f3fe608060405234801561001057600080fd5b50600436106100365760003560e01c8063427034941461003b578063f8a8fd6d1461006b575b600080fd5b6100556004803603810190610050919061013a565b610075565b6040516100629190610182565b60405180910390f35b6100736100af565b005b6000600190506001600283040160025b818110156100a85780840661009d57600092506100a8565b600181019050610085565b5050919050565b6100b96002610075565b6100c257600080fd5b6100cc6003610075565b6100d557600080fd5b6100df6004610075565b156100e957600080fd5b6100f3600f610075565b156100fd57600080fd5b565b600080fd5b6000819050919050565b61011781610104565b811461012257600080fd5b50565b6000813590506101348161010e565b92915050565b6000602082840312156101505761014f6100ff565b5b600061015e84828501610125565b91505092915050565b60008115159050919050565b61017c81610167565b82525050565b60006020820190506101976000830184610173565b9291505056fea264697066735822122063c4b2b3fd79cfc7c1447ef65eb2430afbf3c6695d7b7871f76833fd139f486c64736f6c63430008110033",
					"opcodes": "PUSH1 0x80 PUSH1 0x40 MSTORE CALLVALUE DUP1 ISZERO PUSH2 0x10 JUMPI PUSH1 0x0 DUP1 REVERT JUMPDEST POP PUSH2 0x1D3 DUP1 PUSH2 0x20 PUSH1 0x0 CODECOPY PUSH1 0x0 RETURN INVALID PUSH1 0x80 PUSH1 0x40 MSTORE CALLVALUE DUP1 ISZERO PUSH2 0x10 JUMPI PUSH1 0x0 DUP1 REVERT JUMPDEST POP PUSH1 0x4 CALLDATASIZE LT PUSH2 0x36 JUMPI PUSH1 0x0 CALLDATALOAD PUSH1 0xE0 SHR DUP1 PUSH4 0x42703494 EQ PUSH2 0x3B JUMPI DUP1 PUSH4 0xF8A8FD6D EQ PUSH2 0x6B JUMPI JUMPDEST PUSH1 0x0 DUP1 REVERT JUMPDEST PUSH2 0x55 PUSH1 0x4 DUP1 CALLDATASIZE SUB DUP2 ADD SWAP1 PUSH2 0x50 SWAP2 SWAP1 PUSH2 0x13A JUMP JUMPDEST PUSH2 0x75 JUMP JUMPDEST PUSH1 0x40 MLOAD PUSH2 0x62 SWAP2 SWAP1 PUSH2 0x182 JUMP JUMPDEST PUSH1 0x40 MLOAD DUP1 SWAP2 SUB SWAP1 RETURN JUMPDEST PUSH2 0x73 PUSH2 0xAF JUMP JUMPDEST STOP JUMPDEST PUSH1 0x0 PUSH1 0x1 SWAP1 POP PUSH1 0x1 PUSH1 0x2 DUP4 DIV ADD PUSH1 0x2 JUMPDEST DUP2 DUP2 LT ISZERO PUSH2 0xA8 JUMPI DUP1 DUP5 MOD PUSH2 0x9D JUMPI PUSH1 0x0 SWAP3 POP PUSH2 0xA8 JUMP JUMPDEST PUSH1 0x1 DUP2 ADD SWAP1 POP PUSH2 0x85 JUMP JUMPDEST POP POP SWAP2 SWAP1 POP JUMP JUMPDEST PUSH2 0xB9 PUSH1 0x2 PUSH2 0x75 JUMP JUMPDEST PUSH2 0xC2 JUMPI PUSH1 0x0 DUP1 REVERT JUMPDEST PUSH2 0xCC PUSH1 0x3 PUSH2 0x75 JUMP JUMPDEST PUSH2 0xD5 JUMPI PUSH1 0x0 DUP1 REVERT JUMPDEST PUSH2 0xDF PUSH1 0x4 PUSH2 0x75 JUMP JUMPDEST ISZERO PUSH2 0xE9 JUMPI PUSH1 0x0 DUP1 REVERT JUMPDEST PUSH2 0xF3 PUSH1 0xF PUSH2 0x75 JUMP JUMPDEST ISZERO PUSH2 0xFD JUMPI PUSH1 0x0 DUP1 REVERT JUMPDEST JUMP JUMPDEST PUSH1 0x0 DUP1 REVERT JUMPDEST PUSH1 0x0 DUP2 SWAP1 POP SWAP2 SWAP1 POP JUMP JUMPDEST PUSH2 0x117 DUP2 PUSH2 0x104 JUMP JUMPDEST DUP2 EQ PUSH2 0x122 JUMPI PUSH1 0x0 DUP1 REVERT JUMPDEST POP JUMP JUMPDEST PUSH1 0x0 DUP2 CALLDATALOAD SWAP1 POP PUSH2 0x134 DUP2 PUSH2 0x10E JUMP JUMPDEST SWAP3 SWAP2 POP POP JUMP JUMPDEST PUSH1 0x0 PUSH1 0x20 DUP3 DUP5 SUB SLT ISZERO PUSH2 0x150 JUMPI PUSH2 0x14F PUSH2 0xFF JUMP JUMPDEST JUMPDEST PUSH1 0x0 PUSH2 0x15E DUP5 DUP3 DUP6 ADD PUSH2 0x125 JUMP JUMPDEST SWAP2 POP POP SWAP3 SWAP2 POP POP JUMP JUMPDEST PUSH1 0x0 DUP2 ISZERO ISZERO SWAP1 POP SWAP2 SWAP1 POP JUMP JUMPDEST PUSH2 0x17C DUP2 PUSH2 0x167 JUMP JUMPDEST DUP3 MSTORE POP POP JUMP JUMPDEST PUSH1 0x0 PUSH1 0x20 DUP3 ADD SWAP1 POP PUSH2 0x197 PUSH1 0x0 DUP4 ADD DUP5 PUSH2 0x173 JUMP JUMPDEST SWAP3 SWAP2 POP POP JUMP INVALID LOG2 PUSH5 0x6970667358 0x22 SLT KECCAK256 PUSH4 0xC4B2B3FD PUSH26 0xCFC7C1447EF65EB2430AFBF3C6695D7B7871F76833FD139F486C PUSH5 0x736F6C6343 STOP ADDMOD GT STOP CALLER "
				},
				"gasEstimates": {
					"creation": {
						"codeDepositCost": "93400",
						"executionCost": "141",
						"totalCost": "93541"
					},
					"external": {
						"isPrime(uint256)": "infinite",
						"test()": "infinite"
					}
				},
				"methodIdentifiers": {
					"isPrime(uint256)": "42703494",
					"test()": "f8a8fd6d"
				}
			},
			"storageLayout": {
				"storage": [],
				"types": null
			},
			"userdoc": {
				"kind": "user",
				"methods": {},
				"version": 1
			}
		}
	}
}