{
	"contracts/2_BasicOperation.sol": {
		"IfComparison": {
			"abi": [
				{
					"inputs": [],
					"name": "btFlip",
					"outputs": [
						{
							"internalType": "bytes32",
							"name": "result",
							"type": "bytes32"
						}
					],
					"stateMutability": "pure",
					"type": "function"
				},
				{
					"inputs": [],
					"name": "isFalsy",
					"outputs": [
						{
							"internalType": "uint256",
							"name": "result",
							"type": "uint256"
						}
					],
					"stateMutability": "pure",
					"type": "function"
				},
				{
					"inputs": [],
					"name": "isTruthy",
					"outputs": [
						{
							"internalType": "uint256",
							"name": "result",
							"type": "uint256"
						}
					],
					"stateMutability": "pure",
					"type": "function"
				},
				{
					"inputs": [
						{
							"internalType": "uint256",
							"name": "x",
							"type": "uint256"
						},
						{
							"internalType": "uint256",
							"name": "y",
							"type": "uint256"
						}
					],
					"name": "max",
					"outputs": [
						{
							"internalType": "uint256",
							"name": "maximum",
							"type": "uint256"
						}
					],
					"stateMutability": "pure",
					"type": "function"
				},
				{
					"inputs": [],
					"name": "negation",
					"outputs": [
						{
							"internalType": "uint256",
							"name": "result",
							"type": "uint256"
						}
					],
					"stateMutability": "pure",
					"type": "function"
				},
				{
					"inputs": [],
					"name": "safeNegation",
					"outputs": [
						{
							"internalType": "uint256",
							"name": "result",
							"type": "uint256"
						}
					],
					"stateMutability": "pure",
					"type": "function"
				},
				{
					"inputs": [],
					"name": "unsafe1NegationPart1",
					"outputs": [
						{
							"internalType": "uint256",
							"name": "result",
							"type": "uint256"
						}
					],
					"stateMutability": "pure",
					"type": "function"
				},
				{
					"inputs": [],
					"name": "unsafe2NegationPart2",
					"outputs": [
						{
							"internalType": "uint256",
							"name": "result",
							"type": "uint256"
						}
					],
					"stateMutability": "pure",
					"type": "function"
				}
			],
			"devdoc": {
				"kind": "dev",
				"methods": {},
				"version": 1
			},
			"evm": {
				"assembly": "    /* \"contracts/2_BasicOperation.sol\":717:3399  contract IfComparison {... */\n  mstore(0x40, 0x80)\n  callvalue\n  dup1\n  iszero\n  tag_1\n  jumpi\n  0x00\n  dup1\n  revert\ntag_1:\n  pop\n  dataSize(sub_0)\n  dup1\n  dataOffset(sub_0)\n  0x00\n  codecopy\n  0x00\n  return\nstop\n\nsub_0: assembly {\n        /* \"contracts/2_BasicOperation.sol\":717:3399  contract IfComparison {... */\n      mstore(0x40, 0x80)\n      callvalue\n      dup1\n      iszero\n      tag_1\n      jumpi\n      0x00\n      dup1\n      revert\n    tag_1:\n      pop\n      jumpi(tag_2, lt(calldatasize, 0x04))\n      shr(0xe0, calldataload(0x00))\n      dup1\n      0x8a42e16c\n      gt\n      tag_11\n      jumpi\n      dup1\n      0x8a42e16c\n      eq\n      tag_7\n      jumpi\n      dup1\n      0xaa40eb14\n      eq\n      tag_8\n      jumpi\n      dup1\n      0xf3893f27\n      eq\n      tag_9\n      jumpi\n      dup1\n      0xfc27de12\n      eq\n      tag_10\n      jumpi\n      jump(tag_2)\n    tag_11:\n      dup1\n      0x336c96f8\n      eq\n      tag_3\n      jumpi\n      dup1\n      0x41f563e3\n      eq\n      tag_4\n      jumpi\n      dup1\n      0x5f0d90c6\n      eq\n      tag_5\n      jumpi\n      dup1\n      0x6d5433e6\n      eq\n      tag_6\n      jumpi\n    tag_2:\n      0x00\n      dup1\n      revert\n        /* \"contracts/2_BasicOperation.sol\":1155:1362  function negation() external pure returns (uint256 result) {... */\n    tag_3:\n      tag_12\n      tag_13\n      jump\t// in\n    tag_12:\n      mload(0x40)\n      tag_14\n      swap2\n      swap1\n      tag_15\n      jump\t// in\n    tag_14:\n      mload(0x40)\n      dup1\n      swap2\n      sub\n      swap1\n      return\n        /* \"contracts/2_BasicOperation.sol\":745:945  function isTruthy() external pure returns (uint256 result) {... */\n    tag_4:\n      tag_16\n      tag_17\n      jump\t// in\n    tag_16:\n      mload(0x40)\n      tag_18\n      swap2\n      swap1\n      tag_15\n      jump\t// in\n    tag_18:\n      mload(0x40)\n      dup1\n      swap2\n      sub\n      swap1\n      return\n        /* \"contracts/2_BasicOperation.sol\":951:1149  function isFalsy() external pure returns (uint256 result) {... */\n    tag_5:\n      tag_19\n      tag_20\n      jump\t// in\n    tag_19:\n      mload(0x40)\n      tag_21\n      swap2\n      swap1\n      tag_15\n      jump\t// in\n    tag_21:\n      mload(0x40)\n      dup1\n      swap2\n      sub\n      swap1\n      return\n        /* \"contracts/2_BasicOperation.sol\":2180:2507  function max(uint256 x, uint256 y) external pure returns (uint256 maximum) {... */\n    tag_6:\n      tag_22\n      0x04\n      dup1\n      calldatasize\n      sub\n      dup2\n      add\n      swap1\n      tag_23\n      swap2\n      swap1\n      tag_24\n      jump\t// in\n    tag_23:\n      tag_25\n      jump\t// in\n    tag_22:\n      mload(0x40)\n      tag_26\n      swap2\n      swap1\n      tag_15\n      jump\t// in\n    tag_26:\n      mload(0x40)\n      dup1\n      swap2\n      sub\n      swap1\n      return\n        /* \"contracts/2_BasicOperation.sol\":1590:1735  function btFlip() external pure returns (bytes32 result) {... */\n    tag_7:\n      tag_27\n      tag_28\n      jump\t// in\n    tag_27:\n      mload(0x40)\n      tag_29\n      swap2\n      swap1\n      tag_30\n      jump\t// in\n    tag_29:\n      mload(0x40)\n      dup1\n      swap2\n      sub\n      swap1\n      return\n        /* \"contracts/2_BasicOperation.sol\":1741:1957  function unsafe2NegationPart2() external pure returns (uint256 result) {... */\n    tag_8:\n      tag_31\n      tag_32\n      jump\t// in\n    tag_31:\n      mload(0x40)\n      tag_33\n      swap2\n      swap1\n      tag_15\n      jump\t// in\n    tag_33:\n      mload(0x40)\n      dup1\n      swap2\n      sub\n      swap1\n      return\n        /* \"contracts/2_BasicOperation.sol\":1368:1584  function unsafe1NegationPart1() external pure returns (uint256 result) {... */\n    tag_9:\n      tag_34\n      tag_35\n      jump\t// in\n    tag_34:\n      mload(0x40)\n      tag_36\n      swap2\n      swap1\n      tag_15\n      jump\t// in\n    tag_36:\n      mload(0x40)\n      dup1\n      swap2\n      sub\n      swap1\n      return\n        /* \"contracts/2_BasicOperation.sol\":1963:2174  function safeNegation() external pure returns (uint256 result) {... */\n    tag_10:\n      tag_37\n      tag_38\n      jump\t// in\n    tag_37:\n      mload(0x40)\n      tag_39\n      swap2\n      swap1\n      tag_15\n      jump\t// in\n    tag_39:\n      mload(0x40)\n      dup1\n      swap2\n      sub\n      swap1\n      return\n        /* \"contracts/2_BasicOperation.sol\":1155:1362  function negation() external pure returns (uint256 result) {... */\n    tag_13:\n        /* \"contracts/2_BasicOperation.sol\":1198:1212  uint256 result */\n      0x00\n        /* \"contracts/2_BasicOperation.sol\":1233:1234  1 */\n      0x01\n        /* \"contracts/2_BasicOperation.sol\":1224:1234  result = 1 */\n      swap1\n      pop\n        /* \"contracts/2_BasicOperation.sol\":1277:1278  0 */\n      0x00\n        /* \"contracts/2_BasicOperation.sol\":1267:1323  if iszero(0) {... */\n      tag_41\n      jumpi\n        /* \"contracts/2_BasicOperation.sol\":1308:1309  2 */\n      0x02\n        /* \"contracts/2_BasicOperation.sol\":1298:1309  result := 2 */\n      swap1\n      pop\n        /* \"contracts/2_BasicOperation.sol\":1267:1323  if iszero(0) {... */\n    tag_41:\n        /* \"contracts/2_BasicOperation.sol\":1155:1362  function negation() external pure returns (uint256 result) {... */\n      swap1\n      jump\t// out\n        /* \"contracts/2_BasicOperation.sol\":745:945  function isTruthy() external pure returns (uint256 result) {... */\n    tag_17:\n        /* \"contracts/2_BasicOperation.sol\":788:802  uint256 result */\n      0x00\n        /* \"contracts/2_BasicOperation.sol\":823:824  1 */\n      0x01\n        /* \"contracts/2_BasicOperation.sol\":814:824  result = 1 */\n      swap1\n      pop\n        /* \"contracts/2_BasicOperation.sol\":861:862  2 */\n      0x02\n        /* \"contracts/2_BasicOperation.sol\":858:906  if 2 {... */\n      iszero\n      tag_43\n      jumpi\n        /* \"contracts/2_BasicOperation.sol\":891:892  2 */\n      0x02\n        /* \"contracts/2_BasicOperation.sol\":881:892  result := 2 */\n      swap1\n      pop\n        /* \"contracts/2_BasicOperation.sol\":858:906  if 2 {... */\n    tag_43:\n        /* \"contracts/2_BasicOperation.sol\":745:945  function isTruthy() external pure returns (uint256 result) {... */\n      swap1\n      jump\t// out\n        /* \"contracts/2_BasicOperation.sol\":951:1149  function isFalsy() external pure returns (uint256 result) {... */\n    tag_20:\n        /* \"contracts/2_BasicOperation.sol\":993:1007  uint256 result */\n      0x00\n        /* \"contracts/2_BasicOperation.sol\":1028:1029  1 */\n      0x01\n        /* \"contracts/2_BasicOperation.sol\":1019:1029  result = 1 */\n      swap1\n      pop\n        /* \"contracts/2_BasicOperation.sol\":1065:1066  0 */\n      0x00\n        /* \"contracts/2_BasicOperation.sol\":1062:1110  if 0 {... */\n      iszero\n      tag_45\n      jumpi\n        /* \"contracts/2_BasicOperation.sol\":1095:1096  2 */\n      0x02\n        /* \"contracts/2_BasicOperation.sol\":1085:1096  result := 2 */\n      swap1\n      pop\n        /* \"contracts/2_BasicOperation.sol\":1062:1110  if 0 {... */\n    tag_45:\n        /* \"contracts/2_BasicOperation.sol\":951:1149  function isFalsy() external pure returns (uint256 result) {... */\n      swap1\n      jump\t// out\n        /* \"contracts/2_BasicOperation.sol\":2180:2507  function max(uint256 x, uint256 y) external pure returns (uint256 maximum) {... */\n    tag_25:\n        /* \"contracts/2_BasicOperation.sol\":2238:2253  uint256 maximum */\n      0x00\n        /* \"contracts/2_BasicOperation.sol\":2297:2298  y */\n      dup2\n        /* \"contracts/2_BasicOperation.sol\":2294:2295  x */\n      dup4\n        /* \"contracts/2_BasicOperation.sol\":2291:2299  lt(x, y) */\n      lt\n        /* \"contracts/2_BasicOperation.sol\":2288:2344  if lt(x, y) {... */\n      iszero\n      tag_47\n      jumpi\n        /* \"contracts/2_BasicOperation.sol\":2329:2330  y */\n      dup2\n        /* \"contracts/2_BasicOperation.sol\":2318:2330  maximum := y */\n      swap1\n      pop\n        /* \"contracts/2_BasicOperation.sol\":2288:2344  if lt(x, y) {... */\n    tag_47:\n        /* \"contracts/2_BasicOperation.sol\":2373:2374  y */\n      dup2\n        /* \"contracts/2_BasicOperation.sol\":2370:2371  x */\n      dup4\n        /* \"contracts/2_BasicOperation.sol\":2367:2375  lt(x, y) */\n      lt\n        /* \"contracts/2_BasicOperation.sol\":2357:2467  if iszero(lt(x, y)) {... */\n      tag_48\n      jumpi\n        /* \"contracts/2_BasicOperation.sol\":2452:2453  x */\n      dup3\n        /* \"contracts/2_BasicOperation.sol\":2441:2453  maximum := x */\n      swap1\n      pop\n        /* \"contracts/2_BasicOperation.sol\":2357:2467  if iszero(lt(x, y)) {... */\n    tag_48:\n        /* \"contracts/2_BasicOperation.sol\":2180:2507  function max(uint256 x, uint256 y) external pure returns (uint256 maximum) {... */\n      swap3\n      swap2\n      pop\n      pop\n      jump\t// out\n        /* \"contracts/2_BasicOperation.sol\":1590:1735  function btFlip() external pure returns (bytes32 result) {... */\n    tag_28:\n        /* \"contracts/2_BasicOperation.sol\":1631:1645  bytes32 result */\n      0x00\n        /* \"contracts/2_BasicOperation.sol\":1694:1695  2 */\n      0x02\n        /* \"contracts/2_BasicOperation.sol\":1690:1696  not(2) */\n      not\n        /* \"contracts/2_BasicOperation.sol\":1680:1696  result := not(2) */\n      swap1\n      pop\n        /* \"contracts/2_BasicOperation.sol\":1590:1735  function btFlip() external pure returns (bytes32 result) {... */\n      swap1\n      jump\t// out\n        /* \"contracts/2_BasicOperation.sol\":1741:1957  function unsafe2NegationPart2() external pure returns (uint256 result) {... */\n    tag_32:\n        /* \"contracts/2_BasicOperation.sol\":1796:1810  uint256 result */\n      0x00\n        /* \"contracts/2_BasicOperation.sol\":1831:1832  1 */\n      0x01\n        /* \"contracts/2_BasicOperation.sol\":1822:1832  result = 1 */\n      swap1\n      pop\n        /* \"contracts/2_BasicOperation.sol\":1872:1873  2 */\n      0x02\n        /* \"contracts/2_BasicOperation.sol\":1868:1874  not(2) */\n      not\n        /* \"contracts/2_BasicOperation.sol\":1865:1918  if not(2) {... */\n      iszero\n      tag_51\n      jumpi\n        /* \"contracts/2_BasicOperation.sol\":1903:1904  2 */\n      0x02\n        /* \"contracts/2_BasicOperation.sol\":1893:1904  result := 2 */\n      swap1\n      pop\n        /* \"contracts/2_BasicOperation.sol\":1865:1918  if not(2) {... */\n    tag_51:\n        /* \"contracts/2_BasicOperation.sol\":1741:1957  function unsafe2NegationPart2() external pure returns (uint256 result) {... */\n      swap1\n      jump\t// out\n        /* \"contracts/2_BasicOperation.sol\":1368:1584  function unsafe1NegationPart1() external pure returns (uint256 result) {... */\n    tag_35:\n        /* \"contracts/2_BasicOperation.sol\":1423:1437  uint256 result */\n      0x00\n        /* \"contracts/2_BasicOperation.sol\":1458:1459  1 */\n      0x01\n        /* \"contracts/2_BasicOperation.sol\":1449:1459  result = 1 */\n      swap1\n      pop\n        /* \"contracts/2_BasicOperation.sol\":1499:1500  0 */\n      0x00\n        /* \"contracts/2_BasicOperation.sol\":1495:1501  not(0) */\n      not\n        /* \"contracts/2_BasicOperation.sol\":1492:1545  if not(0) {... */\n      iszero\n      tag_53\n      jumpi\n        /* \"contracts/2_BasicOperation.sol\":1530:1531  2 */\n      0x02\n        /* \"contracts/2_BasicOperation.sol\":1520:1531  result := 2 */\n      swap1\n      pop\n        /* \"contracts/2_BasicOperation.sol\":1492:1545  if not(0) {... */\n    tag_53:\n        /* \"contracts/2_BasicOperation.sol\":1368:1584  function unsafe1NegationPart1() external pure returns (uint256 result) {... */\n      swap1\n      jump\t// out\n        /* \"contracts/2_BasicOperation.sol\":1963:2174  function safeNegation() external pure returns (uint256 result) {... */\n    tag_38:\n        /* \"contracts/2_BasicOperation.sol\":2010:2024  uint256 result */\n      0x00\n        /* \"contracts/2_BasicOperation.sol\":2045:2046  1 */\n      0x01\n        /* \"contracts/2_BasicOperation.sol\":2036:2046  result = 1 */\n      swap1\n      pop\n        /* \"contracts/2_BasicOperation.sol\":2089:2090  2 */\n      0x02\n        /* \"contracts/2_BasicOperation.sol\":2079:2135  if iszero(2) {... */\n      tag_55\n      jumpi\n        /* \"contracts/2_BasicOperation.sol\":2120:2121  2 */\n      0x02\n        /* \"contracts/2_BasicOperation.sol\":2110:2121  result := 2 */\n      swap1\n      pop\n        /* \"contracts/2_BasicOperation.sol\":2079:2135  if iszero(2) {... */\n    tag_55:\n        /* \"contracts/2_BasicOperation.sol\":1963:2174  function safeNegation() external pure returns (uint256 result) {... */\n      swap1\n      jump\t// out\n        /* \"#utility.yul\":7:84   */\n    tag_56:\n        /* \"#utility.yul\":44:51   */\n      0x00\n        /* \"#utility.yul\":73:78   */\n      dup2\n        /* \"#utility.yul\":62:78   */\n      swap1\n      pop\n        /* \"#utility.yul\":7:84   */\n      swap2\n      swap1\n      pop\n      jump\t// out\n        /* \"#utility.yul\":90:208   */\n    tag_57:\n        /* \"#utility.yul\":177:201   */\n      tag_68\n        /* \"#utility.yul\":195:200   */\n      dup2\n        /* \"#utility.yul\":177:201   */\n      tag_56\n      jump\t// in\n    tag_68:\n        /* \"#utility.yul\":172:175   */\n      dup3\n        /* \"#utility.yul\":165:202   */\n      mstore\n        /* \"#utility.yul\":90:208   */\n      pop\n      pop\n      jump\t// out\n        /* \"#utility.yul\":214:436   */\n    tag_15:\n        /* \"#utility.yul\":307:311   */\n      0x00\n        /* \"#utility.yul\":345:347   */\n      0x20\n        /* \"#utility.yul\":334:343   */\n      dup3\n        /* \"#utility.yul\":330:348   */\n      add\n        /* \"#utility.yul\":322:348   */\n      swap1\n      pop\n        /* \"#utility.yul\":358:429   */\n      tag_70\n        /* \"#utility.yul\":426:427   */\n      0x00\n        /* \"#utility.yul\":415:424   */\n      dup4\n        /* \"#utility.yul\":411:428   */\n      add\n        /* \"#utility.yul\":402:408   */\n      dup5\n        /* \"#utility.yul\":358:429   */\n      tag_57\n      jump\t// in\n    tag_70:\n        /* \"#utility.yul\":214:436   */\n      swap3\n      swap2\n      pop\n      pop\n      jump\t// out\n        /* \"#utility.yul\":523:640   */\n    tag_59:\n        /* \"#utility.yul\":632:633   */\n      0x00\n        /* \"#utility.yul\":629:630   */\n      dup1\n        /* \"#utility.yul\":622:634   */\n      revert\n        /* \"#utility.yul\":769:891   */\n    tag_61:\n        /* \"#utility.yul\":842:866   */\n      tag_75\n        /* \"#utility.yul\":860:865   */\n      dup2\n        /* \"#utility.yul\":842:866   */\n      tag_56\n      jump\t// in\n    tag_75:\n        /* \"#utility.yul\":835:840   */\n      dup2\n        /* \"#utility.yul\":832:867   */\n      eq\n        /* \"#utility.yul\":822:885   */\n      tag_76\n      jumpi\n        /* \"#utility.yul\":881:882   */\n      0x00\n        /* \"#utility.yul\":878:879   */\n      dup1\n        /* \"#utility.yul\":871:883   */\n      revert\n        /* \"#utility.yul\":822:885   */\n    tag_76:\n        /* \"#utility.yul\":769:891   */\n      pop\n      jump\t// out\n        /* \"#utility.yul\":897:1036   */\n    tag_62:\n        /* \"#utility.yul\":943:948   */\n      0x00\n        /* \"#utility.yul\":981:987   */\n      dup2\n        /* \"#utility.yul\":968:988   */\n      calldataload\n        /* \"#utility.yul\":959:988   */\n      swap1\n      pop\n        /* \"#utility.yul\":997:1030   */\n      tag_78\n        /* \"#utility.yul\":1024:1029   */\n      dup2\n        /* \"#utility.yul\":997:1030   */\n      tag_61\n      jump\t// in\n    tag_78:\n        /* \"#utility.yul\":897:1036   */\n      swap3\n      swap2\n      pop\n      pop\n      jump\t// out\n        /* \"#utility.yul\":1042:1516   */\n    tag_24:\n        /* \"#utility.yul\":1110:1116   */\n      0x00\n        /* \"#utility.yul\":1118:1124   */\n      dup1\n        /* \"#utility.yul\":1167:1169   */\n      0x40\n        /* \"#utility.yul\":1155:1164   */\n      dup4\n        /* \"#utility.yul\":1146:1153   */\n      dup6\n        /* \"#utility.yul\":1142:1165   */\n      sub\n        /* \"#utility.yul\":1138:1170   */\n      slt\n        /* \"#utility.yul\":1135:1254   */\n      iszero\n      tag_80\n      jumpi\n        /* \"#utility.yul\":1173:1252   */\n      tag_81\n      tag_59\n      jump\t// in\n    tag_81:\n        /* \"#utility.yul\":1135:1254   */\n    tag_80:\n        /* \"#utility.yul\":1293:1294   */\n      0x00\n        /* \"#utility.yul\":1318:1371   */\n      tag_82\n        /* \"#utility.yul\":1363:1370   */\n      dup6\n        /* \"#utility.yul\":1354:1360   */\n      dup3\n        /* \"#utility.yul\":1343:1352   */\n      dup7\n        /* \"#utility.yul\":1339:1361   */\n      add\n        /* \"#utility.yul\":1318:1371   */\n      tag_62\n      jump\t// in\n    tag_82:\n        /* \"#utility.yul\":1308:1371   */\n      swap3\n      pop\n        /* \"#utility.yul\":1264:1381   */\n      pop\n        /* \"#utility.yul\":1420:1422   */\n      0x20\n        /* \"#utility.yul\":1446:1499   */\n      tag_83\n        /* \"#utility.yul\":1491:1498   */\n      dup6\n        /* \"#utility.yul\":1482:1488   */\n      dup3\n        /* \"#utility.yul\":1471:1480   */\n      dup7\n        /* \"#utility.yul\":1467:1489   */\n      add\n        /* \"#utility.yul\":1446:1499   */\n      tag_62\n      jump\t// in\n    tag_83:\n        /* \"#utility.yul\":1436:1499   */\n      swap2\n      pop\n        /* \"#utility.yul\":1391:1509   */\n      pop\n        /* \"#utility.yul\":1042:1516   */\n      swap3\n      pop\n      swap3\n      swap1\n      pop\n      jump\t// out\n        /* \"#utility.yul\":1522:1599   */\n    tag_63:\n        /* \"#utility.yul\":1559:1566   */\n      0x00\n        /* \"#utility.yul\":1588:1593   */\n      dup2\n        /* \"#utility.yul\":1577:1593   */\n      swap1\n      pop\n        /* \"#utility.yul\":1522:1599   */\n      swap2\n      swap1\n      pop\n      jump\t// out\n        /* \"#utility.yul\":1605:1723   */\n    tag_64:\n        /* \"#utility.yul\":1692:1716   */\n      tag_86\n        /* \"#utility.yul\":1710:1715   */\n      dup2\n        /* \"#utility.yul\":1692:1716   */\n      tag_63\n      jump\t// in\n    tag_86:\n        /* \"#utility.yul\":1687:1690   */\n      dup3\n        /* \"#utility.yul\":1680:1717   */\n      mstore\n        /* \"#utility.yul\":1605:1723   */\n      pop\n      pop\n      jump\t// out\n        /* \"#utility.yul\":1729:1951   */\n    tag_30:\n        /* \"#utility.yul\":1822:1826   */\n      0x00\n        /* \"#utility.yul\":1860:1862   */\n      0x20\n        /* \"#utility.yul\":1849:1858   */\n      dup3\n        /* \"#utility.yul\":1845:1863   */\n      add\n        /* \"#utility.yul\":1837:1863   */\n      swap1\n      pop\n        /* \"#utility.yul\":1873:1944   */\n      tag_88\n        /* \"#utility.yul\":1941:1942   */\n      0x00\n        /* \"#utility.yul\":1930:1939   */\n      dup4\n        /* \"#utility.yul\":1926:1943   */\n      add\n        /* \"#utility.yul\":1917:1923   */\n      dup5\n        /* \"#utility.yul\":1873:1944   */\n      tag_64\n      jump\t// in\n    tag_88:\n        /* \"#utility.yul\":1729:1951   */\n      swap3\n      swap2\n      pop\n      pop\n      jump\t// out\n\n    auxdata: 0xa2646970667358221220c0630a22fc62283c3846170be7191cababf9dc3e09171897d218b8107b747ca464736f6c63430008110033\n}\n",
				"bytecode": {
					"linkReferences": {},
					"object": "608060405234801561001057600080fd5b50610345806100206000396000f3fe608060405234801561001057600080fd5b50600436106100885760003560e01c80638a42e16c1161005b5780638a42e16c14610117578063aa40eb1414610135578063f3893f2714610153578063fc27de121461017157610088565b8063336c96f81461008d57806341f563e3146100ab5780635f0d90c6146100c95780636d5433e6146100e7575b600080fd5b61009561018f565b6040516100a2919061024f565b60405180910390f35b6100b36101a3565b6040516100c0919061024f565b60405180910390f35b6100d16101b8565b6040516100de919061024f565b60405180910390f35b61010160048036038101906100fc919061029b565b6101cd565b60405161010e919061024f565b60405180910390f35b61011f6101ec565b60405161012c91906102f4565b60405180910390f35b61013d6101f6565b60405161014a919061024f565b60405180910390f35b61015b61020c565b604051610168919061024f565b60405180910390f35b610179610222565b604051610186919061024f565b60405180910390f35b60006001905060006101a057600290505b90565b6000600190506002156101b557600290505b90565b6000600190506000156101ca57600290505b90565b6000818310156101db578190505b8183106101e6578290505b92915050565b6000600219905090565b6000600190506002191561020957600290505b90565b6000600190506000191561021f57600290505b90565b600060019050600261023357600290505b90565b6000819050919050565b61024981610236565b82525050565b60006020820190506102646000830184610240565b92915050565b600080fd5b61027881610236565b811461028357600080fd5b50565b6000813590506102958161026f565b92915050565b600080604083850312156102b2576102b161026a565b5b60006102c085828601610286565b92505060206102d185828601610286565b9150509250929050565b6000819050919050565b6102ee816102db565b82525050565b600060208201905061030960008301846102e5565b9291505056fea2646970667358221220c0630a22fc62283c3846170be7191cababf9dc3e09171897d218b8107b747ca464736f6c63430008110033",
					"opcodes": "PUSH1 0x80 PUSH1 0x40 MSTORE CALLVALUE DUP1 ISZERO PUSH2 0x10 JUMPI PUSH1 0x0 DUP1 REVERT JUMPDEST POP PUSH2 0x345 DUP1 PUSH2 0x20 PUSH1 0x0 CODECOPY PUSH1 0x0 RETURN INVALID PUSH1 0x80 PUSH1 0x40 MSTORE CALLVALUE DUP1 ISZERO PUSH2 0x10 JUMPI PUSH1 0x0 DUP1 REVERT JUMPDEST POP PUSH1 0x4 CALLDATASIZE LT PUSH2 0x88 JUMPI PUSH1 0x0 CALLDATALOAD PUSH1 0xE0 SHR DUP1 PUSH4 0x8A42E16C GT PUSH2 0x5B JUMPI DUP1 PUSH4 0x8A42E16C EQ PUSH2 0x117 JUMPI DUP1 PUSH4 0xAA40EB14 EQ PUSH2 0x135 JUMPI DUP1 PUSH4 0xF3893F27 EQ PUSH2 0x153 JUMPI DUP1 PUSH4 0xFC27DE12 EQ PUSH2 0x171 JUMPI PUSH2 0x88 JUMP JUMPDEST DUP1 PUSH4 0x336C96F8 EQ PUSH2 0x8D JUMPI DUP1 PUSH4 0x41F563E3 EQ PUSH2 0xAB JUMPI DUP1 PUSH4 0x5F0D90C6 EQ PUSH2 0xC9 JUMPI DUP1 PUSH4 0x6D5433E6 EQ PUSH2 0xE7 JUMPI JUMPDEST PUSH1 0x0 DUP1 REVERT JUMPDEST PUSH2 0x95 PUSH2 0x18F JUMP JUMPDEST PUSH1 0x40 MLOAD PUSH2 0xA2 SWAP2 SWAP1 PUSH2 0x24F JUMP JUMPDEST PUSH1 0x40 MLOAD DUP1 SWAP2 SUB SWAP1 RETURN JUMPDEST PUSH2 0xB3 PUSH2 0x1A3 JUMP JUMPDEST PUSH1 0x40 MLOAD PUSH2 0xC0 SWAP2 SWAP1 PUSH2 0x24F JUMP JUMPDEST PUSH1 0x40 MLOAD DUP1 SWAP2 SUB SWAP1 RETURN JUMPDEST PUSH2 0xD1 PUSH2 0x1B8 JUMP JUMPDEST PUSH1 0x40 MLOAD PUSH2 0xDE SWAP2 SWAP1 PUSH2 0x24F JUMP JUMPDEST PUSH1 0x40 MLOAD DUP1 SWAP2 SUB SWAP1 RETURN JUMPDEST PUSH2 0x101 PUSH1 0x4 DUP1 CALLDATASIZE SUB DUP2 ADD SWAP1 PUSH2 0xFC SWAP2 SWAP1 PUSH2 0x29B JUMP JUMPDEST PUSH2 0x1CD JUMP JUMPDEST PUSH1 0x40 MLOAD PUSH2 0x10E SWAP2 SWAP1 PUSH2 0x24F JUMP JUMPDEST PUSH1 0x40 MLOAD DUP1 SWAP2 SUB SWAP1 RETURN JUMPDEST PUSH2 0x11F PUSH2 0x1EC JUMP JUMPDEST PUSH1 0x40 MLOAD PUSH2 0x12C SWAP2 SWAP1 PUSH2 0x2F4 JUMP JUMPDEST PUSH1 0x40 MLOAD DUP1 SWAP2 SUB SWAP1 RETURN JUMPDEST PUSH2 0x13D PUSH2 0x1F6 JUMP JUMPDEST PUSH1 0x40 MLOAD PUSH2 0x14A SWAP2 SWAP1 PUSH2 0x24F JUMP JUMPDEST PUSH1 0x40 MLOAD DUP1 SWAP2 SUB SWAP1 RETURN JUMPDEST PUSH2 0x15B PUSH2 0x20C JUMP JUMPDEST PUSH1 0x40 MLOAD PUSH2 0x168 SWAP2 SWAP1 PUSH2 0x24F JUMP JUMPDEST PUSH1 0x40 MLOAD DUP1 SWAP2 SUB SWAP1 RETURN JUMPDEST PUSH2 0x179 PUSH2 0x222 JUMP JUMPDEST PUSH1 0x40 MLOAD PUSH2 0x186 SWAP2 SWAP1 PUSH2 0x24F JUMP JUMPDEST PUSH1 0x40 MLOAD DUP1 SWAP2 SUB SWAP1 RETURN JUMPDEST PUSH1 0x0 PUSH1 0x1 SWAP1 POP PUSH1 0x0 PUSH2 0x1A0 JUMPI PUSH1 0x2 SWAP1 POP JUMPDEST SWAP1 JUMP JUMPDEST PUSH1 0x0 PUSH1 0x1 SWAP1 POP PUSH1 0x2 ISZERO PUSH2 0x1B5 JUMPI PUSH1 0x2 SWAP1 POP JUMPDEST SWAP1 JUMP JUMPDEST PUSH1 0x0 PUSH1 0x1 SWAP1 POP PUSH1 0x0 ISZERO PUSH2 0x1CA JUMPI PUSH1 0x2 SWAP1 POP JUMPDEST SWAP1 JUMP JUMPDEST PUSH1 0x0 DUP2 DUP4 LT ISZERO PUSH2 0x1DB JUMPI DUP2 SWAP1 POP JUMPDEST DUP2 DUP4 LT PUSH2 0x1E6 JUMPI DUP3 SWAP1 POP JUMPDEST SWAP3 SWAP2 POP POP JUMP JUMPDEST PUSH1 0x0 PUSH1 0x2 NOT SWAP1 POP SWAP1 JUMP JUMPDEST PUSH1 0x0 PUSH1 0x1 SWAP1 POP PUSH1 0x2 NOT ISZERO PUSH2 0x209 JUMPI PUSH1 0x2 SWAP1 POP JUMPDEST SWAP1 JUMP JUMPDEST PUSH1 0x0 PUSH1 0x1 SWAP1 POP PUSH1 0x0 NOT ISZERO PUSH2 0x21F JUMPI PUSH1 0x2 SWAP1 POP JUMPDEST SWAP1 JUMP JUMPDEST PUSH1 0x0 PUSH1 0x1 SWAP1 POP PUSH1 0x2 PUSH2 0x233 JUMPI PUSH1 0x2 SWAP1 POP JUMPDEST SWAP1 JUMP JUMPDEST PUSH1 0x0 DUP2 SWAP1 POP SWAP2 SWAP1 POP JUMP JUMPDEST PUSH2 0x249 DUP2 PUSH2 0x236 JUMP JUMPDEST DUP3 MSTORE POP POP JUMP JUMPDEST PUSH1 0x0 PUSH1 0x20 DUP3 ADD SWAP1 POP PUSH2 0x264 PUSH1 0x0 DUP4 ADD DUP5 PUSH2 0x240 JUMP JUMPDEST SWAP3 SWAP2 POP POP JUMP JUMPDEST PUSH1 0x0 DUP1 REVERT JUMPDEST PUSH2 0x278 DUP2 PUSH2 0x236 JUMP JUMPDEST DUP2 EQ PUSH2 0x283 JUMPI PUSH1 0x0 DUP1 REVERT JUMPDEST POP JUMP JUMPDEST PUSH1 0x0 DUP2 CALLDATALOAD SWAP1 POP PUSH2 0x295 DUP2 PUSH2 0x26F JUMP JUMPDEST SWAP3 SWAP2 POP POP JUMP JUMPDEST PUSH1 0x0 DUP1 PUSH1 0x40 DUP4 DUP6 SUB SLT ISZERO PUSH2 0x2B2 JUMPI PUSH2 0x2B1 PUSH2 0x26A JUMP JUMPDEST JUMPDEST PUSH1 0x0 PUSH2 0x2C0 DUP6 DUP3 DUP7 ADD PUSH2 0x286 JUMP JUMPDEST SWAP3 POP POP PUSH1 0x20 PUSH2 0x2D1 DUP6 DUP3 DUP7 ADD PUSH2 0x286 JUMP JUMPDEST SWAP2 POP POP SWAP3 POP SWAP3 SWAP1 POP JUMP JUMPDEST PUSH1 0x0 DUP2 SWAP1 POP SWAP2 SWAP1 POP JUMP JUMPDEST PUSH2 0x2EE DUP2 PUSH2 0x2DB JUMP JUMPDEST DUP3 MSTORE POP POP JUMP JUMPDEST PUSH1 0x0 PUSH1 0x20 DUP3 ADD SWAP1 POP PUSH2 0x309 PUSH1 0x0 DUP4 ADD DUP5 PUSH2 0x2E5 JUMP JUMPDEST SWAP3 SWAP2 POP POP JUMP INVALID LOG2 PUSH5 0x6970667358 0x22 SLT KECCAK256 0xC0 PUSH4 0xA22FC62 0x28 EXTCODECOPY CODESIZE CHAINID OR SIGNEXTEND 0xE7 NOT SHR 0xAB 0xAB 0xF9 0xDC RETURNDATACOPY MULMOD OR XOR SWAP8 0xD2 XOR 0xB8 LT PUSH28 0x747CA464736F6C634300081100330000000000000000000000000000 "
				},
				"gasEstimates": {
					"creation": {
						"codeDepositCost": "167400",
						"executionCost": "214",
						"totalCost": "167614"
					},
					"external": {
						"btFlip()": "340",
						"isFalsy()": "402",
						"isTruthy()": "388",
						"max(uint256,uint256)": "infinite",
						"negation()": "363",
						"safeNegation()": "420",
						"unsafe1NegationPart1()": "412",
						"unsafe2NegationPart2()": "390"
					}
				},
				"methodIdentifiers": {
					"btFlip()": "8a42e16c",
					"isFalsy()": "5f0d90c6",
					"isTruthy()": "41f563e3",
					"max(uint256,uint256)": "6d5433e6",
					"negation()": "336c96f8",
					"safeNegation()": "fc27de12",
					"unsafe1NegationPart1()": "f3893f27",
					"unsafe2NegationPart2()": "aa40eb14"
				}
			},
			"storageLayout": {
				"storage": [],
				"types": null
			},
			"userdoc": {
				"kind": "user",
				"methods": {},
				"version": 1
			}
		}
	}
}