{
	"contracts/3_StorageSlots.sol": {
		"StorageComplex": {
			"abi": [
				{
					"inputs": [],
					"stateMutability": "nonpayable",
					"type": "constructor"
				},
				{
					"inputs": [
						{
							"internalType": "address",
							"name": "",
							"type": "address"
						},
						{
							"internalType": "uint256",
							"name": "",
							"type": "uint256"
						}
					],
					"name": "addressToList",
					"outputs": [
						{
							"internalType": "uint256",
							"name": "",
							"type": "uint256"
						}
					],
					"stateMutability": "view",
					"type": "function"
				},
				{
					"inputs": [],
					"name": "bigArrayLength",
					"outputs": [
						{
							"internalType": "uint256",
							"name": "result",
							"type": "uint256"
						}
					],
					"stateMutability": "view",
					"type": "function"
				},
				{
					"inputs": [
						{
							"internalType": "uint256",
							"name": "index",
							"type": "uint256"
						}
					],
					"name": "fixedArrayView",
					"outputs": [
						{
							"internalType": "uint256",
							"name": "_fixed",
							"type": "uint256"
						}
					],
					"stateMutability": "view",
					"type": "function"
				},
				{
					"inputs": [
						{
							"internalType": "address",
							"name": "_address",
							"type": "address"
						},
						{
							"internalType": "uint256",
							"name": "index",
							"type": "uint256"
						}
					],
					"name": "getAddressToList",
					"outputs": [
						{
							"internalType": "uint256",
							"name": "result",
							"type": "uint256"
						}
					],
					"stateMutability": "view",
					"type": "function"
				},
				{
					"inputs": [
						{
							"internalType": "uint256",
							"name": "key",
							"type": "uint256"
						}
					],
					"name": "getMapping",
					"outputs": [
						{
							"internalType": "uint256",
							"name": "result",
							"type": "uint256"
						}
					],
					"stateMutability": "view",
					"type": "function"
				},
				{
					"inputs": [
						{
							"internalType": "uint256",
							"name": "key1",
							"type": "uint256"
						},
						{
							"internalType": "uint256",
							"name": "key2",
							"type": "uint256"
						}
					],
					"name": "getNestedMapping",
					"outputs": [
						{
							"internalType": "uint256",
							"name": "result",
							"type": "uint256"
						}
					],
					"stateMutability": "view",
					"type": "function"
				},
				{
					"inputs": [
						{
							"internalType": "address",
							"name": "_address",
							"type": "address"
						}
					],
					"name": "lengthOfNestedArray",
					"outputs": [
						{
							"internalType": "uint256",
							"name": "result",
							"type": "uint256"
						}
					],
					"stateMutability": "view",
					"type": "function"
				},
				{
					"inputs": [
						{
							"internalType": "uint256",
							"name": "",
							"type": "uint256"
						}
					],
					"name": "myMapping",
					"outputs": [
						{
							"internalType": "uint256",
							"name": "",
							"type": "uint256"
						}
					],
					"stateMutability": "view",
					"type": "function"
				},
				{
					"inputs": [
						{
							"internalType": "uint256",
							"name": "",
							"type": "uint256"
						},
						{
							"internalType": "uint256",
							"name": "",
							"type": "uint256"
						}
					],
					"name": "nsetedMapping",
					"outputs": [
						{
							"internalType": "uint256",
							"name": "",
							"type": "uint256"
						}
					],
					"stateMutability": "view",
					"type": "function"
				},
				{
					"inputs": [
						{
							"internalType": "uint256",
							"name": "index",
							"type": "uint256"
						}
					],
					"name": "readBigArrayLocation",
					"outputs": [
						{
							"internalType": "uint256",
							"name": "result",
							"type": "uint256"
						}
					],
					"stateMutability": "view",
					"type": "function"
				},
				{
					"inputs": [
						{
							"internalType": "uint256",
							"name": "index",
							"type": "uint256"
						}
					],
					"name": "readSmallArrayLocation",
					"outputs": [
						{
							"internalType": "bytes32",
							"name": "b32",
							"type": "bytes32"
						},
						{
							"internalType": "uint8",
							"name": "u8",
							"type": "uint8"
						}
					],
					"stateMutability": "view",
					"type": "function"
				}
			],
			"devdoc": {
				"kind": "dev",
				"methods": {},
				"version": 1
			},
			"evm": {
				"assembly": "    /* \"contracts/3_StorageSlots.sol\":4616:7997  contract StorageComplex {... */\n  mstore(0x40, 0x80)\n    /* \"contracts/3_StorageSlots.sol\":4972:5316  constructor() {... */\n  callvalue\n  dup1\n  iszero\n  tag_1\n  jumpi\n  0x00\n  dup1\n  revert\ntag_1:\n  pop\n    /* \"contracts/3_StorageSlots.sol\":4996:5024  fixedArray = [99, 999, 9999] */\n  mload(0x40)\n  dup1\n  0x60\n  add\n  0x40\n  mstore\n  dup1\n    /* \"contracts/3_StorageSlots.sol\":5010:5012  99 */\n  0x63\n    /* \"contracts/3_StorageSlots.sol\":4996:5024  fixedArray = [99, 999, 9999] */\n  0xffff\n  and\n  dup2\n  mstore\n  0x20\n  add\n    /* \"contracts/3_StorageSlots.sol\":5014:5017  999 */\n  0x03e7\n    /* \"contracts/3_StorageSlots.sol\":4996:5024  fixedArray = [99, 999, 9999] */\n  0xffff\n  and\n  dup2\n  mstore\n  0x20\n  add\n    /* \"contracts/3_StorageSlots.sol\":5019:5023  9999 */\n  0x270f\n    /* \"contracts/3_StorageSlots.sol\":4996:5024  fixedArray = [99, 999, 9999] */\n  0xffff\n  and\n  dup2\n  mstore\n  pop\n    /* \"contracts/3_StorageSlots.sol\":4996:5006  fixedArray */\n  0x00\n    /* \"contracts/3_StorageSlots.sol\":4996:5024  fixedArray = [99, 999, 9999] */\n  swap1\n  0x03\n  tag_4\n  swap3\n  swap2\n  swap1\n  tag_5\n  jump\t// in\ntag_4:\n  pop\n    /* \"contracts/3_StorageSlots.sol\":5034:5057  bigArray = [10, 20, 30] */\n  mload(0x40)\n  dup1\n  0x60\n  add\n  0x40\n  mstore\n  dup1\n    /* \"contracts/3_StorageSlots.sol\":5046:5048  10 */\n  0x0a\n    /* \"contracts/3_StorageSlots.sol\":5034:5057  bigArray = [10, 20, 30] */\n  0xff\n  and\n  dup2\n  mstore\n  0x20\n  add\n    /* \"contracts/3_StorageSlots.sol\":5050:5052  20 */\n  0x14\n    /* \"contracts/3_StorageSlots.sol\":5034:5057  bigArray = [10, 20, 30] */\n  0xff\n  and\n  dup2\n  mstore\n  0x20\n  add\n    /* \"contracts/3_StorageSlots.sol\":5054:5056  30 */\n  0x1e\n    /* \"contracts/3_StorageSlots.sol\":5034:5057  bigArray = [10, 20, 30] */\n  0xff\n  and\n  dup2\n  mstore\n  pop\n    /* \"contracts/3_StorageSlots.sol\":5034:5042  bigArray */\n  0x03\n    /* \"contracts/3_StorageSlots.sol\":5034:5057  bigArray = [10, 20, 30] */\n  swap1\n  0x03\n  tag_6\n  swap3\n  swap2\n  swap1\n  tag_7\n  jump\t// in\ntag_6:\n  pop\n    /* \"contracts/3_StorageSlots.sol\":5067:5089  smallArray = [1, 2, 3] */\n  mload(0x40)\n  dup1\n  0x60\n  add\n  0x40\n  mstore\n  dup1\n    /* \"contracts/3_StorageSlots.sol\":5081:5082  1 */\n  0x01\n    /* \"contracts/3_StorageSlots.sol\":5067:5089  smallArray = [1, 2, 3] */\n  0xff\n  and\n  dup2\n  mstore\n  0x20\n  add\n    /* \"contracts/3_StorageSlots.sol\":5084:5085  2 */\n  0x02\n    /* \"contracts/3_StorageSlots.sol\":5067:5089  smallArray = [1, 2, 3] */\n  0xff\n  and\n  dup2\n  mstore\n  0x20\n  add\n    /* \"contracts/3_StorageSlots.sol\":5087:5088  3 */\n  0x03\n    /* \"contracts/3_StorageSlots.sol\":5067:5089  smallArray = [1, 2, 3] */\n  0xff\n  and\n  dup2\n  mstore\n  pop\n    /* \"contracts/3_StorageSlots.sol\":5067:5077  smallArray */\n  0x04\n    /* \"contracts/3_StorageSlots.sol\":5067:5089  smallArray = [1, 2, 3] */\n  swap1\n  0x03\n  tag_8\n  swap3\n  swap2\n  swap1\n  tag_9\n  jump\t// in\ntag_8:\n  pop\n    /* \"contracts/3_StorageSlots.sol\":5116:5117  5 */\n  0x05\n    /* \"contracts/3_StorageSlots.sol\":5100:5109  myMapping */\n  dup1\n    /* \"contracts/3_StorageSlots.sol\":5100:5113  myMapping[10] */\n  0x00\n    /* \"contracts/3_StorageSlots.sol\":5110:5112  10 */\n  0x0a\n    /* \"contracts/3_StorageSlots.sol\":5100:5113  myMapping[10] */\n  dup2\n  mstore\n  0x20\n  add\n  swap1\n  dup2\n  mstore\n  0x20\n  add\n  0x00\n  keccak256\n    /* \"contracts/3_StorageSlots.sol\":5100:5117  myMapping[10] = 5 */\n  dup2\n  swap1\n  sstore\n  pop\n    /* \"contracts/3_StorageSlots.sol\":5143:5144  6 */\n  0x06\n    /* \"contracts/3_StorageSlots.sol\":5127:5136  myMapping */\n  0x05\n    /* \"contracts/3_StorageSlots.sol\":5127:5140  myMapping[11] */\n  0x00\n    /* \"contracts/3_StorageSlots.sol\":5137:5139  11 */\n  0x0b\n    /* \"contracts/3_StorageSlots.sol\":5127:5140  myMapping[11] */\n  dup2\n  mstore\n  0x20\n  add\n  swap1\n  dup2\n  mstore\n  0x20\n  add\n  0x00\n  keccak256\n    /* \"contracts/3_StorageSlots.sol\":5127:5144  myMapping[11] = 6 */\n  dup2\n  swap1\n  sstore\n  pop\n    /* \"contracts/3_StorageSlots.sol\":5176:5177  7 */\n  0x07\n    /* \"contracts/3_StorageSlots.sol\":5154:5167  nsetedMapping */\n  0x06\n    /* \"contracts/3_StorageSlots.sol\":5154:5170  nsetedMapping[2] */\n  0x00\n    /* \"contracts/3_StorageSlots.sol\":5168:5169  2 */\n  0x02\n    /* \"contracts/3_StorageSlots.sol\":5154:5170  nsetedMapping[2] */\n  dup2\n  mstore\n  0x20\n  add\n  swap1\n  dup2\n  mstore\n  0x20\n  add\n  0x00\n  keccak256\n    /* \"contracts/3_StorageSlots.sol\":5154:5173  nsetedMapping[2][4] */\n  0x00\n    /* \"contracts/3_StorageSlots.sol\":5171:5172  4 */\n  0x04\n    /* \"contracts/3_StorageSlots.sol\":5154:5173  nsetedMapping[2][4] */\n  dup2\n  mstore\n  0x20\n  add\n  swap1\n  dup2\n  mstore\n  0x20\n  add\n  0x00\n  keccak256\n    /* \"contracts/3_StorageSlots.sol\":5154:5177  nsetedMapping[2][4] = 7 */\n  dup2\n  swap1\n  sstore\n  pop\n    /* \"contracts/3_StorageSlots.sol\":5187:5308  addressToList[0x5B38Da6a701c568545dCfcB03FcB875f56beddC4] = [... */\n  mload(0x40)\n  dup1\n  0x60\n  add\n  0x40\n  mstore\n  dup1\n    /* \"contracts/3_StorageSlots.sol\":5261:5263  42 */\n  0x2a\n    /* \"contracts/3_StorageSlots.sol\":5187:5308  addressToList[0x5B38Da6a701c568545dCfcB03FcB875f56beddC4] = [... */\n  0xffff\n  and\n  dup2\n  mstore\n  0x20\n  add\n    /* \"contracts/3_StorageSlots.sol\":5277:5281  1337 */\n  0x0539\n    /* \"contracts/3_StorageSlots.sol\":5187:5308  addressToList[0x5B38Da6a701c568545dCfcB03FcB875f56beddC4] = [... */\n  0xffff\n  and\n  dup2\n  mstore\n  0x20\n  add\n    /* \"contracts/3_StorageSlots.sol\":5295:5298  777 */\n  0x0309\n    /* \"contracts/3_StorageSlots.sol\":5187:5308  addressToList[0x5B38Da6a701c568545dCfcB03FcB875f56beddC4] = [... */\n  0xffff\n  and\n  dup2\n  mstore\n  pop\n    /* \"contracts/3_StorageSlots.sol\":5187:5200  addressToList */\n  0x07\n    /* \"contracts/3_StorageSlots.sol\":5187:5244  addressToList[0x5B38Da6a701c568545dCfcB03FcB875f56beddC4] */\n  0x00\n    /* \"contracts/3_StorageSlots.sol\":5201:5243  0x5B38Da6a701c568545dCfcB03FcB875f56beddC4 */\n  0x5b38da6a701c568545dcfcb03fcb875f56beddc4\n    /* \"contracts/3_StorageSlots.sol\":5187:5244  addressToList[0x5B38Da6a701c568545dCfcB03FcB875f56beddC4] */\n  0xffffffffffffffffffffffffffffffffffffffff\n  and\n  0xffffffffffffffffffffffffffffffffffffffff\n  and\n  dup2\n  mstore\n  0x20\n  add\n  swap1\n  dup2\n  mstore\n  0x20\n  add\n  0x00\n  keccak256\n    /* \"contracts/3_StorageSlots.sol\":5187:5308  addressToList[0x5B38Da6a701c568545dCfcB03FcB875f56beddC4] = [... */\n  swap1\n  0x03\n  tag_10\n  swap3\n  swap2\n  swap1\n  tag_11\n  jump\t// in\ntag_10:\n  pop\n    /* \"contracts/3_StorageSlots.sol\":4616:7997  contract StorageComplex {... */\n  jump(tag_12)\ntag_5:\n  dup3\n  0x03\n  dup2\n  add\n  swap3\n  dup3\n  iszero\n  tag_13\n  jumpi\n  swap2\n  0x20\n  mul\n  dup3\n  add\ntag_14:\n  dup3\n  dup2\n  gt\n  iszero\n  tag_15\n  jumpi\n  dup3\n  mload\n  dup3\n  swap1\n  0xffff\n  and\n  swap1\n  sstore\n  swap2\n  0x20\n  add\n  swap2\n  swap1\n  0x01\n  add\n  swap1\n  jump(tag_14)\ntag_15:\ntag_13:\n  pop\n  swap1\n  pop\n  tag_16\n  swap2\n  swap1\n  tag_17\n  jump\t// in\ntag_16:\n  pop\n  swap1\n  jump\t// out\ntag_7:\n  dup3\n  dup1\n  sload\n  dup3\n  dup3\n  sstore\n  swap1\n  0x00\n  mstore\n  keccak256(0x00, 0x20)\n  swap1\n  dup2\n  add\n  swap3\n  dup3\n  iszero\n  tag_18\n  jumpi\n  swap2\n  0x20\n  mul\n  dup3\n  add\ntag_19:\n  dup3\n  dup2\n  gt\n  iszero\n  tag_20\n  jumpi\n  dup3\n  mload\n  dup3\n  swap1\n  0xff\n  and\n  swap1\n  sstore\n  swap2\n  0x20\n  add\n  swap2\n  swap1\n  0x01\n  add\n  swap1\n  jump(tag_19)\ntag_20:\ntag_18:\n  pop\n  swap1\n  pop\n  tag_21\n  swap2\n  swap1\n  tag_17\n  jump\t// in\ntag_21:\n  pop\n  swap1\n  jump\t// out\ntag_9:\n  dup3\n  dup1\n  sload\n  dup3\n  dup3\n  sstore\n  swap1\n  0x00\n  mstore\n  keccak256(0x00, 0x20)\n  swap1\n  0x1f\n  add\n  0x20\n  swap1\n  div\n  dup2\n  add\n  swap3\n  dup3\n  iszero\n  tag_22\n  jumpi\n  swap2\n  0x20\n  mul\n  dup3\n  add\n  0x00\ntag_23:\n  dup4\n  dup3\n  gt\n  iszero\n  tag_24\n  jumpi\n  dup4\n  mload\n  dup4\n  dup3\n  0x0100\n  exp\n  dup2\n  sload\n  dup2\n  0xff\n  mul\n  not\n  and\n  swap1\n  dup4\n  0xff\n  and\n  mul\n  or\n  swap1\n  sstore\n  pop\n  swap3\n  0x20\n  add\n  swap3\n  0x01\n  add\n  0x20\n  dup2\n  0x00\n  add\n  div\n  swap3\n  dup4\n  add\n  swap3\n  0x01\n  sub\n  mul\n  jump(tag_23)\ntag_24:\n  dup1\n  iszero\n  tag_25\n  jumpi\n  dup3\n  dup2\n  0x0100\n  exp\n  dup2\n  sload\n  swap1\n  0xff\n  mul\n  not\n  and\n  swap1\n  sstore\n  0x01\n  add\n  0x20\n  dup2\n  0x00\n  add\n  div\n  swap3\n  dup4\n  add\n  swap3\n  0x01\n  sub\n  mul\n  jump(tag_24)\ntag_25:\n  pop\ntag_22:\n  pop\n  swap1\n  pop\n  tag_26\n  swap2\n  swap1\n  tag_17\n  jump\t// in\ntag_26:\n  pop\n  swap1\n  jump\t// out\ntag_11:\n  dup3\n  dup1\n  sload\n  dup3\n  dup3\n  sstore\n  swap1\n  0x00\n  mstore\n  keccak256(0x00, 0x20)\n  swap1\n  dup2\n  add\n  swap3\n  dup3\n  iszero\n  tag_27\n  jumpi\n  swap2\n  0x20\n  mul\n  dup3\n  add\ntag_28:\n  dup3\n  dup2\n  gt\n  iszero\n  tag_29\n  jumpi\n  dup3\n  mload\n  dup3\n  swap1\n  0xffff\n  and\n  swap1\n  sstore\n  swap2\n  0x20\n  add\n  swap2\n  swap1\n  0x01\n  add\n  swap1\n  jump(tag_28)\ntag_29:\ntag_27:\n  pop\n  swap1\n  pop\n  tag_30\n  swap2\n  swap1\n  tag_17\n  jump\t// in\ntag_30:\n  pop\n  swap1\n  jump\t// out\ntag_17:\ntag_31:\n  dup1\n  dup3\n  gt\n  iszero\n  tag_32\n  jumpi\n  0x00\n  dup2\n  0x00\n  swap1\n  sstore\n  pop\n  0x01\n  add\n  jump(tag_31)\ntag_32:\n  pop\n  swap1\n  jump\t// out\ntag_12:\n  dataSize(sub_0)\n  dup1\n  dataOffset(sub_0)\n  0x00\n  codecopy\n  0x00\n  return\nstop\n\nsub_0: assembly {\n        /* \"contracts/3_StorageSlots.sol\":4616:7997  contract StorageComplex {... */\n      mstore(0x40, 0x80)\n      callvalue\n      dup1\n      iszero\n      tag_1\n      jumpi\n      0x00\n      dup1\n      revert\n    tag_1:\n      pop\n      jumpi(tag_2, lt(calldatasize, 0x04))\n      shr(0xe0, calldataload(0x00))\n      dup1\n      0x7a1608de\n      gt\n      tag_14\n      jumpi\n      dup1\n      0x7a1608de\n      eq\n      tag_8\n      jumpi\n      dup1\n      0x7c668844\n      eq\n      tag_9\n      jumpi\n      dup1\n      0x8242a936\n      eq\n      tag_10\n      jumpi\n      dup1\n      0xa9f04c53\n      eq\n      tag_11\n      jumpi\n      dup1\n      0xd7bd7b72\n      eq\n      tag_12\n      jumpi\n      dup1\n      0xede9ba8b\n      eq\n      tag_13\n      jumpi\n      jump(tag_2)\n    tag_14:\n      dup1\n      0x1459cc00\n      eq\n      tag_3\n      jumpi\n      dup1\n      0x2da60d88\n      eq\n      tag_4\n      jumpi\n      dup1\n      0x307e972e\n      eq\n      tag_5\n      jumpi\n      dup1\n      0x439c3e9a\n      eq\n      tag_6\n      jumpi\n      dup1\n      0x59101517\n      eq\n      tag_7\n      jumpi\n    tag_2:\n      0x00\n      dup1\n      revert\n        /* \"contracts/3_StorageSlots.sol\":7541:7995  function getAddressToList(address _address, uint256 index)... */\n    tag_3:\n      tag_15\n      0x04\n      dup1\n      calldatasize\n      sub\n      dup2\n      add\n      swap1\n      tag_16\n      swap2\n      swap1\n      tag_17\n      jump\t// in\n    tag_16:\n      tag_18\n      jump\t// in\n    tag_15:\n      mload(0x40)\n      tag_19\n      swap2\n      swap1\n      tag_20\n      jump\t// in\n    tag_19:\n      mload(0x40)\n      dup1\n      swap2\n      sub\n      swap1\n      return\n        /* \"contracts/3_StorageSlots.sol\":4841:4909  mapping(uint256 => mapping(uint256 => uint256)) public nsetedMapping */\n    tag_4:\n      tag_21\n      0x04\n      dup1\n      calldatasize\n      sub\n      dup2\n      add\n      swap1\n      tag_22\n      swap2\n      swap1\n      tag_23\n      jump\t// in\n    tag_22:\n      tag_24\n      jump\t// in\n    tag_21:\n      mload(0x40)\n      tag_25\n      swap2\n      swap1\n      tag_20\n      jump\t// in\n    tag_25:\n      mload(0x40)\n      dup1\n      swap2\n      sub\n      swap1\n      return\n        /* \"contracts/3_StorageSlots.sol\":5322:5521  function fixedArrayView(uint256 index)... */\n    tag_5:\n      tag_26\n      0x04\n      dup1\n      calldatasize\n      sub\n      dup2\n      add\n      swap1\n      tag_27\n      swap2\n      swap1\n      tag_28\n      jump\t// in\n    tag_27:\n      tag_29\n      jump\t// in\n    tag_26:\n      mload(0x40)\n      tag_30\n      swap2\n      swap1\n      tag_20\n      jump\t// in\n    tag_30:\n      mload(0x40)\n      dup1\n      swap2\n      sub\n      swap1\n      return\n        /* \"contracts/3_StorageSlots.sol\":6024:6419  function readSmallArrayLocation(uint256 index)... */\n    tag_6:\n      tag_31\n      0x04\n      dup1\n      calldatasize\n      sub\n      dup2\n      add\n      swap1\n      tag_32\n      swap2\n      swap1\n      tag_28\n      jump\t// in\n    tag_32:\n      tag_33\n      jump\t// in\n    tag_31:\n      mload(0x40)\n      tag_34\n      swap3\n      swap2\n      swap1\n      tag_35\n      jump\t// in\n    tag_34:\n      mload(0x40)\n      dup1\n      swap2\n      sub\n      swap1\n      return\n        /* \"contracts/3_StorageSlots.sol\":5677:6018  function readBigArrayLocation(uint256 index)... */\n    tag_7:\n      tag_36\n      0x04\n      dup1\n      calldatasize\n      sub\n      dup2\n      add\n      swap1\n      tag_37\n      swap2\n      swap1\n      tag_28\n      jump\t// in\n    tag_37:\n      tag_38\n      jump\t// in\n    tag_36:\n      mload(0x40)\n      tag_39\n      swap2\n      swap1\n      tag_20\n      jump\t// in\n    tag_39:\n      mload(0x40)\n      dup1\n      swap2\n      sub\n      swap1\n      return\n        /* \"contracts/3_StorageSlots.sol\":5527:5671  function bigArrayLength() external view returns (uint256 result) {... */\n    tag_8:\n      tag_40\n      tag_41\n      jump\t// in\n    tag_40:\n      mload(0x40)\n      tag_42\n      swap2\n      swap1\n      tag_20\n      jump\t// in\n    tag_42:\n      mload(0x40)\n      dup1\n      swap2\n      sub\n      swap1\n      return\n        /* \"contracts/3_StorageSlots.sol\":4791:4835  mapping(uint256 => uint256) public myMapping */\n    tag_9:\n      tag_43\n      0x04\n      dup1\n      calldatasize\n      sub\n      dup2\n      add\n      swap1\n      tag_44\n      swap2\n      swap1\n      tag_28\n      jump\t// in\n    tag_44:\n      tag_45\n      jump\t// in\n    tag_43:\n      mload(0x40)\n      tag_46\n      swap2\n      swap1\n      tag_20\n      jump\t// in\n    tag_46:\n      mload(0x40)\n      dup1\n      swap2\n      sub\n      swap1\n      return\n        /* \"contracts/3_StorageSlots.sol\":4915:4965  mapping(address => uint256[]) public addressToList */\n    tag_10:\n      tag_47\n      0x04\n      dup1\n      calldatasize\n      sub\n      dup2\n      add\n      swap1\n      tag_48\n      swap2\n      swap1\n      tag_17\n      jump\t// in\n    tag_48:\n      tag_49\n      jump\t// in\n    tag_47:\n      mload(0x40)\n      tag_50\n      swap2\n      swap1\n      tag_20\n      jump\t// in\n    tag_50:\n      mload(0x40)\n      dup1\n      swap2\n      sub\n      swap1\n      return\n        /* \"contracts/3_StorageSlots.sol\":7150:7535  function lengthOfNestedArray(address _address)... */\n    tag_11:\n      tag_51\n      0x04\n      dup1\n      calldatasize\n      sub\n      dup2\n      add\n      swap1\n      tag_52\n      swap2\n      swap1\n      tag_53\n      jump\t// in\n    tag_52:\n      tag_54\n      jump\t// in\n    tag_51:\n      mload(0x40)\n      tag_55\n      swap2\n      swap1\n      tag_20\n      jump\t// in\n    tag_55:\n      mload(0x40)\n      dup1\n      swap2\n      sub\n      swap1\n      return\n        /* \"contracts/3_StorageSlots.sol\":6735:7144  function getNestedMapping(uint256 key1, uint256 key2)... */\n    tag_12:\n      tag_56\n      0x04\n      dup1\n      calldatasize\n      sub\n      dup2\n      add\n      swap1\n      tag_57\n      swap2\n      swap1\n      tag_23\n      jump\t// in\n    tag_57:\n      tag_58\n      jump\t// in\n    tag_56:\n      mload(0x40)\n      tag_59\n      swap2\n      swap1\n      tag_20\n      jump\t// in\n    tag_59:\n      mload(0x40)\n      dup1\n      swap2\n      sub\n      swap1\n      return\n        /* \"contracts/3_StorageSlots.sol\":6425:6729  function getMapping(uint256 key) external view returns (uint256 result) {... */\n    tag_13:\n      tag_60\n      0x04\n      dup1\n      calldatasize\n      sub\n      dup2\n      add\n      swap1\n      tag_61\n      swap2\n      swap1\n      tag_28\n      jump\t// in\n    tag_61:\n      tag_62\n      jump\t// in\n    tag_60:\n      mload(0x40)\n      tag_63\n      swap2\n      swap1\n      tag_20\n      jump\t// in\n    tag_63:\n      mload(0x40)\n      dup1\n      swap2\n      sub\n      swap1\n      return\n        /* \"contracts/3_StorageSlots.sol\":7541:7995  function getAddressToList(address _address, uint256 index)... */\n    tag_18:\n        /* \"contracts/3_StorageSlots.sol\":7647:7661  uint256 result */\n      0x00\n        /* \"contracts/3_StorageSlots.sol\":7677:7702  uint256 addressToListSlot */\n      dup1\n        /* \"contracts/3_StorageSlots.sol\":7756:7774  addressToList.slot */\n      0x07\n        /* \"contracts/3_StorageSlots.sol\":7735:7774  addressToListSlot := addressToList.slot */\n      swap1\n      pop\n        /* \"contracts/3_StorageSlots.sol\":7794:7810  bytes32 location */\n      0x00\n        /* \"contracts/3_StorageSlots.sol\":7868:7876  _address */\n      dup5\n        /* \"contracts/3_StorageSlots.sol\":7878:7895  addressToListSlot */\n      dup3\n        /* \"contracts/3_StorageSlots.sol\":7857:7896  abi.encode(_address, addressToListSlot) */\n      add(0x20, mload(0x40))\n      tag_65\n      swap3\n      swap2\n      swap1\n      tag_66\n      jump\t// in\n    tag_65:\n      mload(0x40)\n      0x20\n      dup2\n      dup4\n      sub\n      sub\n      dup2\n      mstore\n      swap1\n      0x40\n      mstore\n        /* \"contracts/3_StorageSlots.sol\":7847:7897  keccak256(abi.encode(_address, addressToListSlot)) */\n      dup1\n      mload\n      swap1\n      0x20\n      add\n      keccak256\n        /* \"contracts/3_StorageSlots.sol\":7836:7898  abi.encode(keccak256(abi.encode(_address, addressToListSlot))) */\n      add(0x20, mload(0x40))\n      tag_67\n      swap2\n      swap1\n      tag_68\n      jump\t// in\n    tag_67:\n      mload(0x40)\n      0x20\n      dup2\n      dup4\n      sub\n      sub\n      dup2\n      mstore\n      swap1\n      0x40\n      mstore\n        /* \"contracts/3_StorageSlots.sol\":7813:7908  keccak256(... */\n      dup1\n      mload\n      swap1\n      0x20\n      add\n      keccak256\n        /* \"contracts/3_StorageSlots.sol\":7794:7908  bytes32 location = keccak256(... */\n      swap1\n      pop\n        /* \"contracts/3_StorageSlots.sol\":7972:7977  index */\n      dup4\n        /* \"contracts/3_StorageSlots.sol\":7962:7970  location */\n      dup2\n        /* \"contracts/3_StorageSlots.sol\":7958:7978  add(location, index) */\n      add\n        /* \"contracts/3_StorageSlots.sol\":7952:7979  sload(add(location, index)) */\n      sload\n        /* \"contracts/3_StorageSlots.sol\":7942:7979  result := sload(add(location, index)) */\n      swap3\n      pop\n        /* \"contracts/3_StorageSlots.sol\":7928:7989  {... */\n      pop\n      pop\n        /* \"contracts/3_StorageSlots.sol\":7541:7995  function getAddressToList(address _address, uint256 index)... */\n      swap3\n      swap2\n      pop\n      pop\n      jump\t// out\n        /* \"contracts/3_StorageSlots.sol\":4841:4909  mapping(uint256 => mapping(uint256 => uint256)) public nsetedMapping */\n    tag_24:\n      mstore(0x20, 0x06)\n      dup2\n      0x00\n      mstore\n      mstore(0x20, keccak256(0x00, 0x40))\n      dup1\n      0x00\n      mstore\n      keccak256(0x00, 0x40)\n      0x00\n      swap2\n      pop\n      swap2\n      pop\n      pop\n      sload\n      dup2\n      jump\t// out\n        /* \"contracts/3_StorageSlots.sol\":5322:5521  function fixedArrayView(uint256 index)... */\n    tag_29:\n        /* \"contracts/3_StorageSlots.sol\":5408:5422  uint256 _fixed */\n      0x00\n        /* \"contracts/3_StorageSlots.sol\":5498:5503  index */\n      dup2\n        /* \"contracts/3_StorageSlots.sol\":5481:5496  fixedArray.slot */\n      0x00\n        /* \"contracts/3_StorageSlots.sol\":5477:5504  add(fixedArray.slot, index) */\n      add\n        /* \"contracts/3_StorageSlots.sol\":5471:5505  sload(add(fixedArray.slot, index)) */\n      sload\n        /* \"contracts/3_StorageSlots.sol\":5461:5505  _fixed := sload(add(fixedArray.slot, index)) */\n      swap1\n      pop\n        /* \"contracts/3_StorageSlots.sol\":5322:5521  function fixedArrayView(uint256 index)... */\n      swap2\n      swap1\n      pop\n      jump\t// out\n        /* \"contracts/3_StorageSlots.sol\":6024:6419  function readSmallArrayLocation(uint256 index)... */\n    tag_33:\n        /* \"contracts/3_StorageSlots.sol\":6118:6129  bytes32 b32 */\n      0x00\n        /* \"contracts/3_StorageSlots.sol\":6131:6139  uint8 u8 */\n      dup1\n        /* \"contracts/3_StorageSlots.sol\":6155:6167  uint256 slot */\n      0x00\n        /* \"contracts/3_StorageSlots.sol\":6208:6223  smallArray.slot */\n      0x04\n        /* \"contracts/3_StorageSlots.sol\":6200:6223  slot := smallArray.slot */\n      swap1\n      pop\n        /* \"contracts/3_StorageSlots.sol\":6243:6259  bytes32 location */\n      0x00\n        /* \"contracts/3_StorageSlots.sol\":6283:6287  slot */\n      dup2\n        /* \"contracts/3_StorageSlots.sol\":6272:6288  abi.encode(slot) */\n      add(0x20, mload(0x40))\n      tag_71\n      swap2\n      swap1\n      tag_20\n      jump\t// in\n    tag_71:\n      mload(0x40)\n      0x20\n      dup2\n      dup4\n      sub\n      sub\n      dup2\n      mstore\n      swap1\n      0x40\n      mstore\n        /* \"contracts/3_StorageSlots.sol\":6262:6289  keccak256(abi.encode(slot)) */\n      dup1\n      mload\n      swap1\n      0x20\n      add\n      keccak256\n        /* \"contracts/3_StorageSlots.sol\":6243:6289  bytes32 location = keccak256(abi.encode(slot)) */\n      swap1\n      pop\n        /* \"contracts/3_StorageSlots.sol\":6350:6355  index */\n      dup5\n        /* \"contracts/3_StorageSlots.sol\":6340:6348  location */\n      dup2\n        /* \"contracts/3_StorageSlots.sol\":6336:6356  add(location, index) */\n      add\n        /* \"contracts/3_StorageSlots.sol\":6330:6357  sload(add(location, index)) */\n      sload\n        /* \"contracts/3_StorageSlots.sol\":6323:6357  b32 := sload(add(location, index)) */\n      swap4\n      pop\n        /* \"contracts/3_StorageSlots.sol\":6396:6401  index */\n      dup5\n        /* \"contracts/3_StorageSlots.sol\":6386:6394  location */\n      dup2\n        /* \"contracts/3_StorageSlots.sol\":6382:6402  add(location, index) */\n      add\n        /* \"contracts/3_StorageSlots.sol\":6376:6403  sload(add(location, index)) */\n      sload\n        /* \"contracts/3_StorageSlots.sol\":6370:6403  u8 := sload(add(location, index)) */\n      swap3\n      pop\n        /* \"contracts/3_StorageSlots.sol\":6309:6413  {... */\n      pop\n      pop\n        /* \"contracts/3_StorageSlots.sol\":6024:6419  function readSmallArrayLocation(uint256 index)... */\n      swap2\n      pop\n      swap2\n      jump\t// out\n        /* \"contracts/3_StorageSlots.sol\":5677:6018  function readBigArrayLocation(uint256 index)... */\n    tag_38:\n        /* \"contracts/3_StorageSlots.sol\":5769:5783  uint256 result */\n      0x00\n        /* \"contracts/3_StorageSlots.sol\":5799:5811  uint256 slot */\n      dup1\n        /* \"contracts/3_StorageSlots.sol\":5852:5865  bigArray.slot */\n      0x03\n        /* \"contracts/3_StorageSlots.sol\":5844:5865  slot := bigArray.slot */\n      swap1\n      pop\n        /* \"contracts/3_StorageSlots.sol\":5885:5901  bytes32 location */\n      0x00\n        /* \"contracts/3_StorageSlots.sol\":5925:5929  slot */\n      dup2\n        /* \"contracts/3_StorageSlots.sol\":5914:5930  abi.encode(slot) */\n      add(0x20, mload(0x40))\n      tag_73\n      swap2\n      swap1\n      tag_20\n      jump\t// in\n    tag_73:\n      mload(0x40)\n      0x20\n      dup2\n      dup4\n      sub\n      sub\n      dup2\n      mstore\n      swap1\n      0x40\n      mstore\n        /* \"contracts/3_StorageSlots.sol\":5904:5931  keccak256(abi.encode(slot)) */\n      dup1\n      mload\n      swap1\n      0x20\n      add\n      keccak256\n        /* \"contracts/3_StorageSlots.sol\":5885:5931  bytes32 location = keccak256(abi.encode(slot)) */\n      swap1\n      pop\n        /* \"contracts/3_StorageSlots.sol\":5995:6000  index */\n      dup4\n        /* \"contracts/3_StorageSlots.sol\":5985:5993  location */\n      dup2\n        /* \"contracts/3_StorageSlots.sol\":5981:6001  add(location, index) */\n      add\n        /* \"contracts/3_StorageSlots.sol\":5975:6002  sload(add(location, index)) */\n      sload\n        /* \"contracts/3_StorageSlots.sol\":5965:6002  result := sload(add(location, index)) */\n      swap3\n      pop\n        /* \"contracts/3_StorageSlots.sol\":5951:6012  {... */\n      pop\n      pop\n        /* \"contracts/3_StorageSlots.sol\":5677:6018  function readBigArrayLocation(uint256 index)... */\n      swap2\n      swap1\n      pop\n      jump\t// out\n        /* \"contracts/3_StorageSlots.sol\":5527:5671  function bigArrayLength() external view returns (uint256 result) {... */\n    tag_41:\n        /* \"contracts/3_StorageSlots.sol\":5576:5590  uint256 result */\n      0x00\n        /* \"contracts/3_StorageSlots.sol\":5641:5654  bigArray.slot */\n      0x03\n        /* \"contracts/3_StorageSlots.sol\":5635:5655  sload(bigArray.slot) */\n      sload\n        /* \"contracts/3_StorageSlots.sol\":5625:5655  result := sload(bigArray.slot) */\n      swap1\n      pop\n        /* \"contracts/3_StorageSlots.sol\":5527:5671  function bigArrayLength() external view returns (uint256 result) {... */\n      swap1\n      jump\t// out\n        /* \"contracts/3_StorageSlots.sol\":4791:4835  mapping(uint256 => uint256) public myMapping */\n    tag_45:\n      mstore(0x20, 0x05)\n      dup1\n      0x00\n      mstore\n      keccak256(0x00, 0x40)\n      0x00\n      swap2\n      pop\n      swap1\n      pop\n      sload\n      dup2\n      jump\t// out\n        /* \"contracts/3_StorageSlots.sol\":4915:4965  mapping(address => uint256[]) public addressToList */\n    tag_49:\n      mstore(0x20, 0x07)\n      dup2\n      0x00\n      mstore\n      keccak256(0x00, 0x40)\n      dup2\n      dup2\n      sload\n      dup2\n      lt\n      tag_75\n      jumpi\n      0x00\n      dup1\n      revert\n    tag_75:\n      swap1\n      0x00\n      mstore\n      keccak256(0x00, 0x20)\n      add\n      0x00\n      swap2\n      pop\n      swap2\n      pop\n      pop\n      sload\n      dup2\n      jump\t// out\n        /* \"contracts/3_StorageSlots.sol\":7150:7535  function lengthOfNestedArray(address _address)... */\n    tag_54:\n        /* \"contracts/3_StorageSlots.sol\":7244:7258  uint256 result */\n      0x00\n        /* \"contracts/3_StorageSlots.sol\":7274:7299  uint256 addressToListSlot */\n      dup1\n        /* \"contracts/3_StorageSlots.sol\":7353:7371  addressToList.slot */\n      0x07\n        /* \"contracts/3_StorageSlots.sol\":7332:7371  addressToListSlot := addressToList.slot */\n      swap1\n      pop\n        /* \"contracts/3_StorageSlots.sol\":7391:7407  bytes32 location */\n      0x00\n        /* \"contracts/3_StorageSlots.sol\":7431:7439  _address */\n      dup4\n        /* \"contracts/3_StorageSlots.sol\":7441:7458  addressToListSlot */\n      dup3\n        /* \"contracts/3_StorageSlots.sol\":7420:7459  abi.encode(_address, addressToListSlot) */\n      add(0x20, mload(0x40))\n      tag_78\n      swap3\n      swap2\n      swap1\n      tag_66\n      jump\t// in\n    tag_78:\n      mload(0x40)\n      0x20\n      dup2\n      dup4\n      sub\n      sub\n      dup2\n      mstore\n      swap1\n      0x40\n      mstore\n        /* \"contracts/3_StorageSlots.sol\":7410:7460  keccak256(abi.encode(_address, addressToListSlot)) */\n      dup1\n      mload\n      swap1\n      0x20\n      add\n      keccak256\n        /* \"contracts/3_StorageSlots.sol\":7391:7460  bytes32 location = keccak256(abi.encode(_address, addressToListSlot)) */\n      swap1\n      pop\n        /* \"contracts/3_StorageSlots.sol\":7510:7518  location */\n      dup1\n        /* \"contracts/3_StorageSlots.sol\":7504:7519  sload(location) */\n      sload\n        /* \"contracts/3_StorageSlots.sol\":7494:7519  result := sload(location) */\n      swap3\n      pop\n        /* \"contracts/3_StorageSlots.sol\":7480:7529  {... */\n      pop\n      pop\n        /* \"contracts/3_StorageSlots.sol\":7150:7535  function lengthOfNestedArray(address _address)... */\n      swap2\n      swap1\n      pop\n      jump\t// out\n        /* \"contracts/3_StorageSlots.sol\":6735:7144  function getNestedMapping(uint256 key1, uint256 key2)... */\n    tag_58:\n        /* \"contracts/3_StorageSlots.sol\":6836:6850  uint256 result */\n      0x00\n        /* \"contracts/3_StorageSlots.sol\":6866:6878  uint256 slot */\n      dup1\n        /* \"contracts/3_StorageSlots.sol\":6919:6937  nsetedMapping.slot */\n      0x06\n        /* \"contracts/3_StorageSlots.sol\":6911:6937  slot := nsetedMapping.slot */\n      swap1\n      pop\n        /* \"contracts/3_StorageSlots.sol\":6957:6973  bytes32 location */\n      0x00\n        /* \"contracts/3_StorageSlots.sol\":7010:7014  key2 */\n      dup4\n        /* \"contracts/3_StorageSlots.sol\":7037:7041  key1 */\n      dup6\n        /* \"contracts/3_StorageSlots.sol\":7051:7055  slot */\n      dup4\n        /* \"contracts/3_StorageSlots.sol\":7026:7057  abi.encode(key1, uint256(slot)) */\n      add(0x20, mload(0x40))\n      tag_80\n      swap3\n      swap2\n      swap1\n      tag_81\n      jump\t// in\n    tag_80:\n      mload(0x40)\n      0x20\n      dup2\n      dup4\n      sub\n      sub\n      dup2\n      mstore\n      swap1\n      0x40\n      mstore\n        /* \"contracts/3_StorageSlots.sol\":7016:7058  keccak256(abi.encode(key1, uint256(slot))) */\n      dup1\n      mload\n      swap1\n      0x20\n      add\n      keccak256\n        /* \"contracts/3_StorageSlots.sol\":6999:7059  abi.encode(key2, keccak256(abi.encode(key1, uint256(slot)))) */\n      add(0x20, mload(0x40))\n      tag_82\n      swap3\n      swap2\n      swap1\n      tag_83\n      jump\t// in\n    tag_82:\n      mload(0x40)\n      0x20\n      dup2\n      dup4\n      sub\n      sub\n      dup2\n      mstore\n      swap1\n      0x40\n      mstore\n        /* \"contracts/3_StorageSlots.sol\":6976:7069  keccak256(... */\n      dup1\n      mload\n      swap1\n      0x20\n      add\n      keccak256\n        /* \"contracts/3_StorageSlots.sol\":6957:7069  bytes32 location = keccak256(... */\n      swap1\n      pop\n        /* \"contracts/3_StorageSlots.sol\":7119:7127  location */\n      dup1\n        /* \"contracts/3_StorageSlots.sol\":7113:7128  sload(location) */\n      sload\n        /* \"contracts/3_StorageSlots.sol\":7103:7128  result := sload(location) */\n      swap3\n      pop\n        /* \"contracts/3_StorageSlots.sol\":7089:7138  {... */\n      pop\n      pop\n        /* \"contracts/3_StorageSlots.sol\":6735:7144  function getNestedMapping(uint256 key1, uint256 key2)... */\n      swap3\n      swap2\n      pop\n      pop\n      jump\t// out\n        /* \"contracts/3_StorageSlots.sol\":6425:6729  function getMapping(uint256 key) external view returns (uint256 result) {... */\n    tag_62:\n        /* \"contracts/3_StorageSlots.sol\":6481:6495  uint256 result */\n      0x00\n        /* \"contracts/3_StorageSlots.sol\":6507:6519  uint256 slot */\n      dup1\n        /* \"contracts/3_StorageSlots.sol\":6560:6574  myMapping.slot */\n      0x05\n        /* \"contracts/3_StorageSlots.sol\":6552:6574  slot := myMapping.slot */\n      swap1\n      pop\n        /* \"contracts/3_StorageSlots.sol\":6594:6610  bytes32 location */\n      0x00\n        /* \"contracts/3_StorageSlots.sol\":6634:6637  key */\n      dup4\n        /* \"contracts/3_StorageSlots.sol\":6647:6651  slot */\n      dup3\n        /* \"contracts/3_StorageSlots.sol\":6623:6653  abi.encode(key, uint256(slot)) */\n      add(0x20, mload(0x40))\n      tag_85\n      swap3\n      swap2\n      swap1\n      tag_81\n      jump\t// in\n    tag_85:\n      mload(0x40)\n      0x20\n      dup2\n      dup4\n      sub\n      sub\n      dup2\n      mstore\n      swap1\n      0x40\n      mstore\n        /* \"contracts/3_StorageSlots.sol\":6613:6654  keccak256(abi.encode(key, uint256(slot))) */\n      dup1\n      mload\n      swap1\n      0x20\n      add\n      keccak256\n        /* \"contracts/3_StorageSlots.sol\":6594:6654  bytes32 location = keccak256(abi.encode(key, uint256(slot))) */\n      swap1\n      pop\n        /* \"contracts/3_StorageSlots.sol\":6704:6712  location */\n      dup1\n        /* \"contracts/3_StorageSlots.sol\":6698:6713  sload(location) */\n      sload\n        /* \"contracts/3_StorageSlots.sol\":6688:6713  result := sload(location) */\n      swap3\n      pop\n        /* \"contracts/3_StorageSlots.sol\":6674:6723  {... */\n      pop\n      pop\n        /* \"contracts/3_StorageSlots.sol\":6425:6729  function getMapping(uint256 key) external view returns (uint256 result) {... */\n      swap2\n      swap1\n      pop\n      jump\t// out\n        /* \"#utility.yul\":88:205   */\n    tag_87:\n        /* \"#utility.yul\":197:198   */\n      0x00\n        /* \"#utility.yul\":194:195   */\n      dup1\n        /* \"#utility.yul\":187:199   */\n      revert\n        /* \"#utility.yul\":334:460   */\n    tag_89:\n        /* \"#utility.yul\":371:378   */\n      0x00\n        /* \"#utility.yul\":411:453   */\n      0xffffffffffffffffffffffffffffffffffffffff\n        /* \"#utility.yul\":404:409   */\n      dup3\n        /* \"#utility.yul\":400:454   */\n      and\n        /* \"#utility.yul\":389:454   */\n      swap1\n      pop\n        /* \"#utility.yul\":334:460   */\n      swap2\n      swap1\n      pop\n      jump\t// out\n        /* \"#utility.yul\":466:562   */\n    tag_90:\n        /* \"#utility.yul\":503:510   */\n      0x00\n        /* \"#utility.yul\":532:556   */\n      tag_108\n        /* \"#utility.yul\":550:555   */\n      dup3\n        /* \"#utility.yul\":532:556   */\n      tag_89\n      jump\t// in\n    tag_108:\n        /* \"#utility.yul\":521:556   */\n      swap1\n      pop\n        /* \"#utility.yul\":466:562   */\n      swap2\n      swap1\n      pop\n      jump\t// out\n        /* \"#utility.yul\":568:690   */\n    tag_91:\n        /* \"#utility.yul\":641:665   */\n      tag_110\n        /* \"#utility.yul\":659:664   */\n      dup2\n        /* \"#utility.yul\":641:665   */\n      tag_90\n      jump\t// in\n    tag_110:\n        /* \"#utility.yul\":634:639   */\n      dup2\n        /* \"#utility.yul\":631:666   */\n      eq\n        /* \"#utility.yul\":621:684   */\n      tag_111\n      jumpi\n        /* \"#utility.yul\":680:681   */\n      0x00\n        /* \"#utility.yul\":677:678   */\n      dup1\n        /* \"#utility.yul\":670:682   */\n      revert\n        /* \"#utility.yul\":621:684   */\n    tag_111:\n        /* \"#utility.yul\":568:690   */\n      pop\n      jump\t// out\n        /* \"#utility.yul\":696:835   */\n    tag_92:\n        /* \"#utility.yul\":742:747   */\n      0x00\n        /* \"#utility.yul\":780:786   */\n      dup2\n        /* \"#utility.yul\":767:787   */\n      calldataload\n        /* \"#utility.yul\":758:787   */\n      swap1\n      pop\n        /* \"#utility.yul\":796:829   */\n      tag_113\n        /* \"#utility.yul\":823:828   */\n      dup2\n        /* \"#utility.yul\":796:829   */\n      tag_91\n      jump\t// in\n    tag_113:\n        /* \"#utility.yul\":696:835   */\n      swap3\n      swap2\n      pop\n      pop\n      jump\t// out\n        /* \"#utility.yul\":841:918   */\n    tag_93:\n        /* \"#utility.yul\":878:885   */\n      0x00\n        /* \"#utility.yul\":907:912   */\n      dup2\n        /* \"#utility.yul\":896:912   */\n      swap1\n      pop\n        /* \"#utility.yul\":841:918   */\n      swap2\n      swap1\n      pop\n      jump\t// out\n        /* \"#utility.yul\":924:1046   */\n    tag_94:\n        /* \"#utility.yul\":997:1021   */\n      tag_116\n        /* \"#utility.yul\":1015:1020   */\n      dup2\n        /* \"#utility.yul\":997:1021   */\n      tag_93\n      jump\t// in\n    tag_116:\n        /* \"#utility.yul\":990:995   */\n      dup2\n        /* \"#utility.yul\":987:1022   */\n      eq\n        /* \"#utility.yul\":977:1040   */\n      tag_117\n      jumpi\n        /* \"#utility.yul\":1036:1037   */\n      0x00\n        /* \"#utility.yul\":1033:1034   */\n      dup1\n        /* \"#utility.yul\":1026:1038   */\n      revert\n        /* \"#utility.yul\":977:1040   */\n    tag_117:\n        /* \"#utility.yul\":924:1046   */\n      pop\n      jump\t// out\n        /* \"#utility.yul\":1052:1191   */\n    tag_95:\n        /* \"#utility.yul\":1098:1103   */\n      0x00\n        /* \"#utility.yul\":1136:1142   */\n      dup2\n        /* \"#utility.yul\":1123:1143   */\n      calldataload\n        /* \"#utility.yul\":1114:1143   */\n      swap1\n      pop\n        /* \"#utility.yul\":1152:1185   */\n      tag_119\n        /* \"#utility.yul\":1179:1184   */\n      dup2\n        /* \"#utility.yul\":1152:1185   */\n      tag_94\n      jump\t// in\n    tag_119:\n        /* \"#utility.yul\":1052:1191   */\n      swap3\n      swap2\n      pop\n      pop\n      jump\t// out\n        /* \"#utility.yul\":1197:1671   */\n    tag_17:\n        /* \"#utility.yul\":1265:1271   */\n      0x00\n        /* \"#utility.yul\":1273:1279   */\n      dup1\n        /* \"#utility.yul\":1322:1324   */\n      0x40\n        /* \"#utility.yul\":1310:1319   */\n      dup4\n        /* \"#utility.yul\":1301:1308   */\n      dup6\n        /* \"#utility.yul\":1297:1320   */\n      sub\n        /* \"#utility.yul\":1293:1325   */\n      slt\n        /* \"#utility.yul\":1290:1409   */\n      iszero\n      tag_121\n      jumpi\n        /* \"#utility.yul\":1328:1407   */\n      tag_122\n      tag_87\n      jump\t// in\n    tag_122:\n        /* \"#utility.yul\":1290:1409   */\n    tag_121:\n        /* \"#utility.yul\":1448:1449   */\n      0x00\n        /* \"#utility.yul\":1473:1526   */\n      tag_123\n        /* \"#utility.yul\":1518:1525   */\n      dup6\n        /* \"#utility.yul\":1509:1515   */\n      dup3\n        /* \"#utility.yul\":1498:1507   */\n      dup7\n        /* \"#utility.yul\":1494:1516   */\n      add\n        /* \"#utility.yul\":1473:1526   */\n      tag_92\n      jump\t// in\n    tag_123:\n        /* \"#utility.yul\":1463:1526   */\n      swap3\n      pop\n        /* \"#utility.yul\":1419:1536   */\n      pop\n        /* \"#utility.yul\":1575:1577   */\n      0x20\n        /* \"#utility.yul\":1601:1654   */\n      tag_124\n        /* \"#utility.yul\":1646:1653   */\n      dup6\n        /* \"#utility.yul\":1637:1643   */\n      dup3\n        /* \"#utility.yul\":1626:1635   */\n      dup7\n        /* \"#utility.yul\":1622:1644   */\n      add\n        /* \"#utility.yul\":1601:1654   */\n      tag_95\n      jump\t// in\n    tag_124:\n        /* \"#utility.yul\":1591:1654   */\n      swap2\n      pop\n        /* \"#utility.yul\":1546:1664   */\n      pop\n        /* \"#utility.yul\":1197:1671   */\n      swap3\n      pop\n      swap3\n      swap1\n      pop\n      jump\t// out\n        /* \"#utility.yul\":1677:1795   */\n    tag_96:\n        /* \"#utility.yul\":1764:1788   */\n      tag_126\n        /* \"#utility.yul\":1782:1787   */\n      dup2\n        /* \"#utility.yul\":1764:1788   */\n      tag_93\n      jump\t// in\n    tag_126:\n        /* \"#utility.yul\":1759:1762   */\n      dup3\n        /* \"#utility.yul\":1752:1789   */\n      mstore\n        /* \"#utility.yul\":1677:1795   */\n      pop\n      pop\n      jump\t// out\n        /* \"#utility.yul\":1801:2023   */\n    tag_20:\n        /* \"#utility.yul\":1894:1898   */\n      0x00\n        /* \"#utility.yul\":1932:1934   */\n      0x20\n        /* \"#utility.yul\":1921:1930   */\n      dup3\n        /* \"#utility.yul\":1917:1935   */\n      add\n        /* \"#utility.yul\":1909:1935   */\n      swap1\n      pop\n        /* \"#utility.yul\":1945:2016   */\n      tag_128\n        /* \"#utility.yul\":2013:2014   */\n      0x00\n        /* \"#utility.yul\":2002:2011   */\n      dup4\n        /* \"#utility.yul\":1998:2015   */\n      add\n        /* \"#utility.yul\":1989:1995   */\n      dup5\n        /* \"#utility.yul\":1945:2016   */\n      tag_96\n      jump\t// in\n    tag_128:\n        /* \"#utility.yul\":1801:2023   */\n      swap3\n      swap2\n      pop\n      pop\n      jump\t// out\n        /* \"#utility.yul\":2029:2503   */\n    tag_23:\n        /* \"#utility.yul\":2097:2103   */\n      0x00\n        /* \"#utility.yul\":2105:2111   */\n      dup1\n        /* \"#utility.yul\":2154:2156   */\n      0x40\n        /* \"#utility.yul\":2142:2151   */\n      dup4\n        /* \"#utility.yul\":2133:2140   */\n      dup6\n        /* \"#utility.yul\":2129:2152   */\n      sub\n        /* \"#utility.yul\":2125:2157   */\n      slt\n        /* \"#utility.yul\":2122:2241   */\n      iszero\n      tag_130\n      jumpi\n        /* \"#utility.yul\":2160:2239   */\n      tag_131\n      tag_87\n      jump\t// in\n    tag_131:\n        /* \"#utility.yul\":2122:2241   */\n    tag_130:\n        /* \"#utility.yul\":2280:2281   */\n      0x00\n        /* \"#utility.yul\":2305:2358   */\n      tag_132\n        /* \"#utility.yul\":2350:2357   */\n      dup6\n        /* \"#utility.yul\":2341:2347   */\n      dup3\n        /* \"#utility.yul\":2330:2339   */\n      dup7\n        /* \"#utility.yul\":2326:2348   */\n      add\n        /* \"#utility.yul\":2305:2358   */\n      tag_95\n      jump\t// in\n    tag_132:\n        /* \"#utility.yul\":2295:2358   */\n      swap3\n      pop\n        /* \"#utility.yul\":2251:2368   */\n      pop\n        /* \"#utility.yul\":2407:2409   */\n      0x20\n        /* \"#utility.yul\":2433:2486   */\n      tag_133\n        /* \"#utility.yul\":2478:2485   */\n      dup6\n        /* \"#utility.yul\":2469:2475   */\n      dup3\n        /* \"#utility.yul\":2458:2467   */\n      dup7\n        /* \"#utility.yul\":2454:2476   */\n      add\n        /* \"#utility.yul\":2433:2486   */\n      tag_95\n      jump\t// in\n    tag_133:\n        /* \"#utility.yul\":2423:2486   */\n      swap2\n      pop\n        /* \"#utility.yul\":2378:2496   */\n      pop\n        /* \"#utility.yul\":2029:2503   */\n      swap3\n      pop\n      swap3\n      swap1\n      pop\n      jump\t// out\n        /* \"#utility.yul\":2509:2838   */\n    tag_28:\n        /* \"#utility.yul\":2568:2574   */\n      0x00\n        /* \"#utility.yul\":2617:2619   */\n      0x20\n        /* \"#utility.yul\":2605:2614   */\n      dup3\n        /* \"#utility.yul\":2596:2603   */\n      dup5\n        /* \"#utility.yul\":2592:2615   */\n      sub\n        /* \"#utility.yul\":2588:2620   */\n      slt\n        /* \"#utility.yul\":2585:2704   */\n      iszero\n      tag_135\n      jumpi\n        /* \"#utility.yul\":2623:2702   */\n      tag_136\n      tag_87\n      jump\t// in\n    tag_136:\n        /* \"#utility.yul\":2585:2704   */\n    tag_135:\n        /* \"#utility.yul\":2743:2744   */\n      0x00\n        /* \"#utility.yul\":2768:2821   */\n      tag_137\n        /* \"#utility.yul\":2813:2820   */\n      dup5\n        /* \"#utility.yul\":2804:2810   */\n      dup3\n        /* \"#utility.yul\":2793:2802   */\n      dup6\n        /* \"#utility.yul\":2789:2811   */\n      add\n        /* \"#utility.yul\":2768:2821   */\n      tag_95\n      jump\t// in\n    tag_137:\n        /* \"#utility.yul\":2758:2821   */\n      swap2\n      pop\n        /* \"#utility.yul\":2714:2831   */\n      pop\n        /* \"#utility.yul\":2509:2838   */\n      swap3\n      swap2\n      pop\n      pop\n      jump\t// out\n        /* \"#utility.yul\":2844:2921   */\n    tag_97:\n        /* \"#utility.yul\":2881:2888   */\n      0x00\n        /* \"#utility.yul\":2910:2915   */\n      dup2\n        /* \"#utility.yul\":2899:2915   */\n      swap1\n      pop\n        /* \"#utility.yul\":2844:2921   */\n      swap2\n      swap1\n      pop\n      jump\t// out\n        /* \"#utility.yul\":2927:3045   */\n    tag_98:\n        /* \"#utility.yul\":3014:3038   */\n      tag_140\n        /* \"#utility.yul\":3032:3037   */\n      dup2\n        /* \"#utility.yul\":3014:3038   */\n      tag_97\n      jump\t// in\n    tag_140:\n        /* \"#utility.yul\":3009:3012   */\n      dup3\n        /* \"#utility.yul\":3002:3039   */\n      mstore\n        /* \"#utility.yul\":2927:3045   */\n      pop\n      pop\n      jump\t// out\n        /* \"#utility.yul\":3051:3137   */\n    tag_99:\n        /* \"#utility.yul\":3086:3093   */\n      0x00\n        /* \"#utility.yul\":3126:3130   */\n      0xff\n        /* \"#utility.yul\":3119:3124   */\n      dup3\n        /* \"#utility.yul\":3115:3131   */\n      and\n        /* \"#utility.yul\":3104:3131   */\n      swap1\n      pop\n        /* \"#utility.yul\":3051:3137   */\n      swap2\n      swap1\n      pop\n      jump\t// out\n        /* \"#utility.yul\":3143:3255   */\n    tag_100:\n        /* \"#utility.yul\":3226:3248   */\n      tag_143\n        /* \"#utility.yul\":3242:3247   */\n      dup2\n        /* \"#utility.yul\":3226:3248   */\n      tag_99\n      jump\t// in\n    tag_143:\n        /* \"#utility.yul\":3221:3224   */\n      dup3\n        /* \"#utility.yul\":3214:3249   */\n      mstore\n        /* \"#utility.yul\":3143:3255   */\n      pop\n      pop\n      jump\t// out\n        /* \"#utility.yul\":3261:3585   */\n    tag_35:\n        /* \"#utility.yul\":3378:3382   */\n      0x00\n        /* \"#utility.yul\":3416:3418   */\n      0x40\n        /* \"#utility.yul\":3405:3414   */\n      dup3\n        /* \"#utility.yul\":3401:3419   */\n      add\n        /* \"#utility.yul\":3393:3419   */\n      swap1\n      pop\n        /* \"#utility.yul\":3429:3500   */\n      tag_145\n        /* \"#utility.yul\":3497:3498   */\n      0x00\n        /* \"#utility.yul\":3486:3495   */\n      dup4\n        /* \"#utility.yul\":3482:3499   */\n      add\n        /* \"#utility.yul\":3473:3479   */\n      dup6\n        /* \"#utility.yul\":3429:3500   */\n      tag_98\n      jump\t// in\n    tag_145:\n        /* \"#utility.yul\":3510:3578   */\n      tag_146\n        /* \"#utility.yul\":3574:3576   */\n      0x20\n        /* \"#utility.yul\":3563:3572   */\n      dup4\n        /* \"#utility.yul\":3559:3577   */\n      add\n        /* \"#utility.yul\":3550:3556   */\n      dup5\n        /* \"#utility.yul\":3510:3578   */\n      tag_100\n      jump\t// in\n    tag_146:\n        /* \"#utility.yul\":3261:3585   */\n      swap4\n      swap3\n      pop\n      pop\n      pop\n      jump\t// out\n        /* \"#utility.yul\":3591:3920   */\n    tag_53:\n        /* \"#utility.yul\":3650:3656   */\n      0x00\n        /* \"#utility.yul\":3699:3701   */\n      0x20\n        /* \"#utility.yul\":3687:3696   */\n      dup3\n        /* \"#utility.yul\":3678:3685   */\n      dup5\n        /* \"#utility.yul\":3674:3697   */\n      sub\n        /* \"#utility.yul\":3670:3702   */\n      slt\n        /* \"#utility.yul\":3667:3786   */\n      iszero\n      tag_148\n      jumpi\n        /* \"#utility.yul\":3705:3784   */\n      tag_149\n      tag_87\n      jump\t// in\n    tag_149:\n        /* \"#utility.yul\":3667:3786   */\n    tag_148:\n        /* \"#utility.yul\":3825:3826   */\n      0x00\n        /* \"#utility.yul\":3850:3903   */\n      tag_150\n        /* \"#utility.yul\":3895:3902   */\n      dup5\n        /* \"#utility.yul\":3886:3892   */\n      dup3\n        /* \"#utility.yul\":3875:3884   */\n      dup6\n        /* \"#utility.yul\":3871:3893   */\n      add\n        /* \"#utility.yul\":3850:3903   */\n      tag_92\n      jump\t// in\n    tag_150:\n        /* \"#utility.yul\":3840:3903   */\n      swap2\n      pop\n        /* \"#utility.yul\":3796:3913   */\n      pop\n        /* \"#utility.yul\":3591:3920   */\n      swap3\n      swap2\n      pop\n      pop\n      jump\t// out\n        /* \"#utility.yul\":3926:4044   */\n    tag_101:\n        /* \"#utility.yul\":4013:4037   */\n      tag_152\n        /* \"#utility.yul\":4031:4036   */\n      dup2\n        /* \"#utility.yul\":4013:4037   */\n      tag_90\n      jump\t// in\n    tag_152:\n        /* \"#utility.yul\":4008:4011   */\n      dup3\n        /* \"#utility.yul\":4001:4038   */\n      mstore\n        /* \"#utility.yul\":3926:4044   */\n      pop\n      pop\n      jump\t// out\n        /* \"#utility.yul\":4050:4382   */\n    tag_66:\n        /* \"#utility.yul\":4171:4175   */\n      0x00\n        /* \"#utility.yul\":4209:4211   */\n      0x40\n        /* \"#utility.yul\":4198:4207   */\n      dup3\n        /* \"#utility.yul\":4194:4212   */\n      add\n        /* \"#utility.yul\":4186:4212   */\n      swap1\n      pop\n        /* \"#utility.yul\":4222:4293   */\n      tag_154\n        /* \"#utility.yul\":4290:4291   */\n      0x00\n        /* \"#utility.yul\":4279:4288   */\n      dup4\n        /* \"#utility.yul\":4275:4292   */\n      add\n        /* \"#utility.yul\":4266:4272   */\n      dup6\n        /* \"#utility.yul\":4222:4293   */\n      tag_101\n      jump\t// in\n    tag_154:\n        /* \"#utility.yul\":4303:4375   */\n      tag_155\n        /* \"#utility.yul\":4371:4373   */\n      0x20\n        /* \"#utility.yul\":4360:4369   */\n      dup4\n        /* \"#utility.yul\":4356:4374   */\n      add\n        /* \"#utility.yul\":4347:4353   */\n      dup5\n        /* \"#utility.yul\":4303:4375   */\n      tag_96\n      jump\t// in\n    tag_155:\n        /* \"#utility.yul\":4050:4382   */\n      swap4\n      swap3\n      pop\n      pop\n      pop\n      jump\t// out\n        /* \"#utility.yul\":4388:4610   */\n    tag_68:\n        /* \"#utility.yul\":4481:4485   */\n      0x00\n        /* \"#utility.yul\":4519:4521   */\n      0x20\n        /* \"#utility.yul\":4508:4517   */\n      dup3\n        /* \"#utility.yul\":4504:4522   */\n      add\n        /* \"#utility.yul\":4496:4522   */\n      swap1\n      pop\n        /* \"#utility.yul\":4532:4603   */\n      tag_157\n        /* \"#utility.yul\":4600:4601   */\n      0x00\n        /* \"#utility.yul\":4589:4598   */\n      dup4\n        /* \"#utility.yul\":4585:4602   */\n      add\n        /* \"#utility.yul\":4576:4582   */\n      dup5\n        /* \"#utility.yul\":4532:4603   */\n      tag_98\n      jump\t// in\n    tag_157:\n        /* \"#utility.yul\":4388:4610   */\n      swap3\n      swap2\n      pop\n      pop\n      jump\t// out\n        /* \"#utility.yul\":4616:4948   */\n    tag_81:\n        /* \"#utility.yul\":4737:4741   */\n      0x00\n        /* \"#utility.yul\":4775:4777   */\n      0x40\n        /* \"#utility.yul\":4764:4773   */\n      dup3\n        /* \"#utility.yul\":4760:4778   */\n      add\n        /* \"#utility.yul\":4752:4778   */\n      swap1\n      pop\n        /* \"#utility.yul\":4788:4859   */\n      tag_159\n        /* \"#utility.yul\":4856:4857   */\n      0x00\n        /* \"#utility.yul\":4845:4854   */\n      dup4\n        /* \"#utility.yul\":4841:4858   */\n      add\n        /* \"#utility.yul\":4832:4838   */\n      dup6\n        /* \"#utility.yul\":4788:4859   */\n      tag_96\n      jump\t// in\n    tag_159:\n        /* \"#utility.yul\":4869:4941   */\n      tag_160\n        /* \"#utility.yul\":4937:4939   */\n      0x20\n        /* \"#utility.yul\":4926:4935   */\n      dup4\n        /* \"#utility.yul\":4922:4940   */\n      add\n        /* \"#utility.yul\":4913:4919   */\n      dup5\n        /* \"#utility.yul\":4869:4941   */\n      tag_96\n      jump\t// in\n    tag_160:\n        /* \"#utility.yul\":4616:4948   */\n      swap4\n      swap3\n      pop\n      pop\n      pop\n      jump\t// out\n        /* \"#utility.yul\":4954:5286   */\n    tag_83:\n        /* \"#utility.yul\":5075:5079   */\n      0x00\n        /* \"#utility.yul\":5113:5115   */\n      0x40\n        /* \"#utility.yul\":5102:5111   */\n      dup3\n        /* \"#utility.yul\":5098:5116   */\n      add\n        /* \"#utility.yul\":5090:5116   */\n      swap1\n      pop\n        /* \"#utility.yul\":5126:5197   */\n      tag_162\n        /* \"#utility.yul\":5194:5195   */\n      0x00\n        /* \"#utility.yul\":5183:5192   */\n      dup4\n        /* \"#utility.yul\":5179:5196   */\n      add\n        /* \"#utility.yul\":5170:5176   */\n      dup6\n        /* \"#utility.yul\":5126:5197   */\n      tag_96\n      jump\t// in\n    tag_162:\n        /* \"#utility.yul\":5207:5279   */\n      tag_163\n        /* \"#utility.yul\":5275:5277   */\n      0x20\n        /* \"#utility.yul\":5264:5273   */\n      dup4\n        /* \"#utility.yul\":5260:5278   */\n      add\n        /* \"#utility.yul\":5251:5257   */\n      dup5\n        /* \"#utility.yul\":5207:5279   */\n      tag_98\n      jump\t// in\n    tag_163:\n        /* \"#utility.yul\":4954:5286   */\n      swap4\n      swap3\n      pop\n      pop\n      pop\n      jump\t// out\n\n    auxdata: 0xa26469706673582212205c0936a56b9aa66b878101ebb40fe6dc76255a4480bc7494fe95ef065bdb154364736f6c63430008120033\n}\n",
				"bytecode": {
					"linkReferences": {},
					"object": "60806040523480156200001157600080fd5b506040518060600160405280606361ffff1681526020016103e761ffff16815260200161270f61ffff16815250600090600362000050929190620001ba565b506040518060600160405280600a60ff168152602001601460ff168152602001601e60ff1681525060039060036200008a92919062000205565b506040518060600160405280600160ff168152602001600260ff168152602001600360ff168152506004906003620000c49291906200025c565b506005806000600a815260200190815260200160002081905550600660056000600b81526020019081526020016000208190555060076006600060028152602001908152602001600020600060048152602001908152602001600020819055506040518060600160405280602a61ffff16815260200161053961ffff16815260200161030961ffff1681525060076000735b38da6a701c568545dcfcb03fcb875f56beddc473ffffffffffffffffffffffffffffffffffffffff1673ffffffffffffffffffffffffffffffffffffffff168152602001908152602001600020906003620001b39291906200030a565b5062000381565b8260038101928215620001f2579160200282015b82811115620001f1578251829061ffff16905591602001919060010190620001ce565b5b50905062000201919062000362565b5090565b82805482825590600052602060002090810192821562000249579160200282015b8281111562000248578251829060ff1690559160200191906001019062000226565b5b50905062000258919062000362565b5090565b82805482825590600052602060002090601f01602090048101928215620002f75791602002820160005b83821115620002c657835183826101000a81548160ff021916908360ff160217905550926020019260010160208160000104928301926001030262000286565b8015620002f55782816101000a81549060ff0219169055600101602081600001049283019260010302620002c6565b505b50905062000306919062000362565b5090565b8280548282559060005260206000209081019282156200034f579160200282015b828111156200034e578251829061ffff169055916020019190600101906200032b565b5b5090506200035e919062000362565b5090565b5b808211156200037d57600081600090555060010162000363565b5090565b6107dd80620003916000396000f3fe608060405234801561001057600080fd5b50600436106100a95760003560e01c80637a1608de116100715780637a1608de1461019f5780637c668844146101bd5780638242a936146101ed578063a9f04c531461021d578063d7bd7b721461024d578063ede9ba8b1461027d576100a9565b80631459cc00146100ae5780632da60d88146100de578063307e972e1461010e578063439c3e9a1461013e578063591015171461016f575b600080fd5b6100c860048036038101906100c391906105a0565b6102ad565b6040516100d591906105ef565b60405180910390f35b6100f860048036038101906100f3919061060a565b610315565b60405161010591906105ef565b60405180910390f35b6101286004803603810190610123919061064a565b61033a565b60405161013591906105ef565b60405180910390f35b6101586004803603810190610153919061064a565b610348565b6040516101669291906106ac565b60405180910390f35b6101896004803603810190610184919061064a565b61038f565b60405161019691906105ef565b60405180910390f35b6101a76103ce565b6040516101b491906105ef565b60405180910390f35b6101d760048036038101906101d2919061064a565b6103d8565b6040516101e491906105ef565b60405180910390f35b610207600480360381019061020291906105a0565b6103f0565b60405161021491906105ef565b60405180910390f35b610237600480360381019061023291906106d5565b610421565b60405161024491906105ef565b60405180910390f35b6102676004803603810190610262919061060a565b610460565b60405161027491906105ef565b60405180910390f35b6102976004803603810190610292919061064a565b6104c8565b6040516102a491906105ef565b60405180910390f35b60008060079050600084826040516020016102c9929190610711565b604051602081830303815290604052805190602001206040516020016102ef919061073a565b604051602081830303815290604052805190602001209050838101549250505092915050565b6006602052816000526040600020602052806000526040600020600091509150505481565b600081600001549050919050565b60008060006004905060008160405160200161036491906105ef565b6040516020818303038152906040528051906020012090508481015493508481015492505050915091565b600080600390506000816040516020016103a991906105ef565b6040516020818303038152906040528051906020012090508381015492505050919050565b6000600354905090565b60056020528060005260406000206000915090505481565b6007602052816000526040600020818154811061040c57600080fd5b90600052602060002001600091509150505481565b600080600790506000838260405160200161043d929190610711565b604051602081830303815290604052805190602001209050805492505050919050565b60008060069050600083858360405160200161047d929190610755565b604051602081830303815290604052805190602001206040516020016104a492919061077e565b60405160208183030381529060405280519060200120905080549250505092915050565b60008060059050600083826040516020016104e4929190610755565b604051602081830303815290604052805190602001209050805492505050919050565b600080fd5b600073ffffffffffffffffffffffffffffffffffffffff82169050919050565b60006105378261050c565b9050919050565b6105478161052c565b811461055257600080fd5b50565b6000813590506105648161053e565b92915050565b6000819050919050565b61057d8161056a565b811461058857600080fd5b50565b60008135905061059a81610574565b92915050565b600080604083850312156105b7576105b6610507565b5b60006105c585828601610555565b92505060206105d68582860161058b565b9150509250929050565b6105e98161056a565b82525050565b600060208201905061060460008301846105e0565b92915050565b6000806040838503121561062157610620610507565b5b600061062f8582860161058b565b92505060206106408582860161058b565b9150509250929050565b6000602082840312156106605761065f610507565b5b600061066e8482850161058b565b91505092915050565b6000819050919050565b61068a81610677565b82525050565b600060ff82169050919050565b6106a681610690565b82525050565b60006040820190506106c16000830185610681565b6106ce602083018461069d565b9392505050565b6000602082840312156106eb576106ea610507565b5b60006106f984828501610555565b91505092915050565b61070b8161052c565b82525050565b60006040820190506107266000830185610702565b61073360208301846105e0565b9392505050565b600060208201905061074f6000830184610681565b92915050565b600060408201905061076a60008301856105e0565b61077760208301846105e0565b9392505050565b600060408201905061079360008301856105e0565b6107a06020830184610681565b939250505056fea26469706673582212205c0936a56b9aa66b878101ebb40fe6dc76255a4480bc7494fe95ef065bdb154364736f6c63430008120033",
					"opcodes": "PUSH1 0x80 PUSH1 0x40 MSTORE CALLVALUE DUP1 ISZERO PUSH3 0x11 JUMPI PUSH1 0x0 DUP1 REVERT JUMPDEST POP PUSH1 0x40 MLOAD DUP1 PUSH1 0x60 ADD PUSH1 0x40 MSTORE DUP1 PUSH1 0x63 PUSH2 0xFFFF AND DUP2 MSTORE PUSH1 0x20 ADD PUSH2 0x3E7 PUSH2 0xFFFF AND DUP2 MSTORE PUSH1 0x20 ADD PUSH2 0x270F PUSH2 0xFFFF AND DUP2 MSTORE POP PUSH1 0x0 SWAP1 PUSH1 0x3 PUSH3 0x50 SWAP3 SWAP2 SWAP1 PUSH3 0x1BA JUMP JUMPDEST POP PUSH1 0x40 MLOAD DUP1 PUSH1 0x60 ADD PUSH1 0x40 MSTORE DUP1 PUSH1 0xA PUSH1 0xFF AND DUP2 MSTORE PUSH1 0x20 ADD PUSH1 0x14 PUSH1 0xFF AND DUP2 MSTORE PUSH1 0x20 ADD PUSH1 0x1E PUSH1 0xFF AND DUP2 MSTORE POP PUSH1 0x3 SWAP1 PUSH1 0x3 PUSH3 0x8A SWAP3 SWAP2 SWAP1 PUSH3 0x205 JUMP JUMPDEST POP PUSH1 0x40 MLOAD DUP1 PUSH1 0x60 ADD PUSH1 0x40 MSTORE DUP1 PUSH1 0x1 PUSH1 0xFF AND DUP2 MSTORE PUSH1 0x20 ADD PUSH1 0x2 PUSH1 0xFF AND DUP2 MSTORE PUSH1 0x20 ADD PUSH1 0x3 PUSH1 0xFF AND DUP2 MSTORE POP PUSH1 0x4 SWAP1 PUSH1 0x3 PUSH3 0xC4 SWAP3 SWAP2 SWAP1 PUSH3 0x25C JUMP JUMPDEST POP PUSH1 0x5 DUP1 PUSH1 0x0 PUSH1 0xA DUP2 MSTORE PUSH1 0x20 ADD SWAP1 DUP2 MSTORE PUSH1 0x20 ADD PUSH1 0x0 KECCAK256 DUP2 SWAP1 SSTORE POP PUSH1 0x6 PUSH1 0x5 PUSH1 0x0 PUSH1 0xB DUP2 MSTORE PUSH1 0x20 ADD SWAP1 DUP2 MSTORE PUSH1 0x20 ADD PUSH1 0x0 KECCAK256 DUP2 SWAP1 SSTORE POP PUSH1 0x7 PUSH1 0x6 PUSH1 0x0 PUSH1 0x2 DUP2 MSTORE PUSH1 0x20 ADD SWAP1 DUP2 MSTORE PUSH1 0x20 ADD PUSH1 0x0 KECCAK256 PUSH1 0x0 PUSH1 0x4 DUP2 MSTORE PUSH1 0x20 ADD SWAP1 DUP2 MSTORE PUSH1 0x20 ADD PUSH1 0x0 KECCAK256 DUP2 SWAP1 SSTORE POP PUSH1 0x40 MLOAD DUP1 PUSH1 0x60 ADD PUSH1 0x40 MSTORE DUP1 PUSH1 0x2A PUSH2 0xFFFF AND DUP2 MSTORE PUSH1 0x20 ADD PUSH2 0x539 PUSH2 0xFFFF AND DUP2 MSTORE PUSH1 0x20 ADD PUSH2 0x309 PUSH2 0xFFFF AND DUP2 MSTORE POP PUSH1 0x7 PUSH1 0x0 PUSH20 0x5B38DA6A701C568545DCFCB03FCB875F56BEDDC4 PUSH20 0xFFFFFFFFFFFFFFFFFFFFFFFFFFFFFFFFFFFFFFFF AND PUSH20 0xFFFFFFFFFFFFFFFFFFFFFFFFFFFFFFFFFFFFFFFF AND DUP2 MSTORE PUSH1 0x20 ADD SWAP1 DUP2 MSTORE PUSH1 0x20 ADD PUSH1 0x0 KECCAK256 SWAP1 PUSH1 0x3 PUSH3 0x1B3 SWAP3 SWAP2 SWAP1 PUSH3 0x30A JUMP JUMPDEST POP PUSH3 0x381 JUMP JUMPDEST DUP3 PUSH1 0x3 DUP2 ADD SWAP3 DUP3 ISZERO PUSH3 0x1F2 JUMPI SWAP2 PUSH1 0x20 MUL DUP3 ADD JUMPDEST DUP3 DUP2 GT ISZERO PUSH3 0x1F1 JUMPI DUP3 MLOAD DUP3 SWAP1 PUSH2 0xFFFF AND SWAP1 SSTORE SWAP2 PUSH1 0x20 ADD SWAP2 SWAP1 PUSH1 0x1 ADD SWAP1 PUSH3 0x1CE JUMP JUMPDEST JUMPDEST POP SWAP1 POP PUSH3 0x201 SWAP2 SWAP1 PUSH3 0x362 JUMP JUMPDEST POP SWAP1 JUMP JUMPDEST DUP3 DUP1 SLOAD DUP3 DUP3 SSTORE SWAP1 PUSH1 0x0 MSTORE PUSH1 0x20 PUSH1 0x0 KECCAK256 SWAP1 DUP2 ADD SWAP3 DUP3 ISZERO PUSH3 0x249 JUMPI SWAP2 PUSH1 0x20 MUL DUP3 ADD JUMPDEST DUP3 DUP2 GT ISZERO PUSH3 0x248 JUMPI DUP3 MLOAD DUP3 SWAP1 PUSH1 0xFF AND SWAP1 SSTORE SWAP2 PUSH1 0x20 ADD SWAP2 SWAP1 PUSH1 0x1 ADD SWAP1 PUSH3 0x226 JUMP JUMPDEST JUMPDEST POP SWAP1 POP PUSH3 0x258 SWAP2 SWAP1 PUSH3 0x362 JUMP JUMPDEST POP SWAP1 JUMP JUMPDEST DUP3 DUP1 SLOAD DUP3 DUP3 SSTORE SWAP1 PUSH1 0x0 MSTORE PUSH1 0x20 PUSH1 0x0 KECCAK256 SWAP1 PUSH1 0x1F ADD PUSH1 0x20 SWAP1 DIV DUP2 ADD SWAP3 DUP3 ISZERO PUSH3 0x2F7 JUMPI SWAP2 PUSH1 0x20 MUL DUP3 ADD PUSH1 0x0 JUMPDEST DUP4 DUP3 GT ISZERO PUSH3 0x2C6 JUMPI DUP4 MLOAD DUP4 DUP3 PUSH2 0x100 EXP DUP2 SLOAD DUP2 PUSH1 0xFF MUL NOT AND SWAP1 DUP4 PUSH1 0xFF AND MUL OR SWAP1 SSTORE POP SWAP3 PUSH1 0x20 ADD SWAP3 PUSH1 0x1 ADD PUSH1 0x20 DUP2 PUSH1 0x0 ADD DIV SWAP3 DUP4 ADD SWAP3 PUSH1 0x1 SUB MUL PUSH3 0x286 JUMP JUMPDEST DUP1 ISZERO PUSH3 0x2F5 JUMPI DUP3 DUP2 PUSH2 0x100 EXP DUP2 SLOAD SWAP1 PUSH1 0xFF MUL NOT AND SWAP1 SSTORE PUSH1 0x1 ADD PUSH1 0x20 DUP2 PUSH1 0x0 ADD DIV SWAP3 DUP4 ADD SWAP3 PUSH1 0x1 SUB MUL PUSH3 0x2C6 JUMP JUMPDEST POP JUMPDEST POP SWAP1 POP PUSH3 0x306 SWAP2 SWAP1 PUSH3 0x362 JUMP JUMPDEST POP SWAP1 JUMP JUMPDEST DUP3 DUP1 SLOAD DUP3 DUP3 SSTORE SWAP1 PUSH1 0x0 MSTORE PUSH1 0x20 PUSH1 0x0 KECCAK256 SWAP1 DUP2 ADD SWAP3 DUP3 ISZERO PUSH3 0x34F JUMPI SWAP2 PUSH1 0x20 MUL DUP3 ADD JUMPDEST DUP3 DUP2 GT ISZERO PUSH3 0x34E JUMPI DUP3 MLOAD DUP3 SWAP1 PUSH2 0xFFFF AND SWAP1 SSTORE SWAP2 PUSH1 0x20 ADD SWAP2 SWAP1 PUSH1 0x1 ADD SWAP1 PUSH3 0x32B JUMP JUMPDEST JUMPDEST POP SWAP1 POP PUSH3 0x35E SWAP2 SWAP1 PUSH3 0x362 JUMP JUMPDEST POP SWAP1 JUMP JUMPDEST JUMPDEST DUP1 DUP3 GT ISZERO PUSH3 0x37D JUMPI PUSH1 0x0 DUP2 PUSH1 0x0 SWAP1 SSTORE POP PUSH1 0x1 ADD PUSH3 0x363 JUMP JUMPDEST POP SWAP1 JUMP JUMPDEST PUSH2 0x7DD DUP1 PUSH3 0x391 PUSH1 0x0 CODECOPY PUSH1 0x0 RETURN INVALID PUSH1 0x80 PUSH1 0x40 MSTORE CALLVALUE DUP1 ISZERO PUSH2 0x10 JUMPI PUSH1 0x0 DUP1 REVERT JUMPDEST POP PUSH1 0x4 CALLDATASIZE LT PUSH2 0xA9 JUMPI PUSH1 0x0 CALLDATALOAD PUSH1 0xE0 SHR DUP1 PUSH4 0x7A1608DE GT PUSH2 0x71 JUMPI DUP1 PUSH4 0x7A1608DE EQ PUSH2 0x19F JUMPI DUP1 PUSH4 0x7C668844 EQ PUSH2 0x1BD JUMPI DUP1 PUSH4 0x8242A936 EQ PUSH2 0x1ED JUMPI DUP1 PUSH4 0xA9F04C53 EQ PUSH2 0x21D JUMPI DUP1 PUSH4 0xD7BD7B72 EQ PUSH2 0x24D JUMPI DUP1 PUSH4 0xEDE9BA8B EQ PUSH2 0x27D JUMPI PUSH2 0xA9 JUMP JUMPDEST DUP1 PUSH4 0x1459CC00 EQ PUSH2 0xAE JUMPI DUP1 PUSH4 0x2DA60D88 EQ PUSH2 0xDE JUMPI DUP1 PUSH4 0x307E972E EQ PUSH2 0x10E JUMPI DUP1 PUSH4 0x439C3E9A EQ PUSH2 0x13E JUMPI DUP1 PUSH4 0x59101517 EQ PUSH2 0x16F JUMPI JUMPDEST PUSH1 0x0 DUP1 REVERT JUMPDEST PUSH2 0xC8 PUSH1 0x4 DUP1 CALLDATASIZE SUB DUP2 ADD SWAP1 PUSH2 0xC3 SWAP2 SWAP1 PUSH2 0x5A0 JUMP JUMPDEST PUSH2 0x2AD JUMP JUMPDEST PUSH1 0x40 MLOAD PUSH2 0xD5 SWAP2 SWAP1 PUSH2 0x5EF JUMP JUMPDEST PUSH1 0x40 MLOAD DUP1 SWAP2 SUB SWAP1 RETURN JUMPDEST PUSH2 0xF8 PUSH1 0x4 DUP1 CALLDATASIZE SUB DUP2 ADD SWAP1 PUSH2 0xF3 SWAP2 SWAP1 PUSH2 0x60A JUMP JUMPDEST PUSH2 0x315 JUMP JUMPDEST PUSH1 0x40 MLOAD PUSH2 0x105 SWAP2 SWAP1 PUSH2 0x5EF JUMP JUMPDEST PUSH1 0x40 MLOAD DUP1 SWAP2 SUB SWAP1 RETURN JUMPDEST PUSH2 0x128 PUSH1 0x4 DUP1 CALLDATASIZE SUB DUP2 ADD SWAP1 PUSH2 0x123 SWAP2 SWAP1 PUSH2 0x64A JUMP JUMPDEST PUSH2 0x33A JUMP JUMPDEST PUSH1 0x40 MLOAD PUSH2 0x135 SWAP2 SWAP1 PUSH2 0x5EF JUMP JUMPDEST PUSH1 0x40 MLOAD DUP1 SWAP2 SUB SWAP1 RETURN JUMPDEST PUSH2 0x158 PUSH1 0x4 DUP1 CALLDATASIZE SUB DUP2 ADD SWAP1 PUSH2 0x153 SWAP2 SWAP1 PUSH2 0x64A JUMP JUMPDEST PUSH2 0x348 JUMP JUMPDEST PUSH1 0x40 MLOAD PUSH2 0x166 SWAP3 SWAP2 SWAP1 PUSH2 0x6AC JUMP JUMPDEST PUSH1 0x40 MLOAD DUP1 SWAP2 SUB SWAP1 RETURN JUMPDEST PUSH2 0x189 PUSH1 0x4 DUP1 CALLDATASIZE SUB DUP2 ADD SWAP1 PUSH2 0x184 SWAP2 SWAP1 PUSH2 0x64A JUMP JUMPDEST PUSH2 0x38F JUMP JUMPDEST PUSH1 0x40 MLOAD PUSH2 0x196 SWAP2 SWAP1 PUSH2 0x5EF JUMP JUMPDEST PUSH1 0x40 MLOAD DUP1 SWAP2 SUB SWAP1 RETURN JUMPDEST PUSH2 0x1A7 PUSH2 0x3CE JUMP JUMPDEST PUSH1 0x40 MLOAD PUSH2 0x1B4 SWAP2 SWAP1 PUSH2 0x5EF JUMP JUMPDEST PUSH1 0x40 MLOAD DUP1 SWAP2 SUB SWAP1 RETURN JUMPDEST PUSH2 0x1D7 PUSH1 0x4 DUP1 CALLDATASIZE SUB DUP2 ADD SWAP1 PUSH2 0x1D2 SWAP2 SWAP1 PUSH2 0x64A JUMP JUMPDEST PUSH2 0x3D8 JUMP JUMPDEST PUSH1 0x40 MLOAD PUSH2 0x1E4 SWAP2 SWAP1 PUSH2 0x5EF JUMP JUMPDEST PUSH1 0x40 MLOAD DUP1 SWAP2 SUB SWAP1 RETURN JUMPDEST PUSH2 0x207 PUSH1 0x4 DUP1 CALLDATASIZE SUB DUP2 ADD SWAP1 PUSH2 0x202 SWAP2 SWAP1 PUSH2 0x5A0 JUMP JUMPDEST PUSH2 0x3F0 JUMP JUMPDEST PUSH1 0x40 MLOAD PUSH2 0x214 SWAP2 SWAP1 PUSH2 0x5EF JUMP JUMPDEST PUSH1 0x40 MLOAD DUP1 SWAP2 SUB SWAP1 RETURN JUMPDEST PUSH2 0x237 PUSH1 0x4 DUP1 CALLDATASIZE SUB DUP2 ADD SWAP1 PUSH2 0x232 SWAP2 SWAP1 PUSH2 0x6D5 JUMP JUMPDEST PUSH2 0x421 JUMP JUMPDEST PUSH1 0x40 MLOAD PUSH2 0x244 SWAP2 SWAP1 PUSH2 0x5EF JUMP JUMPDEST PUSH1 0x40 MLOAD DUP1 SWAP2 SUB SWAP1 RETURN JUMPDEST PUSH2 0x267 PUSH1 0x4 DUP1 CALLDATASIZE SUB DUP2 ADD SWAP1 PUSH2 0x262 SWAP2 SWAP1 PUSH2 0x60A JUMP JUMPDEST PUSH2 0x460 JUMP JUMPDEST PUSH1 0x40 MLOAD PUSH2 0x274 SWAP2 SWAP1 PUSH2 0x5EF JUMP JUMPDEST PUSH1 0x40 MLOAD DUP1 SWAP2 SUB SWAP1 RETURN JUMPDEST PUSH2 0x297 PUSH1 0x4 DUP1 CALLDATASIZE SUB DUP2 ADD SWAP1 PUSH2 0x292 SWAP2 SWAP1 PUSH2 0x64A JUMP JUMPDEST PUSH2 0x4C8 JUMP JUMPDEST PUSH1 0x40 MLOAD PUSH2 0x2A4 SWAP2 SWAP1 PUSH2 0x5EF JUMP JUMPDEST PUSH1 0x40 MLOAD DUP1 SWAP2 SUB SWAP1 RETURN JUMPDEST PUSH1 0x0 DUP1 PUSH1 0x7 SWAP1 POP PUSH1 0x0 DUP5 DUP3 PUSH1 0x40 MLOAD PUSH1 0x20 ADD PUSH2 0x2C9 SWAP3 SWAP2 SWAP1 PUSH2 0x711 JUMP JUMPDEST PUSH1 0x40 MLOAD PUSH1 0x20 DUP2 DUP4 SUB SUB DUP2 MSTORE SWAP1 PUSH1 0x40 MSTORE DUP1 MLOAD SWAP1 PUSH1 0x20 ADD KECCAK256 PUSH1 0x40 MLOAD PUSH1 0x20 ADD PUSH2 0x2EF SWAP2 SWAP1 PUSH2 0x73A JUMP JUMPDEST PUSH1 0x40 MLOAD PUSH1 0x20 DUP2 DUP4 SUB SUB DUP2 MSTORE SWAP1 PUSH1 0x40 MSTORE DUP1 MLOAD SWAP1 PUSH1 0x20 ADD KECCAK256 SWAP1 POP DUP4 DUP2 ADD SLOAD SWAP3 POP POP POP SWAP3 SWAP2 POP POP JUMP JUMPDEST PUSH1 0x6 PUSH1 0x20 MSTORE DUP2 PUSH1 0x0 MSTORE PUSH1 0x40 PUSH1 0x0 KECCAK256 PUSH1 0x20 MSTORE DUP1 PUSH1 0x0 MSTORE PUSH1 0x40 PUSH1 0x0 KECCAK256 PUSH1 0x0 SWAP2 POP SWAP2 POP POP SLOAD DUP2 JUMP JUMPDEST PUSH1 0x0 DUP2 PUSH1 0x0 ADD SLOAD SWAP1 POP SWAP2 SWAP1 POP JUMP JUMPDEST PUSH1 0x0 DUP1 PUSH1 0x0 PUSH1 0x4 SWAP1 POP PUSH1 0x0 DUP2 PUSH1 0x40 MLOAD PUSH1 0x20 ADD PUSH2 0x364 SWAP2 SWAP1 PUSH2 0x5EF JUMP JUMPDEST PUSH1 0x40 MLOAD PUSH1 0x20 DUP2 DUP4 SUB SUB DUP2 MSTORE SWAP1 PUSH1 0x40 MSTORE DUP1 MLOAD SWAP1 PUSH1 0x20 ADD KECCAK256 SWAP1 POP DUP5 DUP2 ADD SLOAD SWAP4 POP DUP5 DUP2 ADD SLOAD SWAP3 POP POP POP SWAP2 POP SWAP2 JUMP JUMPDEST PUSH1 0x0 DUP1 PUSH1 0x3 SWAP1 POP PUSH1 0x0 DUP2 PUSH1 0x40 MLOAD PUSH1 0x20 ADD PUSH2 0x3A9 SWAP2 SWAP1 PUSH2 0x5EF JUMP JUMPDEST PUSH1 0x40 MLOAD PUSH1 0x20 DUP2 DUP4 SUB SUB DUP2 MSTORE SWAP1 PUSH1 0x40 MSTORE DUP1 MLOAD SWAP1 PUSH1 0x20 ADD KECCAK256 SWAP1 POP DUP4 DUP2 ADD SLOAD SWAP3 POP POP POP SWAP2 SWAP1 POP JUMP JUMPDEST PUSH1 0x0 PUSH1 0x3 SLOAD SWAP1 POP SWAP1 JUMP JUMPDEST PUSH1 0x5 PUSH1 0x20 MSTORE DUP1 PUSH1 0x0 MSTORE PUSH1 0x40 PUSH1 0x0 KECCAK256 PUSH1 0x0 SWAP2 POP SWAP1 POP SLOAD DUP2 JUMP JUMPDEST PUSH1 0x7 PUSH1 0x20 MSTORE DUP2 PUSH1 0x0 MSTORE PUSH1 0x40 PUSH1 0x0 KECCAK256 DUP2 DUP2 SLOAD DUP2 LT PUSH2 0x40C JUMPI PUSH1 0x0 DUP1 REVERT JUMPDEST SWAP1 PUSH1 0x0 MSTORE PUSH1 0x20 PUSH1 0x0 KECCAK256 ADD PUSH1 0x0 SWAP2 POP SWAP2 POP POP SLOAD DUP2 JUMP JUMPDEST PUSH1 0x0 DUP1 PUSH1 0x7 SWAP1 POP PUSH1 0x0 DUP4 DUP3 PUSH1 0x40 MLOAD PUSH1 0x20 ADD PUSH2 0x43D SWAP3 SWAP2 SWAP1 PUSH2 0x711 JUMP JUMPDEST PUSH1 0x40 MLOAD PUSH1 0x20 DUP2 DUP4 SUB SUB DUP2 MSTORE SWAP1 PUSH1 0x40 MSTORE DUP1 MLOAD SWAP1 PUSH1 0x20 ADD KECCAK256 SWAP1 POP DUP1 SLOAD SWAP3 POP POP POP SWAP2 SWAP1 POP JUMP JUMPDEST PUSH1 0x0 DUP1 PUSH1 0x6 SWAP1 POP PUSH1 0x0 DUP4 DUP6 DUP4 PUSH1 0x40 MLOAD PUSH1 0x20 ADD PUSH2 0x47D SWAP3 SWAP2 SWAP1 PUSH2 0x755 JUMP JUMPDEST PUSH1 0x40 MLOAD PUSH1 0x20 DUP2 DUP4 SUB SUB DUP2 MSTORE SWAP1 PUSH1 0x40 MSTORE DUP1 MLOAD SWAP1 PUSH1 0x20 ADD KECCAK256 PUSH1 0x40 MLOAD PUSH1 0x20 ADD PUSH2 0x4A4 SWAP3 SWAP2 SWAP1 PUSH2 0x77E JUMP JUMPDEST PUSH1 0x40 MLOAD PUSH1 0x20 DUP2 DUP4 SUB SUB DUP2 MSTORE SWAP1 PUSH1 0x40 MSTORE DUP1 MLOAD SWAP1 PUSH1 0x20 ADD KECCAK256 SWAP1 POP DUP1 SLOAD SWAP3 POP POP POP SWAP3 SWAP2 POP POP JUMP JUMPDEST PUSH1 0x0 DUP1 PUSH1 0x5 SWAP1 POP PUSH1 0x0 DUP4 DUP3 PUSH1 0x40 MLOAD PUSH1 0x20 ADD PUSH2 0x4E4 SWAP3 SWAP2 SWAP1 PUSH2 0x755 JUMP JUMPDEST PUSH1 0x40 MLOAD PUSH1 0x20 DUP2 DUP4 SUB SUB DUP2 MSTORE SWAP1 PUSH1 0x40 MSTORE DUP1 MLOAD SWAP1 PUSH1 0x20 ADD KECCAK256 SWAP1 POP DUP1 SLOAD SWAP3 POP POP POP SWAP2 SWAP1 POP JUMP JUMPDEST PUSH1 0x0 DUP1 REVERT JUMPDEST PUSH1 0x0 PUSH20 0xFFFFFFFFFFFFFFFFFFFFFFFFFFFFFFFFFFFFFFFF DUP3 AND SWAP1 POP SWAP2 SWAP1 POP JUMP JUMPDEST PUSH1 0x0 PUSH2 0x537 DUP3 PUSH2 0x50C JUMP JUMPDEST SWAP1 POP SWAP2 SWAP1 POP JUMP JUMPDEST PUSH2 0x547 DUP2 PUSH2 0x52C JUMP JUMPDEST DUP2 EQ PUSH2 0x552 JUMPI PUSH1 0x0 DUP1 REVERT JUMPDEST POP JUMP JUMPDEST PUSH1 0x0 DUP2 CALLDATALOAD SWAP1 POP PUSH2 0x564 DUP2 PUSH2 0x53E JUMP JUMPDEST SWAP3 SWAP2 POP POP JUMP JUMPDEST PUSH1 0x0 DUP2 SWAP1 POP SWAP2 SWAP1 POP JUMP JUMPDEST PUSH2 0x57D DUP2 PUSH2 0x56A JUMP JUMPDEST DUP2 EQ PUSH2 0x588 JUMPI PUSH1 0x0 DUP1 REVERT JUMPDEST POP JUMP JUMPDEST PUSH1 0x0 DUP2 CALLDATALOAD SWAP1 POP PUSH2 0x59A DUP2 PUSH2 0x574 JUMP JUMPDEST SWAP3 SWAP2 POP POP JUMP JUMPDEST PUSH1 0x0 DUP1 PUSH1 0x40 DUP4 DUP6 SUB SLT ISZERO PUSH2 0x5B7 JUMPI PUSH2 0x5B6 PUSH2 0x507 JUMP JUMPDEST JUMPDEST PUSH1 0x0 PUSH2 0x5C5 DUP6 DUP3 DUP7 ADD PUSH2 0x555 JUMP JUMPDEST SWAP3 POP POP PUSH1 0x20 PUSH2 0x5D6 DUP6 DUP3 DUP7 ADD PUSH2 0x58B JUMP JUMPDEST SWAP2 POP POP SWAP3 POP SWAP3 SWAP1 POP JUMP JUMPDEST PUSH2 0x5E9 DUP2 PUSH2 0x56A JUMP JUMPDEST DUP3 MSTORE POP POP JUMP JUMPDEST PUSH1 0x0 PUSH1 0x20 DUP3 ADD SWAP1 POP PUSH2 0x604 PUSH1 0x0 DUP4 ADD DUP5 PUSH2 0x5E0 JUMP JUMPDEST SWAP3 SWAP2 POP POP JUMP JUMPDEST PUSH1 0x0 DUP1 PUSH1 0x40 DUP4 DUP6 SUB SLT ISZERO PUSH2 0x621 JUMPI PUSH2 0x620 PUSH2 0x507 JUMP JUMPDEST JUMPDEST PUSH1 0x0 PUSH2 0x62F DUP6 DUP3 DUP7 ADD PUSH2 0x58B JUMP JUMPDEST SWAP3 POP POP PUSH1 0x20 PUSH2 0x640 DUP6 DUP3 DUP7 ADD PUSH2 0x58B JUMP JUMPDEST SWAP2 POP POP SWAP3 POP SWAP3 SWAP1 POP JUMP JUMPDEST PUSH1 0x0 PUSH1 0x20 DUP3 DUP5 SUB SLT ISZERO PUSH2 0x660 JUMPI PUSH2 0x65F PUSH2 0x507 JUMP JUMPDEST JUMPDEST PUSH1 0x0 PUSH2 0x66E DUP5 DUP3 DUP6 ADD PUSH2 0x58B JUMP JUMPDEST SWAP2 POP POP SWAP3 SWAP2 POP POP JUMP JUMPDEST PUSH1 0x0 DUP2 SWAP1 POP SWAP2 SWAP1 POP JUMP JUMPDEST PUSH2 0x68A DUP2 PUSH2 0x677 JUMP JUMPDEST DUP3 MSTORE POP POP JUMP JUMPDEST PUSH1 0x0 PUSH1 0xFF DUP3 AND SWAP1 POP SWAP2 SWAP1 POP JUMP JUMPDEST PUSH2 0x6A6 DUP2 PUSH2 0x690 JUMP JUMPDEST DUP3 MSTORE POP POP JUMP JUMPDEST PUSH1 0x0 PUSH1 0x40 DUP3 ADD SWAP1 POP PUSH2 0x6C1 PUSH1 0x0 DUP4 ADD DUP6 PUSH2 0x681 JUMP JUMPDEST PUSH2 0x6CE PUSH1 0x20 DUP4 ADD DUP5 PUSH2 0x69D JUMP JUMPDEST SWAP4 SWAP3 POP POP POP JUMP JUMPDEST PUSH1 0x0 PUSH1 0x20 DUP3 DUP5 SUB SLT ISZERO PUSH2 0x6EB JUMPI PUSH2 0x6EA PUSH2 0x507 JUMP JUMPDEST JUMPDEST PUSH1 0x0 PUSH2 0x6F9 DUP5 DUP3 DUP6 ADD PUSH2 0x555 JUMP JUMPDEST SWAP2 POP POP SWAP3 SWAP2 POP POP JUMP JUMPDEST PUSH2 0x70B DUP2 PUSH2 0x52C JUMP JUMPDEST DUP3 MSTORE POP POP JUMP JUMPDEST PUSH1 0x0 PUSH1 0x40 DUP3 ADD SWAP1 POP PUSH2 0x726 PUSH1 0x0 DUP4 ADD DUP6 PUSH2 0x702 JUMP JUMPDEST PUSH2 0x733 PUSH1 0x20 DUP4 ADD DUP5 PUSH2 0x5E0 JUMP JUMPDEST SWAP4 SWAP3 POP POP POP JUMP JUMPDEST PUSH1 0x0 PUSH1 0x20 DUP3 ADD SWAP1 POP PUSH2 0x74F PUSH1 0x0 DUP4 ADD DUP5 PUSH2 0x681 JUMP JUMPDEST SWAP3 SWAP2 POP POP JUMP JUMPDEST PUSH1 0x0 PUSH1 0x40 DUP3 ADD SWAP1 POP PUSH2 0x76A PUSH1 0x0 DUP4 ADD DUP6 PUSH2 0x5E0 JUMP JUMPDEST PUSH2 0x777 PUSH1 0x20 DUP4 ADD DUP5 PUSH2 0x5E0 JUMP JUMPDEST SWAP4 SWAP3 POP POP POP JUMP JUMPDEST PUSH1 0x0 PUSH1 0x40 DUP3 ADD SWAP1 POP PUSH2 0x793 PUSH1 0x0 DUP4 ADD DUP6 PUSH2 0x5E0 JUMP JUMPDEST PUSH2 0x7A0 PUSH1 0x20 DUP4 ADD DUP5 PUSH2 0x681 JUMP JUMPDEST SWAP4 SWAP3 POP POP POP JUMP INVALID LOG2 PUSH5 0x6970667358 0x22 SLT KECCAK256 0x5C MULMOD CALLDATASIZE 0xA5 PUSH12 0x9AA66B878101EBB40FE6DC76 0x25 GAS PREVRANDAO DUP1 0xBC PUSH21 0x94FE95EF065BDB154364736F6C6343000812003300 "
				},
				"gasEstimates": {
					"creation": {
						"codeDepositCost": "402600",
						"executionCost": "infinite",
						"totalCost": "infinite"
					},
					"external": {
						"addressToList(address,uint256)": "infinite",
						"bigArrayLength()": "2437",
						"fixedArrayView(uint256)": "infinite",
						"getAddressToList(address,uint256)": "infinite",
						"getMapping(uint256)": "infinite",
						"getNestedMapping(uint256,uint256)": "infinite",
						"lengthOfNestedArray(address)": "infinite",
						"myMapping(uint256)": "infinite",
						"nsetedMapping(uint256,uint256)": "infinite",
						"readBigArrayLocation(uint256)": "infinite",
						"readSmallArrayLocation(uint256)": "infinite"
					}
				},
				"methodIdentifiers": {
					"addressToList(address,uint256)": "8242a936",
					"bigArrayLength()": "7a1608de",
					"fixedArrayView(uint256)": "307e972e",
					"getAddressToList(address,uint256)": "1459cc00",
					"getMapping(uint256)": "ede9ba8b",
					"getNestedMapping(uint256,uint256)": "d7bd7b72",
					"lengthOfNestedArray(address)": "a9f04c53",
					"myMapping(uint256)": "7c668844",
					"nsetedMapping(uint256,uint256)": "2da60d88",
					"readBigArrayLocation(uint256)": "59101517",
					"readSmallArrayLocation(uint256)": "439c3e9a"
				}
			},
			"storageLayout": {
				"storage": [
					{
						"astId": 10,
						"contract": "contracts/3_StorageSlots.sol:StorageComplex",
						"label": "fixedArray",
						"offset": 0,
						"slot": "0",
						"type": "t_array(t_uint256)3_storage"
					},
					{
						"astId": 13,
						"contract": "contracts/3_StorageSlots.sol:StorageComplex",
						"label": "bigArray",
						"offset": 0,
						"slot": "3",
						"type": "t_array(t_uint256)dyn_storage"
					},
					{
						"astId": 16,
						"contract": "contracts/3_StorageSlots.sol:StorageComplex",
						"label": "smallArray",
						"offset": 0,
						"slot": "4",
						"type": "t_array(t_uint8)dyn_storage"
					},
					{
						"astId": 20,
						"contract": "contracts/3_StorageSlots.sol:StorageComplex",
						"label": "myMapping",
						"offset": 0,
						"slot": "5",
						"type": "t_mapping(t_uint256,t_uint256)"
					},
					{
						"astId": 26,
						"contract": "contracts/3_StorageSlots.sol:StorageComplex",
						"label": "nsetedMapping",
						"offset": 0,
						"slot": "6",
						"type": "t_mapping(t_uint256,t_mapping(t_uint256,t_uint256))"
					},
					{
						"astId": 31,
						"contract": "contracts/3_StorageSlots.sol:StorageComplex",
						"label": "addressToList",
						"offset": 0,
						"slot": "7",
						"type": "t_mapping(t_address,t_array(t_uint256)dyn_storage)"
					}
				],
				"types": {
					"t_address": {
						"encoding": "inplace",
						"label": "address",
						"numberOfBytes": "20"
					},
					"t_array(t_uint256)3_storage": {
						"base": "t_uint256",
						"encoding": "inplace",
						"label": "uint256[3]",
						"numberOfBytes": "96"
					},
					"t_array(t_uint256)dyn_storage": {
						"base": "t_uint256",
						"encoding": "dynamic_array",
						"label": "uint256[]",
						"numberOfBytes": "32"
					},
					"t_array(t_uint8)dyn_storage": {
						"base": "t_uint8",
						"encoding": "dynamic_array",
						"label": "uint8[]",
						"numberOfBytes": "32"
					},
					"t_mapping(t_address,t_array(t_uint256)dyn_storage)": {
						"encoding": "mapping",
						"key": "t_address",
						"label": "mapping(address => uint256[])",
						"numberOfBytes": "32",
						"value": "t_array(t_uint256)dyn_storage"
					},
					"t_mapping(t_uint256,t_mapping(t_uint256,t_uint256))": {
						"encoding": "mapping",
						"key": "t_uint256",
						"label": "mapping(uint256 => mapping(uint256 => uint256))",
						"numberOfBytes": "32",
						"value": "t_mapping(t_uint256,t_uint256)"
					},
					"t_mapping(t_uint256,t_uint256)": {
						"encoding": "mapping",
						"key": "t_uint256",
						"label": "mapping(uint256 => uint256)",
						"numberOfBytes": "32",
						"value": "t_uint256"
					},
					"t_uint256": {
						"encoding": "inplace",
						"label": "uint256",
						"numberOfBytes": "32"
					},
					"t_uint8": {
						"encoding": "inplace",
						"label": "uint8",
						"numberOfBytes": "1"
					}
				}
			},
			"userdoc": {
				"kind": "user",
				"methods": {},
				"version": 1
			}
		}
	}
}