{
	"contracts/6_Calldata.sol": {
		"ExternalCalls": {
			"abi": [
				{
					"inputs": [
						{
							"internalType": "address",
							"name": "_a",
							"type": "address"
						}
					],
					"name": "callMultiply",
					"outputs": [
						{
							"internalType": "uint256",
							"name": "result",
							"type": "uint256"
						}
					],
					"stateMutability": "view",
					"type": "function"
				},
				{
					"inputs": [
						{
							"internalType": "address",
							"name": "_a",
							"type": "address"
						}
					],
					"name": "externalStateChangingCall",
					"outputs": [],
					"stateMutability": "nonpayable",
					"type": "function"
				},
				{
					"inputs": [
						{
							"internalType": "address",
							"name": "_a",
							"type": "address"
						}
					],
					"name": "externalViewCallNoArgs",
					"outputs": [
						{
							"internalType": "uint256",
							"name": "",
							"type": "uint256"
						}
					],
					"stateMutability": "view",
					"type": "function"
				},
				{
					"inputs": [
						{
							"internalType": "address",
							"name": "_a",
							"type": "address"
						}
					],
					"name": "getViaRevert",
					"outputs": [
						{
							"internalType": "uint256",
							"name": "",
							"type": "uint256"
						}
					],
					"stateMutability": "view",
					"type": "function"
				},
				{
					"inputs": [
						{
							"internalType": "uint256[]",
							"name": "data1",
							"type": "uint256[]"
						},
						{
							"internalType": "uint256[]",
							"name": "data2",
							"type": "uint256[]"
						}
					],
					"name": "multiplyVariablelength",
					"outputs": [
						{
							"internalType": "bool",
							"name": "",
							"type": "bool"
						}
					],
					"stateMutability": "pure",
					"type": "function"
				},
				{
					"inputs": [
						{
							"internalType": "address",
							"name": "_a",
							"type": "address"
						},
						{
							"internalType": "uint256",
							"name": "amount",
							"type": "uint256"
						}
					],
					"name": "unknownReturnSize",
					"outputs": [
						{
							"internalType": "bytes32",
							"name": "",
							"type": "bytes32"
						}
					],
					"stateMutability": "view",
					"type": "function"
				}
			],
			"devdoc": {
				"kind": "dev",
				"methods": {},
				"version": 1
			},
			"evm": {
				"assembly": "    /* \"contracts/6_Calldata.sol\":3748:6880  contract ExternalCalls{... */\n  mstore(0x40, 0x80)\n  callvalue\n  dup1\n  iszero\n  tag_1\n  jumpi\n  0x00\n  dup1\n  revert\ntag_1:\n  pop\n  dataSize(sub_0)\n  dup1\n  dataOffset(sub_0)\n  0x00\n  codecopy\n  0x00\n  return\nstop\n\nsub_0: assembly {\n        /* \"contracts/6_Calldata.sol\":3748:6880  contract ExternalCalls{... */\n      mstore(0x40, 0x80)\n      callvalue\n      dup1\n      iszero\n      tag_1\n      jumpi\n      0x00\n      dup1\n      revert\n    tag_1:\n      pop\n      jumpi(tag_2, lt(calldatasize, 0x04))\n      shr(0xe0, calldataload(0x00))\n      dup1\n      0x03f3084b\n      eq\n      tag_3\n      jumpi\n      dup1\n      0x0c62c939\n      eq\n      tag_4\n      jumpi\n      dup1\n      0x4a2f82f8\n      eq\n      tag_5\n      jumpi\n      dup1\n      0x52bd0fa3\n      eq\n      tag_6\n      jumpi\n      dup1\n      0x68c4c760\n      eq\n      tag_7\n      jumpi\n      dup1\n      0x76e1677e\n      eq\n      tag_8\n      jumpi\n    tag_2:\n      0x00\n      dup1\n      revert\n        /* \"contracts/6_Calldata.sol\":5388:5986  function externalStateChangingCall(address _a)external {... */\n    tag_3:\n      tag_9\n      0x04\n      dup1\n      calldatasize\n      sub\n      dup2\n      add\n      swap1\n      tag_10\n      swap2\n      swap1\n      tag_11\n      jump\t// in\n    tag_10:\n      tag_12\n      jump\t// in\n    tag_9:\n      stop\n        /* \"contracts/6_Calldata.sol\":6431:6878  function multiplyVariablelength(uint256[] calldata data1, uint256[] calldata data2)external pure returns(bool){... */\n    tag_4:\n      tag_13\n      0x04\n      dup1\n      calldatasize\n      sub\n      dup2\n      add\n      swap1\n      tag_14\n      swap2\n      swap1\n      tag_15\n      jump\t// in\n    tag_14:\n      tag_16\n      jump\t// in\n    tag_13:\n      mload(0x40)\n      tag_17\n      swap2\n      swap1\n      tag_18\n      jump\t// in\n    tag_17:\n      mload(0x40)\n      dup1\n      swap2\n      sub\n      swap1\n      return\n        /* \"contracts/6_Calldata.sol\":4572:5382  function  callMultiply(address _a)external view returns(uint256 result){... */\n    tag_5:\n      tag_19\n      0x04\n      dup1\n      calldatasize\n      sub\n      dup2\n      add\n      swap1\n      tag_20\n      swap2\n      swap1\n      tag_11\n      jump\t// in\n    tag_20:\n      tag_21\n      jump\t// in\n    tag_19:\n      mload(0x40)\n      tag_22\n      swap2\n      swap1\n      tag_23\n      jump\t// in\n    tag_22:\n      mload(0x40)\n      dup1\n      swap2\n      sub\n      swap1\n      return\n        /* \"contracts/6_Calldata.sol\":5992:6425  function unknownReturnSize(address _a, uint256 amount)external view returns(bytes32){... */\n    tag_6:\n      tag_24\n      0x04\n      dup1\n      calldatasize\n      sub\n      dup2\n      add\n      swap1\n      tag_25\n      swap2\n      swap1\n      tag_26\n      jump\t// in\n    tag_25:\n      tag_27\n      jump\t// in\n    tag_24:\n      mload(0x40)\n      tag_28\n      swap2\n      swap1\n      tag_29\n      jump\t// in\n    tag_28:\n      mload(0x40)\n      dup1\n      swap2\n      sub\n      swap1\n      return\n        /* \"contracts/6_Calldata.sol\":3776:4335  function externalViewCallNoArgs(address _a)external view returns(uint256){... */\n    tag_7:\n      tag_30\n      0x04\n      dup1\n      calldatasize\n      sub\n      dup2\n      add\n      swap1\n      tag_31\n      swap2\n      swap1\n      tag_11\n      jump\t// in\n    tag_31:\n      tag_32\n      jump\t// in\n    tag_30:\n      mload(0x40)\n      tag_33\n      swap2\n      swap1\n      tag_23\n      jump\t// in\n    tag_33:\n      mload(0x40)\n      dup1\n      swap2\n      sub\n      swap1\n      return\n        /* \"contracts/6_Calldata.sol\":4341:4566  function getViaRevert(address _a)external view returns(uint256){... */\n    tag_8:\n      tag_34\n      0x04\n      dup1\n      calldatasize\n      sub\n      dup2\n      add\n      swap1\n      tag_35\n      swap2\n      swap1\n      tag_11\n      jump\t// in\n    tag_35:\n      tag_36\n      jump\t// in\n    tag_34:\n      mload(0x40)\n      tag_37\n      swap2\n      swap1\n      tag_23\n      jump\t// in\n    tag_37:\n      mload(0x40)\n      dup1\n      swap2\n      sub\n      swap1\n      return\n        /* \"contracts/6_Calldata.sol\":5388:5986  function externalStateChangingCall(address _a)external {... */\n    tag_12:\n        /* \"contracts/6_Calldata.sol\":5488:5498  0x4018d9aa */\n      0x4018d9aa\n        /* \"contracts/6_Calldata.sol\":5482:5486  0x00 */\n      0x00\n        /* \"contracts/6_Calldata.sol\":5475:5499  mstore(0x00, 0x4018d9aa) */\n      mstore\n        /* \"contracts/6_Calldata.sol\":5525:5528  999 */\n      0x03e7\n        /* \"contracts/6_Calldata.sol\":5519:5523  0x20 */\n      0x20\n        /* \"contracts/6_Calldata.sol\":5512:5529  mstore(0x20, 999) */\n      mstore\n        /* \"contracts/6_Calldata.sol\":5890:5894  0x00 */\n      0x00\n        /* \"contracts/6_Calldata.sol\":5884:5888  0x00 */\n      dup1\n        /* \"contracts/6_Calldata.sol\":5879:5881  32 */\n      0x20\n        /* \"contracts/6_Calldata.sol\":5875:5877  28 */\n      0x1c\n        /* \"contracts/6_Calldata.sol\":5871:5882  add(28, 32) */\n      add\n        /* \"contracts/6_Calldata.sol\":5867:5869  28 */\n      0x1c\n        /* \"contracts/6_Calldata.sol\":5864:5865  0 */\n      0x00\n        /* \"contracts/6_Calldata.sol\":5860:5862  _a */\n      dup6\n        /* \"contracts/6_Calldata.sol\":5853:5858  gas() */\n      gas\n        /* \"contracts/6_Calldata.sol\":5848:5895  call(gas(), _a, 0, 28, add(28, 32), 0x00, 0x00) */\n      call\n        /* \"contracts/6_Calldata.sol\":5918:5925  success */\n      dup1\n        /* \"contracts/6_Calldata.sol\":5908:5970  if iszero(success){... */\n      tag_39\n      jumpi\n        /* \"contracts/6_Calldata.sol\":5954:5955  0 */\n      0x00\n        /* \"contracts/6_Calldata.sol\":5951:5952  0 */\n      dup1\n        /* \"contracts/6_Calldata.sol\":5944:5956  revert(0, 0) */\n      revert\n        /* \"contracts/6_Calldata.sol\":5908:5970  if iszero(success){... */\n    tag_39:\n        /* \"contracts/6_Calldata.sol\":5461:5980  {... */\n      pop\n        /* \"contracts/6_Calldata.sol\":5388:5986  function externalStateChangingCall(address _a)external {... */\n      pop\n      jump\t// out\n        /* \"contracts/6_Calldata.sol\":6431:6878  function multiplyVariablelength(uint256[] calldata data1, uint256[] calldata data2)external pure returns(bool){... */\n    tag_16:\n        /* \"contracts/6_Calldata.sol\":6536:6540  bool */\n      0x00\n        /* \"contracts/6_Calldata.sol\":6575:6580  data2 */\n      dup3\n      dup3\n        /* \"contracts/6_Calldata.sol\":6575:6587  data2.length */\n      swap1\n      pop\n        /* \"contracts/6_Calldata.sol\":6559:6564  data1 */\n      dup6\n      dup6\n        /* \"contracts/6_Calldata.sol\":6559:6571  data1.length */\n      swap1\n      pop\n        /* \"contracts/6_Calldata.sol\":6559:6587  data1.length != data2.length */\n      sub\n        /* \"contracts/6_Calldata.sol\":6551:6599  require(data1.length != data2.length, \"invalid\") */\n      tag_41\n      jumpi\n      mload(0x40)\n      0x08c379a000000000000000000000000000000000000000000000000000000000\n      dup2\n      mstore\n      0x04\n      add\n      tag_42\n      swap1\n      tag_43\n      jump\t// in\n    tag_42:\n      mload(0x40)\n      dup1\n      swap2\n      sub\n      swap1\n      revert\n    tag_41:\n        /* \"contracts/6_Calldata.sol\":6721:6730  uint256 i */\n      0x00\n        /* \"contracts/6_Calldata.sol\":6717:6851  for(uint256 i = 0; i < data1.length; i++){... */\n    tag_44:\n        /* \"contracts/6_Calldata.sol\":6740:6745  data1 */\n      dup6\n      dup6\n        /* \"contracts/6_Calldata.sol\":6740:6752  data1.length */\n      swap1\n      pop\n        /* \"contracts/6_Calldata.sol\":6736:6737  i */\n      dup2\n        /* \"contracts/6_Calldata.sol\":6736:6752  i < data1.length */\n      lt\n        /* \"contracts/6_Calldata.sol\":6717:6851  for(uint256 i = 0; i < data1.length; i++){... */\n      iszero\n      tag_45\n      jumpi\n        /* \"contracts/6_Calldata.sol\":6787:6792  data2 */\n      dup4\n      dup4\n        /* \"contracts/6_Calldata.sol\":6793:6794  i */\n      dup3\n        /* \"contracts/6_Calldata.sol\":6787:6795  data2[i] */\n      dup2\n      dup2\n      lt\n      tag_47\n      jumpi\n      tag_48\n      tag_49\n      jump\t// in\n    tag_48:\n    tag_47:\n      swap1\n      pop\n      0x20\n      mul\n      add\n      calldataload\n        /* \"contracts/6_Calldata.sol\":6775:6780  data1 */\n      dup7\n      dup7\n        /* \"contracts/6_Calldata.sol\":6781:6782  i */\n      dup4\n        /* \"contracts/6_Calldata.sol\":6775:6783  data1[i] */\n      dup2\n      dup2\n      lt\n      tag_50\n      jumpi\n      tag_51\n      tag_49\n      jump\t// in\n    tag_51:\n    tag_50:\n      swap1\n      pop\n      0x20\n      mul\n      add\n      calldataload\n        /* \"contracts/6_Calldata.sol\":6775:6795  data1[i] != data2[i] */\n      eq\n        /* \"contracts/6_Calldata.sol\":6772:6841  if(data1[i] != data2[i]){... */\n      tag_52\n      jumpi\n        /* \"contracts/6_Calldata.sol\":6821:6826  false */\n      0x00\n        /* \"contracts/6_Calldata.sol\":6814:6826  return false */\n      swap2\n      pop\n      pop\n      jump(tag_40)\n        /* \"contracts/6_Calldata.sol\":6772:6841  if(data1[i] != data2[i]){... */\n    tag_52:\n        /* \"contracts/6_Calldata.sol\":6754:6757  i++ */\n      dup1\n      dup1\n      tag_53\n      swap1\n      tag_54\n      jump\t// in\n    tag_53:\n      swap2\n      pop\n      pop\n        /* \"contracts/6_Calldata.sol\":6717:6851  for(uint256 i = 0; i < data1.length; i++){... */\n      jump(tag_44)\n    tag_45:\n      pop\n        /* \"contracts/6_Calldata.sol\":6867:6871  true */\n      0x01\n        /* \"contracts/6_Calldata.sol\":6860:6871  return true */\n      swap1\n      pop\n        /* \"contracts/6_Calldata.sol\":6431:6878  function multiplyVariablelength(uint256[] calldata data1, uint256[] calldata data2)external pure returns(bool){... */\n    tag_40:\n      swap5\n      swap4\n      pop\n      pop\n      pop\n      pop\n      jump\t// out\n        /* \"contracts/6_Calldata.sol\":4572:5382  function  callMultiply(address _a)external view returns(uint256 result){... */\n    tag_21:\n        /* \"contracts/6_Calldata.sol\":4628:4642  uint256 result */\n      0x00\n        /* \"contracts/6_Calldata.sol\":4693:4697  0x40 */\n      0x40\n        /* \"contracts/6_Calldata.sol\":4687:4698  mload(0x40) */\n      mload\n        /* \"contracts/6_Calldata.sol\":4726:4730  mptr */\n      dup1\n        /* \"contracts/6_Calldata.sol\":4756:4766  0x196e6d84 */\n      0x196e6d84\n        /* \"contracts/6_Calldata.sol\":4750:4754  mptr */\n      dup3\n        /* \"contracts/6_Calldata.sol\":4743:4767  mstore(mptr, 0x196e6d84) */\n      mstore\n        /* \"contracts/6_Calldata.sol\":4804:4805  3 */\n      0x03\n        /* \"contracts/6_Calldata.sol\":4797:4801  0x20 */\n      0x20\n        /* \"contracts/6_Calldata.sol\":4791:4795  mptr */\n      dup4\n        /* \"contracts/6_Calldata.sol\":4787:4802  add(mptr, 0x20) */\n      add\n        /* \"contracts/6_Calldata.sol\":4780:4806  mstore(add(mptr, 0x20), 3) */\n      mstore\n        /* \"contracts/6_Calldata.sol\":4843:4845  11 */\n      0x0b\n        /* \"contracts/6_Calldata.sol\":4836:4840  0x40 */\n      0x40\n        /* \"contracts/6_Calldata.sol\":4830:4834  mptr */\n      dup4\n        /* \"contracts/6_Calldata.sol\":4826:4841  add(mptr, 0x40) */\n      add\n        /* \"contracts/6_Calldata.sol\":4819:4846  mstore(add(mptr, 0x40), 11) */\n      mstore\n        /* \"contracts/6_Calldata.sol\":4882:4886  0x60 */\n      0x60\n        /* \"contracts/6_Calldata.sol\":4876:4880  mptr */\n      dup3\n        /* \"contracts/6_Calldata.sol\":4872:4887  add(mptr, 0x60) */\n      add\n        /* \"contracts/6_Calldata.sol\":4866:4870  0x40 */\n      0x40\n        /* \"contracts/6_Calldata.sol\":4859:4888  mstore(0x40, add(mptr, 0x60)) */\n      mstore\n        /* \"contracts/6_Calldata.sol\":5252:5256  0x20 */\n      0x20\n        /* \"contracts/6_Calldata.sol\":5247:5251  0x00 */\n      0x00\n        /* \"contracts/6_Calldata.sol\":5240:5244  0x40 */\n      0x40\n        /* \"contracts/6_Calldata.sol\":5234:5245  mload(0x40) */\n      mload\n        /* \"contracts/6_Calldata.sol\":5229:5231  28 */\n      0x1c\n        /* \"contracts/6_Calldata.sol\":5223:5227  mptr */\n      dup6\n        /* \"contracts/6_Calldata.sol\":5219:5232  add(mptr, 28) */\n      add\n        /* \"contracts/6_Calldata.sol\":5215:5217  _a */\n      dup8\n        /* \"contracts/6_Calldata.sol\":5208:5213  gas() */\n      gas\n        /* \"contracts/6_Calldata.sol\":5197:5257  staticcall(gas(), _a, add(mptr, 28), mload(0x40), 0x00,0x20) */\n      staticcall\n        /* \"contracts/6_Calldata.sol\":5280:5287  success */\n      dup1\n        /* \"contracts/6_Calldata.sol\":5270:5332  if iszero(success){... */\n      tag_56\n      jumpi\n        /* \"contracts/6_Calldata.sol\":5316:5317  0 */\n      0x00\n        /* \"contracts/6_Calldata.sol\":5313:5314  0 */\n      dup1\n        /* \"contracts/6_Calldata.sol\":5306:5318  revert(0, 0) */\n      revert\n        /* \"contracts/6_Calldata.sol\":5270:5332  if iszero(success){... */\n    tag_56:\n        /* \"contracts/6_Calldata.sol\":5361:5365  0x00 */\n      0x00\n        /* \"contracts/6_Calldata.sol\":5355:5366  mload(0x00) */\n      mload\n        /* \"contracts/6_Calldata.sol\":5345:5366  result := mload(0x00) */\n      swap4\n      pop\n        /* \"contracts/6_Calldata.sol\":4661:5376  {... */\n      pop\n      pop\n      pop\n        /* \"contracts/6_Calldata.sol\":4572:5382  function  callMultiply(address _a)external view returns(uint256 result){... */\n      swap2\n      swap1\n      pop\n      jump\t// out\n        /* \"contracts/6_Calldata.sol\":5992:6425  function unknownReturnSize(address _a, uint256 amount)external view returns(bytes32){... */\n    tag_27:\n        /* \"contracts/6_Calldata.sol\":6068:6075  bytes32 */\n      0x00\n        /* \"contracts/6_Calldata.sol\":6121:6131  0x7c70b4db */\n      0x7c70b4db\n        /* \"contracts/6_Calldata.sol\":6115:6119  0x00 */\n      0x00\n        /* \"contracts/6_Calldata.sol\":6108:6132  mstore(0x00, 0x7c70b4db) */\n      mstore\n        /* \"contracts/6_Calldata.sol\":6158:6164  amount */\n      dup2\n        /* \"contracts/6_Calldata.sol\":6152:6156  0x20 */\n      0x20\n        /* \"contracts/6_Calldata.sol\":6145:6165  mstore(0x20, amount) */\n      mstore\n        /* \"contracts/6_Calldata.sol\":6238:6242  0x00 */\n      0x00\n        /* \"contracts/6_Calldata.sol\":6232:6236  0x00 */\n      dup1\n        /* \"contracts/6_Calldata.sol\":6227:6229  32 */\n      0x20\n        /* \"contracts/6_Calldata.sol\":6223:6225  28 */\n      0x1c\n        /* \"contracts/6_Calldata.sol\":6219:6230  add(28, 32) */\n      add\n        /* \"contracts/6_Calldata.sol\":6215:6217  28 */\n      0x1c\n        /* \"contracts/6_Calldata.sol\":6211:6213  _a */\n      dup7\n        /* \"contracts/6_Calldata.sol\":6204:6209  gas() */\n      gas\n        /* \"contracts/6_Calldata.sol\":6193:6243  staticcall(gas(), _a, 28, add(28, 32), 0x00, 0x00) */\n      staticcall\n        /* \"contracts/6_Calldata.sol\":6266:6273  success */\n      dup1\n        /* \"contracts/6_Calldata.sol\":6256:6318  if iszero(success){... */\n      tag_58\n      jumpi\n        /* \"contracts/6_Calldata.sol\":6302:6303  0 */\n      0x00\n        /* \"contracts/6_Calldata.sol\":6299:6300  0 */\n      dup1\n        /* \"contracts/6_Calldata.sol\":6292:6304  revert(0, 0) */\n      revert\n        /* \"contracts/6_Calldata.sol\":6256:6318  if iszero(success){... */\n    tag_58:\n        /* \"contracts/6_Calldata.sol\":6352:6368  returndatasize() */\n      returndatasize\n        /* \"contracts/6_Calldata.sol\":6349:6350  0 */\n      0x00\n        /* \"contracts/6_Calldata.sol\":6346:6347  0 */\n      dup1\n        /* \"contracts/6_Calldata.sol\":6331:6369  returndatacopy(0, 0, returndatasize()) */\n      returndatacopy\n        /* \"contracts/6_Calldata.sol\":6392:6408  returndatasize() */\n      returndatasize\n        /* \"contracts/6_Calldata.sol\":6389:6390  0 */\n      0x00\n        /* \"contracts/6_Calldata.sol\":6382:6409  return(0, returndatasize()) */\n      return\n        /* \"contracts/6_Calldata.sol\":3776:4335  function externalViewCallNoArgs(address _a)external view returns(uint256){... */\n    tag_32:\n        /* \"contracts/6_Calldata.sol\":3841:3848  uint256 */\n      0x00\n        /* \"contracts/6_Calldata.sol\":3894:3904  0x9a884bde */\n      0x9a884bde\n        /* \"contracts/6_Calldata.sol\":3888:3892  0x00 */\n      0x00\n        /* \"contracts/6_Calldata.sol\":3881:3905  mstore(0x00, 0x9a884bde) */\n      mstore\n        /* \"contracts/6_Calldata.sol\":4207:4211  0x20 */\n      0x20\n        /* \"contracts/6_Calldata.sol\":4201:4205  0x00 */\n      0x00\n        /* \"contracts/6_Calldata.sol\":4197:4199  30 */\n      0x1e\n        /* \"contracts/6_Calldata.sol\":4193:4195  28 */\n      0x1c\n        /* \"contracts/6_Calldata.sol\":4189:4191  _a */\n      dup6\n        /* \"contracts/6_Calldata.sol\":4182:4187  gas() */\n      gas\n        /* \"contracts/6_Calldata.sol\":4171:4212  staticcall(gas(), _a, 28, 30, 0x00, 0x20) */\n      staticcall\n        /* \"contracts/6_Calldata.sol\":4235:4242  success */\n      dup1\n        /* \"contracts/6_Calldata.sol\":4225:4287  if iszero(success){... */\n      tag_60\n      jumpi\n        /* \"contracts/6_Calldata.sol\":4271:4272  0 */\n      0x00\n        /* \"contracts/6_Calldata.sol\":4268:4269  0 */\n      dup1\n        /* \"contracts/6_Calldata.sol\":4261:4273  revert(0, 0) */\n      revert\n        /* \"contracts/6_Calldata.sol\":4225:4287  if iszero(success){... */\n    tag_60:\n        /* \"contracts/6_Calldata.sol\":4313:4317  0x20 */\n      0x20\n        /* \"contracts/6_Calldata.sol\":4307:4311  0x00 */\n      0x00\n        /* \"contracts/6_Calldata.sol\":4300:4318  return(0x00, 0x20) */\n      return\n        /* \"contracts/6_Calldata.sol\":4341:4566  function getViaRevert(address _a)external view returns(uint256){... */\n    tag_36:\n        /* \"contracts/6_Calldata.sol\":4396:4403  uint256 */\n      0x00\n        /* \"contracts/6_Calldata.sol\":4449:4459  0x73712595 */\n      0x73712595\n        /* \"contracts/6_Calldata.sol\":4443:4447  0x00 */\n      0x00\n        /* \"contracts/6_Calldata.sol\":4436:4460  mstore(0x00, 0x73712595) */\n      mstore\n        /* \"contracts/6_Calldata.sol\":4513:4517  0x20 */\n      0x20\n        /* \"contracts/6_Calldata.sol\":4507:4511  0x00 */\n      0x00\n        /* \"contracts/6_Calldata.sol\":4503:4505  32 */\n      0x20\n        /* \"contracts/6_Calldata.sol\":4499:4501  28 */\n      0x1c\n        /* \"contracts/6_Calldata.sol\":4495:4497  _a */\n      dup6\n        /* \"contracts/6_Calldata.sol\":4488:4493  gas() */\n      gas\n        /* \"contracts/6_Calldata.sol\":4477:4518  staticcall(gas(), _a, 28, 32, 0x00, 0x20) */\n      staticcall\n        /* \"contracts/6_Calldata.sol\":4545:4549  0x20 */\n      0x20\n        /* \"contracts/6_Calldata.sol\":4539:4543  0x00 */\n      0x00\n        /* \"contracts/6_Calldata.sol\":4532:4550  return(0x00, 0x20) */\n      return\n        /* \"#utility.yul\":88:205   */\n    tag_63:\n        /* \"#utility.yul\":197:198   */\n      0x00\n        /* \"#utility.yul\":194:195   */\n      dup1\n        /* \"#utility.yul\":187:199   */\n      revert\n        /* \"#utility.yul\":211:328   */\n    tag_64:\n        /* \"#utility.yul\":320:321   */\n      0x00\n        /* \"#utility.yul\":317:318   */\n      dup1\n        /* \"#utility.yul\":310:322   */\n      revert\n        /* \"#utility.yul\":334:460   */\n    tag_65:\n        /* \"#utility.yul\":371:378   */\n      0x00\n        /* \"#utility.yul\":411:453   */\n      0xffffffffffffffffffffffffffffffffffffffff\n        /* \"#utility.yul\":404:409   */\n      dup3\n        /* \"#utility.yul\":400:454   */\n      and\n        /* \"#utility.yul\":389:454   */\n      swap1\n      pop\n        /* \"#utility.yul\":334:460   */\n      swap2\n      swap1\n      pop\n      jump\t// out\n        /* \"#utility.yul\":466:562   */\n    tag_66:\n        /* \"#utility.yul\":503:510   */\n      0x00\n        /* \"#utility.yul\":532:556   */\n      tag_91\n        /* \"#utility.yul\":550:555   */\n      dup3\n        /* \"#utility.yul\":532:556   */\n      tag_65\n      jump\t// in\n    tag_91:\n        /* \"#utility.yul\":521:556   */\n      swap1\n      pop\n        /* \"#utility.yul\":466:562   */\n      swap2\n      swap1\n      pop\n      jump\t// out\n        /* \"#utility.yul\":568:690   */\n    tag_67:\n        /* \"#utility.yul\":641:665   */\n      tag_93\n        /* \"#utility.yul\":659:664   */\n      dup2\n        /* \"#utility.yul\":641:665   */\n      tag_66\n      jump\t// in\n    tag_93:\n        /* \"#utility.yul\":634:639   */\n      dup2\n        /* \"#utility.yul\":631:666   */\n      eq\n        /* \"#utility.yul\":621:684   */\n      tag_94\n      jumpi\n        /* \"#utility.yul\":680:681   */\n      0x00\n        /* \"#utility.yul\":677:678   */\n      dup1\n        /* \"#utility.yul\":670:682   */\n      revert\n        /* \"#utility.yul\":621:684   */\n    tag_94:\n        /* \"#utility.yul\":568:690   */\n      pop\n      jump\t// out\n        /* \"#utility.yul\":696:835   */\n    tag_68:\n        /* \"#utility.yul\":742:747   */\n      0x00\n        /* \"#utility.yul\":780:786   */\n      dup2\n        /* \"#utility.yul\":767:787   */\n      calldataload\n        /* \"#utility.yul\":758:787   */\n      swap1\n      pop\n        /* \"#utility.yul\":796:829   */\n      tag_96\n        /* \"#utility.yul\":823:828   */\n      dup2\n        /* \"#utility.yul\":796:829   */\n      tag_67\n      jump\t// in\n    tag_96:\n        /* \"#utility.yul\":696:835   */\n      swap3\n      swap2\n      pop\n      pop\n      jump\t// out\n        /* \"#utility.yul\":841:1170   */\n    tag_11:\n        /* \"#utility.yul\":900:906   */\n      0x00\n        /* \"#utility.yul\":949:951   */\n      0x20\n        /* \"#utility.yul\":937:946   */\n      dup3\n        /* \"#utility.yul\":928:935   */\n      dup5\n        /* \"#utility.yul\":924:947   */\n      sub\n        /* \"#utility.yul\":920:952   */\n      slt\n        /* \"#utility.yul\":917:1036   */\n      iszero\n      tag_98\n      jumpi\n        /* \"#utility.yul\":955:1034   */\n      tag_99\n      tag_63\n      jump\t// in\n    tag_99:\n        /* \"#utility.yul\":917:1036   */\n    tag_98:\n        /* \"#utility.yul\":1075:1076   */\n      0x00\n        /* \"#utility.yul\":1100:1153   */\n      tag_100\n        /* \"#utility.yul\":1145:1152   */\n      dup5\n        /* \"#utility.yul\":1136:1142   */\n      dup3\n        /* \"#utility.yul\":1125:1134   */\n      dup6\n        /* \"#utility.yul\":1121:1143   */\n      add\n        /* \"#utility.yul\":1100:1153   */\n      tag_68\n      jump\t// in\n    tag_100:\n        /* \"#utility.yul\":1090:1153   */\n      swap2\n      pop\n        /* \"#utility.yul\":1046:1163   */\n      pop\n        /* \"#utility.yul\":841:1170   */\n      swap3\n      swap2\n      pop\n      pop\n      jump\t// out\n        /* \"#utility.yul\":1176:1293   */\n    tag_69:\n        /* \"#utility.yul\":1285:1286   */\n      0x00\n        /* \"#utility.yul\":1282:1283   */\n      dup1\n        /* \"#utility.yul\":1275:1287   */\n      revert\n        /* \"#utility.yul\":1299:1416   */\n    tag_70:\n        /* \"#utility.yul\":1408:1409   */\n      0x00\n        /* \"#utility.yul\":1405:1406   */\n      dup1\n        /* \"#utility.yul\":1398:1410   */\n      revert\n        /* \"#utility.yul\":1422:1539   */\n    tag_71:\n        /* \"#utility.yul\":1531:1532   */\n      0x00\n        /* \"#utility.yul\":1528:1529   */\n      dup1\n        /* \"#utility.yul\":1521:1533   */\n      revert\n        /* \"#utility.yul\":1562:2130   */\n    tag_72:\n        /* \"#utility.yul\":1635:1643   */\n      0x00\n        /* \"#utility.yul\":1645:1651   */\n      dup1\n        /* \"#utility.yul\":1695:1698   */\n      dup4\n        /* \"#utility.yul\":1688:1692   */\n      0x1f\n        /* \"#utility.yul\":1680:1686   */\n      dup5\n        /* \"#utility.yul\":1676:1693   */\n      add\n        /* \"#utility.yul\":1672:1699   */\n      slt\n        /* \"#utility.yul\":1662:1784   */\n      tag_105\n      jumpi\n        /* \"#utility.yul\":1703:1782   */\n      tag_106\n      tag_69\n      jump\t// in\n    tag_106:\n        /* \"#utility.yul\":1662:1784   */\n    tag_105:\n        /* \"#utility.yul\":1816:1822   */\n      dup3\n        /* \"#utility.yul\":1803:1823   */\n      calldataload\n        /* \"#utility.yul\":1793:1823   */\n      swap1\n      pop\n        /* \"#utility.yul\":1846:1864   */\n      0xffffffffffffffff\n        /* \"#utility.yul\":1838:1844   */\n      dup2\n        /* \"#utility.yul\":1835:1865   */\n      gt\n        /* \"#utility.yul\":1832:1949   */\n      iszero\n      tag_107\n      jumpi\n        /* \"#utility.yul\":1868:1947   */\n      tag_108\n      tag_70\n      jump\t// in\n    tag_108:\n        /* \"#utility.yul\":1832:1949   */\n    tag_107:\n        /* \"#utility.yul\":1982:1986   */\n      0x20\n        /* \"#utility.yul\":1974:1980   */\n      dup4\n        /* \"#utility.yul\":1970:1987   */\n      add\n        /* \"#utility.yul\":1958:1987   */\n      swap2\n      pop\n        /* \"#utility.yul\":2036:2039   */\n      dup4\n        /* \"#utility.yul\":2028:2032   */\n      0x20\n        /* \"#utility.yul\":2020:2026   */\n      dup3\n        /* \"#utility.yul\":2016:2033   */\n      mul\n        /* \"#utility.yul\":2006:2014   */\n      dup4\n        /* \"#utility.yul\":2002:2034   */\n      add\n        /* \"#utility.yul\":1999:2040   */\n      gt\n        /* \"#utility.yul\":1996:2124   */\n      iszero\n      tag_109\n      jumpi\n        /* \"#utility.yul\":2043:2122   */\n      tag_110\n      tag_71\n      jump\t// in\n    tag_110:\n        /* \"#utility.yul\":1996:2124   */\n    tag_109:\n        /* \"#utility.yul\":1562:2130   */\n      swap3\n      pop\n      swap3\n      swap1\n      pop\n      jump\t// out\n        /* \"#utility.yul\":2136:3070   */\n    tag_15:\n        /* \"#utility.yul\":2258:2264   */\n      0x00\n        /* \"#utility.yul\":2266:2272   */\n      dup1\n        /* \"#utility.yul\":2274:2280   */\n      0x00\n        /* \"#utility.yul\":2282:2288   */\n      dup1\n        /* \"#utility.yul\":2331:2333   */\n      0x40\n        /* \"#utility.yul\":2319:2328   */\n      dup6\n        /* \"#utility.yul\":2310:2317   */\n      dup8\n        /* \"#utility.yul\":2306:2329   */\n      sub\n        /* \"#utility.yul\":2302:2334   */\n      slt\n        /* \"#utility.yul\":2299:2418   */\n      iszero\n      tag_112\n      jumpi\n        /* \"#utility.yul\":2337:2416   */\n      tag_113\n      tag_63\n      jump\t// in\n    tag_113:\n        /* \"#utility.yul\":2299:2418   */\n    tag_112:\n        /* \"#utility.yul\":2485:2486   */\n      0x00\n        /* \"#utility.yul\":2474:2483   */\n      dup6\n        /* \"#utility.yul\":2470:2487   */\n      add\n        /* \"#utility.yul\":2457:2488   */\n      calldataload\n        /* \"#utility.yul\":2515:2533   */\n      0xffffffffffffffff\n        /* \"#utility.yul\":2507:2513   */\n      dup2\n        /* \"#utility.yul\":2504:2534   */\n      gt\n        /* \"#utility.yul\":2501:2618   */\n      iszero\n      tag_114\n      jumpi\n        /* \"#utility.yul\":2537:2616   */\n      tag_115\n      tag_64\n      jump\t// in\n    tag_115:\n        /* \"#utility.yul\":2501:2618   */\n    tag_114:\n        /* \"#utility.yul\":2650:2730   */\n      tag_116\n        /* \"#utility.yul\":2722:2729   */\n      dup8\n        /* \"#utility.yul\":2713:2719   */\n      dup3\n        /* \"#utility.yul\":2702:2711   */\n      dup9\n        /* \"#utility.yul\":2698:2720   */\n      add\n        /* \"#utility.yul\":2650:2730   */\n      tag_72\n      jump\t// in\n    tag_116:\n        /* \"#utility.yul\":2632:2730   */\n      swap5\n      pop\n      swap5\n      pop\n        /* \"#utility.yul\":2428:2740   */\n      pop\n        /* \"#utility.yul\":2807:2809   */\n      0x20\n        /* \"#utility.yul\":2796:2805   */\n      dup6\n        /* \"#utility.yul\":2792:2810   */\n      add\n        /* \"#utility.yul\":2779:2811   */\n      calldataload\n        /* \"#utility.yul\":2838:2856   */\n      0xffffffffffffffff\n        /* \"#utility.yul\":2830:2836   */\n      dup2\n        /* \"#utility.yul\":2827:2857   */\n      gt\n        /* \"#utility.yul\":2824:2941   */\n      iszero\n      tag_117\n      jumpi\n        /* \"#utility.yul\":2860:2939   */\n      tag_118\n      tag_64\n      jump\t// in\n    tag_118:\n        /* \"#utility.yul\":2824:2941   */\n    tag_117:\n        /* \"#utility.yul\":2973:3053   */\n      tag_119\n        /* \"#utility.yul\":3045:3052   */\n      dup8\n        /* \"#utility.yul\":3036:3042   */\n      dup3\n        /* \"#utility.yul\":3025:3034   */\n      dup9\n        /* \"#utility.yul\":3021:3043   */\n      add\n        /* \"#utility.yul\":2973:3053   */\n      tag_72\n      jump\t// in\n    tag_119:\n        /* \"#utility.yul\":2955:3053   */\n      swap3\n      pop\n      swap3\n      pop\n        /* \"#utility.yul\":2750:3063   */\n      pop\n        /* \"#utility.yul\":2136:3070   */\n      swap3\n      swap6\n      swap2\n      swap5\n      pop\n      swap3\n      pop\n      jump\t// out\n        /* \"#utility.yul\":3076:3166   */\n    tag_73:\n        /* \"#utility.yul\":3110:3117   */\n      0x00\n        /* \"#utility.yul\":3153:3158   */\n      dup2\n        /* \"#utility.yul\":3146:3159   */\n      iszero\n        /* \"#utility.yul\":3139:3160   */\n      iszero\n        /* \"#utility.yul\":3128:3160   */\n      swap1\n      pop\n        /* \"#utility.yul\":3076:3166   */\n      swap2\n      swap1\n      pop\n      jump\t// out\n        /* \"#utility.yul\":3172:3281   */\n    tag_74:\n        /* \"#utility.yul\":3253:3274   */\n      tag_122\n        /* \"#utility.yul\":3268:3273   */\n      dup2\n        /* \"#utility.yul\":3253:3274   */\n      tag_73\n      jump\t// in\n    tag_122:\n        /* \"#utility.yul\":3248:3251   */\n      dup3\n        /* \"#utility.yul\":3241:3275   */\n      mstore\n        /* \"#utility.yul\":3172:3281   */\n      pop\n      pop\n      jump\t// out\n        /* \"#utility.yul\":3287:3497   */\n    tag_18:\n        /* \"#utility.yul\":3374:3378   */\n      0x00\n        /* \"#utility.yul\":3412:3414   */\n      0x20\n        /* \"#utility.yul\":3401:3410   */\n      dup3\n        /* \"#utility.yul\":3397:3415   */\n      add\n        /* \"#utility.yul\":3389:3415   */\n      swap1\n      pop\n        /* \"#utility.yul\":3425:3490   */\n      tag_124\n        /* \"#utility.yul\":3487:3488   */\n      0x00\n        /* \"#utility.yul\":3476:3485   */\n      dup4\n        /* \"#utility.yul\":3472:3489   */\n      add\n        /* \"#utility.yul\":3463:3469   */\n      dup5\n        /* \"#utility.yul\":3425:3490   */\n      tag_74\n      jump\t// in\n    tag_124:\n        /* \"#utility.yul\":3287:3497   */\n      swap3\n      swap2\n      pop\n      pop\n      jump\t// out\n        /* \"#utility.yul\":3503:3580   */\n    tag_75:\n        /* \"#utility.yul\":3540:3547   */\n      0x00\n        /* \"#utility.yul\":3569:3574   */\n      dup2\n        /* \"#utility.yul\":3558:3574   */\n      swap1\n      pop\n        /* \"#utility.yul\":3503:3580   */\n      swap2\n      swap1\n      pop\n      jump\t// out\n        /* \"#utility.yul\":3586:3704   */\n    tag_76:\n        /* \"#utility.yul\":3673:3697   */\n      tag_127\n        /* \"#utility.yul\":3691:3696   */\n      dup2\n        /* \"#utility.yul\":3673:3697   */\n      tag_75\n      jump\t// in\n    tag_127:\n        /* \"#utility.yul\":3668:3671   */\n      dup3\n        /* \"#utility.yul\":3661:3698   */\n      mstore\n        /* \"#utility.yul\":3586:3704   */\n      pop\n      pop\n      jump\t// out\n        /* \"#utility.yul\":3710:3932   */\n    tag_23:\n        /* \"#utility.yul\":3803:3807   */\n      0x00\n        /* \"#utility.yul\":3841:3843   */\n      0x20\n        /* \"#utility.yul\":3830:3839   */\n      dup3\n        /* \"#utility.yul\":3826:3844   */\n      add\n        /* \"#utility.yul\":3818:3844   */\n      swap1\n      pop\n        /* \"#utility.yul\":3854:3925   */\n      tag_129\n        /* \"#utility.yul\":3922:3923   */\n      0x00\n        /* \"#utility.yul\":3911:3920   */\n      dup4\n        /* \"#utility.yul\":3907:3924   */\n      add\n        /* \"#utility.yul\":3898:3904   */\n      dup5\n        /* \"#utility.yul\":3854:3925   */\n      tag_76\n      jump\t// in\n    tag_129:\n        /* \"#utility.yul\":3710:3932   */\n      swap3\n      swap2\n      pop\n      pop\n      jump\t// out\n        /* \"#utility.yul\":3938:4060   */\n    tag_77:\n        /* \"#utility.yul\":4011:4035   */\n      tag_131\n        /* \"#utility.yul\":4029:4034   */\n      dup2\n        /* \"#utility.yul\":4011:4035   */\n      tag_75\n      jump\t// in\n    tag_131:\n        /* \"#utility.yul\":4004:4009   */\n      dup2\n        /* \"#utility.yul\":4001:4036   */\n      eq\n        /* \"#utility.yul\":3991:4054   */\n      tag_132\n      jumpi\n        /* \"#utility.yul\":4050:4051   */\n      0x00\n        /* \"#utility.yul\":4047:4048   */\n      dup1\n        /* \"#utility.yul\":4040:4052   */\n      revert\n        /* \"#utility.yul\":3991:4054   */\n    tag_132:\n        /* \"#utility.yul\":3938:4060   */\n      pop\n      jump\t// out\n        /* \"#utility.yul\":4066:4205   */\n    tag_78:\n        /* \"#utility.yul\":4112:4117   */\n      0x00\n        /* \"#utility.yul\":4150:4156   */\n      dup2\n        /* \"#utility.yul\":4137:4157   */\n      calldataload\n        /* \"#utility.yul\":4128:4157   */\n      swap1\n      pop\n        /* \"#utility.yul\":4166:4199   */\n      tag_134\n        /* \"#utility.yul\":4193:4198   */\n      dup2\n        /* \"#utility.yul\":4166:4199   */\n      tag_77\n      jump\t// in\n    tag_134:\n        /* \"#utility.yul\":4066:4205   */\n      swap3\n      swap2\n      pop\n      pop\n      jump\t// out\n        /* \"#utility.yul\":4211:4685   */\n    tag_26:\n        /* \"#utility.yul\":4279:4285   */\n      0x00\n        /* \"#utility.yul\":4287:4293   */\n      dup1\n        /* \"#utility.yul\":4336:4338   */\n      0x40\n        /* \"#utility.yul\":4324:4333   */\n      dup4\n        /* \"#utility.yul\":4315:4322   */\n      dup6\n        /* \"#utility.yul\":4311:4334   */\n      sub\n        /* \"#utility.yul\":4307:4339   */\n      slt\n        /* \"#utility.yul\":4304:4423   */\n      iszero\n      tag_136\n      jumpi\n        /* \"#utility.yul\":4342:4421   */\n      tag_137\n      tag_63\n      jump\t// in\n    tag_137:\n        /* \"#utility.yul\":4304:4423   */\n    tag_136:\n        /* \"#utility.yul\":4462:4463   */\n      0x00\n        /* \"#utility.yul\":4487:4540   */\n      tag_138\n        /* \"#utility.yul\":4532:4539   */\n      dup6\n        /* \"#utility.yul\":4523:4529   */\n      dup3\n        /* \"#utility.yul\":4512:4521   */\n      dup7\n        /* \"#utility.yul\":4508:4530   */\n      add\n        /* \"#utility.yul\":4487:4540   */\n      tag_68\n      jump\t// in\n    tag_138:\n        /* \"#utility.yul\":4477:4540   */\n      swap3\n      pop\n        /* \"#utility.yul\":4433:4550   */\n      pop\n        /* \"#utility.yul\":4589:4591   */\n      0x20\n        /* \"#utility.yul\":4615:4668   */\n      tag_139\n        /* \"#utility.yul\":4660:4667   */\n      dup6\n        /* \"#utility.yul\":4651:4657   */\n      dup3\n        /* \"#utility.yul\":4640:4649   */\n      dup7\n        /* \"#utility.yul\":4636:4658   */\n      add\n        /* \"#utility.yul\":4615:4668   */\n      tag_78\n      jump\t// in\n    tag_139:\n        /* \"#utility.yul\":4605:4668   */\n      swap2\n      pop\n        /* \"#utility.yul\":4560:4678   */\n      pop\n        /* \"#utility.yul\":4211:4685   */\n      swap3\n      pop\n      swap3\n      swap1\n      pop\n      jump\t// out\n        /* \"#utility.yul\":4691:4768   */\n    tag_79:\n        /* \"#utility.yul\":4728:4735   */\n      0x00\n        /* \"#utility.yul\":4757:4762   */\n      dup2\n        /* \"#utility.yul\":4746:4762   */\n      swap1\n      pop\n        /* \"#utility.yul\":4691:4768   */\n      swap2\n      swap1\n      pop\n      jump\t// out\n        /* \"#utility.yul\":4774:4892   */\n    tag_80:\n        /* \"#utility.yul\":4861:4885   */\n      tag_142\n        /* \"#utility.yul\":4879:4884   */\n      dup2\n        /* \"#utility.yul\":4861:4885   */\n      tag_79\n      jump\t// in\n    tag_142:\n        /* \"#utility.yul\":4856:4859   */\n      dup3\n        /* \"#utility.yul\":4849:4886   */\n      mstore\n        /* \"#utility.yul\":4774:4892   */\n      pop\n      pop\n      jump\t// out\n        /* \"#utility.yul\":4898:5120   */\n    tag_29:\n        /* \"#utility.yul\":4991:4995   */\n      0x00\n        /* \"#utility.yul\":5029:5031   */\n      0x20\n        /* \"#utility.yul\":5018:5027   */\n      dup3\n        /* \"#utility.yul\":5014:5032   */\n      add\n        /* \"#utility.yul\":5006:5032   */\n      swap1\n      pop\n        /* \"#utility.yul\":5042:5113   */\n      tag_144\n        /* \"#utility.yul\":5110:5111   */\n      0x00\n        /* \"#utility.yul\":5099:5108   */\n      dup4\n        /* \"#utility.yul\":5095:5112   */\n      add\n        /* \"#utility.yul\":5086:5092   */\n      dup5\n        /* \"#utility.yul\":5042:5113   */\n      tag_80\n      jump\t// in\n    tag_144:\n        /* \"#utility.yul\":4898:5120   */\n      swap3\n      swap2\n      pop\n      pop\n      jump\t// out\n        /* \"#utility.yul\":5126:5295   */\n    tag_81:\n        /* \"#utility.yul\":5210:5221   */\n      0x00\n        /* \"#utility.yul\":5244:5250   */\n      dup3\n        /* \"#utility.yul\":5239:5242   */\n      dup3\n        /* \"#utility.yul\":5232:5251   */\n      mstore\n        /* \"#utility.yul\":5284:5288   */\n      0x20\n        /* \"#utility.yul\":5279:5282   */\n      dup3\n        /* \"#utility.yul\":5275:5289   */\n      add\n        /* \"#utility.yul\":5260:5289   */\n      swap1\n      pop\n        /* \"#utility.yul\":5126:5295   */\n      swap3\n      swap2\n      pop\n      pop\n      jump\t// out\n        /* \"#utility.yul\":5301:5458   */\n    tag_82:\n        /* \"#utility.yul\":5441:5450   */\n      0x696e76616c696400000000000000000000000000000000000000000000000000\n        /* \"#utility.yul\":5437:5438   */\n      0x00\n        /* \"#utility.yul\":5429:5435   */\n      dup3\n        /* \"#utility.yul\":5425:5439   */\n      add\n        /* \"#utility.yul\":5418:5451   */\n      mstore\n        /* \"#utility.yul\":5301:5458   */\n      pop\n      jump\t// out\n        /* \"#utility.yul\":5464:5829   */\n    tag_83:\n        /* \"#utility.yul\":5606:5609   */\n      0x00\n        /* \"#utility.yul\":5627:5693   */\n      tag_148\n        /* \"#utility.yul\":5691:5692   */\n      0x07\n        /* \"#utility.yul\":5686:5689   */\n      dup4\n        /* \"#utility.yul\":5627:5693   */\n      tag_81\n      jump\t// in\n    tag_148:\n        /* \"#utility.yul\":5620:5693   */\n      swap2\n      pop\n        /* \"#utility.yul\":5702:5795   */\n      tag_149\n        /* \"#utility.yul\":5791:5794   */\n      dup3\n        /* \"#utility.yul\":5702:5795   */\n      tag_82\n      jump\t// in\n    tag_149:\n        /* \"#utility.yul\":5820:5822   */\n      0x20\n        /* \"#utility.yul\":5815:5818   */\n      dup3\n        /* \"#utility.yul\":5811:5823   */\n      add\n        /* \"#utility.yul\":5804:5823   */\n      swap1\n      pop\n        /* \"#utility.yul\":5464:5829   */\n      swap2\n      swap1\n      pop\n      jump\t// out\n        /* \"#utility.yul\":5835:6254   */\n    tag_43:\n        /* \"#utility.yul\":6001:6005   */\n      0x00\n        /* \"#utility.yul\":6039:6041   */\n      0x20\n        /* \"#utility.yul\":6028:6037   */\n      dup3\n        /* \"#utility.yul\":6024:6042   */\n      add\n        /* \"#utility.yul\":6016:6042   */\n      swap1\n      pop\n        /* \"#utility.yul\":6088:6097   */\n      dup2\n        /* \"#utility.yul\":6082:6086   */\n      dup2\n        /* \"#utility.yul\":6078:6098   */\n      sub\n        /* \"#utility.yul\":6074:6075   */\n      0x00\n        /* \"#utility.yul\":6063:6072   */\n      dup4\n        /* \"#utility.yul\":6059:6076   */\n      add\n        /* \"#utility.yul\":6052:6099   */\n      mstore\n        /* \"#utility.yul\":6116:6247   */\n      tag_151\n        /* \"#utility.yul\":6242:6246   */\n      dup2\n        /* \"#utility.yul\":6116:6247   */\n      tag_83\n      jump\t// in\n    tag_151:\n        /* \"#utility.yul\":6108:6247   */\n      swap1\n      pop\n        /* \"#utility.yul\":5835:6254   */\n      swap2\n      swap1\n      pop\n      jump\t// out\n        /* \"#utility.yul\":6260:6440   */\n    tag_49:\n        /* \"#utility.yul\":6308:6385   */\n      0x4e487b7100000000000000000000000000000000000000000000000000000000\n        /* \"#utility.yul\":6305:6306   */\n      0x00\n        /* \"#utility.yul\":6298:6386   */\n      mstore\n        /* \"#utility.yul\":6405:6409   */\n      0x32\n        /* \"#utility.yul\":6402:6403   */\n      0x04\n        /* \"#utility.yul\":6395:6410   */\n      mstore\n        /* \"#utility.yul\":6429:6433   */\n      0x24\n        /* \"#utility.yul\":6426:6427   */\n      0x00\n        /* \"#utility.yul\":6419:6434   */\n      revert\n        /* \"#utility.yul\":6446:6626   */\n    tag_84:\n        /* \"#utility.yul\":6494:6571   */\n      0x4e487b7100000000000000000000000000000000000000000000000000000000\n        /* \"#utility.yul\":6491:6492   */\n      0x00\n        /* \"#utility.yul\":6484:6572   */\n      mstore\n        /* \"#utility.yul\":6591:6595   */\n      0x11\n        /* \"#utility.yul\":6588:6589   */\n      0x04\n        /* \"#utility.yul\":6581:6596   */\n      mstore\n        /* \"#utility.yul\":6615:6619   */\n      0x24\n        /* \"#utility.yul\":6612:6613   */\n      0x00\n        /* \"#utility.yul\":6605:6620   */\n      revert\n        /* \"#utility.yul\":6632:6865   */\n    tag_54:\n        /* \"#utility.yul\":6671:6674   */\n      0x00\n        /* \"#utility.yul\":6694:6718   */\n      tag_155\n        /* \"#utility.yul\":6712:6717   */\n      dup3\n        /* \"#utility.yul\":6694:6718   */\n      tag_75\n      jump\t// in\n    tag_155:\n        /* \"#utility.yul\":6685:6718   */\n      swap2\n      pop\n        /* \"#utility.yul\":6740:6806   */\n      0xffffffffffffffffffffffffffffffffffffffffffffffffffffffffffffffff\n        /* \"#utility.yul\":6733:6738   */\n      dup3\n        /* \"#utility.yul\":6730:6807   */\n      sub\n        /* \"#utility.yul\":6727:6830   */\n      tag_156\n      jumpi\n        /* \"#utility.yul\":6810:6828   */\n      tag_157\n      tag_84\n      jump\t// in\n    tag_157:\n        /* \"#utility.yul\":6727:6830   */\n    tag_156:\n        /* \"#utility.yul\":6857:6858   */\n      0x01\n        /* \"#utility.yul\":6850:6855   */\n      dup3\n        /* \"#utility.yul\":6846:6859   */\n      add\n        /* \"#utility.yul\":6839:6859   */\n      swap1\n      pop\n        /* \"#utility.yul\":6632:6865   */\n      swap2\n      swap1\n      pop\n      jump\t// out\n\n    auxdata: 0xa2646970667358221220a5e0050a8c5339c88c09f040a20ed39899557355412e0e200466704bf00ec8da64736f6c63430008110033\n}\n",
				"bytecode": {
					"linkReferences": {},
					"object": "608060405234801561001057600080fd5b506106ee806100206000396000f3fe608060405234801561001057600080fd5b50600436106100625760003560e01c806303f3084b146100675780630c62c939146100835780634a2f82f8146100b357806352bd0fa3146100e357806368c4c7601461011357806376e1677e14610143575b600080fd5b610081600480360381019061007c9190610378565b610173565b005b61009d6004803603810190610098919061040a565b61019e565b6040516100aa91906104a6565b60405180910390f35b6100cd60048036038101906100c89190610378565b61025a565b6040516100da91906104da565b60405180910390f35b6100fd60048036038101906100f89190610521565b6102a1565b60405161010a919061057a565b60405180910390f35b61012d60048036038101906101289190610378565b6102d0565b60405161013a91906104da565b60405180910390f35b61015d60048036038101906101589190610378565b6102f5565b60405161016a91906104da565b60405180910390f35b634018d9aa6000526103e76020526000806020601c01601c6000855af18061019a57600080fd5b5050565b60008282905085859050036101e8576040517f08c379a00000000000000000000000000000000000000000000000000000000081526004016101df906105f2565b60405180910390fd5b60005b8585905081101561024c5783838281811061020957610208610612565b5b9050602002013586868381811061022357610222610612565b5b9050602002013514610239576000915050610252565b808061024490610670565b9150506101eb565b50600190505b949350505050565b60006040518063196e6d84825260036020830152600b60408301526060820160405260206000604051601c8501875afa8061029457600080fd5b6000519350505050919050565b6000637c70b4db600052816020526000806020601c01601c865afa806102c657600080fd5b3d6000803e3d6000f35b6000639a884bde60005260206000601e601c855afa806102ef57600080fd5b60206000f35b60006373712595600052602060006020601c855afa60206000f35b600080fd5b600080fd5b600073ffffffffffffffffffffffffffffffffffffffff82169050919050565b60006103458261031a565b9050919050565b6103558161033a565b811461036057600080fd5b50565b6000813590506103728161034c565b92915050565b60006020828403121561038e5761038d610310565b5b600061039c84828501610363565b91505092915050565b600080fd5b600080fd5b600080fd5b60008083601f8401126103ca576103c96103a5565b5b8235905067ffffffffffffffff8111156103e7576103e66103aa565b5b602083019150836020820283011115610403576104026103af565b5b9250929050565b6000806000806040858703121561042457610423610310565b5b600085013567ffffffffffffffff81111561044257610441610315565b5b61044e878288016103b4565b9450945050602085013567ffffffffffffffff81111561047157610470610315565b5b61047d878288016103b4565b925092505092959194509250565b60008115159050919050565b6104a08161048b565b82525050565b60006020820190506104bb6000830184610497565b92915050565b6000819050919050565b6104d4816104c1565b82525050565b60006020820190506104ef60008301846104cb565b92915050565b6104fe816104c1565b811461050957600080fd5b50565b60008135905061051b816104f5565b92915050565b6000806040838503121561053857610537610310565b5b600061054685828601610363565b92505060206105578582860161050c565b9150509250929050565b6000819050919050565b61057481610561565b82525050565b600060208201905061058f600083018461056b565b92915050565b600082825260208201905092915050565b7f696e76616c696400000000000000000000000000000000000000000000000000600082015250565b60006105dc600783610595565b91506105e7826105a6565b602082019050919050565b6000602082019050818103600083015261060b816105cf565b9050919050565b7f4e487b7100000000000000000000000000000000000000000000000000000000600052603260045260246000fd5b7f4e487b7100000000000000000000000000000000000000000000000000000000600052601160045260246000fd5b600061067b826104c1565b91507fffffffffffffffffffffffffffffffffffffffffffffffffffffffffffffffff82036106ad576106ac610641565b5b60018201905091905056fea2646970667358221220a5e0050a8c5339c88c09f040a20ed39899557355412e0e200466704bf00ec8da64736f6c63430008110033",
					"opcodes": "PUSH1 0x80 PUSH1 0x40 MSTORE CALLVALUE DUP1 ISZERO PUSH2 0x10 JUMPI PUSH1 0x0 DUP1 REVERT JUMPDEST POP PUSH2 0x6EE DUP1 PUSH2 0x20 PUSH1 0x0 CODECOPY PUSH1 0x0 RETURN INVALID PUSH1 0x80 PUSH1 0x40 MSTORE CALLVALUE DUP1 ISZERO PUSH2 0x10 JUMPI PUSH1 0x0 DUP1 REVERT JUMPDEST POP PUSH1 0x4 CALLDATASIZE LT PUSH2 0x62 JUMPI PUSH1 0x0 CALLDATALOAD PUSH1 0xE0 SHR DUP1 PUSH4 0x3F3084B EQ PUSH2 0x67 JUMPI DUP1 PUSH4 0xC62C939 EQ PUSH2 0x83 JUMPI DUP1 PUSH4 0x4A2F82F8 EQ PUSH2 0xB3 JUMPI DUP1 PUSH4 0x52BD0FA3 EQ PUSH2 0xE3 JUMPI DUP1 PUSH4 0x68C4C760 EQ PUSH2 0x113 JUMPI DUP1 PUSH4 0x76E1677E EQ PUSH2 0x143 JUMPI JUMPDEST PUSH1 0x0 DUP1 REVERT JUMPDEST PUSH2 0x81 PUSH1 0x4 DUP1 CALLDATASIZE SUB DUP2 ADD SWAP1 PUSH2 0x7C SWAP2 SWAP1 PUSH2 0x378 JUMP JUMPDEST PUSH2 0x173 JUMP JUMPDEST STOP JUMPDEST PUSH2 0x9D PUSH1 0x4 DUP1 CALLDATASIZE SUB DUP2 ADD SWAP1 PUSH2 0x98 SWAP2 SWAP1 PUSH2 0x40A JUMP JUMPDEST PUSH2 0x19E JUMP JUMPDEST PUSH1 0x40 MLOAD PUSH2 0xAA SWAP2 SWAP1 PUSH2 0x4A6 JUMP JUMPDEST PUSH1 0x40 MLOAD DUP1 SWAP2 SUB SWAP1 RETURN JUMPDEST PUSH2 0xCD PUSH1 0x4 DUP1 CALLDATASIZE SUB DUP2 ADD SWAP1 PUSH2 0xC8 SWAP2 SWAP1 PUSH2 0x378 JUMP JUMPDEST PUSH2 0x25A JUMP JUMPDEST PUSH1 0x40 MLOAD PUSH2 0xDA SWAP2 SWAP1 PUSH2 0x4DA JUMP JUMPDEST PUSH1 0x40 MLOAD DUP1 SWAP2 SUB SWAP1 RETURN JUMPDEST PUSH2 0xFD PUSH1 0x4 DUP1 CALLDATASIZE SUB DUP2 ADD SWAP1 PUSH2 0xF8 SWAP2 SWAP1 PUSH2 0x521 JUMP JUMPDEST PUSH2 0x2A1 JUMP JUMPDEST PUSH1 0x40 MLOAD PUSH2 0x10A SWAP2 SWAP1 PUSH2 0x57A JUMP JUMPDEST PUSH1 0x40 MLOAD DUP1 SWAP2 SUB SWAP1 RETURN JUMPDEST PUSH2 0x12D PUSH1 0x4 DUP1 CALLDATASIZE SUB DUP2 ADD SWAP1 PUSH2 0x128 SWAP2 SWAP1 PUSH2 0x378 JUMP JUMPDEST PUSH2 0x2D0 JUMP JUMPDEST PUSH1 0x40 MLOAD PUSH2 0x13A SWAP2 SWAP1 PUSH2 0x4DA JUMP JUMPDEST PUSH1 0x40 MLOAD DUP1 SWAP2 SUB SWAP1 RETURN JUMPDEST PUSH2 0x15D PUSH1 0x4 DUP1 CALLDATASIZE SUB DUP2 ADD SWAP1 PUSH2 0x158 SWAP2 SWAP1 PUSH2 0x378 JUMP JUMPDEST PUSH2 0x2F5 JUMP JUMPDEST PUSH1 0x40 MLOAD PUSH2 0x16A SWAP2 SWAP1 PUSH2 0x4DA JUMP JUMPDEST PUSH1 0x40 MLOAD DUP1 SWAP2 SUB SWAP1 RETURN JUMPDEST PUSH4 0x4018D9AA PUSH1 0x0 MSTORE PUSH2 0x3E7 PUSH1 0x20 MSTORE PUSH1 0x0 DUP1 PUSH1 0x20 PUSH1 0x1C ADD PUSH1 0x1C PUSH1 0x0 DUP6 GAS CALL DUP1 PUSH2 0x19A JUMPI PUSH1 0x0 DUP1 REVERT JUMPDEST POP POP JUMP JUMPDEST PUSH1 0x0 DUP3 DUP3 SWAP1 POP DUP6 DUP6 SWAP1 POP SUB PUSH2 0x1E8 JUMPI PUSH1 0x40 MLOAD PUSH32 0x8C379A000000000000000000000000000000000000000000000000000000000 DUP2 MSTORE PUSH1 0x4 ADD PUSH2 0x1DF SWAP1 PUSH2 0x5F2 JUMP JUMPDEST PUSH1 0x40 MLOAD DUP1 SWAP2 SUB SWAP1 REVERT JUMPDEST PUSH1 0x0 JUMPDEST DUP6 DUP6 SWAP1 POP DUP2 LT ISZERO PUSH2 0x24C JUMPI DUP4 DUP4 DUP3 DUP2 DUP2 LT PUSH2 0x209 JUMPI PUSH2 0x208 PUSH2 0x612 JUMP JUMPDEST JUMPDEST SWAP1 POP PUSH1 0x20 MUL ADD CALLDATALOAD DUP7 DUP7 DUP4 DUP2 DUP2 LT PUSH2 0x223 JUMPI PUSH2 0x222 PUSH2 0x612 JUMP JUMPDEST JUMPDEST SWAP1 POP PUSH1 0x20 MUL ADD CALLDATALOAD EQ PUSH2 0x239 JUMPI PUSH1 0x0 SWAP2 POP POP PUSH2 0x252 JUMP JUMPDEST DUP1 DUP1 PUSH2 0x244 SWAP1 PUSH2 0x670 JUMP JUMPDEST SWAP2 POP POP PUSH2 0x1EB JUMP JUMPDEST POP PUSH1 0x1 SWAP1 POP JUMPDEST SWAP5 SWAP4 POP POP POP POP JUMP JUMPDEST PUSH1 0x0 PUSH1 0x40 MLOAD DUP1 PUSH4 0x196E6D84 DUP3 MSTORE PUSH1 0x3 PUSH1 0x20 DUP4 ADD MSTORE PUSH1 0xB PUSH1 0x40 DUP4 ADD MSTORE PUSH1 0x60 DUP3 ADD PUSH1 0x40 MSTORE PUSH1 0x20 PUSH1 0x0 PUSH1 0x40 MLOAD PUSH1 0x1C DUP6 ADD DUP8 GAS STATICCALL DUP1 PUSH2 0x294 JUMPI PUSH1 0x0 DUP1 REVERT JUMPDEST PUSH1 0x0 MLOAD SWAP4 POP POP POP POP SWAP2 SWAP1 POP JUMP JUMPDEST PUSH1 0x0 PUSH4 0x7C70B4DB PUSH1 0x0 MSTORE DUP2 PUSH1 0x20 MSTORE PUSH1 0x0 DUP1 PUSH1 0x20 PUSH1 0x1C ADD PUSH1 0x1C DUP7 GAS STATICCALL DUP1 PUSH2 0x2C6 JUMPI PUSH1 0x0 DUP1 REVERT JUMPDEST RETURNDATASIZE PUSH1 0x0 DUP1 RETURNDATACOPY RETURNDATASIZE PUSH1 0x0 RETURN JUMPDEST PUSH1 0x0 PUSH4 0x9A884BDE PUSH1 0x0 MSTORE PUSH1 0x20 PUSH1 0x0 PUSH1 0x1E PUSH1 0x1C DUP6 GAS STATICCALL DUP1 PUSH2 0x2EF JUMPI PUSH1 0x0 DUP1 REVERT JUMPDEST PUSH1 0x20 PUSH1 0x0 RETURN JUMPDEST PUSH1 0x0 PUSH4 0x73712595 PUSH1 0x0 MSTORE PUSH1 0x20 PUSH1 0x0 PUSH1 0x20 PUSH1 0x1C DUP6 GAS STATICCALL PUSH1 0x20 PUSH1 0x0 RETURN JUMPDEST PUSH1 0x0 DUP1 REVERT JUMPDEST PUSH1 0x0 DUP1 REVERT JUMPDEST PUSH1 0x0 PUSH20 0xFFFFFFFFFFFFFFFFFFFFFFFFFFFFFFFFFFFFFFFF DUP3 AND SWAP1 POP SWAP2 SWAP1 POP JUMP JUMPDEST PUSH1 0x0 PUSH2 0x345 DUP3 PUSH2 0x31A JUMP JUMPDEST SWAP1 POP SWAP2 SWAP1 POP JUMP JUMPDEST PUSH2 0x355 DUP2 PUSH2 0x33A JUMP JUMPDEST DUP2 EQ PUSH2 0x360 JUMPI PUSH1 0x0 DUP1 REVERT JUMPDEST POP JUMP JUMPDEST PUSH1 0x0 DUP2 CALLDATALOAD SWAP1 POP PUSH2 0x372 DUP2 PUSH2 0x34C JUMP JUMPDEST SWAP3 SWAP2 POP POP JUMP JUMPDEST PUSH1 0x0 PUSH1 0x20 DUP3 DUP5 SUB SLT ISZERO PUSH2 0x38E JUMPI PUSH2 0x38D PUSH2 0x310 JUMP JUMPDEST JUMPDEST PUSH1 0x0 PUSH2 0x39C DUP5 DUP3 DUP6 ADD PUSH2 0x363 JUMP JUMPDEST SWAP2 POP POP SWAP3 SWAP2 POP POP JUMP JUMPDEST PUSH1 0x0 DUP1 REVERT JUMPDEST PUSH1 0x0 DUP1 REVERT JUMPDEST PUSH1 0x0 DUP1 REVERT JUMPDEST PUSH1 0x0 DUP1 DUP4 PUSH1 0x1F DUP5 ADD SLT PUSH2 0x3CA JUMPI PUSH2 0x3C9 PUSH2 0x3A5 JUMP JUMPDEST JUMPDEST DUP3 CALLDATALOAD SWAP1 POP PUSH8 0xFFFFFFFFFFFFFFFF DUP2 GT ISZERO PUSH2 0x3E7 JUMPI PUSH2 0x3E6 PUSH2 0x3AA JUMP JUMPDEST JUMPDEST PUSH1 0x20 DUP4 ADD SWAP2 POP DUP4 PUSH1 0x20 DUP3 MUL DUP4 ADD GT ISZERO PUSH2 0x403 JUMPI PUSH2 0x402 PUSH2 0x3AF JUMP JUMPDEST JUMPDEST SWAP3 POP SWAP3 SWAP1 POP JUMP JUMPDEST PUSH1 0x0 DUP1 PUSH1 0x0 DUP1 PUSH1 0x40 DUP6 DUP8 SUB SLT ISZERO PUSH2 0x424 JUMPI PUSH2 0x423 PUSH2 0x310 JUMP JUMPDEST JUMPDEST PUSH1 0x0 DUP6 ADD CALLDATALOAD PUSH8 0xFFFFFFFFFFFFFFFF DUP2 GT ISZERO PUSH2 0x442 JUMPI PUSH2 0x441 PUSH2 0x315 JUMP JUMPDEST JUMPDEST PUSH2 0x44E DUP8 DUP3 DUP9 ADD PUSH2 0x3B4 JUMP JUMPDEST SWAP5 POP SWAP5 POP POP PUSH1 0x20 DUP6 ADD CALLDATALOAD PUSH8 0xFFFFFFFFFFFFFFFF DUP2 GT ISZERO PUSH2 0x471 JUMPI PUSH2 0x470 PUSH2 0x315 JUMP JUMPDEST JUMPDEST PUSH2 0x47D DUP8 DUP3 DUP9 ADD PUSH2 0x3B4 JUMP JUMPDEST SWAP3 POP SWAP3 POP POP SWAP3 SWAP6 SWAP2 SWAP5 POP SWAP3 POP JUMP JUMPDEST PUSH1 0x0 DUP2 ISZERO ISZERO SWAP1 POP SWAP2 SWAP1 POP JUMP JUMPDEST PUSH2 0x4A0 DUP2 PUSH2 0x48B JUMP JUMPDEST DUP3 MSTORE POP POP JUMP JUMPDEST PUSH1 0x0 PUSH1 0x20 DUP3 ADD SWAP1 POP PUSH2 0x4BB PUSH1 0x0 DUP4 ADD DUP5 PUSH2 0x497 JUMP JUMPDEST SWAP3 SWAP2 POP POP JUMP JUMPDEST PUSH1 0x0 DUP2 SWAP1 POP SWAP2 SWAP1 POP JUMP JUMPDEST PUSH2 0x4D4 DUP2 PUSH2 0x4C1 JUMP JUMPDEST DUP3 MSTORE POP POP JUMP JUMPDEST PUSH1 0x0 PUSH1 0x20 DUP3 ADD SWAP1 POP PUSH2 0x4EF PUSH1 0x0 DUP4 ADD DUP5 PUSH2 0x4CB JUMP JUMPDEST SWAP3 SWAP2 POP POP JUMP JUMPDEST PUSH2 0x4FE DUP2 PUSH2 0x4C1 JUMP JUMPDEST DUP2 EQ PUSH2 0x509 JUMPI PUSH1 0x0 DUP1 REVERT JUMPDEST POP JUMP JUMPDEST PUSH1 0x0 DUP2 CALLDATALOAD SWAP1 POP PUSH2 0x51B DUP2 PUSH2 0x4F5 JUMP JUMPDEST SWAP3 SWAP2 POP POP JUMP JUMPDEST PUSH1 0x0 DUP1 PUSH1 0x40 DUP4 DUP6 SUB SLT ISZERO PUSH2 0x538 JUMPI PUSH2 0x537 PUSH2 0x310 JUMP JUMPDEST JUMPDEST PUSH1 0x0 PUSH2 0x546 DUP6 DUP3 DUP7 ADD PUSH2 0x363 JUMP JUMPDEST SWAP3 POP POP PUSH1 0x20 PUSH2 0x557 DUP6 DUP3 DUP7 ADD PUSH2 0x50C JUMP JUMPDEST SWAP2 POP POP SWAP3 POP SWAP3 SWAP1 POP JUMP JUMPDEST PUSH1 0x0 DUP2 SWAP1 POP SWAP2 SWAP1 POP JUMP JUMPDEST PUSH2 0x574 DUP2 PUSH2 0x561 JUMP JUMPDEST DUP3 MSTORE POP POP JUMP JUMPDEST PUSH1 0x0 PUSH1 0x20 DUP3 ADD SWAP1 POP PUSH2 0x58F PUSH1 0x0 DUP4 ADD DUP5 PUSH2 0x56B JUMP JUMPDEST SWAP3 SWAP2 POP POP JUMP JUMPDEST PUSH1 0x0 DUP3 DUP3 MSTORE PUSH1 0x20 DUP3 ADD SWAP1 POP SWAP3 SWAP2 POP POP JUMP JUMPDEST PUSH32 0x696E76616C696400000000000000000000000000000000000000000000000000 PUSH1 0x0 DUP3 ADD MSTORE POP JUMP JUMPDEST PUSH1 0x0 PUSH2 0x5DC PUSH1 0x7 DUP4 PUSH2 0x595 JUMP JUMPDEST SWAP2 POP PUSH2 0x5E7 DUP3 PUSH2 0x5A6 JUMP JUMPDEST PUSH1 0x20 DUP3 ADD SWAP1 POP SWAP2 SWAP1 POP JUMP JUMPDEST PUSH1 0x0 PUSH1 0x20 DUP3 ADD SWAP1 POP DUP2 DUP2 SUB PUSH1 0x0 DUP4 ADD MSTORE PUSH2 0x60B DUP2 PUSH2 0x5CF JUMP JUMPDEST SWAP1 POP SWAP2 SWAP1 POP JUMP JUMPDEST PUSH32 0x4E487B7100000000000000000000000000000000000000000000000000000000 PUSH1 0x0 MSTORE PUSH1 0x32 PUSH1 0x4 MSTORE PUSH1 0x24 PUSH1 0x0 REVERT JUMPDEST PUSH32 0x4E487B7100000000000000000000000000000000000000000000000000000000 PUSH1 0x0 MSTORE PUSH1 0x11 PUSH1 0x4 MSTORE PUSH1 0x24 PUSH1 0x0 REVERT JUMPDEST PUSH1 0x0 PUSH2 0x67B DUP3 PUSH2 0x4C1 JUMP JUMPDEST SWAP2 POP PUSH32 0xFFFFFFFFFFFFFFFFFFFFFFFFFFFFFFFFFFFFFFFFFFFFFFFFFFFFFFFFFFFFFFFF DUP3 SUB PUSH2 0x6AD JUMPI PUSH2 0x6AC PUSH2 0x641 JUMP JUMPDEST JUMPDEST PUSH1 0x1 DUP3 ADD SWAP1 POP SWAP2 SWAP1 POP JUMP INVALID LOG2 PUSH5 0x6970667358 0x22 SLT KECCAK256 0xA5 0xE0 SDIV EXP DUP13 MSTORE8 CODECOPY 0xC8 DUP13 MULMOD CREATE BLOCKHASH LOG2 0xE 0xD3 SWAP9 SWAP10 SSTORE PUSH20 0x55412E0E200466704BF00EC8DA64736F6C634300 ADDMOD GT STOP CALLER "
				},
				"gasEstimates": {
					"creation": {
						"codeDepositCost": "354800",
						"executionCost": "393",
						"totalCost": "355193"
					},
					"external": {
						"callMultiply(address)": "infinite",
						"externalStateChangingCall(address)": "infinite",
						"externalViewCallNoArgs(address)": "infinite",
						"getViaRevert(address)": "infinite",
						"multiplyVariablelength(uint256[],uint256[])": "infinite",
						"unknownReturnSize(address,uint256)": "infinite"
					}
				},
				"methodIdentifiers": {
					"callMultiply(address)": "4a2f82f8",
					"externalStateChangingCall(address)": "03f3084b",
					"externalViewCallNoArgs(address)": "68c4c760",
					"getViaRevert(address)": "76e1677e",
					"multiplyVariablelength(uint256[],uint256[])": "0c62c939",
					"unknownReturnSize(address,uint256)": "52bd0fa3"
				}
			},
			"storageLayout": {
				"storage": [],
				"types": null
			},
			"userdoc": {
				"kind": "user",
				"methods": {},
				"version": 1
			}
		}
	}
}