{
	"contracts/7_VariableLength.sol": {
		"VariableLength": {
			"abi": [
				{
					"inputs": [
						{
							"internalType": "uint256[]",
							"name": "a",
							"type": "uint256[]"
						},
						{
							"internalType": "uint256[]",
							"name": "b",
							"type": "uint256[]"
						},
						{
							"internalType": "uint256[]",
							"name": "c",
							"type": "uint256[]"
						}
					],
					"name": "allVariable",
					"outputs": [],
					"stateMutability": "nonpayable",
					"type": "function"
				},
				{
					"inputs": [
						{
							"internalType": "uint256",
							"name": "a",
							"type": "uint256"
						},
						{
							"internalType": "uint256[]",
							"name": "b",
							"type": "uint256[]"
						},
						{
							"internalType": "uint256",
							"name": "c",
							"type": "uint256"
						},
						{
							"internalType": "uint256[]",
							"name": "d",
							"type": "uint256[]"
						},
						{
							"internalType": "uint256",
							"name": "e",
							"type": "uint256"
						}
					],
					"name": "fiveArgs",
					"outputs": [],
					"stateMutability": "nonpayable",
					"type": "function"
				},
				{
					"inputs": [
						{
							"internalType": "uint256[]",
							"name": "a",
							"type": "uint256[]"
						}
					],
					"name": "oneArgs",
					"outputs": [],
					"stateMutability": "nonpayable",
					"type": "function"
				},
				{
					"inputs": [
						{
							"internalType": "uint256",
							"name": "a",
							"type": "uint256"
						},
						{
							"internalType": "uint256[]",
							"name": "b",
							"type": "uint256[]"
						},
						{
							"internalType": "uint256",
							"name": "c",
							"type": "uint256"
						}
					],
					"name": "threeArgs",
					"outputs": [],
					"stateMutability": "nonpayable",
					"type": "function"
				},
				{
					"inputs": [
						{
							"internalType": "uint256",
							"name": "a",
							"type": "uint256"
						},
						{
							"components": [
								{
									"internalType": "uint256",
									"name": "a",
									"type": "uint256"
								},
								{
									"internalType": "uint256",
									"name": "b",
									"type": "uint256"
								},
								{
									"internalType": "uint256",
									"name": "c",
									"type": "uint256"
								}
							],
							"internalType": "struct VariableLength.Example",
							"name": "b",
							"type": "tuple"
						},
						{
							"internalType": "uint256",
							"name": "c",
							"type": "uint256"
						}
					],
					"name": "threeArgsStruct",
					"outputs": [],
					"stateMutability": "nonpayable",
					"type": "function"
				}
			],
			"devdoc": {
				"kind": "dev",
				"methods": {},
				"version": 1
			},
			"evm": {
				"assembly": "    /* \"contracts/7_VariableLength.sol\":57:4345  contract VariableLength {... */\n  mstore(0x40, 0x80)\n  callvalue\n  dup1\n  iszero\n  tag_1\n  jumpi\n  0x00\n  dup1\n  revert\ntag_1:\n  pop\n  dataSize(sub_0)\n  dup1\n  dataOffset(sub_0)\n  0x00\n  codecopy\n  0x00\n  return\nstop\n\nsub_0: assembly {\n        /* \"contracts/7_VariableLength.sol\":57:4345  contract VariableLength {... */\n      mstore(0x40, 0x80)\n      callvalue\n      dup1\n      iszero\n      tag_1\n      jumpi\n      0x00\n      dup1\n      revert\n    tag_1:\n      pop\n      jumpi(tag_2, lt(calldatasize, 0x04))\n      shr(0xe0, calldataload(0x00))\n      dup1\n      0x01e58fb4\n      eq\n      tag_3\n      jumpi\n      dup1\n      0x042041bc\n      eq\n      tag_4\n      jumpi\n      dup1\n      0x1fd3b26b\n      eq\n      tag_5\n      jumpi\n      dup1\n      0x37701841\n      eq\n      tag_6\n      jumpi\n      dup1\n      0xc6f922d0\n      eq\n      tag_7\n      jumpi\n    tag_2:\n      0x00\n      dup1\n      revert\n        /* \"contracts/7_VariableLength.sol\":1325:1433  function threeArgsStruct(... */\n    tag_3:\n      tag_8\n      0x04\n      dup1\n      calldatasize\n      sub\n      dup2\n      add\n      swap1\n      tag_9\n      swap2\n      swap1\n      tag_10\n      jump\t// in\n    tag_9:\n      tag_11\n      jump\t// in\n    tag_8:\n      stop\n        /* \"contracts/7_VariableLength.sol\":2968:3018  function oneArgs(uint256[] calldata a) external {} */\n    tag_4:\n      tag_12\n      0x04\n      dup1\n      calldatasize\n      sub\n      dup2\n      add\n      swap1\n      tag_13\n      swap2\n      swap1\n      tag_14\n      jump\t// in\n    tag_13:\n      tag_15\n      jump\t// in\n    tag_12:\n      stop\n        /* \"contracts/7_VariableLength.sol\":4215:4343  function allVariable(... */\n    tag_5:\n      tag_16\n      0x04\n      dup1\n      calldatasize\n      sub\n      dup2\n      add\n      swap1\n      tag_17\n      swap2\n      swap1\n      tag_18\n      jump\t// in\n    tag_17:\n      tag_19\n      jump\t// in\n    tag_16:\n      stop\n        /* \"contracts/7_VariableLength.sol\":2396:2548  function fiveArgs(... */\n    tag_6:\n      tag_20\n      0x04\n      dup1\n      calldatasize\n      sub\n      dup2\n      add\n      swap1\n      tag_21\n      swap2\n      swap1\n      tag_22\n      jump\t// in\n    tag_21:\n      tag_23\n      jump\t// in\n    tag_20:\n      stop\n        /* \"contracts/7_VariableLength.sol\":740:844  function threeArgs(... */\n    tag_7:\n      tag_24\n      0x04\n      dup1\n      calldatasize\n      sub\n      dup2\n      add\n      swap1\n      tag_25\n      swap2\n      swap1\n      tag_26\n      jump\t// in\n    tag_25:\n      tag_27\n      jump\t// in\n    tag_24:\n      stop\n        /* \"contracts/7_VariableLength.sol\":1325:1433  function threeArgsStruct(... */\n    tag_11:\n      pop\n      pop\n      pop\n      jump\t// out\n        /* \"contracts/7_VariableLength.sol\":2968:3018  function oneArgs(uint256[] calldata a) external {} */\n    tag_15:\n      pop\n      pop\n      jump\t// out\n        /* \"contracts/7_VariableLength.sol\":4215:4343  function allVariable(... */\n    tag_19:\n      pop\n      pop\n      pop\n      pop\n      pop\n      pop\n      jump\t// out\n        /* \"contracts/7_VariableLength.sol\":2396:2548  function fiveArgs(... */\n    tag_23:\n      pop\n      pop\n      pop\n      pop\n      pop\n      pop\n      pop\n      jump\t// out\n        /* \"contracts/7_VariableLength.sol\":740:844  function threeArgs(... */\n    tag_27:\n      pop\n      pop\n      pop\n      pop\n      jump\t// out\n        /* \"#utility.yul\":24:592   */\n    tag_34:\n        /* \"#utility.yul\":97:105   */\n      0x00\n        /* \"#utility.yul\":107:113   */\n      dup1\n        /* \"#utility.yul\":157:160   */\n      dup4\n        /* \"#utility.yul\":150:154   */\n      0x1f\n        /* \"#utility.yul\":142:148   */\n      dup5\n        /* \"#utility.yul\":138:155   */\n      add\n        /* \"#utility.yul\":134:161   */\n      slt\n        /* \"#utility.yul\":124:246   */\n      tag_36\n      jumpi\n        /* \"#utility.yul\":165:244   */\n      tag_37\n      tag_38\n      jump\t// in\n    tag_37:\n        /* \"#utility.yul\":124:246   */\n    tag_36:\n        /* \"#utility.yul\":278:284   */\n      dup3\n        /* \"#utility.yul\":265:285   */\n      calldataload\n        /* \"#utility.yul\":255:285   */\n      swap1\n      pop\n        /* \"#utility.yul\":308:326   */\n      0xffffffffffffffff\n        /* \"#utility.yul\":300:306   */\n      dup2\n        /* \"#utility.yul\":297:327   */\n      gt\n        /* \"#utility.yul\":294:411   */\n      iszero\n      tag_39\n      jumpi\n        /* \"#utility.yul\":330:409   */\n      tag_40\n      tag_41\n      jump\t// in\n    tag_40:\n        /* \"#utility.yul\":294:411   */\n    tag_39:\n        /* \"#utility.yul\":444:448   */\n      0x20\n        /* \"#utility.yul\":436:442   */\n      dup4\n        /* \"#utility.yul\":432:449   */\n      add\n        /* \"#utility.yul\":420:449   */\n      swap2\n      pop\n        /* \"#utility.yul\":498:501   */\n      dup4\n        /* \"#utility.yul\":490:494   */\n      0x20\n        /* \"#utility.yul\":482:488   */\n      dup3\n        /* \"#utility.yul\":478:495   */\n      mul\n        /* \"#utility.yul\":468:476   */\n      dup4\n        /* \"#utility.yul\":464:496   */\n      add\n        /* \"#utility.yul\":461:502   */\n      gt\n        /* \"#utility.yul\":458:586   */\n      iszero\n      tag_42\n      jumpi\n        /* \"#utility.yul\":505:584   */\n      tag_43\n      tag_44\n      jump\t// in\n    tag_43:\n        /* \"#utility.yul\":458:586   */\n    tag_42:\n        /* \"#utility.yul\":24:592   */\n      swap3\n      pop\n      swap3\n      swap1\n      pop\n      jump\t// out\n        /* \"#utility.yul\":635:863   */\n    tag_45:\n        /* \"#utility.yul\":705:710   */\n      0x00\n        /* \"#utility.yul\":746:748   */\n      0x60\n        /* \"#utility.yul\":737:743   */\n      dup3\n        /* \"#utility.yul\":732:735   */\n      dup5\n        /* \"#utility.yul\":728:744   */\n      sub\n        /* \"#utility.yul\":724:749   */\n      slt\n        /* \"#utility.yul\":721:833   */\n      iszero\n      tag_47\n      jumpi\n        /* \"#utility.yul\":752:831   */\n      tag_48\n      tag_49\n      jump\t// in\n    tag_48:\n        /* \"#utility.yul\":721:833   */\n    tag_47:\n        /* \"#utility.yul\":851:857   */\n      dup2\n        /* \"#utility.yul\":842:857   */\n      swap1\n      pop\n        /* \"#utility.yul\":635:863   */\n      swap3\n      swap2\n      pop\n      pop\n      jump\t// out\n        /* \"#utility.yul\":869:1008   */\n    tag_50:\n        /* \"#utility.yul\":915:920   */\n      0x00\n        /* \"#utility.yul\":953:959   */\n      dup2\n        /* \"#utility.yul\":940:960   */\n      calldataload\n        /* \"#utility.yul\":931:960   */\n      swap1\n      pop\n        /* \"#utility.yul\":969:1002   */\n      tag_52\n        /* \"#utility.yul\":996:1001   */\n      dup2\n        /* \"#utility.yul\":969:1002   */\n      tag_53\n      jump\t// in\n    tag_52:\n        /* \"#utility.yul\":869:1008   */\n      swap3\n      swap2\n      pop\n      pop\n      jump\t// out\n        /* \"#utility.yul\":1014:1573   */\n    tag_14:\n        /* \"#utility.yul\":1100:1106   */\n      0x00\n        /* \"#utility.yul\":1108:1114   */\n      dup1\n        /* \"#utility.yul\":1157:1159   */\n      0x20\n        /* \"#utility.yul\":1145:1154   */\n      dup4\n        /* \"#utility.yul\":1136:1143   */\n      dup6\n        /* \"#utility.yul\":1132:1155   */\n      sub\n        /* \"#utility.yul\":1128:1160   */\n      slt\n        /* \"#utility.yul\":1125:1244   */\n      iszero\n      tag_55\n      jumpi\n        /* \"#utility.yul\":1163:1242   */\n      tag_56\n      tag_57\n      jump\t// in\n    tag_56:\n        /* \"#utility.yul\":1125:1244   */\n    tag_55:\n        /* \"#utility.yul\":1311:1312   */\n      0x00\n        /* \"#utility.yul\":1300:1309   */\n      dup4\n        /* \"#utility.yul\":1296:1313   */\n      add\n        /* \"#utility.yul\":1283:1314   */\n      calldataload\n        /* \"#utility.yul\":1341:1359   */\n      0xffffffffffffffff\n        /* \"#utility.yul\":1333:1339   */\n      dup2\n        /* \"#utility.yul\":1330:1360   */\n      gt\n        /* \"#utility.yul\":1327:1444   */\n      iszero\n      tag_58\n      jumpi\n        /* \"#utility.yul\":1363:1442   */\n      tag_59\n      tag_60\n      jump\t// in\n    tag_59:\n        /* \"#utility.yul\":1327:1444   */\n    tag_58:\n        /* \"#utility.yul\":1476:1556   */\n      tag_61\n        /* \"#utility.yul\":1548:1555   */\n      dup6\n        /* \"#utility.yul\":1539:1545   */\n      dup3\n        /* \"#utility.yul\":1528:1537   */\n      dup7\n        /* \"#utility.yul\":1524:1546   */\n      add\n        /* \"#utility.yul\":1476:1556   */\n      tag_34\n      jump\t// in\n    tag_61:\n        /* \"#utility.yul\":1458:1556   */\n      swap3\n      pop\n      swap3\n      pop\n        /* \"#utility.yul\":1254:1566   */\n      pop\n        /* \"#utility.yul\":1014:1573   */\n      swap3\n      pop\n      swap3\n      swap1\n      pop\n      jump\t// out\n        /* \"#utility.yul\":1579:2888   */\n    tag_18:\n        /* \"#utility.yul\":1737:1743   */\n      0x00\n        /* \"#utility.yul\":1745:1751   */\n      dup1\n        /* \"#utility.yul\":1753:1759   */\n      0x00\n        /* \"#utility.yul\":1761:1767   */\n      dup1\n        /* \"#utility.yul\":1769:1775   */\n      0x00\n        /* \"#utility.yul\":1777:1783   */\n      dup1\n        /* \"#utility.yul\":1826:1828   */\n      0x60\n        /* \"#utility.yul\":1814:1823   */\n      dup8\n        /* \"#utility.yul\":1805:1812   */\n      dup10\n        /* \"#utility.yul\":1801:1824   */\n      sub\n        /* \"#utility.yul\":1797:1829   */\n      slt\n        /* \"#utility.yul\":1794:1913   */\n      iszero\n      tag_63\n      jumpi\n        /* \"#utility.yul\":1832:1911   */\n      tag_64\n      tag_57\n      jump\t// in\n    tag_64:\n        /* \"#utility.yul\":1794:1913   */\n    tag_63:\n        /* \"#utility.yul\":1980:1981   */\n      0x00\n        /* \"#utility.yul\":1969:1978   */\n      dup8\n        /* \"#utility.yul\":1965:1982   */\n      add\n        /* \"#utility.yul\":1952:1983   */\n      calldataload\n        /* \"#utility.yul\":2010:2028   */\n      0xffffffffffffffff\n        /* \"#utility.yul\":2002:2008   */\n      dup2\n        /* \"#utility.yul\":1999:2029   */\n      gt\n        /* \"#utility.yul\":1996:2113   */\n      iszero\n      tag_65\n      jumpi\n        /* \"#utility.yul\":2032:2111   */\n      tag_66\n      tag_60\n      jump\t// in\n    tag_66:\n        /* \"#utility.yul\":1996:2113   */\n    tag_65:\n        /* \"#utility.yul\":2145:2225   */\n      tag_67\n        /* \"#utility.yul\":2217:2224   */\n      dup10\n        /* \"#utility.yul\":2208:2214   */\n      dup3\n        /* \"#utility.yul\":2197:2206   */\n      dup11\n        /* \"#utility.yul\":2193:2215   */\n      add\n        /* \"#utility.yul\":2145:2225   */\n      tag_34\n      jump\t// in\n    tag_67:\n        /* \"#utility.yul\":2127:2225   */\n      swap7\n      pop\n      swap7\n      pop\n        /* \"#utility.yul\":1923:2235   */\n      pop\n        /* \"#utility.yul\":2302:2304   */\n      0x20\n        /* \"#utility.yul\":2291:2300   */\n      dup8\n        /* \"#utility.yul\":2287:2305   */\n      add\n        /* \"#utility.yul\":2274:2306   */\n      calldataload\n        /* \"#utility.yul\":2333:2351   */\n      0xffffffffffffffff\n        /* \"#utility.yul\":2325:2331   */\n      dup2\n        /* \"#utility.yul\":2322:2352   */\n      gt\n        /* \"#utility.yul\":2319:2436   */\n      iszero\n      tag_68\n      jumpi\n        /* \"#utility.yul\":2355:2434   */\n      tag_69\n      tag_60\n      jump\t// in\n    tag_69:\n        /* \"#utility.yul\":2319:2436   */\n    tag_68:\n        /* \"#utility.yul\":2468:2548   */\n      tag_70\n        /* \"#utility.yul\":2540:2547   */\n      dup10\n        /* \"#utility.yul\":2531:2537   */\n      dup3\n        /* \"#utility.yul\":2520:2529   */\n      dup11\n        /* \"#utility.yul\":2516:2538   */\n      add\n        /* \"#utility.yul\":2468:2548   */\n      tag_34\n      jump\t// in\n    tag_70:\n        /* \"#utility.yul\":2450:2548   */\n      swap5\n      pop\n      swap5\n      pop\n        /* \"#utility.yul\":2245:2558   */\n      pop\n        /* \"#utility.yul\":2625:2627   */\n      0x40\n        /* \"#utility.yul\":2614:2623   */\n      dup8\n        /* \"#utility.yul\":2610:2628   */\n      add\n        /* \"#utility.yul\":2597:2629   */\n      calldataload\n        /* \"#utility.yul\":2656:2674   */\n      0xffffffffffffffff\n        /* \"#utility.yul\":2648:2654   */\n      dup2\n        /* \"#utility.yul\":2645:2675   */\n      gt\n        /* \"#utility.yul\":2642:2759   */\n      iszero\n      tag_71\n      jumpi\n        /* \"#utility.yul\":2678:2757   */\n      tag_72\n      tag_60\n      jump\t// in\n    tag_72:\n        /* \"#utility.yul\":2642:2759   */\n    tag_71:\n        /* \"#utility.yul\":2791:2871   */\n      tag_73\n        /* \"#utility.yul\":2863:2870   */\n      dup10\n        /* \"#utility.yul\":2854:2860   */\n      dup3\n        /* \"#utility.yul\":2843:2852   */\n      dup11\n        /* \"#utility.yul\":2839:2861   */\n      add\n        /* \"#utility.yul\":2791:2871   */\n      tag_34\n      jump\t// in\n    tag_73:\n        /* \"#utility.yul\":2773:2871   */\n      swap3\n      pop\n      swap3\n      pop\n        /* \"#utility.yul\":2568:2881   */\n      pop\n        /* \"#utility.yul\":1579:2888   */\n      swap3\n      swap6\n      pop\n      swap3\n      swap6\n      pop\n      swap3\n      swap6\n      jump\t// out\n        /* \"#utility.yul\":2894:3743   */\n    tag_26:\n        /* \"#utility.yul\":2998:3004   */\n      0x00\n        /* \"#utility.yul\":3006:3012   */\n      dup1\n        /* \"#utility.yul\":3014:3020   */\n      0x00\n        /* \"#utility.yul\":3022:3028   */\n      dup1\n        /* \"#utility.yul\":3071:3073   */\n      0x60\n        /* \"#utility.yul\":3059:3068   */\n      dup6\n        /* \"#utility.yul\":3050:3057   */\n      dup8\n        /* \"#utility.yul\":3046:3069   */\n      sub\n        /* \"#utility.yul\":3042:3074   */\n      slt\n        /* \"#utility.yul\":3039:3158   */\n      iszero\n      tag_75\n      jumpi\n        /* \"#utility.yul\":3077:3156   */\n      tag_76\n      tag_57\n      jump\t// in\n    tag_76:\n        /* \"#utility.yul\":3039:3158   */\n    tag_75:\n        /* \"#utility.yul\":3197:3198   */\n      0x00\n        /* \"#utility.yul\":3222:3275   */\n      tag_77\n        /* \"#utility.yul\":3267:3274   */\n      dup8\n        /* \"#utility.yul\":3258:3264   */\n      dup3\n        /* \"#utility.yul\":3247:3256   */\n      dup9\n        /* \"#utility.yul\":3243:3265   */\n      add\n        /* \"#utility.yul\":3222:3275   */\n      tag_50\n      jump\t// in\n    tag_77:\n        /* \"#utility.yul\":3212:3275   */\n      swap5\n      pop\n        /* \"#utility.yul\":3168:3285   */\n      pop\n        /* \"#utility.yul\":3352:3354   */\n      0x20\n        /* \"#utility.yul\":3341:3350   */\n      dup6\n        /* \"#utility.yul\":3337:3355   */\n      add\n        /* \"#utility.yul\":3324:3356   */\n      calldataload\n        /* \"#utility.yul\":3383:3401   */\n      0xffffffffffffffff\n        /* \"#utility.yul\":3375:3381   */\n      dup2\n        /* \"#utility.yul\":3372:3402   */\n      gt\n        /* \"#utility.yul\":3369:3486   */\n      iszero\n      tag_78\n      jumpi\n        /* \"#utility.yul\":3405:3484   */\n      tag_79\n      tag_60\n      jump\t// in\n    tag_79:\n        /* \"#utility.yul\":3369:3486   */\n    tag_78:\n        /* \"#utility.yul\":3518:3598   */\n      tag_80\n        /* \"#utility.yul\":3590:3597   */\n      dup8\n        /* \"#utility.yul\":3581:3587   */\n      dup3\n        /* \"#utility.yul\":3570:3579   */\n      dup9\n        /* \"#utility.yul\":3566:3588   */\n      add\n        /* \"#utility.yul\":3518:3598   */\n      tag_34\n      jump\t// in\n    tag_80:\n        /* \"#utility.yul\":3500:3598   */\n      swap4\n      pop\n      swap4\n      pop\n        /* \"#utility.yul\":3295:3608   */\n      pop\n        /* \"#utility.yul\":3647:3649   */\n      0x40\n        /* \"#utility.yul\":3673:3726   */\n      tag_81\n        /* \"#utility.yul\":3718:3725   */\n      dup8\n        /* \"#utility.yul\":3709:3715   */\n      dup3\n        /* \"#utility.yul\":3698:3707   */\n      dup9\n        /* \"#utility.yul\":3694:3716   */\n      add\n        /* \"#utility.yul\":3673:3726   */\n      tag_50\n      jump\t// in\n    tag_81:\n        /* \"#utility.yul\":3663:3726   */\n      swap2\n      pop\n        /* \"#utility.yul\":3618:3736   */\n      pop\n        /* \"#utility.yul\":2894:3743   */\n      swap3\n      swap6\n      swap2\n      swap5\n      pop\n      swap3\n      pop\n      jump\t// out\n        /* \"#utility.yul\":3749:5120   */\n    tag_22:\n        /* \"#utility.yul\":3898:3904   */\n      0x00\n        /* \"#utility.yul\":3906:3912   */\n      dup1\n        /* \"#utility.yul\":3914:3920   */\n      0x00\n        /* \"#utility.yul\":3922:3928   */\n      dup1\n        /* \"#utility.yul\":3930:3936   */\n      0x00\n        /* \"#utility.yul\":3938:3944   */\n      dup1\n        /* \"#utility.yul\":3946:3952   */\n      0x00\n        /* \"#utility.yul\":3995:3998   */\n      0xa0\n        /* \"#utility.yul\":3983:3992   */\n      dup9\n        /* \"#utility.yul\":3974:3981   */\n      dup11\n        /* \"#utility.yul\":3970:3993   */\n      sub\n        /* \"#utility.yul\":3966:3999   */\n      slt\n        /* \"#utility.yul\":3963:4083   */\n      iszero\n      tag_83\n      jumpi\n        /* \"#utility.yul\":4002:4081   */\n      tag_84\n      tag_57\n      jump\t// in\n    tag_84:\n        /* \"#utility.yul\":3963:4083   */\n    tag_83:\n        /* \"#utility.yul\":4122:4123   */\n      0x00\n        /* \"#utility.yul\":4147:4200   */\n      tag_85\n        /* \"#utility.yul\":4192:4199   */\n      dup11\n        /* \"#utility.yul\":4183:4189   */\n      dup3\n        /* \"#utility.yul\":4172:4181   */\n      dup12\n        /* \"#utility.yul\":4168:4190   */\n      add\n        /* \"#utility.yul\":4147:4200   */\n      tag_50\n      jump\t// in\n    tag_85:\n        /* \"#utility.yul\":4137:4200   */\n      swap8\n      pop\n        /* \"#utility.yul\":4093:4210   */\n      pop\n        /* \"#utility.yul\":4277:4279   */\n      0x20\n        /* \"#utility.yul\":4266:4275   */\n      dup9\n        /* \"#utility.yul\":4262:4280   */\n      add\n        /* \"#utility.yul\":4249:4281   */\n      calldataload\n        /* \"#utility.yul\":4308:4326   */\n      0xffffffffffffffff\n        /* \"#utility.yul\":4300:4306   */\n      dup2\n        /* \"#utility.yul\":4297:4327   */\n      gt\n        /* \"#utility.yul\":4294:4411   */\n      iszero\n      tag_86\n      jumpi\n        /* \"#utility.yul\":4330:4409   */\n      tag_87\n      tag_60\n      jump\t// in\n    tag_87:\n        /* \"#utility.yul\":4294:4411   */\n    tag_86:\n        /* \"#utility.yul\":4443:4523   */\n      tag_88\n        /* \"#utility.yul\":4515:4522   */\n      dup11\n        /* \"#utility.yul\":4506:4512   */\n      dup3\n        /* \"#utility.yul\":4495:4504   */\n      dup12\n        /* \"#utility.yul\":4491:4513   */\n      add\n        /* \"#utility.yul\":4443:4523   */\n      tag_34\n      jump\t// in\n    tag_88:\n        /* \"#utility.yul\":4425:4523   */\n      swap7\n      pop\n      swap7\n      pop\n        /* \"#utility.yul\":4220:4533   */\n      pop\n        /* \"#utility.yul\":4572:4574   */\n      0x40\n        /* \"#utility.yul\":4598:4651   */\n      tag_89\n        /* \"#utility.yul\":4643:4650   */\n      dup11\n        /* \"#utility.yul\":4634:4640   */\n      dup3\n        /* \"#utility.yul\":4623:4632   */\n      dup12\n        /* \"#utility.yul\":4619:4641   */\n      add\n        /* \"#utility.yul\":4598:4651   */\n      tag_50\n      jump\t// in\n    tag_89:\n        /* \"#utility.yul\":4588:4651   */\n      swap5\n      pop\n        /* \"#utility.yul\":4543:4661   */\n      pop\n        /* \"#utility.yul\":4728:4730   */\n      0x60\n        /* \"#utility.yul\":4717:4726   */\n      dup9\n        /* \"#utility.yul\":4713:4731   */\n      add\n        /* \"#utility.yul\":4700:4732   */\n      calldataload\n        /* \"#utility.yul\":4759:4777   */\n      0xffffffffffffffff\n        /* \"#utility.yul\":4751:4757   */\n      dup2\n        /* \"#utility.yul\":4748:4778   */\n      gt\n        /* \"#utility.yul\":4745:4862   */\n      iszero\n      tag_90\n      jumpi\n        /* \"#utility.yul\":4781:4860   */\n      tag_91\n      tag_60\n      jump\t// in\n    tag_91:\n        /* \"#utility.yul\":4745:4862   */\n    tag_90:\n        /* \"#utility.yul\":4894:4974   */\n      tag_92\n        /* \"#utility.yul\":4966:4973   */\n      dup11\n        /* \"#utility.yul\":4957:4963   */\n      dup3\n        /* \"#utility.yul\":4946:4955   */\n      dup12\n        /* \"#utility.yul\":4942:4964   */\n      add\n        /* \"#utility.yul\":4894:4974   */\n      tag_34\n      jump\t// in\n    tag_92:\n        /* \"#utility.yul\":4876:4974   */\n      swap4\n      pop\n      swap4\n      pop\n        /* \"#utility.yul\":4671:4984   */\n      pop\n        /* \"#utility.yul\":5023:5026   */\n      0x80\n        /* \"#utility.yul\":5050:5103   */\n      tag_93\n        /* \"#utility.yul\":5095:5102   */\n      dup11\n        /* \"#utility.yul\":5086:5092   */\n      dup3\n        /* \"#utility.yul\":5075:5084   */\n      dup12\n        /* \"#utility.yul\":5071:5093   */\n      add\n        /* \"#utility.yul\":5050:5103   */\n      tag_50\n      jump\t// in\n    tag_93:\n        /* \"#utility.yul\":5040:5103   */\n      swap2\n      pop\n        /* \"#utility.yul\":4994:5113   */\n      pop\n        /* \"#utility.yul\":3749:5120   */\n      swap3\n      swap6\n      swap9\n      swap2\n      swap5\n      swap8\n      pop\n      swap3\n      swap6\n      pop\n      jump\t// out\n        /* \"#utility.yul\":5126:5795   */\n    tag_10:\n        /* \"#utility.yul\":5227:5233   */\n      0x00\n        /* \"#utility.yul\":5235:5241   */\n      dup1\n        /* \"#utility.yul\":5243:5249   */\n      0x00\n        /* \"#utility.yul\":5292:5295   */\n      0xa0\n        /* \"#utility.yul\":5280:5289   */\n      dup5\n        /* \"#utility.yul\":5271:5278   */\n      dup7\n        /* \"#utility.yul\":5267:5290   */\n      sub\n        /* \"#utility.yul\":5263:5296   */\n      slt\n        /* \"#utility.yul\":5260:5380   */\n      iszero\n      tag_95\n      jumpi\n        /* \"#utility.yul\":5299:5378   */\n      tag_96\n      tag_57\n      jump\t// in\n    tag_96:\n        /* \"#utility.yul\":5260:5380   */\n    tag_95:\n        /* \"#utility.yul\":5419:5420   */\n      0x00\n        /* \"#utility.yul\":5444:5497   */\n      tag_97\n        /* \"#utility.yul\":5489:5496   */\n      dup7\n        /* \"#utility.yul\":5480:5486   */\n      dup3\n        /* \"#utility.yul\":5469:5478   */\n      dup8\n        /* \"#utility.yul\":5465:5487   */\n      add\n        /* \"#utility.yul\":5444:5497   */\n      tag_50\n      jump\t// in\n    tag_97:\n        /* \"#utility.yul\":5434:5497   */\n      swap4\n      pop\n        /* \"#utility.yul\":5390:5507   */\n      pop\n        /* \"#utility.yul\":5546:5548   */\n      0x20\n        /* \"#utility.yul\":5572:5649   */\n      tag_98\n        /* \"#utility.yul\":5641:5648   */\n      dup7\n        /* \"#utility.yul\":5632:5638   */\n      dup3\n        /* \"#utility.yul\":5621:5630   */\n      dup8\n        /* \"#utility.yul\":5617:5639   */\n      add\n        /* \"#utility.yul\":5572:5649   */\n      tag_45\n      jump\t// in\n    tag_98:\n        /* \"#utility.yul\":5562:5649   */\n      swap3\n      pop\n        /* \"#utility.yul\":5517:5659   */\n      pop\n        /* \"#utility.yul\":5698:5701   */\n      0x80\n        /* \"#utility.yul\":5725:5778   */\n      tag_99\n        /* \"#utility.yul\":5770:5777   */\n      dup7\n        /* \"#utility.yul\":5761:5767   */\n      dup3\n        /* \"#utility.yul\":5750:5759   */\n      dup8\n        /* \"#utility.yul\":5746:5768   */\n      add\n        /* \"#utility.yul\":5725:5778   */\n      tag_50\n      jump\t// in\n    tag_99:\n        /* \"#utility.yul\":5715:5778   */\n      swap2\n      pop\n        /* \"#utility.yul\":5669:5788   */\n      pop\n        /* \"#utility.yul\":5126:5795   */\n      swap3\n      pop\n      swap3\n      pop\n      swap3\n      jump\t// out\n        /* \"#utility.yul\":5882:5959   */\n    tag_102:\n        /* \"#utility.yul\":5919:5926   */\n      0x00\n        /* \"#utility.yul\":5948:5953   */\n      dup2\n        /* \"#utility.yul\":5937:5953   */\n      swap1\n      pop\n        /* \"#utility.yul\":5882:5959   */\n      swap2\n      swap1\n      pop\n      jump\t// out\n        /* \"#utility.yul\":5965:6082   */\n    tag_41:\n        /* \"#utility.yul\":6074:6075   */\n      0x00\n        /* \"#utility.yul\":6071:6072   */\n      dup1\n        /* \"#utility.yul\":6064:6076   */\n      revert\n        /* \"#utility.yul\":6088:6205   */\n    tag_38:\n        /* \"#utility.yul\":6197:6198   */\n      0x00\n        /* \"#utility.yul\":6194:6195   */\n      dup1\n        /* \"#utility.yul\":6187:6199   */\n      revert\n        /* \"#utility.yul\":6211:6328   */\n    tag_49:\n        /* \"#utility.yul\":6320:6321   */\n      0x00\n        /* \"#utility.yul\":6317:6318   */\n      dup1\n        /* \"#utility.yul\":6310:6322   */\n      revert\n        /* \"#utility.yul\":6334:6451   */\n    tag_44:\n        /* \"#utility.yul\":6443:6444   */\n      0x00\n        /* \"#utility.yul\":6440:6441   */\n      dup1\n        /* \"#utility.yul\":6433:6445   */\n      revert\n        /* \"#utility.yul\":6457:6574   */\n    tag_60:\n        /* \"#utility.yul\":6566:6567   */\n      0x00\n        /* \"#utility.yul\":6563:6564   */\n      dup1\n        /* \"#utility.yul\":6556:6568   */\n      revert\n        /* \"#utility.yul\":6580:6697   */\n    tag_57:\n        /* \"#utility.yul\":6689:6690   */\n      0x00\n        /* \"#utility.yul\":6686:6687   */\n      dup1\n        /* \"#utility.yul\":6679:6691   */\n      revert\n        /* \"#utility.yul\":6703:6825   */\n    tag_53:\n        /* \"#utility.yul\":6776:6800   */\n      tag_111\n        /* \"#utility.yul\":6794:6799   */\n      dup2\n        /* \"#utility.yul\":6776:6800   */\n      tag_102\n      jump\t// in\n    tag_111:\n        /* \"#utility.yul\":6769:6774   */\n      dup2\n        /* \"#utility.yul\":6766:6801   */\n      eq\n        /* \"#utility.yul\":6756:6819   */\n      tag_112\n      jumpi\n        /* \"#utility.yul\":6815:6816   */\n      0x00\n        /* \"#utility.yul\":6812:6813   */\n      dup1\n        /* \"#utility.yul\":6805:6817   */\n      revert\n        /* \"#utility.yul\":6756:6819   */\n    tag_112:\n        /* \"#utility.yul\":6703:6825   */\n      pop\n      jump\t// out\n\n    auxdata: 0xa264697066735822122000a46e3581f2ebc7d87ce7563333b7a336010aae993389752acdaeaef3ab74de64736f6c63430008070033\n}\n",
				"bytecode": {
					"linkReferences": {},
					"object": "608060405234801561001057600080fd5b5061048b806100206000396000f3fe608060405234801561001057600080fd5b50600436106100575760003560e01c806301e58fb41461005c578063042041bc146100785780631fd3b26b1461009457806337701841146100b0578063c6f922d0146100cc575b600080fd5b610076600480360381019061007191906103c3565b6100e8565b005b610092600480360381019061008d9190610192565b6100ed565b005b6100ae60048036038101906100a991906101df565b6100f1565b005b6100ca60048036038101906100c59190610307565b6100f9565b005b6100e660048036038101906100e19190610293565b610102565b005b505050565b5050565b505050505050565b50505050505050565b50505050565b60008083601f84011261011e5761011d610425565b5b8235905067ffffffffffffffff81111561013b5761013a610420565b5b6020830191508360208202830111156101575761015661042f565b5b9250929050565b6000606082840312156101745761017361042a565b5b81905092915050565b60008135905061018c8161043e565b92915050565b600080602083850312156101a9576101a8610439565b5b600083013567ffffffffffffffff8111156101c7576101c6610434565b5b6101d385828601610108565b92509250509250929050565b600080600080600080606087890312156101fc576101fb610439565b5b600087013567ffffffffffffffff81111561021a57610219610434565b5b61022689828a01610108565b9650965050602087013567ffffffffffffffff81111561024957610248610434565b5b61025589828a01610108565b9450945050604087013567ffffffffffffffff81111561027857610277610434565b5b61028489828a01610108565b92509250509295509295509295565b600080600080606085870312156102ad576102ac610439565b5b60006102bb8782880161017d565b945050602085013567ffffffffffffffff8111156102dc576102db610434565b5b6102e887828801610108565b935093505060406102fb8782880161017d565b91505092959194509250565b600080600080600080600060a0888a03121561032657610325610439565b5b60006103348a828b0161017d565b975050602088013567ffffffffffffffff81111561035557610354610434565b5b6103618a828b01610108565b965096505060406103748a828b0161017d565b945050606088013567ffffffffffffffff81111561039557610394610434565b5b6103a18a828b01610108565b935093505060806103b48a828b0161017d565b91505092959891949750929550565b600080600060a084860312156103dc576103db610439565b5b60006103ea8682870161017d565b93505060206103fb8682870161015e565b925050608061040c8682870161017d565b9150509250925092565b6000819050919050565b600080fd5b600080fd5b600080fd5b600080fd5b600080fd5b600080fd5b61044781610416565b811461045257600080fd5b5056fea264697066735822122000a46e3581f2ebc7d87ce7563333b7a336010aae993389752acdaeaef3ab74de64736f6c63430008070033",
					"opcodes": "PUSH1 0x80 PUSH1 0x40 MSTORE CALLVALUE DUP1 ISZERO PUSH2 0x10 JUMPI PUSH1 0x0 DUP1 REVERT JUMPDEST POP PUSH2 0x48B DUP1 PUSH2 0x20 PUSH1 0x0 CODECOPY PUSH1 0x0 RETURN INVALID PUSH1 0x80 PUSH1 0x40 MSTORE CALLVALUE DUP1 ISZERO PUSH2 0x10 JUMPI PUSH1 0x0 DUP1 REVERT JUMPDEST POP PUSH1 0x4 CALLDATASIZE LT PUSH2 0x57 JUMPI PUSH1 0x0 CALLDATALOAD PUSH1 0xE0 SHR DUP1 PUSH4 0x1E58FB4 EQ PUSH2 0x5C JUMPI DUP1 PUSH4 0x42041BC EQ PUSH2 0x78 JUMPI DUP1 PUSH4 0x1FD3B26B EQ PUSH2 0x94 JUMPI DUP1 PUSH4 0x37701841 EQ PUSH2 0xB0 JUMPI DUP1 PUSH4 0xC6F922D0 EQ PUSH2 0xCC JUMPI JUMPDEST PUSH1 0x0 DUP1 REVERT JUMPDEST PUSH2 0x76 PUSH1 0x4 DUP1 CALLDATASIZE SUB DUP2 ADD SWAP1 PUSH2 0x71 SWAP2 SWAP1 PUSH2 0x3C3 JUMP JUMPDEST PUSH2 0xE8 JUMP JUMPDEST STOP JUMPDEST PUSH2 0x92 PUSH1 0x4 DUP1 CALLDATASIZE SUB DUP2 ADD SWAP1 PUSH2 0x8D SWAP2 SWAP1 PUSH2 0x192 JUMP JUMPDEST PUSH2 0xED JUMP JUMPDEST STOP JUMPDEST PUSH2 0xAE PUSH1 0x4 DUP1 CALLDATASIZE SUB DUP2 ADD SWAP1 PUSH2 0xA9 SWAP2 SWAP1 PUSH2 0x1DF JUMP JUMPDEST PUSH2 0xF1 JUMP JUMPDEST STOP JUMPDEST PUSH2 0xCA PUSH1 0x4 DUP1 CALLDATASIZE SUB DUP2 ADD SWAP1 PUSH2 0xC5 SWAP2 SWAP1 PUSH2 0x307 JUMP JUMPDEST PUSH2 0xF9 JUMP JUMPDEST STOP JUMPDEST PUSH2 0xE6 PUSH1 0x4 DUP1 CALLDATASIZE SUB DUP2 ADD SWAP1 PUSH2 0xE1 SWAP2 SWAP1 PUSH2 0x293 JUMP JUMPDEST PUSH2 0x102 JUMP JUMPDEST STOP JUMPDEST POP POP POP JUMP JUMPDEST POP POP JUMP JUMPDEST POP POP POP POP POP POP JUMP JUMPDEST POP POP POP POP POP POP POP JUMP JUMPDEST POP POP POP POP JUMP JUMPDEST PUSH1 0x0 DUP1 DUP4 PUSH1 0x1F DUP5 ADD SLT PUSH2 0x11E JUMPI PUSH2 0x11D PUSH2 0x425 JUMP JUMPDEST JUMPDEST DUP3 CALLDATALOAD SWAP1 POP PUSH8 0xFFFFFFFFFFFFFFFF DUP2 GT ISZERO PUSH2 0x13B JUMPI PUSH2 0x13A PUSH2 0x420 JUMP JUMPDEST JUMPDEST PUSH1 0x20 DUP4 ADD SWAP2 POP DUP4 PUSH1 0x20 DUP3 MUL DUP4 ADD GT ISZERO PUSH2 0x157 JUMPI PUSH2 0x156 PUSH2 0x42F JUMP JUMPDEST JUMPDEST SWAP3 POP SWAP3 SWAP1 POP JUMP JUMPDEST PUSH1 0x0 PUSH1 0x60 DUP3 DUP5 SUB SLT ISZERO PUSH2 0x174 JUMPI PUSH2 0x173 PUSH2 0x42A JUMP JUMPDEST JUMPDEST DUP2 SWAP1 POP SWAP3 SWAP2 POP POP JUMP JUMPDEST PUSH1 0x0 DUP2 CALLDATALOAD SWAP1 POP PUSH2 0x18C DUP2 PUSH2 0x43E JUMP JUMPDEST SWAP3 SWAP2 POP POP JUMP JUMPDEST PUSH1 0x0 DUP1 PUSH1 0x20 DUP4 DUP6 SUB SLT ISZERO PUSH2 0x1A9 JUMPI PUSH2 0x1A8 PUSH2 0x439 JUMP JUMPDEST JUMPDEST PUSH1 0x0 DUP4 ADD CALLDATALOAD PUSH8 0xFFFFFFFFFFFFFFFF DUP2 GT ISZERO PUSH2 0x1C7 JUMPI PUSH2 0x1C6 PUSH2 0x434 JUMP JUMPDEST JUMPDEST PUSH2 0x1D3 DUP6 DUP3 DUP7 ADD PUSH2 0x108 JUMP JUMPDEST SWAP3 POP SWAP3 POP POP SWAP3 POP SWAP3 SWAP1 POP JUMP JUMPDEST PUSH1 0x0 DUP1 PUSH1 0x0 DUP1 PUSH1 0x0 DUP1 PUSH1 0x60 DUP8 DUP10 SUB SLT ISZERO PUSH2 0x1FC JUMPI PUSH2 0x1FB PUSH2 0x439 JUMP JUMPDEST JUMPDEST PUSH1 0x0 DUP8 ADD CALLDATALOAD PUSH8 0xFFFFFFFFFFFFFFFF DUP2 GT ISZERO PUSH2 0x21A JUMPI PUSH2 0x219 PUSH2 0x434 JUMP JUMPDEST JUMPDEST PUSH2 0x226 DUP10 DUP3 DUP11 ADD PUSH2 0x108 JUMP JUMPDEST SWAP7 POP SWAP7 POP POP PUSH1 0x20 DUP8 ADD CALLDATALOAD PUSH8 0xFFFFFFFFFFFFFFFF DUP2 GT ISZERO PUSH2 0x249 JUMPI PUSH2 0x248 PUSH2 0x434 JUMP JUMPDEST JUMPDEST PUSH2 0x255 DUP10 DUP3 DUP11 ADD PUSH2 0x108 JUMP JUMPDEST SWAP5 POP SWAP5 POP POP PUSH1 0x40 DUP8 ADD CALLDATALOAD PUSH8 0xFFFFFFFFFFFFFFFF DUP2 GT ISZERO PUSH2 0x278 JUMPI PUSH2 0x277 PUSH2 0x434 JUMP JUMPDEST JUMPDEST PUSH2 0x284 DUP10 DUP3 DUP11 ADD PUSH2 0x108 JUMP JUMPDEST SWAP3 POP SWAP3 POP POP SWAP3 SWAP6 POP SWAP3 SWAP6 POP SWAP3 SWAP6 JUMP JUMPDEST PUSH1 0x0 DUP1 PUSH1 0x0 DUP1 PUSH1 0x60 DUP6 DUP8 SUB SLT ISZERO PUSH2 0x2AD JUMPI PUSH2 0x2AC PUSH2 0x439 JUMP JUMPDEST JUMPDEST PUSH1 0x0 PUSH2 0x2BB DUP8 DUP3 DUP9 ADD PUSH2 0x17D JUMP JUMPDEST SWAP5 POP POP PUSH1 0x20 DUP6 ADD CALLDATALOAD PUSH8 0xFFFFFFFFFFFFFFFF DUP2 GT ISZERO PUSH2 0x2DC JUMPI PUSH2 0x2DB PUSH2 0x434 JUMP JUMPDEST JUMPDEST PUSH2 0x2E8 DUP8 DUP3 DUP9 ADD PUSH2 0x108 JUMP JUMPDEST SWAP4 POP SWAP4 POP POP PUSH1 0x40 PUSH2 0x2FB DUP8 DUP3 DUP9 ADD PUSH2 0x17D JUMP JUMPDEST SWAP2 POP POP SWAP3 SWAP6 SWAP2 SWAP5 POP SWAP3 POP JUMP JUMPDEST PUSH1 0x0 DUP1 PUSH1 0x0 DUP1 PUSH1 0x0 DUP1 PUSH1 0x0 PUSH1 0xA0 DUP9 DUP11 SUB SLT ISZERO PUSH2 0x326 JUMPI PUSH2 0x325 PUSH2 0x439 JUMP JUMPDEST JUMPDEST PUSH1 0x0 PUSH2 0x334 DUP11 DUP3 DUP12 ADD PUSH2 0x17D JUMP JUMPDEST SWAP8 POP POP PUSH1 0x20 DUP9 ADD CALLDATALOAD PUSH8 0xFFFFFFFFFFFFFFFF DUP2 GT ISZERO PUSH2 0x355 JUMPI PUSH2 0x354 PUSH2 0x434 JUMP JUMPDEST JUMPDEST PUSH2 0x361 DUP11 DUP3 DUP12 ADD PUSH2 0x108 JUMP JUMPDEST SWAP7 POP SWAP7 POP POP PUSH1 0x40 PUSH2 0x374 DUP11 DUP3 DUP12 ADD PUSH2 0x17D JUMP JUMPDEST SWAP5 POP POP PUSH1 0x60 DUP9 ADD CALLDATALOAD PUSH8 0xFFFFFFFFFFFFFFFF DUP2 GT ISZERO PUSH2 0x395 JUMPI PUSH2 0x394 PUSH2 0x434 JUMP JUMPDEST JUMPDEST PUSH2 0x3A1 DUP11 DUP3 DUP12 ADD PUSH2 0x108 JUMP JUMPDEST SWAP4 POP SWAP4 POP POP PUSH1 0x80 PUSH2 0x3B4 DUP11 DUP3 DUP12 ADD PUSH2 0x17D JUMP JUMPDEST SWAP2 POP POP SWAP3 SWAP6 SWAP9 SWAP2 SWAP5 SWAP8 POP SWAP3 SWAP6 POP JUMP JUMPDEST PUSH1 0x0 DUP1 PUSH1 0x0 PUSH1 0xA0 DUP5 DUP7 SUB SLT ISZERO PUSH2 0x3DC JUMPI PUSH2 0x3DB PUSH2 0x439 JUMP JUMPDEST JUMPDEST PUSH1 0x0 PUSH2 0x3EA DUP7 DUP3 DUP8 ADD PUSH2 0x17D JUMP JUMPDEST SWAP4 POP POP PUSH1 0x20 PUSH2 0x3FB DUP7 DUP3 DUP8 ADD PUSH2 0x15E JUMP JUMPDEST SWAP3 POP POP PUSH1 0x80 PUSH2 0x40C DUP7 DUP3 DUP8 ADD PUSH2 0x17D JUMP JUMPDEST SWAP2 POP POP SWAP3 POP SWAP3 POP SWAP3 JUMP JUMPDEST PUSH1 0x0 DUP2 SWAP1 POP SWAP2 SWAP1 POP JUMP JUMPDEST PUSH1 0x0 DUP1 REVERT JUMPDEST PUSH1 0x0 DUP1 REVERT JUMPDEST PUSH1 0x0 DUP1 REVERT JUMPDEST PUSH1 0x0 DUP1 REVERT JUMPDEST PUSH1 0x0 DUP1 REVERT JUMPDEST PUSH1 0x0 DUP1 REVERT JUMPDEST PUSH2 0x447 DUP2 PUSH2 0x416 JUMP JUMPDEST DUP2 EQ PUSH2 0x452 JUMPI PUSH1 0x0 DUP1 REVERT JUMPDEST POP JUMP INVALID LOG2 PUSH5 0x6970667358 0x22 SLT KECCAK256 STOP LOG4 PUSH15 0x3581F2EBC7D87CE7563333B7A33601 EXP 0xAE SWAP10 CALLER DUP10 PUSH22 0x2ACDAEAEF3AB74DE64736F6C63430008070033000000 "
				},
				"gasEstimates": {
					"creation": {
						"codeDepositCost": "232600",
						"executionCost": "275",
						"totalCost": "232875"
					},
					"external": {
						"allVariable(uint256[],uint256[],uint256[])": "infinite",
						"fiveArgs(uint256,uint256[],uint256,uint256[],uint256)": "infinite",
						"oneArgs(uint256[])": "474",
						"threeArgs(uint256,uint256[],uint256)": "infinite",
						"threeArgsStruct(uint256,(uint256,uint256,uint256),uint256)": "infinite"
					}
				},
				"methodIdentifiers": {
					"allVariable(uint256[],uint256[],uint256[])": "1fd3b26b",
					"fiveArgs(uint256,uint256[],uint256,uint256[],uint256)": "37701841",
					"oneArgs(uint256[])": "042041bc",
					"threeArgs(uint256,uint256[],uint256)": "c6f922d0",
					"threeArgsStruct(uint256,(uint256,uint256,uint256),uint256)": "01e58fb4"
				}
			},
			"storageLayout": {
				"storage": [],
				"types": null
			},
			"userdoc": {
				"kind": "user",
				"methods": {},
				"version": 1
			}
		}
	}
}