{
	"contracts/8_TransferValue.sol": {
		"WithdrawV2": {
			"abi": [
				{
					"inputs": [],
					"stateMutability": "payable",
					"type": "constructor"
				},
				{
					"inputs": [],
					"name": "owner",
					"outputs": [
						{
							"internalType": "address",
							"name": "",
							"type": "address"
						}
					],
					"stateMutability": "view",
					"type": "function"
				},
				{
					"inputs": [],
					"name": "withdraw",
					"outputs": [],
					"stateMutability": "nonpayable",
					"type": "function"
				}
			],
			"devdoc": {
				"kind": "dev",
				"methods": {},
				"version": 1
			},
			"evm": {
				"assembly": "    /* \"contracts/8_TransferValue.sol\":1772:2889  contract WithdrawV2 {... */\n  mstore(0x40, 0x80)\n  dataSize(sub_0)\n  dup1\n  dataOffset(sub_0)\n  0x00\n  codecopy\n  0x00\n  return\nstop\n\nsub_0: assembly {\n        /* \"contracts/8_TransferValue.sol\":1772:2889  contract WithdrawV2 {... */\n      mstore(0x40, 0x80)\n      callvalue\n      dup1\n      iszero\n      tag_1\n      jumpi\n      0x00\n      dup1\n      revert\n    tag_1:\n      pop\n      jumpi(tag_2, lt(calldatasize, 0x04))\n      shr(0xe0, calldataload(0x00))\n      dup1\n      0x3ccfd60b\n      eq\n      tag_3\n      jumpi\n      dup1\n      0x8da5cb5b\n      eq\n      tag_4\n      jumpi\n    tag_2:\n      0x00\n      dup1\n      revert\n        /* \"contracts/8_TransferValue.sol\":2673:2887  function withdraw() external {... */\n    tag_3:\n      tag_5\n      tag_6\n      jump\t// in\n    tag_5:\n      stop\n        /* \"contracts/8_TransferValue.sol\":1828:1902  address public constant owner = 0x5B38Da6a701c568545dCfcB03FcB875f56beddC4 */\n    tag_4:\n      tag_7\n      tag_8\n      jump\t// in\n    tag_7:\n      mload(0x40)\n      tag_9\n      swap2\n      swap1\n      tag_10\n      jump\t// in\n    tag_9:\n      mload(0x40)\n      dup1\n      swap2\n      sub\n      swap1\n      return\n        /* \"contracts/8_TransferValue.sol\":2673:2887  function withdraw() external {... */\n    tag_6:\n        /* \"contracts/8_TransferValue.sol\":2793:2794  0 */\n      0x00\n        /* \"contracts/8_TransferValue.sol\":2790:2791  0 */\n      dup1\n        /* \"contracts/8_TransferValue.sol\":2787:2788  0 */\n      0x00\n        /* \"contracts/8_TransferValue.sol\":2784:2785  0 */\n      dup1\n        /* \"contracts/8_TransferValue.sol\":2769:2782  selfbalance() */\n      selfbalance\n        /* \"contracts/8_TransferValue.sol\":2762:2767  owner */\n      0x5b38da6a701c568545dcfcb03fcb875f56beddc4\n        /* \"contracts/8_TransferValue.sol\":2755:2760  gas() */\n      gas\n        /* \"contracts/8_TransferValue.sol\":2750:2795  call(gas(), owner, selfbalance(), 0, 0, 0, 0) */\n      call\n        /* \"contracts/8_TransferValue.sol\":2818:2825  success */\n      dup1\n        /* \"contracts/8_TransferValue.sol\":2808:2871  if iszero(success) {... */\n      tag_12\n      jumpi\n        /* \"contracts/8_TransferValue.sol\":2855:2856  0 */\n      0x00\n        /* \"contracts/8_TransferValue.sol\":2852:2853  0 */\n      dup1\n        /* \"contracts/8_TransferValue.sol\":2845:2857  revert(0, 0) */\n      revert\n        /* \"contracts/8_TransferValue.sol\":2808:2871  if iszero(success) {... */\n    tag_12:\n        /* \"contracts/8_TransferValue.sol\":2721:2881  {... */\n      pop\n        /* \"contracts/8_TransferValue.sol\":2673:2887  function withdraw() external {... */\n      jump\t// out\n        /* \"contracts/8_TransferValue.sol\":1828:1902  address public constant owner = 0x5B38Da6a701c568545dCfcB03FcB875f56beddC4 */\n    tag_8:\n        /* \"contracts/8_TransferValue.sol\":1860:1902  0x5B38Da6a701c568545dCfcB03FcB875f56beddC4 */\n      0x5b38da6a701c568545dcfcb03fcb875f56beddc4\n        /* \"contracts/8_TransferValue.sol\":1828:1902  address public constant owner = 0x5B38Da6a701c568545dCfcB03FcB875f56beddC4 */\n      dup2\n      jump\t// out\n        /* \"#utility.yul\":7:125   */\n    tag_14:\n        /* \"#utility.yul\":94:118   */\n      tag_16\n        /* \"#utility.yul\":112:117   */\n      dup2\n        /* \"#utility.yul\":94:118   */\n      tag_17\n      jump\t// in\n    tag_16:\n        /* \"#utility.yul\":89:92   */\n      dup3\n        /* \"#utility.yul\":82:119   */\n      mstore\n        /* \"#utility.yul\":7:125   */\n      pop\n      pop\n      jump\t// out\n        /* \"#utility.yul\":131:353   */\n    tag_10:\n        /* \"#utility.yul\":224:228   */\n      0x00\n        /* \"#utility.yul\":262:264   */\n      0x20\n        /* \"#utility.yul\":251:260   */\n      dup3\n        /* \"#utility.yul\":247:265   */\n      add\n        /* \"#utility.yul\":239:265   */\n      swap1\n      pop\n        /* \"#utility.yul\":275:346   */\n      tag_19\n        /* \"#utility.yul\":343:344   */\n      0x00\n        /* \"#utility.yul\":332:341   */\n      dup4\n        /* \"#utility.yul\":328:345   */\n      add\n        /* \"#utility.yul\":319:325   */\n      dup5\n        /* \"#utility.yul\":275:346   */\n      tag_14\n      jump\t// in\n    tag_19:\n        /* \"#utility.yul\":131:353   */\n      swap3\n      swap2\n      pop\n      pop\n      jump\t// out\n        /* \"#utility.yul\":359:455   */\n    tag_17:\n        /* \"#utility.yul\":396:403   */\n      0x00\n        /* \"#utility.yul\":425:449   */\n      tag_21\n        /* \"#utility.yul\":443:448   */\n      dup3\n        /* \"#utility.yul\":425:449   */\n      tag_22\n      jump\t// in\n    tag_21:\n        /* \"#utility.yul\":414:449   */\n      swap1\n      pop\n        /* \"#utility.yul\":359:455   */\n      swap2\n      swap1\n      pop\n      jump\t// out\n        /* \"#utility.yul\":461:587   */\n    tag_22:\n        /* \"#utility.yul\":498:505   */\n      0x00\n        /* \"#utility.yul\":538:580   */\n      0xffffffffffffffffffffffffffffffffffffffff\n        /* \"#utility.yul\":531:536   */\n      dup3\n        /* \"#utility.yul\":527:581   */\n      and\n        /* \"#utility.yul\":516:581   */\n      swap1\n      pop\n        /* \"#utility.yul\":461:587   */\n      swap2\n      swap1\n      pop\n      jump\t// out\n\n    auxdata: 0xa264697066735822122060ce9f65d1d6fb73729827e55bf653b242dc264cd791f426750da394b2375cfb64736f6c63430008070033\n}\n",
				"bytecode": {
					"linkReferences": {},
					"object": "6080604052610127806100136000396000f3fe6080604052348015600f57600080fd5b506004361060325760003560e01c80633ccfd60b1460375780638da5cb5b14603f575b600080fd5b603d6059565b005b60456083565b6040516050919060a8565b60405180910390f35b60008060008047735b38da6a701c568545dcfcb03fcb875f56beddc45af180608057600080fd5b50565b735b38da6a701c568545dcfcb03fcb875f56beddc481565b60a28160c1565b82525050565b600060208201905060bb6000830184609b565b92915050565b600060ca8260d1565b9050919050565b600073ffffffffffffffffffffffffffffffffffffffff8216905091905056fea264697066735822122060ce9f65d1d6fb73729827e55bf653b242dc264cd791f426750da394b2375cfb64736f6c63430008070033",
					"opcodes": "PUSH1 0x80 PUSH1 0x40 MSTORE PUSH2 0x127 DUP1 PUSH2 0x13 PUSH1 0x0 CODECOPY PUSH1 0x0 RETURN INVALID PUSH1 0x80 PUSH1 0x40 MSTORE CALLVALUE DUP1 ISZERO PUSH1 0xF JUMPI PUSH1 0x0 DUP1 REVERT JUMPDEST POP PUSH1 0x4 CALLDATASIZE LT PUSH1 0x32 JUMPI PUSH1 0x0 CALLDATALOAD PUSH1 0xE0 SHR DUP1 PUSH4 0x3CCFD60B EQ PUSH1 0x37 JUMPI DUP1 PUSH4 0x8DA5CB5B EQ PUSH1 0x3F JUMPI JUMPDEST PUSH1 0x0 DUP1 REVERT JUMPDEST PUSH1 0x3D PUSH1 0x59 JUMP JUMPDEST STOP JUMPDEST PUSH1 0x45 PUSH1 0x83 JUMP JUMPDEST PUSH1 0x40 MLOAD PUSH1 0x50 SWAP2 SWAP1 PUSH1 0xA8 JUMP JUMPDEST PUSH1 0x40 MLOAD DUP1 SWAP2 SUB SWAP1 RETURN JUMPDEST PUSH1 0x0 DUP1 PUSH1 0x0 DUP1 SELFBALANCE PUSH20 0x5B38DA6A701C568545DCFCB03FCB875F56BEDDC4 GAS CALL DUP1 PUSH1 0x80 JUMPI PUSH1 0x0 DUP1 REVERT JUMPDEST POP JUMP JUMPDEST PUSH20 0x5B38DA6A701C568545DCFCB03FCB875F56BEDDC4 DUP2 JUMP JUMPDEST PUSH1 0xA2 DUP2 PUSH1 0xC1 JUMP JUMPDEST DUP3 MSTORE POP POP JUMP JUMPDEST PUSH1 0x0 PUSH1 0x20 DUP3 ADD SWAP1 POP PUSH1 0xBB PUSH1 0x0 DUP4 ADD DUP5 PUSH1 0x9B JUMP JUMPDEST SWAP3 SWAP2 POP POP JUMP JUMPDEST PUSH1 0x0 PUSH1 0xCA DUP3 PUSH1 0xD1 JUMP JUMPDEST SWAP1 POP SWAP2 SWAP1 POP JUMP JUMPDEST PUSH1 0x0 PUSH20 0xFFFFFFFFFFFFFFFFFFFFFFFFFFFFFFFFFFFFFFFF DUP3 AND SWAP1 POP SWAP2 SWAP1 POP JUMP INVALID LOG2 PUSH5 0x6970667358 0x22 SLT KECCAK256 PUSH1 0xCE SWAP16 PUSH6 0xD1D6FB737298 0x27 0xE5 JUMPDEST 0xF6 MSTORE8 0xB2 TIMESTAMP 0xDC 0x26 0x4C 0xD7 SWAP2 DELEGATECALL 0x26 PUSH22 0xDA394B2375CFB64736F6C6343000807003300000000 "
				},
				"gasEstimates": {
					"creation": {
						"codeDepositCost": "59000",
						"executionCost": "87",
						"totalCost": "59087"
					},
					"external": {
						"owner()": "378",
						"withdraw()": "infinite"
					}
				},
				"methodIdentifiers": {
					"owner()": "8da5cb5b",
					"withdraw()": "3ccfd60b"
				}
			},
			"storageLayout": {
				"storage": [],
				"types": null
			},
			"userdoc": {
				"kind": "user",
				"methods": {},
				"version": 1
			}
		}
	}
}