{
	"contracts/8_TransferValue.sol": {
		"WithdrawV1": {
			"abi": [
				{
					"inputs": [],
					"stateMutability": "payable",
					"type": "constructor"
				},
				{
					"inputs": [],
					"name": "owner",
					"outputs": [
						{
							"internalType": "address",
							"name": "",
							"type": "address"
						}
					],
					"stateMutability": "view",
					"type": "function"
				},
				{
					"inputs": [],
					"name": "withdraw",
					"outputs": [],
					"stateMutability": "nonpayable",
					"type": "function"
				}
			],
			"devdoc": {
				"kind": "dev",
				"methods": {},
				"version": 1
			},
			"evm": {
				"assembly": "    /* \"contracts/8_TransferValue.sol\":57:1770  contract WithdrawV1 {... */\n  mstore(0x40, 0x80)\n  dataSize(sub_0)\n  dup1\n  dataOffset(sub_0)\n  0x00\n  codecopy\n  0x00\n  return\nstop\n\nsub_0: assembly {\n        /* \"contracts/8_TransferValue.sol\":57:1770  contract WithdrawV1 {... */\n      mstore(0x40, 0x80)\n      callvalue\n      dup1\n      iszero\n      tag_1\n      jumpi\n      0x00\n      dup1\n      revert\n    tag_1:\n      pop\n      jumpi(tag_2, lt(calldatasize, 0x04))\n      shr(0xe0, calldataload(0x00))\n      dup1\n      0x3ccfd60b\n      eq\n      tag_3\n      jumpi\n      dup1\n      0x8da5cb5b\n      eq\n      tag_4\n      jumpi\n    tag_2:\n      0x00\n      dup1\n      revert\n        /* \"contracts/8_TransferValue.sol\":1347:1768  function withdraw() external {... */\n    tag_3:\n      tag_5\n      tag_6\n      jump\t// in\n    tag_5:\n      stop\n        /* \"contracts/8_TransferValue.sol\":113:187  address public constant owner = 0x5B38Da6a701c568545dCfcB03FcB875f56beddC4 */\n    tag_4:\n      tag_7\n      tag_8\n      jump\t// in\n    tag_7:\n      mload(0x40)\n      tag_9\n      swap2\n      swap1\n      tag_10\n      jump\t// in\n    tag_9:\n      mload(0x40)\n      dup1\n      swap2\n      sub\n      swap1\n      return\n        /* \"contracts/8_TransferValue.sol\":1347:1768  function withdraw() external {... */\n    tag_6:\n        /* \"contracts/8_TransferValue.sol\":1620:1632  bool success */\n      0x00\n        /* \"contracts/8_TransferValue.sol\":1634:1656  bytes memory returnArr */\n      dup1\n        /* \"contracts/8_TransferValue.sol\":145:187  0x5B38Da6a701c568545dCfcB03FcB875f56beddC4 */\n      0x5b38da6a701c568545dcfcb03fcb875f56beddc4\n        /* \"contracts/8_TransferValue.sol\":1660:1679  payable(owner).call */\n      0xffffffffffffffffffffffffffffffffffffffff\n      and\n        /* \"contracts/8_TransferValue.sol\":1700:1721  address(this).balance */\n      selfbalance\n        /* \"contracts/8_TransferValue.sol\":1660:1735  payable(owner).call{... */\n      mload(0x40)\n      tag_12\n      swap1\n      tag_13\n      jump\t// in\n    tag_12:\n      0x00\n      mload(0x40)\n      dup1\n      dup4\n      sub\n      dup2\n      dup6\n      dup8\n      gas\n      call\n      swap3\n      pop\n      pop\n      pop\n      returndatasize\n      dup1\n      0x00\n      dup2\n      eq\n      tag_16\n      jumpi\n      mload(0x40)\n      swap2\n      pop\n      and(add(returndatasize, 0x3f), not(0x1f))\n      dup3\n      add\n      0x40\n      mstore\n      returndatasize\n      dup3\n      mstore\n      returndatasize\n      0x00\n      0x20\n      dup5\n      add\n      returndatacopy\n      jump(tag_15)\n    tag_16:\n      0x60\n      swap2\n      pop\n    tag_15:\n      pop\n        /* \"contracts/8_TransferValue.sol\":1619:1735  (bool success, bytes memory returnArr) = payable(owner).call{... */\n      swap2\n      pop\n      swap2\n      pop\n        /* \"contracts/8_TransferValue.sol\":1753:1760  success */\n      dup2\n        /* \"contracts/8_TransferValue.sol\":1745:1761  require(success) */\n      tag_17\n      jumpi\n      0x00\n      dup1\n      revert\n    tag_17:\n        /* \"contracts/8_TransferValue.sol\":1376:1768  {... */\n      pop\n      pop\n        /* \"contracts/8_TransferValue.sol\":1347:1768  function withdraw() external {... */\n      jump\t// out\n        /* \"contracts/8_TransferValue.sol\":113:187  address public constant owner = 0x5B38Da6a701c568545dCfcB03FcB875f56beddC4 */\n    tag_8:\n        /* \"contracts/8_TransferValue.sol\":145:187  0x5B38Da6a701c568545dCfcB03FcB875f56beddC4 */\n      0x5b38da6a701c568545dcfcb03fcb875f56beddc4\n        /* \"contracts/8_TransferValue.sol\":113:187  address public constant owner = 0x5B38Da6a701c568545dCfcB03FcB875f56beddC4 */\n      dup2\n      jump\t// out\n        /* \"#utility.yul\":7:125   */\n    tag_19:\n        /* \"#utility.yul\":94:118   */\n      tag_21\n        /* \"#utility.yul\":112:117   */\n      dup2\n        /* \"#utility.yul\":94:118   */\n      tag_22\n      jump\t// in\n    tag_21:\n        /* \"#utility.yul\":89:92   */\n      dup3\n        /* \"#utility.yul\":82:119   */\n      mstore\n        /* \"#utility.yul\":7:125   */\n      pop\n      pop\n      jump\t// out\n        /* \"#utility.yul\":131:529   */\n    tag_23:\n        /* \"#utility.yul\":290:293   */\n      0x00\n        /* \"#utility.yul\":311:394   */\n      tag_25\n        /* \"#utility.yul\":392:393   */\n      0x00\n        /* \"#utility.yul\":387:390   */\n      dup4\n        /* \"#utility.yul\":311:394   */\n      tag_26\n      jump\t// in\n    tag_25:\n        /* \"#utility.yul\":304:394   */\n      swap2\n      pop\n        /* \"#utility.yul\":403:496   */\n      tag_27\n        /* \"#utility.yul\":492:495   */\n      dup3\n        /* \"#utility.yul\":403:496   */\n      tag_28\n      jump\t// in\n    tag_27:\n        /* \"#utility.yul\":521:522   */\n      0x00\n        /* \"#utility.yul\":516:519   */\n      dup3\n        /* \"#utility.yul\":512:523   */\n      add\n        /* \"#utility.yul\":505:523   */\n      swap1\n      pop\n        /* \"#utility.yul\":131:529   */\n      swap2\n      swap1\n      pop\n      jump\t// out\n        /* \"#utility.yul\":535:914   */\n    tag_13:\n        /* \"#utility.yul\":719:722   */\n      0x00\n        /* \"#utility.yul\":741:888   */\n      tag_30\n        /* \"#utility.yul\":884:887   */\n      dup3\n        /* \"#utility.yul\":741:888   */\n      tag_23\n      jump\t// in\n    tag_30:\n        /* \"#utility.yul\":734:888   */\n      swap2\n      pop\n        /* \"#utility.yul\":905:908   */\n      dup2\n        /* \"#utility.yul\":898:908   */\n      swap1\n      pop\n        /* \"#utility.yul\":535:914   */\n      swap2\n      swap1\n      pop\n      jump\t// out\n        /* \"#utility.yul\":920:1142   */\n    tag_10:\n        /* \"#utility.yul\":1013:1017   */\n      0x00\n        /* \"#utility.yul\":1051:1053   */\n      0x20\n        /* \"#utility.yul\":1040:1049   */\n      dup3\n        /* \"#utility.yul\":1036:1054   */\n      add\n        /* \"#utility.yul\":1028:1054   */\n      swap1\n      pop\n        /* \"#utility.yul\":1064:1135   */\n      tag_32\n        /* \"#utility.yul\":1132:1133   */\n      0x00\n        /* \"#utility.yul\":1121:1130   */\n      dup4\n        /* \"#utility.yul\":1117:1134   */\n      add\n        /* \"#utility.yul\":1108:1114   */\n      dup5\n        /* \"#utility.yul\":1064:1135   */\n      tag_19\n      jump\t// in\n    tag_32:\n        /* \"#utility.yul\":920:1142   */\n      swap3\n      swap2\n      pop\n      pop\n      jump\t// out\n        /* \"#utility.yul\":1148:1295   */\n    tag_26:\n        /* \"#utility.yul\":1249:1260   */\n      0x00\n        /* \"#utility.yul\":1286:1289   */\n      dup2\n        /* \"#utility.yul\":1271:1289   */\n      swap1\n      pop\n        /* \"#utility.yul\":1148:1295   */\n      swap3\n      swap2\n      pop\n      pop\n      jump\t// out\n        /* \"#utility.yul\":1301:1397   */\n    tag_22:\n        /* \"#utility.yul\":1338:1345   */\n      0x00\n        /* \"#utility.yul\":1367:1391   */\n      tag_35\n        /* \"#utility.yul\":1385:1390   */\n      dup3\n        /* \"#utility.yul\":1367:1391   */\n      tag_36\n      jump\t// in\n    tag_35:\n        /* \"#utility.yul\":1356:1391   */\n      swap1\n      pop\n        /* \"#utility.yul\":1301:1397   */\n      swap2\n      swap1\n      pop\n      jump\t// out\n        /* \"#utility.yul\":1403:1529   */\n    tag_36:\n        /* \"#utility.yul\":1440:1447   */\n      0x00\n        /* \"#utility.yul\":1480:1522   */\n      0xffffffffffffffffffffffffffffffffffffffff\n        /* \"#utility.yul\":1473:1478   */\n      dup3\n        /* \"#utility.yul\":1469:1523   */\n      and\n        /* \"#utility.yul\":1458:1523   */\n      swap1\n      pop\n        /* \"#utility.yul\":1403:1529   */\n      swap2\n      swap1\n      pop\n      jump\t// out\n        /* \"#utility.yul\":1535:1649   */\n    tag_28:\n      pop\n      jump\t// out\n\n    auxdata: 0xa26469706673582212208449bf2b747ec24fec1a8e298ca48c453dc483b5e8956a6eaaf17e15c8665aaa64736f6c63430008070033\n}\n",
				"bytecode": {
					"linkReferences": {},
					"object": "60806040526101e3806100136000396000f3fe608060405234801561001057600080fd5b50600436106100365760003560e01c80633ccfd60b1461003b5780638da5cb5b14610045575b600080fd5b610043610063565b005b61004d6100f3565b60405161005a9190610152565b60405180910390f35b600080735b38da6a701c568545dcfcb03fcb875f56beddc473ffffffffffffffffffffffffffffffffffffffff164760405161009e9061013d565b60006040518083038185875af1925050503d80600081146100db576040519150601f19603f3d011682016040523d82523d6000602084013e6100e0565b606091505b5091509150816100ef57600080fd5b5050565b735b38da6a701c568545dcfcb03fcb875f56beddc481565b61011481610178565b82525050565b600061012760008361016d565b9150610132826101aa565b600082019050919050565b60006101488261011a565b9150819050919050565b6000602082019050610167600083018461010b565b92915050565b600081905092915050565b60006101838261018a565b9050919050565b600073ffffffffffffffffffffffffffffffffffffffff82169050919050565b5056fea26469706673582212208449bf2b747ec24fec1a8e298ca48c453dc483b5e8956a6eaaf17e15c8665aaa64736f6c63430008070033",
					"opcodes": "PUSH1 0x80 PUSH1 0x40 MSTORE PUSH2 0x1E3 DUP1 PUSH2 0x13 PUSH1 0x0 CODECOPY PUSH1 0x0 RETURN INVALID PUSH1 0x80 PUSH1 0x40 MSTORE CALLVALUE DUP1 ISZERO PUSH2 0x10 JUMPI PUSH1 0x0 DUP1 REVERT JUMPDEST POP PUSH1 0x4 CALLDATASIZE LT PUSH2 0x36 JUMPI PUSH1 0x0 CALLDATALOAD PUSH1 0xE0 SHR DUP1 PUSH4 0x3CCFD60B EQ PUSH2 0x3B JUMPI DUP1 PUSH4 0x8DA5CB5B EQ PUSH2 0x45 JUMPI JUMPDEST PUSH1 0x0 DUP1 REVERT JUMPDEST PUSH2 0x43 PUSH2 0x63 JUMP JUMPDEST STOP JUMPDEST PUSH2 0x4D PUSH2 0xF3 JUMP JUMPDEST PUSH1 0x40 MLOAD PUSH2 0x5A SWAP2 SWAP1 PUSH2 0x152 JUMP JUMPDEST PUSH1 0x40 MLOAD DUP1 SWAP2 SUB SWAP1 RETURN JUMPDEST PUSH1 0x0 DUP1 PUSH20 0x5B38DA6A701C568545DCFCB03FCB875F56BEDDC4 PUSH20 0xFFFFFFFFFFFFFFFFFFFFFFFFFFFFFFFFFFFFFFFF AND SELFBALANCE PUSH1 0x40 MLOAD PUSH2 0x9E SWAP1 PUSH2 0x13D JUMP JUMPDEST PUSH1 0x0 PUSH1 0x40 MLOAD DUP1 DUP4 SUB DUP2 DUP6 DUP8 GAS CALL SWAP3 POP POP POP RETURNDATASIZE DUP1 PUSH1 0x0 DUP2 EQ PUSH2 0xDB JUMPI PUSH1 0x40 MLOAD SWAP2 POP PUSH1 0x1F NOT PUSH1 0x3F RETURNDATASIZE ADD AND DUP3 ADD PUSH1 0x40 MSTORE RETURNDATASIZE DUP3 MSTORE RETURNDATASIZE PUSH1 0x0 PUSH1 0x20 DUP5 ADD RETURNDATACOPY PUSH2 0xE0 JUMP JUMPDEST PUSH1 0x60 SWAP2 POP JUMPDEST POP SWAP2 POP SWAP2 POP DUP2 PUSH2 0xEF JUMPI PUSH1 0x0 DUP1 REVERT JUMPDEST POP POP JUMP JUMPDEST PUSH20 0x5B38DA6A701C568545DCFCB03FCB875F56BEDDC4 DUP2 JUMP JUMPDEST PUSH2 0x114 DUP2 PUSH2 0x178 JUMP JUMPDEST DUP3 MSTORE POP POP JUMP JUMPDEST PUSH1 0x0 PUSH2 0x127 PUSH1 0x0 DUP4 PUSH2 0x16D JUMP JUMPDEST SWAP2 POP PUSH2 0x132 DUP3 PUSH2 0x1AA JUMP JUMPDEST PUSH1 0x0 DUP3 ADD SWAP1 POP SWAP2 SWAP1 POP JUMP JUMPDEST PUSH1 0x0 PUSH2 0x148 DUP3 PUSH2 0x11A JUMP JUMPDEST SWAP2 POP DUP2 SWAP1 POP SWAP2 SWAP1 POP JUMP JUMPDEST PUSH1 0x0 PUSH1 0x20 DUP3 ADD SWAP1 POP PUSH2 0x167 PUSH1 0x0 DUP4 ADD DUP5 PUSH2 0x10B JUMP JUMPDEST SWAP3 SWAP2 POP POP JUMP JUMPDEST PUSH1 0x0 DUP2 SWAP1 POP SWAP3 SWAP2 POP POP JUMP JUMPDEST PUSH1 0x0 PUSH2 0x183 DUP3 PUSH2 0x18A JUMP JUMPDEST SWAP1 POP SWAP2 SWAP1 POP JUMP JUMPDEST PUSH1 0x0 PUSH20 0xFFFFFFFFFFFFFFFFFFFFFFFFFFFFFFFFFFFFFFFF DUP3 AND SWAP1 POP SWAP2 SWAP1 POP JUMP JUMPDEST POP JUMP INVALID LOG2 PUSH5 0x6970667358 0x22 SLT KECCAK256 DUP5 0x49 0xBF 0x2B PUSH21 0x7EC24FEC1A8E298CA48C453DC483B5E8956A6EAAF1 PUSH31 0x15C8665AAA64736F6C63430008070033000000000000000000000000000000 "
				},
				"gasEstimates": {
					"creation": {
						"codeDepositCost": "96600",
						"executionCost": "123",
						"totalCost": "96723"
					},
					"external": {
						"owner()": "378",
						"withdraw()": "infinite"
					}
				},
				"methodIdentifiers": {
					"owner()": "8da5cb5b",
					"withdraw()": "3ccfd60b"
				}
			},
			"storageLayout": {
				"storage": [],
				"types": null
			},
			"userdoc": {
				"kind": "user",
				"methods": {},
				"version": 1
			}
		}
	}
}