{
	"data": {
		"bytecode": {
			"linkReferences": {},
			"object": "608060405234801561001057600080fd5b506106ee806100206000396000f3fe608060405234801561001057600080fd5b50600436106100625760003560e01c806303f3084b146100675780630c62c939146100835780634a2f82f8146100b357806352bd0fa3146100e357806368c4c7601461011357806376e1677e14610143575b600080fd5b610081600480360381019061007c9190610378565b610173565b005b61009d6004803603810190610098919061040a565b61019e565b6040516100aa91906104a6565b60405180910390f35b6100cd60048036038101906100c89190610378565b61025a565b6040516100da91906104da565b60405180910390f35b6100fd60048036038101906100f89190610521565b6102a1565b60405161010a919061057a565b60405180910390f35b61012d60048036038101906101289190610378565b6102d0565b60405161013a91906104da565b60405180910390f35b61015d60048036038101906101589190610378565b6102f5565b60405161016a91906104da565b60405180910390f35b634018d9aa6000526103e76020526000806020601c01601c6000855af18061019a57600080fd5b5050565b60008282905085859050036101e8576040517f08c379a00000000000000000000000000000000000000000000000000000000081526004016101df906105f2565b60405180910390fd5b60005b8585905081101561024c5783838281811061020957610208610612565b5b9050602002013586868381811061022357610222610612565b5b9050602002013514610239576000915050610252565b808061024490610670565b9150506101eb565b50600190505b949350505050565b60006040518063196e6d84825260036020830152600b60408301526060820160405260206000604051601c8501875afa8061029457600080fd5b6000519350505050919050565b6000637c70b4db600052816020526000806020601c01601c865afa806102c657600080fd5b3d6000803e3d6000f35b6000639a884bde60005260206000601e601c855afa806102ef57600080fd5b60206000f35b60006373712595600052602060006020601c855afa60206000f35b600080fd5b600080fd5b600073ffffffffffffffffffffffffffffffffffffffff82169050919050565b60006103458261031a565b9050919050565b6103558161033a565b811461036057600080fd5b50565b6000813590506103728161034c565b92915050565b60006020828403121561038e5761038d610310565b5b600061039c84828501610363565b91505092915050565b600080fd5b600080fd5b600080fd5b60008083601f8401126103ca576103c96103a5565b5b8235905067ffffffffffffffff8111156103e7576103e66103aa565b5b602083019150836020820283011115610403576104026103af565b5b9250929050565b6000806000806040858703121561042457610423610310565b5b600085013567ffffffffffffffff81111561044257610441610315565b5b61044e878288016103b4565b9450945050602085013567ffffffffffffffff81111561047157610470610315565b5b61047d878288016103b4565b925092505092959194509250565b60008115159050919050565b6104a08161048b565b82525050565b60006020820190506104bb6000830184610497565b92915050565b6000819050919050565b6104d4816104c1565b82525050565b60006020820190506104ef60008301846104cb565b92915050565b6104fe816104c1565b811461050957600080fd5b50565b60008135905061051b816104f5565b92915050565b6000806040838503121561053857610537610310565b5b600061054685828601610363565b92505060206105578582860161050c565b9150509250929050565b6000819050919050565b61057481610561565b82525050565b600060208201905061058f600083018461056b565b92915050565b600082825260208201905092915050565b7f696e76616c696400000000000000000000000000000000000000000000000000600082015250565b60006105dc600783610595565b91506105e7826105a6565b602082019050919050565b6000602082019050818103600083015261060b816105cf565b9050919050565b7f4e487b7100000000000000000000000000000000000000000000000000000000600052603260045260246000fd5b7f4e487b7100000000000000000000000000000000000000000000000000000000600052601160045260246000fd5b600061067b826104c1565b91507fffffffffffffffffffffffffffffffffffffffffffffffffffffffffffffffff82036106ad576106ac610641565b5b60018201905091905056fea2646970667358221220a5e0050a8c5339c88c09f040a20ed39899557355412e0e200466704bf00ec8da64736f6c63430008110033",
			"opcodes": "PUSH1 0x80 PUSH1 0x40 MSTORE CALLVALUE DUP1 ISZERO PUSH2 0x10 JUMPI PUSH1 0x0 DUP1 REVERT JUMPDEST POP PUSH2 0x6EE DUP1 PUSH2 0x20 PUSH1 0x0 CODECOPY PUSH1 0x0 RETURN INVALID PUSH1 0x80 PUSH1 0x40 MSTORE CALLVALUE DUP1 ISZERO PUSH2 0x10 JUMPI PUSH1 0x0 DUP1 REVERT JUMPDEST POP PUSH1 0x4 CALLDATASIZE LT PUSH2 0x62 JUMPI PUSH1 0x0 CALLDATALOAD PUSH1 0xE0 SHR DUP1 PUSH4 0x3F3084B EQ PUSH2 0x67 JUMPI DUP1 PUSH4 0xC62C939 EQ PUSH2 0x83 JUMPI DUP1 PUSH4 0x4A2F82F8 EQ PUSH2 0xB3 JUMPI DUP1 PUSH4 0x52BD0FA3 EQ PUSH2 0xE3 JUMPI DUP1 PUSH4 0x68C4C760 EQ PUSH2 0x113 JUMPI DUP1 PUSH4 0x76E1677E EQ PUSH2 0x143 JUMPI JUMPDEST PUSH1 0x0 DUP1 REVERT JUMPDEST PUSH2 0x81 PUSH1 0x4 DUP1 CALLDATASIZE SUB DUP2 ADD SWAP1 PUSH2 0x7C SWAP2 SWAP1 PUSH2 0x378 JUMP JUMPDEST PUSH2 0x173 JUMP JUMPDEST STOP JUMPDEST PUSH2 0x9D PUSH1 0x4 DUP1 CALLDATASIZE SUB DUP2 ADD SWAP1 PUSH2 0x98 SWAP2 SWAP1 PUSH2 0x40A JUMP JUMPDEST PUSH2 0x19E JUMP JUMPDEST PUSH1 0x40 MLOAD PUSH2 0xAA SWAP2 SWAP1 PUSH2 0x4A6 JUMP JUMPDEST PUSH1 0x40 MLOAD DUP1 SWAP2 SUB SWAP1 RETURN JUMPDEST PUSH2 0xCD PUSH1 0x4 DUP1 CALLDATASIZE SUB DUP2 ADD SWAP1 PUSH2 0xC8 SWAP2 SWAP1 PUSH2 0x378 JUMP JUMPDEST PUSH2 0x25A JUMP JUMPDEST PUSH1 0x40 MLOAD PUSH2 0xDA SWAP2 SWAP1 PUSH2 0x4DA JUMP JUMPDEST PUSH1 0x40 MLOAD DUP1 SWAP2 SUB SWAP1 RETURN JUMPDEST PUSH2 0xFD PUSH1 0x4 DUP1 CALLDATASIZE SUB DUP2 ADD SWAP1 PUSH2 0xF8 SWAP2 SWAP1 PUSH2 0x521 JUMP JUMPDEST PUSH2 0x2A1 JUMP JUMPDEST PUSH1 0x40 MLOAD PUSH2 0x10A SWAP2 SWAP1 PUSH2 0x57A JUMP JUMPDEST PUSH1 0x40 MLOAD DUP1 SWAP2 SUB SWAP1 RETURN JUMPDEST PUSH2 0x12D PUSH1 0x4 DUP1 CALLDATASIZE SUB DUP2 ADD SWAP1 PUSH2 0x128 SWAP2 SWAP1 PUSH2 0x378 JUMP JUMPDEST PUSH2 0x2D0 JUMP JUMPDEST PUSH1 0x40 MLOAD PUSH2 0x13A SWAP2 SWAP1 PUSH2 0x4DA JUMP JUMPDEST PUSH1 0x40 MLOAD DUP1 SWAP2 SUB SWAP1 RETURN JUMPDEST PUSH2 0x15D PUSH1 0x4 DUP1 CALLDATASIZE SUB DUP2 ADD SWAP1 PUSH2 0x158 SWAP2 SWAP1 PUSH2 0x378 JUMP JUMPDEST PUSH2 0x2F5 JUMP JUMPDEST PUSH1 0x40 MLOAD PUSH2 0x16A SWAP2 SWAP1 PUSH2 0x4DA JUMP JUMPDEST PUSH1 0x40 MLOAD DUP1 SWAP2 SUB SWAP1 RETURN JUMPDEST PUSH4 0x4018D9AA PUSH1 0x0 MSTORE PUSH2 0x3E7 PUSH1 0x20 MSTORE PUSH1 0x0 DUP1 PUSH1 0x20 PUSH1 0x1C ADD PUSH1 0x1C PUSH1 0x0 DUP6 GAS CALL DUP1 PUSH2 0x19A JUMPI PUSH1 0x0 DUP1 REVERT JUMPDEST POP POP JUMP JUMPDEST PUSH1 0x0 DUP3 DUP3 SWAP1 POP DUP6 DUP6 SWAP1 POP SUB PUSH2 0x1E8 JUMPI PUSH1 0x40 MLOAD PUSH32 0x8C379A000000000000000000000000000000000000000000000000000000000 DUP2 MSTORE PUSH1 0x4 ADD PUSH2 0x1DF SWAP1 PUSH2 0x5F2 JUMP JUMPDEST PUSH1 0x40 MLOAD DUP1 SWAP2 SUB SWAP1 REVERT JUMPDEST PUSH1 0x0 JUMPDEST DUP6 DUP6 SWAP1 POP DUP2 LT ISZERO PUSH2 0x24C JUMPI DUP4 DUP4 DUP3 DUP2 DUP2 LT PUSH2 0x209 JUMPI PUSH2 0x208 PUSH2 0x612 JUMP JUMPDEST JUMPDEST SWAP1 POP PUSH1 0x20 MUL ADD CALLDATALOAD DUP7 DUP7 DUP4 DUP2 DUP2 LT PUSH2 0x223 JUMPI PUSH2 0x222 PUSH2 0x612 JUMP JUMPDEST JUMPDEST SWAP1 POP PUSH1 0x20 MUL ADD CALLDATALOAD EQ PUSH2 0x239 JUMPI PUSH1 0x0 SWAP2 POP POP PUSH2 0x252 JUMP JUMPDEST DUP1 DUP1 PUSH2 0x244 SWAP1 PUSH2 0x670 JUMP JUMPDEST SWAP2 POP POP PUSH2 0x1EB JUMP JUMPDEST POP PUSH1 0x1 SWAP1 POP JUMPDEST SWAP5 SWAP4 POP POP POP POP JUMP JUMPDEST PUSH1 0x0 PUSH1 0x40 MLOAD DUP1 PUSH4 0x196E6D84 DUP3 MSTORE PUSH1 0x3 PUSH1 0x20 DUP4 ADD MSTORE PUSH1 0xB PUSH1 0x40 DUP4 ADD MSTORE PUSH1 0x60 DUP3 ADD PUSH1 0x40 MSTORE PUSH1 0x20 PUSH1 0x0 PUSH1 0x40 MLOAD PUSH1 0x1C DUP6 ADD DUP8 GAS STATICCALL DUP1 PUSH2 0x294 JUMPI PUSH1 0x0 DUP1 REVERT JUMPDEST PUSH1 0x0 MLOAD SWAP4 POP POP POP POP SWAP2 SWAP1 POP JUMP JUMPDEST PUSH1 0x0 PUSH4 0x7C70B4DB PUSH1 0x0 MSTORE DUP2 PUSH1 0x20 MSTORE PUSH1 0x0 DUP1 PUSH1 0x20 PUSH1 0x1C ADD PUSH1 0x1C DUP7 GAS STATICCALL DUP1 PUSH2 0x2C6 JUMPI PUSH1 0x0 DUP1 REVERT JUMPDEST RETURNDATASIZE PUSH1 0x0 DUP1 RETURNDATACOPY RETURNDATASIZE PUSH1 0x0 RETURN JUMPDEST PUSH1 0x0 PUSH4 0x9A884BDE PUSH1 0x0 MSTORE PUSH1 0x20 PUSH1 0x0 PUSH1 0x1E PUSH1 0x1C DUP6 GAS STATICCALL DUP1 PUSH2 0x2EF JUMPI PUSH1 0x0 DUP1 REVERT JUMPDEST PUSH1 0x20 PUSH1 0x0 RETURN JUMPDEST PUSH1 0x0 PUSH4 0x73712595 PUSH1 0x0 MSTORE PUSH1 0x20 PUSH1 0x0 PUSH1 0x20 PUSH1 0x1C DUP6 GAS STATICCALL PUSH1 0x20 PUSH1 0x0 RETURN JUMPDEST PUSH1 0x0 DUP1 REVERT JUMPDEST PUSH1 0x0 DUP1 REVERT JUMPDEST PUSH1 0x0 PUSH20 0xFFFFFFFFFFFFFFFFFFFFFFFFFFFFFFFFFFFFFFFF DUP3 AND SWAP1 POP SWAP2 SWAP1 POP JUMP JUMPDEST PUSH1 0x0 PUSH2 0x345 DUP3 PUSH2 0x31A JUMP JUMPDEST SWAP1 POP SWAP2 SWAP1 POP JUMP JUMPDEST PUSH2 0x355 DUP2 PUSH2 0x33A JUMP JUMPDEST DUP2 EQ PUSH2 0x360 JUMPI PUSH1 0x0 DUP1 REVERT JUMPDEST POP JUMP JUMPDEST PUSH1 0x0 DUP2 CALLDATALOAD SWAP1 POP PUSH2 0x372 DUP2 PUSH2 0x34C JUMP JUMPDEST SWAP3 SWAP2 POP POP JUMP JUMPDEST PUSH1 0x0 PUSH1 0x20 DUP3 DUP5 SUB SLT ISZERO PUSH2 0x38E JUMPI PUSH2 0x38D PUSH2 0x310 JUMP JUMPDEST JUMPDEST PUSH1 0x0 PUSH2 0x39C DUP5 DUP3 DUP6 ADD PUSH2 0x363 JUMP JUMPDEST SWAP2 POP POP SWAP3 SWAP2 POP POP JUMP JUMPDEST PUSH1 0x0 DUP1 REVERT JUMPDEST PUSH1 0x0 DUP1 REVERT JUMPDEST PUSH1 0x0 DUP1 REVERT JUMPDEST PUSH1 0x0 DUP1 DUP4 PUSH1 0x1F DUP5 ADD SLT PUSH2 0x3CA JUMPI PUSH2 0x3C9 PUSH2 0x3A5 JUMP JUMPDEST JUMPDEST DUP3 CALLDATALOAD SWAP1 POP PUSH8 0xFFFFFFFFFFFFFFFF DUP2 GT ISZERO PUSH2 0x3E7 JUMPI PUSH2 0x3E6 PUSH2 0x3AA JUMP JUMPDEST JUMPDEST PUSH1 0x20 DUP4 ADD SWAP2 POP DUP4 PUSH1 0x20 DUP3 MUL DUP4 ADD GT ISZERO PUSH2 0x403 JUMPI PUSH2 0x402 PUSH2 0x3AF JUMP JUMPDEST JUMPDEST SWAP3 POP SWAP3 SWAP1 POP JUMP JUMPDEST PUSH1 0x0 DUP1 PUSH1 0x0 DUP1 PUSH1 0x40 DUP6 DUP8 SUB SLT ISZERO PUSH2 0x424 JUMPI PUSH2 0x423 PUSH2 0x310 JUMP JUMPDEST JUMPDEST PUSH1 0x0 DUP6 ADD CALLDATALOAD PUSH8 0xFFFFFFFFFFFFFFFF DUP2 GT ISZERO PUSH2 0x442 JUMPI PUSH2 0x441 PUSH2 0x315 JUMP JUMPDEST JUMPDEST PUSH2 0x44E DUP8 DUP3 DUP9 ADD PUSH2 0x3B4 JUMP JUMPDEST SWAP5 POP SWAP5 POP POP PUSH1 0x20 DUP6 ADD CALLDATALOAD PUSH8 0xFFFFFFFFFFFFFFFF DUP2 GT ISZERO PUSH2 0x471 JUMPI PUSH2 0x470 PUSH2 0x315 JUMP JUMPDEST JUMPDEST PUSH2 0x47D DUP8 DUP3 DUP9 ADD PUSH2 0x3B4 JUMP JUMPDEST SWAP3 POP SWAP3 POP POP SWAP3 SWAP6 SWAP2 SWAP5 POP SWAP3 POP JUMP JUMPDEST PUSH1 0x0 DUP2 ISZERO ISZERO SWAP1 POP SWAP2 SWAP1 POP JUMP JUMPDEST PUSH2 0x4A0 DUP2 PUSH2 0x48B JUMP JUMPDEST DUP3 MSTORE POP POP JUMP JUMPDEST PUSH1 0x0 PUSH1 0x20 DUP3 ADD SWAP1 POP PUSH2 0x4BB PUSH1 0x0 DUP4 ADD DUP5 PUSH2 0x497 JUMP JUMPDEST SWAP3 SWAP2 POP POP JUMP JUMPDEST PUSH1 0x0 DUP2 SWAP1 POP SWAP2 SWAP1 POP JUMP JUMPDEST PUSH2 0x4D4 DUP2 PUSH2 0x4C1 JUMP JUMPDEST DUP3 MSTORE POP POP JUMP JUMPDEST PUSH1 0x0 PUSH1 0x20 DUP3 ADD SWAP1 POP PUSH2 0x4EF PUSH1 0x0 DUP4 ADD DUP5 PUSH2 0x4CB JUMP JUMPDEST SWAP3 SWAP2 POP POP JUMP JUMPDEST PUSH2 0x4FE DUP2 PUSH2 0x4C1 JUMP JUMPDEST DUP2 EQ PUSH2 0x509 JUMPI PUSH1 0x0 DUP1 REVERT JUMPDEST POP JUMP JUMPDEST PUSH1 0x0 DUP2 CALLDATALOAD SWAP1 POP PUSH2 0x51B DUP2 PUSH2 0x4F5 JUMP JUMPDEST SWAP3 SWAP2 POP POP JUMP JUMPDEST PUSH1 0x0 DUP1 PUSH1 0x40 DUP4 DUP6 SUB SLT ISZERO PUSH2 0x538 JUMPI PUSH2 0x537 PUSH2 0x310 JUMP JUMPDEST JUMPDEST PUSH1 0x0 PUSH2 0x546 DUP6 DUP3 DUP7 ADD PUSH2 0x363 JUMP JUMPDEST SWAP3 POP POP PUSH1 0x20 PUSH2 0x557 DUP6 DUP3 DUP7 ADD PUSH2 0x50C JUMP JUMPDEST SWAP2 POP POP SWAP3 POP SWAP3 SWAP1 POP JUMP JUMPDEST PUSH1 0x0 DUP2 SWAP1 POP SWAP2 SWAP1 POP JUMP JUMPDEST PUSH2 0x574 DUP2 PUSH2 0x561 JUMP JUMPDEST DUP3 MSTORE POP POP JUMP JUMPDEST PUSH1 0x0 PUSH1 0x20 DUP3 ADD SWAP1 POP PUSH2 0x58F PUSH1 0x0 DUP4 ADD DUP5 PUSH2 0x56B JUMP JUMPDEST SWAP3 SWAP2 POP POP JUMP JUMPDEST PUSH1 0x0 DUP3 DUP3 MSTORE PUSH1 0x20 DUP3 ADD SWAP1 POP SWAP3 SWAP2 POP POP JUMP JUMPDEST PUSH32 0x696E76616C696400000000000000000000000000000000000000000000000000 PUSH1 0x0 DUP3 ADD MSTORE POP JUMP JUMPDEST PUSH1 0x0 PUSH2 0x5DC PUSH1 0x7 DUP4 PUSH2 0x595 JUMP JUMPDEST SWAP2 POP PUSH2 0x5E7 DUP3 PUSH2 0x5A6 JUMP JUMPDEST PUSH1 0x20 DUP3 ADD SWAP1 POP SWAP2 SWAP1 POP JUMP JUMPDEST PUSH1 0x0 PUSH1 0x20 DUP3 ADD SWAP1 POP DUP2 DUP2 SUB PUSH1 0x0 DUP4 ADD MSTORE PUSH2 0x60B DUP2 PUSH2 0x5CF JUMP JUMPDEST SWAP1 POP SWAP2 SWAP1 POP JUMP JUMPDEST PUSH32 0x4E487B7100000000000000000000000000000000000000000000000000000000 PUSH1 0x0 MSTORE PUSH1 0x32 PUSH1 0x4 MSTORE PUSH1 0x24 PUSH1 0x0 REVERT JUMPDEST PUSH32 0x4E487B7100000000000000000000000000000000000000000000000000000000 PUSH1 0x0 MSTORE PUSH1 0x11 PUSH1 0x4 MSTORE PUSH1 0x24 PUSH1 0x0 REVERT JUMPDEST PUSH1 0x0 PUSH2 0x67B DUP3 PUSH2 0x4C1 JUMP JUMPDEST SWAP2 POP PUSH32 0xFFFFFFFFFFFFFFFFFFFFFFFFFFFFFFFFFFFFFFFFFFFFFFFFFFFFFFFFFFFFFFFF DUP3 SUB PUSH2 0x6AD JUMPI PUSH2 0x6AC PUSH2 0x641 JUMP JUMPDEST JUMPDEST PUSH1 0x1 DUP3 ADD SWAP1 POP SWAP2 SWAP1 POP JUMP INVALID LOG2 PUSH5 0x6970667358 0x22 SLT KECCAK256 0xA5 0xE0 SDIV EXP DUP13 MSTORE8 CODECOPY 0xC8 DUP13 MULMOD CREATE BLOCKHASH LOG2 0xE 0xD3 SWAP9 SWAP10 SSTORE PUSH20 0x55412E0E200466704BF00EC8DA64736F6C634300 ADDMOD GT STOP CALLER "
		},
		"gasEstimates": {
			"creation": {
				"codeDepositCost": "354800",
				"executionCost": "393",
				"totalCost": "355193"
			},
			"external": {
				"callMultiply(address)": "infinite",
				"externalStateChangingCall(address)": "infinite",
				"externalViewCallNoArgs(address)": "infinite",
				"getViaRevert(address)": "infinite",
				"multiplyVariablelength(uint256[],uint256[])": "infinite",
				"unknownReturnSize(address,uint256)": "infinite"
			}
		},
		"methodIdentifiers": {
			"callMultiply(address)": "4a2f82f8",
			"externalStateChangingCall(address)": "03f3084b",
			"externalViewCallNoArgs(address)": "68c4c760",
			"getViaRevert(address)": "76e1677e",
			"multiplyVariablelength(uint256[],uint256[])": "0c62c939",
			"unknownReturnSize(address,uint256)": "52bd0fa3"
		}
	},
	"abi": [
		{
			"inputs": [
				{
					"internalType": "address",
					"name": "_a",
					"type": "address"
				}
			],
			"name": "callMultiply",
			"outputs": [
				{
					"internalType": "uint256",
					"name": "result",
					"type": "uint256"
				}
			],
			"stateMutability": "view",
			"type": "function"
		},
		{
			"inputs": [
				{
					"internalType": "address",
					"name": "_a",
					"type": "address"
				}
			],
			"name": "externalStateChangingCall",
			"outputs": [],
			"stateMutability": "nonpayable",
			"type": "function"
		},
		{
			"inputs": [
				{
					"internalType": "address",
					"name": "_a",
					"type": "address"
				}
			],
			"name": "externalViewCallNoArgs",
			"outputs": [
				{
					"internalType": "uint256",
					"name": "",
					"type": "uint256"
				}
			],
			"stateMutability": "view",
			"type": "function"
		},
		{
			"inputs": [
				{
					"internalType": "address",
					"name": "_a",
					"type": "address"
				}
			],
			"name": "getViaRevert",
			"outputs": [
				{
					"internalType": "uint256",
					"name": "",
					"type": "uint256"
				}
			],
			"stateMutability": "view",
			"type": "function"
		},
		{
			"inputs": [
				{
					"internalType": "uint256[]",
					"name": "data1",
					"type": "uint256[]"
				},
				{
					"internalType": "uint256[]",
					"name": "data2",
					"type": "uint256[]"
				}
			],
			"name": "multiplyVariablelength",
			"outputs": [
				{
					"internalType": "bool",
					"name": "",
					"type": "bool"
				}
			],
			"stateMutability": "pure",
			"type": "function"
		},
		{
			"inputs": [
				{
					"internalType": "address",
					"name": "_a",
					"type": "address"
				},
				{
					"internalType": "uint256",
					"name": "amount",
					"type": "uint256"
				}
			],
			"name": "unknownReturnSize",
			"outputs": [
				{
					"internalType": "bytes32",
					"name": "",
					"type": "bytes32"
				}
			],
			"stateMutability": "view",
			"type": "function"
		}
	]
}