{
	"data": {
		"bytecode": {
			"linkReferences": {},
			"object": "608060405234801561001057600080fd5b50610345806100206000396000f3fe608060405234801561001057600080fd5b50600436106100885760003560e01c80638a42e16c1161005b5780638a42e16c14610117578063aa40eb1414610135578063f3893f2714610153578063fc27de121461017157610088565b8063336c96f81461008d57806341f563e3146100ab5780635f0d90c6146100c95780636d5433e6146100e7575b600080fd5b61009561018f565b6040516100a2919061024f565b60405180910390f35b6100b36101a3565b6040516100c0919061024f565b60405180910390f35b6100d16101b8565b6040516100de919061024f565b60405180910390f35b61010160048036038101906100fc919061029b565b6101cd565b60405161010e919061024f565b60405180910390f35b61011f6101ec565b60405161012c91906102f4565b60405180910390f35b61013d6101f6565b60405161014a919061024f565b60405180910390f35b61015b61020c565b604051610168919061024f565b60405180910390f35b610179610222565b604051610186919061024f565b60405180910390f35b60006001905060006101a057600290505b90565b6000600190506002156101b557600290505b90565b6000600190506000156101ca57600290505b90565b6000818310156101db578190505b8183106101e6578290505b92915050565b6000600219905090565b6000600190506002191561020957600290505b90565b6000600190506000191561021f57600290505b90565b600060019050600261023357600290505b90565b6000819050919050565b61024981610236565b82525050565b60006020820190506102646000830184610240565b92915050565b600080fd5b61027881610236565b811461028357600080fd5b50565b6000813590506102958161026f565b92915050565b600080604083850312156102b2576102b161026a565b5b60006102c085828601610286565b92505060206102d185828601610286565b9150509250929050565b6000819050919050565b6102ee816102db565b82525050565b600060208201905061030960008301846102e5565b9291505056fea2646970667358221220c0630a22fc62283c3846170be7191cababf9dc3e09171897d218b8107b747ca464736f6c63430008110033",
			"opcodes": "PUSH1 0x80 PUSH1 0x40 MSTORE CALLVALUE DUP1 ISZERO PUSH2 0x10 JUMPI PUSH1 0x0 DUP1 REVERT JUMPDEST POP PUSH2 0x345 DUP1 PUSH2 0x20 PUSH1 0x0 CODECOPY PUSH1 0x0 RETURN INVALID PUSH1 0x80 PUSH1 0x40 MSTORE CALLVALUE DUP1 ISZERO PUSH2 0x10 JUMPI PUSH1 0x0 DUP1 REVERT JUMPDEST POP PUSH1 0x4 CALLDATASIZE LT PUSH2 0x88 JUMPI PUSH1 0x0 CALLDATALOAD PUSH1 0xE0 SHR DUP1 PUSH4 0x8A42E16C GT PUSH2 0x5B JUMPI DUP1 PUSH4 0x8A42E16C EQ PUSH2 0x117 JUMPI DUP1 PUSH4 0xAA40EB14 EQ PUSH2 0x135 JUMPI DUP1 PUSH4 0xF3893F27 EQ PUSH2 0x153 JUMPI DUP1 PUSH4 0xFC27DE12 EQ PUSH2 0x171 JUMPI PUSH2 0x88 JUMP JUMPDEST DUP1 PUSH4 0x336C96F8 EQ PUSH2 0x8D JUMPI DUP1 PUSH4 0x41F563E3 EQ PUSH2 0xAB JUMPI DUP1 PUSH4 0x5F0D90C6 EQ PUSH2 0xC9 JUMPI DUP1 PUSH4 0x6D5433E6 EQ PUSH2 0xE7 JUMPI JUMPDEST PUSH1 0x0 DUP1 REVERT JUMPDEST PUSH2 0x95 PUSH2 0x18F JUMP JUMPDEST PUSH1 0x40 MLOAD PUSH2 0xA2 SWAP2 SWAP1 PUSH2 0x24F JUMP JUMPDEST PUSH1 0x40 MLOAD DUP1 SWAP2 SUB SWAP1 RETURN JUMPDEST PUSH2 0xB3 PUSH2 0x1A3 JUMP JUMPDEST PUSH1 0x40 MLOAD PUSH2 0xC0 SWAP2 SWAP1 PUSH2 0x24F JUMP JUMPDEST PUSH1 0x40 MLOAD DUP1 SWAP2 SUB SWAP1 RETURN JUMPDEST PUSH2 0xD1 PUSH2 0x1B8 JUMP JUMPDEST PUSH1 0x40 MLOAD PUSH2 0xDE SWAP2 SWAP1 PUSH2 0x24F JUMP JUMPDEST PUSH1 0x40 MLOAD DUP1 SWAP2 SUB SWAP1 RETURN JUMPDEST PUSH2 0x101 PUSH1 0x4 DUP1 CALLDATASIZE SUB DUP2 ADD SWAP1 PUSH2 0xFC SWAP2 SWAP1 PUSH2 0x29B JUMP JUMPDEST PUSH2 0x1CD JUMP JUMPDEST PUSH1 0x40 MLOAD PUSH2 0x10E SWAP2 SWAP1 PUSH2 0x24F JUMP JUMPDEST PUSH1 0x40 MLOAD DUP1 SWAP2 SUB SWAP1 RETURN JUMPDEST PUSH2 0x11F PUSH2 0x1EC JUMP JUMPDEST PUSH1 0x40 MLOAD PUSH2 0x12C SWAP2 SWAP1 PUSH2 0x2F4 JUMP JUMPDEST PUSH1 0x40 MLOAD DUP1 SWAP2 SUB SWAP1 RETURN JUMPDEST PUSH2 0x13D PUSH2 0x1F6 JUMP JUMPDEST PUSH1 0x40 MLOAD PUSH2 0x14A SWAP2 SWAP1 PUSH2 0x24F JUMP JUMPDEST PUSH1 0x40 MLOAD DUP1 SWAP2 SUB SWAP1 RETURN JUMPDEST PUSH2 0x15B PUSH2 0x20C JUMP JUMPDEST PUSH1 0x40 MLOAD PUSH2 0x168 SWAP2 SWAP1 PUSH2 0x24F JUMP JUMPDEST PUSH1 0x40 MLOAD DUP1 SWAP2 SUB SWAP1 RETURN JUMPDEST PUSH2 0x179 PUSH2 0x222 JUMP JUMPDEST PUSH1 0x40 MLOAD PUSH2 0x186 SWAP2 SWAP1 PUSH2 0x24F JUMP JUMPDEST PUSH1 0x40 MLOAD DUP1 SWAP2 SUB SWAP1 RETURN JUMPDEST PUSH1 0x0 PUSH1 0x1 SWAP1 POP PUSH1 0x0 PUSH2 0x1A0 JUMPI PUSH1 0x2 SWAP1 POP JUMPDEST SWAP1 JUMP JUMPDEST PUSH1 0x0 PUSH1 0x1 SWAP1 POP PUSH1 0x2 ISZERO PUSH2 0x1B5 JUMPI PUSH1 0x2 SWAP1 POP JUMPDEST SWAP1 JUMP JUMPDEST PUSH1 0x0 PUSH1 0x1 SWAP1 POP PUSH1 0x0 ISZERO PUSH2 0x1CA JUMPI PUSH1 0x2 SWAP1 POP JUMPDEST SWAP1 JUMP JUMPDEST PUSH1 0x0 DUP2 DUP4 LT ISZERO PUSH2 0x1DB JUMPI DUP2 SWAP1 POP JUMPDEST DUP2 DUP4 LT PUSH2 0x1E6 JUMPI DUP3 SWAP1 POP JUMPDEST SWAP3 SWAP2 POP POP JUMP JUMPDEST PUSH1 0x0 PUSH1 0x2 NOT SWAP1 POP SWAP1 JUMP JUMPDEST PUSH1 0x0 PUSH1 0x1 SWAP1 POP PUSH1 0x2 NOT ISZERO PUSH2 0x209 JUMPI PUSH1 0x2 SWAP1 POP JUMPDEST SWAP1 JUMP JUMPDEST PUSH1 0x0 PUSH1 0x1 SWAP1 POP PUSH1 0x0 NOT ISZERO PUSH2 0x21F JUMPI PUSH1 0x2 SWAP1 POP JUMPDEST SWAP1 JUMP JUMPDEST PUSH1 0x0 PUSH1 0x1 SWAP1 POP PUSH1 0x2 PUSH2 0x233 JUMPI PUSH1 0x2 SWAP1 POP JUMPDEST SWAP1 JUMP JUMPDEST PUSH1 0x0 DUP2 SWAP1 POP SWAP2 SWAP1 POP JUMP JUMPDEST PUSH2 0x249 DUP2 PUSH2 0x236 JUMP JUMPDEST DUP3 MSTORE POP POP JUMP JUMPDEST PUSH1 0x0 PUSH1 0x20 DUP3 ADD SWAP1 POP PUSH2 0x264 PUSH1 0x0 DUP4 ADD DUP5 PUSH2 0x240 JUMP JUMPDEST SWAP3 SWAP2 POP POP JUMP JUMPDEST PUSH1 0x0 DUP1 REVERT JUMPDEST PUSH2 0x278 DUP2 PUSH2 0x236 JUMP JUMPDEST DUP2 EQ PUSH2 0x283 JUMPI PUSH1 0x0 DUP1 REVERT JUMPDEST POP JUMP JUMPDEST PUSH1 0x0 DUP2 CALLDATALOAD SWAP1 POP PUSH2 0x295 DUP2 PUSH2 0x26F JUMP JUMPDEST SWAP3 SWAP2 POP POP JUMP JUMPDEST PUSH1 0x0 DUP1 PUSH1 0x40 DUP4 DUP6 SUB SLT ISZERO PUSH2 0x2B2 JUMPI PUSH2 0x2B1 PUSH2 0x26A JUMP JUMPDEST JUMPDEST PUSH1 0x0 PUSH2 0x2C0 DUP6 DUP3 DUP7 ADD PUSH2 0x286 JUMP JUMPDEST SWAP3 POP POP PUSH1 0x20 PUSH2 0x2D1 DUP6 DUP3 DUP7 ADD PUSH2 0x286 JUMP JUMPDEST SWAP2 POP POP SWAP3 POP SWAP3 SWAP1 POP JUMP JUMPDEST PUSH1 0x0 DUP2 SWAP1 POP SWAP2 SWAP1 POP JUMP JUMPDEST PUSH2 0x2EE DUP2 PUSH2 0x2DB JUMP JUMPDEST DUP3 MSTORE POP POP JUMP JUMPDEST PUSH1 0x0 PUSH1 0x20 DUP3 ADD SWAP1 POP PUSH2 0x309 PUSH1 0x0 DUP4 ADD DUP5 PUSH2 0x2E5 JUMP JUMPDEST SWAP3 SWAP2 POP POP JUMP INVALID LOG2 PUSH5 0x6970667358 0x22 SLT KECCAK256 0xC0 PUSH4 0xA22FC62 0x28 EXTCODECOPY CODESIZE CHAINID OR SIGNEXTEND 0xE7 NOT SHR 0xAB 0xAB 0xF9 0xDC RETURNDATACOPY MULMOD OR XOR SWAP8 0xD2 XOR 0xB8 LT PUSH28 0x747CA464736F6C634300081100330000000000000000000000000000 "
		},
		"gasEstimates": {
			"creation": {
				"codeDepositCost": "167400",
				"executionCost": "214",
				"totalCost": "167614"
			},
			"external": {
				"btFlip()": "340",
				"isFalsy()": "402",
				"isTruthy()": "388",
				"max(uint256,uint256)": "infinite",
				"negation()": "363",
				"safeNegation()": "420",
				"unsafe1NegationPart1()": "412",
				"unsafe2NegationPart2()": "390"
			}
		},
		"methodIdentifiers": {
			"btFlip()": "8a42e16c",
			"isFalsy()": "5f0d90c6",
			"isTruthy()": "41f563e3",
			"max(uint256,uint256)": "6d5433e6",
			"negation()": "336c96f8",
			"safeNegation()": "fc27de12",
			"unsafe1NegationPart1()": "f3893f27",
			"unsafe2NegationPart2()": "aa40eb14"
		}
	},
	"abi": [
		{
			"inputs": [],
			"name": "btFlip",
			"outputs": [
				{
					"internalType": "bytes32",
					"name": "result",
					"type": "bytes32"
				}
			],
			"stateMutability": "pure",
			"type": "function"
		},
		{
			"inputs": [],
			"name": "isFalsy",
			"outputs": [
				{
					"internalType": "uint256",
					"name": "result",
					"type": "uint256"
				}
			],
			"stateMutability": "pure",
			"type": "function"
		},
		{
			"inputs": [],
			"name": "isTruthy",
			"outputs": [
				{
					"internalType": "uint256",
					"name": "result",
					"type": "uint256"
				}
			],
			"stateMutability": "pure",
			"type": "function"
		},
		{
			"inputs": [
				{
					"internalType": "uint256",
					"name": "x",
					"type": "uint256"
				},
				{
					"internalType": "uint256",
					"name": "y",
					"type": "uint256"
				}
			],
			"name": "max",
			"outputs": [
				{
					"internalType": "uint256",
					"name": "maximum",
					"type": "uint256"
				}
			],
			"stateMutability": "pure",
			"type": "function"
		},
		{
			"inputs": [],
			"name": "negation",
			"outputs": [
				{
					"internalType": "uint256",
					"name": "result",
					"type": "uint256"
				}
			],
			"stateMutability": "pure",
			"type": "function"
		},
		{
			"inputs": [],
			"name": "safeNegation",
			"outputs": [
				{
					"internalType": "uint256",
					"name": "result",
					"type": "uint256"
				}
			],
			"stateMutability": "pure",
			"type": "function"
		},
		{
			"inputs": [],
			"name": "unsafe1NegationPart1",
			"outputs": [
				{
					"internalType": "uint256",
					"name": "result",
					"type": "uint256"
				}
			],
			"stateMutability": "pure",
			"type": "function"
		},
		{
			"inputs": [],
			"name": "unsafe2NegationPart2",
			"outputs": [
				{
					"internalType": "uint256",
					"name": "result",
					"type": "uint256"
				}
			],
			"stateMutability": "pure",
			"type": "function"
		}
	]
}