{
	"data": {
		"bytecode": {
			"linkReferences": {},
			"object": "608060405234801561001057600080fd5b506101c9806100206000396000f3fe608060405234801561001057600080fd5b50600436106100575760003560e01c806330579d1d1461005c5780636e283186146100665780639822787114610070578063a169ce091461007a578063f42c13bf14610084575b600080fd5b61006461008e565b005b61006e6100bb565b005b6100786100f7565b005b610082610128565b005b61008c61012b565b005b7fc200138117cf199dd335a2c6079a6e1be01e6592b6a76d4b5fc31b169df819cc6006600582600080a350565b60057f113cea0e4d6903d772af04edb841b17a164bff0f0d88609aedd1c4ac9b0c15c260016040516100ed9190610178565b60405180910390a2565b7febeabbff312b09e30e77766b2c0497807c7527b6284562feb3f232a1aef09866600160005260058160206000a250565b33ff5b600660057fc200138117cf199dd335a2c6079a6e1be01e6592b6a76d4b5fc31b169df819cc60405160405180910390a3565b60008115159050919050565b6101728161015d565b82525050565b600060208201905061018d6000830184610169565b9291505056fea26469706673582212205cc43c1a9321c71a8f3eb96b189894c21bc1f8efaaa257d1df253fc9d37fe70f64736f6c63430008100033",
			"opcodes": "PUSH1 0x80 PUSH1 0x40 MSTORE CALLVALUE DUP1 ISZERO PUSH2 0x10 JUMPI PUSH1 0x0 DUP1 REVERT JUMPDEST POP PUSH2 0x1C9 DUP1 PUSH2 0x20 PUSH1 0x0 CODECOPY PUSH1 0x0 RETURN INVALID PUSH1 0x80 PUSH1 0x40 MSTORE CALLVALUE DUP1 ISZERO PUSH2 0x10 JUMPI PUSH1 0x0 DUP1 REVERT JUMPDEST POP PUSH1 0x4 CALLDATASIZE LT PUSH2 0x57 JUMPI PUSH1 0x0 CALLDATALOAD PUSH1 0xE0 SHR DUP1 PUSH4 0x30579D1D EQ PUSH2 0x5C JUMPI DUP1 PUSH4 0x6E283186 EQ PUSH2 0x66 JUMPI DUP1 PUSH4 0x98227871 EQ PUSH2 0x70 JUMPI DUP1 PUSH4 0xA169CE09 EQ PUSH2 0x7A JUMPI DUP1 PUSH4 0xF42C13BF EQ PUSH2 0x84 JUMPI JUMPDEST PUSH1 0x0 DUP1 REVERT JUMPDEST PUSH2 0x64 PUSH2 0x8E JUMP JUMPDEST STOP JUMPDEST PUSH2 0x6E PUSH2 0xBB JUMP JUMPDEST STOP JUMPDEST PUSH2 0x78 PUSH2 0xF7 JUMP JUMPDEST STOP JUMPDEST PUSH2 0x82 PUSH2 0x128 JUMP JUMPDEST STOP JUMPDEST PUSH2 0x8C PUSH2 0x12B JUMP JUMPDEST STOP JUMPDEST PUSH32 0xC200138117CF199DD335A2C6079A6E1BE01E6592B6A76D4B5FC31B169DF819CC PUSH1 0x6 PUSH1 0x5 DUP3 PUSH1 0x0 DUP1 LOG3 POP JUMP JUMPDEST PUSH1 0x5 PUSH32 0x113CEA0E4D6903D772AF04EDB841B17A164BFF0F0D88609AEDD1C4AC9B0C15C2 PUSH1 0x1 PUSH1 0x40 MLOAD PUSH2 0xED SWAP2 SWAP1 PUSH2 0x178 JUMP JUMPDEST PUSH1 0x40 MLOAD DUP1 SWAP2 SUB SWAP1 LOG2 JUMP JUMPDEST PUSH32 0xEBEABBFF312B09E30E77766B2C0497807C7527B6284562FEB3F232A1AEF09866 PUSH1 0x1 PUSH1 0x0 MSTORE PUSH1 0x5 DUP2 PUSH1 0x20 PUSH1 0x0 LOG2 POP JUMP JUMPDEST CALLER SELFDESTRUCT JUMPDEST PUSH1 0x6 PUSH1 0x5 PUSH32 0xC200138117CF199DD335A2C6079A6E1BE01E6592B6A76D4B5FC31B169DF819CC PUSH1 0x40 MLOAD PUSH1 0x40 MLOAD DUP1 SWAP2 SUB SWAP1 LOG3 JUMP JUMPDEST PUSH1 0x0 DUP2 ISZERO ISZERO SWAP1 POP SWAP2 SWAP1 POP JUMP JUMPDEST PUSH2 0x172 DUP2 PUSH2 0x15D JUMP JUMPDEST DUP3 MSTORE POP POP JUMP JUMPDEST PUSH1 0x0 PUSH1 0x20 DUP3 ADD SWAP1 POP PUSH2 0x18D PUSH1 0x0 DUP4 ADD DUP5 PUSH2 0x169 JUMP JUMPDEST SWAP3 SWAP2 POP POP JUMP INVALID LOG2 PUSH5 0x6970667358 0x22 SLT KECCAK256 0x5C 0xC4 EXTCODECOPY BYTE SWAP4 0x21 0xC7 BYTE DUP16 RETURNDATACOPY 0xB9 PUSH12 0x189894C21BC1F8EFAAA257D1 0xDF 0x25 EXTCODEHASH 0xC9 0xD3 PUSH32 0xE70F64736F6C6343000810003300000000000000000000000000000000000000 "
		},
		"gasEstimates": {
			"creation": {
				"codeDepositCost": "91400",
				"executionCost": "141",
				"totalCost": "91541"
			},
			"external": {
				"boom()": "27781",
				"emitLog()": "1743",
				"v2EmitLog()": "1719",
				"v2YulEmitLog()": "1573",
				"yulEmitLog()": "1642"
			}
		},
		"methodIdentifiers": {
			"boom()": "a169ce09",
			"emitLog()": "f42c13bf",
			"v2EmitLog()": "6e283186",
			"v2YulEmitLog()": "98227871",
			"yulEmitLog()": "30579d1d"
		}
	},
	"abi": [
		{
			"anonymous": false,
			"inputs": [
				{
					"indexed": true,
					"internalType": "uint256",
					"name": "a",
					"type": "uint256"
				},
				{
					"indexed": true,
					"internalType": "uint256",
					"name": "b",
					"type": "uint256"
				}
			],
			"name": "SomeLog",
			"type": "event"
		},
		{
			"anonymous": false,
			"inputs": [
				{
					"indexed": true,
					"internalType": "uint256",
					"name": "a",
					"type": "uint256"
				},
				{
					"indexed": false,
					"internalType": "bool",
					"name": "",
					"type": "bool"
				}
			],
			"name": "SomeLogV2",
			"type": "event"
		},
		{
			"inputs": [],
			"name": "boom",
			"outputs": [],
			"stateMutability": "nonpayable",
			"type": "function"
		},
		{
			"inputs": [],
			"name": "emitLog",
			"outputs": [],
			"stateMutability": "nonpayable",
			"type": "function"
		},
		{
			"inputs": [],
			"name": "v2EmitLog",
			"outputs": [],
			"stateMutability": "nonpayable",
			"type": "function"
		},
		{
			"inputs": [],
			"name": "v2YulEmitLog",
			"outputs": [],
			"stateMutability": "nonpayable",
			"type": "function"
		},
		{
			"inputs": [],
			"name": "yulEmitLog",
			"outputs": [],
			"stateMutability": "nonpayable",
			"type": "function"
		}
	]
}