{
	"data": {
		"bytecode": {
			"linkReferences": {},
			"object": "60806040526040518060c00160405280600160ff168152602001600260ff168152602001600360ff168152602001600460ff168152602001600560ff168152602001600660ff16815250600090600661005992919061006c565b5034801561006657600080fd5b50610130565b82805482825590600052602060002090601f016020900481019282156101025791602002820160005b838211156100d357835183826101000a81548160ff021916908360ff1602179055509260200192600101602081600001049283019260010302610095565b80156101005782816101000a81549060ff02191690556001016020816000010492830192600103026100d3565b505b50905061010f9190610113565b5090565b5b8082111561012c576000816000905550600101610114565b5090565b610c818061013f6000396000f3fe608060405234801561001057600080fd5b50600436106100b45760003560e01c8063c262325e11610071578063c262325e146100f5578063c89aa0ba146100ff578063ccd8dfc314610109578063e13ca35d14610139578063f840b4c914610155578063fbc633861461015f576100b4565b80632695d291146100b9578063391e2457146100c35780633a8ad96c146100cd57806376d04cf2146100d7578063aa6490ef146100e1578063bd8b04e5146100eb575b600080fd5b6100c1610169565b005b6100cb610175565b005b6100d561020e565b005b6100df6102b0565b005b6100e961032d565b005b6100f36103cd565b005b6100fd61046f565b005b61010761047c565b005b610123600480360381019061011e9190610891565b61051e565b6040516101309190610a43565b60405180910390f35b610153600480360381019061014e91906108be565b61055a565b005b61015d6105b9565b005b6101676106aa565b005b60076000536007600052565b600060405190507fb9c82e5571ddc0c3c64742683f3a1b8fb67e3b5997747e5b8bb81ac61cb9bf40816040516101ab91906109ba565b60405180910390a160006040518060400160405280600281526020016003815250905060405191507fb9c82e5571ddc0c3c64742683f3a1b8fb67e3b5997747e5b8bb81ac61cb9bf408260405161020291906109ba565b60405180910390a15050565b600060405190507fb9c82e5571ddc0c3c64742683f3a1b8fb67e3b5997747e5b8bb81ac61cb9bf408160405161024491906109ba565b60405180910390a160056013604051602001610261929190610a5e565b6040516020818303038152906040525060405190507fb9c82e5571ddc0c3c64742683f3a1b8fb67e3b5997747e5b8bb81ac61cb9bf40816040516102a591906109ba565b60405180910390a150565b60008080548060200260200160405190810160405280929190818152602001828054801561032357602002820191906000526020600020906000905b82829054906101000a900460ff1660ff16815260200190600101906020826000010492830192600103820291508084116102ec5790505b5050505050905050565b600060405190507fb9c82e5571ddc0c3c64742683f3a1b8fb67e3b5997747e5b8bb81ac61cb9bf408160405161036391906109ba565b60405180910390a16000604051806060016040528060018152602001600281526020016003815250905060405191507fb9c82e5571ddc0c3c64742683f3a1b8fb67e3b5997747e5b8bb81ac61cb9bf40826040516103c191906109ba565b60405180910390a15050565b600060405190507fb9c82e5571ddc0c3c64742683f3a1b8fb67e3b5997747e5b8bb81ac61cb9bf408160405161040391906109ba565b60405180910390a16005601360405160200161042092919061098e565b6040516020818303038152906040525060405190507fb9c82e5571ddc0c3c64742683f3a1b8fb67e3b5997747e5b8bb81ac61cb9bf408160405161046491906109ba565b60405180910390a150565b67ffffffffffffffff5150565b600060405190507fb9c82e5571ddc0c3c64742683f3a1b8fb67e3b5997747e5b8bb81ac61cb9bf40816040516104b291906109ba565b60405180910390a1600560136040516020016104cf929190610a87565b6040516020818303038152906040525060405190507fb9c82e5571ddc0c3c64742683f3a1b8fb67e3b5997747e5b8bb81ac61cb9bf408160405161051391906109ba565b60405180910390a150565b6000608060405260006040518060200160405280600681525090508260006001811061054d5761054c610ba4565b5b6020020151915050919050565b6000806000808493508451925060208501519150604085015190507fffba12fce5cbaf13e6e16e52e17f48ab6ec32e5b3cbbc56ffe9d52de74ff1871848484846040516105aa94939291906109fe565b60405180910390a15050505050565b60008060405191505990507fd2aa3925590d66962f2cb580cd67faa1cb802464622ce19f2e4ce121d2cca6f482826040516105f59291906109d5565b60405180910390a16000604051806060016040528060018152602001600281526020016003815250905060405192505991507fd2aa3925590d66962f2cb580cd67faa1cb802464622ce19f2e4ce121d2cca6f483836040516106589291906109d5565b60405180910390a160ff515060405192505991507fd2aa3925590d66962f2cb580cd67faa1cb802464622ce19f2e4ce121d2cca6f4838360405161069d9291906109d5565b60405180910390a1505050565b600060405190507fb9c82e5571ddc0c3c64742683f3a1b8fb67e3b5997747e5b8bb81ac61cb9bf40816040516106e091906109ba565b60405180910390a1600560136040516020016106fd929190610962565b6040516020818303038152906040525060405190507fb9c82e5571ddc0c3c64742683f3a1b8fb67e3b5997747e5b8bb81ac61cb9bf408160405161074191906109ba565b60405180910390a150565b600061075f61075a84610ad5565b610ab0565b9050808285602086028201111561077957610778610c07565b5b60005b858110156107a9578161078f888261087c565b84526020840193506020830192505060018101905061077c565b5050509392505050565b60006107c66107c184610afb565b610ab0565b905080838252602082019050828560208602820111156107e9576107e8610c07565b5b60005b8581101561081957816107ff888261087c565b8452602084019350602083019250506001810190506107ec565b5050509392505050565b600082601f83011261083857610837610c02565b5b600161084584828561074c565b91505092915050565b600082601f83011261086357610862610c02565b5b81356108738482602086016107b3565b91505092915050565b60008135905061088b81610c34565b92915050565b6000602082840312156108a7576108a6610c11565b5b60006108b584828501610823565b91505092915050565b6000602082840312156108d4576108d3610c11565b5b600082013567ffffffffffffffff8111156108f2576108f1610c0c565b5b6108fe8482850161084e565b91505092915050565b61091081610b27565b82525050565b61091f81610b31565b82525050565b61093661093182610b31565b610b88565b82525050565b61094581610b4d565b82525050565b61095c61095782610b4d565b610b9a565b82525050565b600061096e828561094b565b60208201915061097e8284610925565b6010820191508190509392505050565b600061099a828561094b565b6020820191506109aa828461094b565b6020820191508190509392505050565b60006020820190506109cf6000830184610907565b92915050565b60006040820190506109ea6000830185610907565b6109f76020830184610907565b9392505050565b6000608082019050610a136000830187610907565b610a206020830186610907565b610a2d6040830185610907565b610a3a6060830184610907565b95945050505050565b6000602082019050610a58600083018461093c565b92915050565b6000604082019050610a73600083018561093c565b610a806020830184610916565b9392505050565b6000604082019050610a9c600083018561093c565b610aa9602083018461093c565b9392505050565b6000610aba610acb565b9050610ac68282610b57565b919050565b6000604051905090565b600067ffffffffffffffff821115610af057610aef610bd3565b5b602082029050919050565b600067ffffffffffffffff821115610b1657610b15610bd3565b5b602082029050602081019050919050565b6000819050919050565b60006fffffffffffffffffffffffffffffffff82169050919050565b6000819050919050565b610b6082610c16565b810181811067ffffffffffffffff82111715610b7f57610b7e610bd3565b5b80604052505050565b6000610b9382610c27565b9050919050565b6000819050919050565b7f4e487b7100000000000000000000000000000000000000000000000000000000600052603260045260246000fd5b7f4e487b7100000000000000000000000000000000000000000000000000000000600052604160045260246000fd5b600080fd5b600080fd5b600080fd5b600080fd5b6000601f19601f8301169050919050565b60008160801b9050919050565b610c3d81610b4d565b8114610c4857600080fd5b5056fea2646970667358221220758359900d49cfaeb5df9694b4dee7d0b95e1255ccbc1998945306fa074e0cbc64736f6c63430008070033",
			"opcodes": "PUSH1 0x80 PUSH1 0x40 MSTORE PUSH1 0x40 MLOAD DUP1 PUSH1 0xC0 ADD PUSH1 0x40 MSTORE DUP1 PUSH1 0x1 PUSH1 0xFF AND DUP2 MSTORE PUSH1 0x20 ADD PUSH1 0x2 PUSH1 0xFF AND DUP2 MSTORE PUSH1 0x20 ADD PUSH1 0x3 PUSH1 0xFF AND DUP2 MSTORE PUSH1 0x20 ADD PUSH1 0x4 PUSH1 0xFF AND DUP2 MSTORE PUSH1 0x20 ADD PUSH1 0x5 PUSH1 0xFF AND DUP2 MSTORE PUSH1 0x20 ADD PUSH1 0x6 PUSH1 0xFF AND DUP2 MSTORE POP PUSH1 0x0 SWAP1 PUSH1 0x6 PUSH2 0x59 SWAP3 SWAP2 SWAP1 PUSH2 0x6C JUMP JUMPDEST POP CALLVALUE DUP1 ISZERO PUSH2 0x66 JUMPI PUSH1 0x0 DUP1 REVERT JUMPDEST POP PUSH2 0x130 JUMP JUMPDEST DUP3 DUP1 SLOAD DUP3 DUP3 SSTORE SWAP1 PUSH1 0x0 MSTORE PUSH1 0x20 PUSH1 0x0 KECCAK256 SWAP1 PUSH1 0x1F ADD PUSH1 0x20 SWAP1 DIV DUP2 ADD SWAP3 DUP3 ISZERO PUSH2 0x102 JUMPI SWAP2 PUSH1 0x20 MUL DUP3 ADD PUSH1 0x0 JUMPDEST DUP4 DUP3 GT ISZERO PUSH2 0xD3 JUMPI DUP4 MLOAD DUP4 DUP3 PUSH2 0x100 EXP DUP2 SLOAD DUP2 PUSH1 0xFF MUL NOT AND SWAP1 DUP4 PUSH1 0xFF AND MUL OR SWAP1 SSTORE POP SWAP3 PUSH1 0x20 ADD SWAP3 PUSH1 0x1 ADD PUSH1 0x20 DUP2 PUSH1 0x0 ADD DIV SWAP3 DUP4 ADD SWAP3 PUSH1 0x1 SUB MUL PUSH2 0x95 JUMP JUMPDEST DUP1 ISZERO PUSH2 0x100 JUMPI DUP3 DUP2 PUSH2 0x100 EXP DUP2 SLOAD SWAP1 PUSH1 0xFF MUL NOT AND SWAP1 SSTORE PUSH1 0x1 ADD PUSH1 0x20 DUP2 PUSH1 0x0 ADD DIV SWAP3 DUP4 ADD SWAP3 PUSH1 0x1 SUB MUL PUSH2 0xD3 JUMP JUMPDEST POP JUMPDEST POP SWAP1 POP PUSH2 0x10F SWAP2 SWAP1 PUSH2 0x113 JUMP JUMPDEST POP SWAP1 JUMP JUMPDEST JUMPDEST DUP1 DUP3 GT ISZERO PUSH2 0x12C JUMPI PUSH1 0x0 DUP2 PUSH1 0x0 SWAP1 SSTORE POP PUSH1 0x1 ADD PUSH2 0x114 JUMP JUMPDEST POP SWAP1 JUMP JUMPDEST PUSH2 0xC81 DUP1 PUSH2 0x13F PUSH1 0x0 CODECOPY PUSH1 0x0 RETURN INVALID PUSH1 0x80 PUSH1 0x40 MSTORE CALLVALUE DUP1 ISZERO PUSH2 0x10 JUMPI PUSH1 0x0 DUP1 REVERT JUMPDEST POP PUSH1 0x4 CALLDATASIZE LT PUSH2 0xB4 JUMPI PUSH1 0x0 CALLDATALOAD PUSH1 0xE0 SHR DUP1 PUSH4 0xC262325E GT PUSH2 0x71 JUMPI DUP1 PUSH4 0xC262325E EQ PUSH2 0xF5 JUMPI DUP1 PUSH4 0xC89AA0BA EQ PUSH2 0xFF JUMPI DUP1 PUSH4 0xCCD8DFC3 EQ PUSH2 0x109 JUMPI DUP1 PUSH4 0xE13CA35D EQ PUSH2 0x139 JUMPI DUP1 PUSH4 0xF840B4C9 EQ PUSH2 0x155 JUMPI DUP1 PUSH4 0xFBC63386 EQ PUSH2 0x15F JUMPI PUSH2 0xB4 JUMP JUMPDEST DUP1 PUSH4 0x2695D291 EQ PUSH2 0xB9 JUMPI DUP1 PUSH4 0x391E2457 EQ PUSH2 0xC3 JUMPI DUP1 PUSH4 0x3A8AD96C EQ PUSH2 0xCD JUMPI DUP1 PUSH4 0x76D04CF2 EQ PUSH2 0xD7 JUMPI DUP1 PUSH4 0xAA6490EF EQ PUSH2 0xE1 JUMPI DUP1 PUSH4 0xBD8B04E5 EQ PUSH2 0xEB JUMPI JUMPDEST PUSH1 0x0 DUP1 REVERT JUMPDEST PUSH2 0xC1 PUSH2 0x169 JUMP JUMPDEST STOP JUMPDEST PUSH2 0xCB PUSH2 0x175 JUMP JUMPDEST STOP JUMPDEST PUSH2 0xD5 PUSH2 0x20E JUMP JUMPDEST STOP JUMPDEST PUSH2 0xDF PUSH2 0x2B0 JUMP JUMPDEST STOP JUMPDEST PUSH2 0xE9 PUSH2 0x32D JUMP JUMPDEST STOP JUMPDEST PUSH2 0xF3 PUSH2 0x3CD JUMP JUMPDEST STOP JUMPDEST PUSH2 0xFD PUSH2 0x46F JUMP JUMPDEST STOP JUMPDEST PUSH2 0x107 PUSH2 0x47C JUMP JUMPDEST STOP JUMPDEST PUSH2 0x123 PUSH1 0x4 DUP1 CALLDATASIZE SUB DUP2 ADD SWAP1 PUSH2 0x11E SWAP2 SWAP1 PUSH2 0x891 JUMP JUMPDEST PUSH2 0x51E JUMP JUMPDEST PUSH1 0x40 MLOAD PUSH2 0x130 SWAP2 SWAP1 PUSH2 0xA43 JUMP JUMPDEST PUSH1 0x40 MLOAD DUP1 SWAP2 SUB SWAP1 RETURN JUMPDEST PUSH2 0x153 PUSH1 0x4 DUP1 CALLDATASIZE SUB DUP2 ADD SWAP1 PUSH2 0x14E SWAP2 SWAP1 PUSH2 0x8BE JUMP JUMPDEST PUSH2 0x55A JUMP JUMPDEST STOP JUMPDEST PUSH2 0x15D PUSH2 0x5B9 JUMP JUMPDEST STOP JUMPDEST PUSH2 0x167 PUSH2 0x6AA JUMP JUMPDEST STOP JUMPDEST PUSH1 0x7 PUSH1 0x0 MSTORE8 PUSH1 0x7 PUSH1 0x0 MSTORE JUMP JUMPDEST PUSH1 0x0 PUSH1 0x40 MLOAD SWAP1 POP PUSH32 0xB9C82E5571DDC0C3C64742683F3A1B8FB67E3B5997747E5B8BB81AC61CB9BF40 DUP2 PUSH1 0x40 MLOAD PUSH2 0x1AB SWAP2 SWAP1 PUSH2 0x9BA JUMP JUMPDEST PUSH1 0x40 MLOAD DUP1 SWAP2 SUB SWAP1 LOG1 PUSH1 0x0 PUSH1 0x40 MLOAD DUP1 PUSH1 0x40 ADD PUSH1 0x40 MSTORE DUP1 PUSH1 0x2 DUP2 MSTORE PUSH1 0x20 ADD PUSH1 0x3 DUP2 MSTORE POP SWAP1 POP PUSH1 0x40 MLOAD SWAP2 POP PUSH32 0xB9C82E5571DDC0C3C64742683F3A1B8FB67E3B5997747E5B8BB81AC61CB9BF40 DUP3 PUSH1 0x40 MLOAD PUSH2 0x202 SWAP2 SWAP1 PUSH2 0x9BA JUMP JUMPDEST PUSH1 0x40 MLOAD DUP1 SWAP2 SUB SWAP1 LOG1 POP POP JUMP JUMPDEST PUSH1 0x0 PUSH1 0x40 MLOAD SWAP1 POP PUSH32 0xB9C82E5571DDC0C3C64742683F3A1B8FB67E3B5997747E5B8BB81AC61CB9BF40 DUP2 PUSH1 0x40 MLOAD PUSH2 0x244 SWAP2 SWAP1 PUSH2 0x9BA JUMP JUMPDEST PUSH1 0x40 MLOAD DUP1 SWAP2 SUB SWAP1 LOG1 PUSH1 0x5 PUSH1 0x13 PUSH1 0x40 MLOAD PUSH1 0x20 ADD PUSH2 0x261 SWAP3 SWAP2 SWAP1 PUSH2 0xA5E JUMP JUMPDEST PUSH1 0x40 MLOAD PUSH1 0x20 DUP2 DUP4 SUB SUB DUP2 MSTORE SWAP1 PUSH1 0x40 MSTORE POP PUSH1 0x40 MLOAD SWAP1 POP PUSH32 0xB9C82E5571DDC0C3C64742683F3A1B8FB67E3B5997747E5B8BB81AC61CB9BF40 DUP2 PUSH1 0x40 MLOAD PUSH2 0x2A5 SWAP2 SWAP1 PUSH2 0x9BA JUMP JUMPDEST PUSH1 0x40 MLOAD DUP1 SWAP2 SUB SWAP1 LOG1 POP JUMP JUMPDEST PUSH1 0x0 DUP1 DUP1 SLOAD DUP1 PUSH1 0x20 MUL PUSH1 0x20 ADD PUSH1 0x40 MLOAD SWAP1 DUP2 ADD PUSH1 0x40 MSTORE DUP1 SWAP3 SWAP2 SWAP1 DUP2 DUP2 MSTORE PUSH1 0x20 ADD DUP3 DUP1 SLOAD DUP1 ISZERO PUSH2 0x323 JUMPI PUSH1 0x20 MUL DUP3 ADD SWAP2 SWAP1 PUSH1 0x0 MSTORE PUSH1 0x20 PUSH1 0x0 KECCAK256 SWAP1 PUSH1 0x0 SWAP1 JUMPDEST DUP3 DUP3 SWAP1 SLOAD SWAP1 PUSH2 0x100 EXP SWAP1 DIV PUSH1 0xFF AND PUSH1 0xFF AND DUP2 MSTORE PUSH1 0x20 ADD SWAP1 PUSH1 0x1 ADD SWAP1 PUSH1 0x20 DUP3 PUSH1 0x0 ADD DIV SWAP3 DUP4 ADD SWAP3 PUSH1 0x1 SUB DUP3 MUL SWAP2 POP DUP1 DUP5 GT PUSH2 0x2EC JUMPI SWAP1 POP JUMPDEST POP POP POP POP POP SWAP1 POP POP JUMP JUMPDEST PUSH1 0x0 PUSH1 0x40 MLOAD SWAP1 POP PUSH32 0xB9C82E5571DDC0C3C64742683F3A1B8FB67E3B5997747E5B8BB81AC61CB9BF40 DUP2 PUSH1 0x40 MLOAD PUSH2 0x363 SWAP2 SWAP1 PUSH2 0x9BA JUMP JUMPDEST PUSH1 0x40 MLOAD DUP1 SWAP2 SUB SWAP1 LOG1 PUSH1 0x0 PUSH1 0x40 MLOAD DUP1 PUSH1 0x60 ADD PUSH1 0x40 MSTORE DUP1 PUSH1 0x1 DUP2 MSTORE PUSH1 0x20 ADD PUSH1 0x2 DUP2 MSTORE PUSH1 0x20 ADD PUSH1 0x3 DUP2 MSTORE POP SWAP1 POP PUSH1 0x40 MLOAD SWAP2 POP PUSH32 0xB9C82E5571DDC0C3C64742683F3A1B8FB67E3B5997747E5B8BB81AC61CB9BF40 DUP3 PUSH1 0x40 MLOAD PUSH2 0x3C1 SWAP2 SWAP1 PUSH2 0x9BA JUMP JUMPDEST PUSH1 0x40 MLOAD DUP1 SWAP2 SUB SWAP1 LOG1 POP POP JUMP JUMPDEST PUSH1 0x0 PUSH1 0x40 MLOAD SWAP1 POP PUSH32 0xB9C82E5571DDC0C3C64742683F3A1B8FB67E3B5997747E5B8BB81AC61CB9BF40 DUP2 PUSH1 0x40 MLOAD PUSH2 0x403 SWAP2 SWAP1 PUSH2 0x9BA JUMP JUMPDEST PUSH1 0x40 MLOAD DUP1 SWAP2 SUB SWAP1 LOG1 PUSH1 0x5 PUSH1 0x13 PUSH1 0x40 MLOAD PUSH1 0x20 ADD PUSH2 0x420 SWAP3 SWAP2 SWAP1 PUSH2 0x98E JUMP JUMPDEST PUSH1 0x40 MLOAD PUSH1 0x20 DUP2 DUP4 SUB SUB DUP2 MSTORE SWAP1 PUSH1 0x40 MSTORE POP PUSH1 0x40 MLOAD SWAP1 POP PUSH32 0xB9C82E5571DDC0C3C64742683F3A1B8FB67E3B5997747E5B8BB81AC61CB9BF40 DUP2 PUSH1 0x40 MLOAD PUSH2 0x464 SWAP2 SWAP1 PUSH2 0x9BA JUMP JUMPDEST PUSH1 0x40 MLOAD DUP1 SWAP2 SUB SWAP1 LOG1 POP JUMP JUMPDEST PUSH8 0xFFFFFFFFFFFFFFFF MLOAD POP JUMP JUMPDEST PUSH1 0x0 PUSH1 0x40 MLOAD SWAP1 POP PUSH32 0xB9C82E5571DDC0C3C64742683F3A1B8FB67E3B5997747E5B8BB81AC61CB9BF40 DUP2 PUSH1 0x40 MLOAD PUSH2 0x4B2 SWAP2 SWAP1 PUSH2 0x9BA JUMP JUMPDEST PUSH1 0x40 MLOAD DUP1 SWAP2 SUB SWAP1 LOG1 PUSH1 0x5 PUSH1 0x13 PUSH1 0x40 MLOAD PUSH1 0x20 ADD PUSH2 0x4CF SWAP3 SWAP2 SWAP1 PUSH2 0xA87 JUMP JUMPDEST PUSH1 0x40 MLOAD PUSH1 0x20 DUP2 DUP4 SUB SUB DUP2 MSTORE SWAP1 PUSH1 0x40 MSTORE POP PUSH1 0x40 MLOAD SWAP1 POP PUSH32 0xB9C82E5571DDC0C3C64742683F3A1B8FB67E3B5997747E5B8BB81AC61CB9BF40 DUP2 PUSH1 0x40 MLOAD PUSH2 0x513 SWAP2 SWAP1 PUSH2 0x9BA JUMP JUMPDEST PUSH1 0x40 MLOAD DUP1 SWAP2 SUB SWAP1 LOG1 POP JUMP JUMPDEST PUSH1 0x0 PUSH1 0x80 PUSH1 0x40 MSTORE PUSH1 0x0 PUSH1 0x40 MLOAD DUP1 PUSH1 0x20 ADD PUSH1 0x40 MSTORE DUP1 PUSH1 0x6 DUP2 MSTORE POP SWAP1 POP DUP3 PUSH1 0x0 PUSH1 0x1 DUP2 LT PUSH2 0x54D JUMPI PUSH2 0x54C PUSH2 0xBA4 JUMP JUMPDEST JUMPDEST PUSH1 0x20 MUL ADD MLOAD SWAP2 POP POP SWAP2 SWAP1 POP JUMP JUMPDEST PUSH1 0x0 DUP1 PUSH1 0x0 DUP1 DUP5 SWAP4 POP DUP5 MLOAD SWAP3 POP PUSH1 0x20 DUP6 ADD MLOAD SWAP2 POP PUSH1 0x40 DUP6 ADD MLOAD SWAP1 POP PUSH32 0xFFBA12FCE5CBAF13E6E16E52E17F48AB6EC32E5B3CBBC56FFE9D52DE74FF1871 DUP5 DUP5 DUP5 DUP5 PUSH1 0x40 MLOAD PUSH2 0x5AA SWAP5 SWAP4 SWAP3 SWAP2 SWAP1 PUSH2 0x9FE JUMP JUMPDEST PUSH1 0x40 MLOAD DUP1 SWAP2 SUB SWAP1 LOG1 POP POP POP POP POP JUMP JUMPDEST PUSH1 0x0 DUP1 PUSH1 0x40 MLOAD SWAP2 POP MSIZE SWAP1 POP PUSH32 0xD2AA3925590D66962F2CB580CD67FAA1CB802464622CE19F2E4CE121D2CCA6F4 DUP3 DUP3 PUSH1 0x40 MLOAD PUSH2 0x5F5 SWAP3 SWAP2 SWAP1 PUSH2 0x9D5 JUMP JUMPDEST PUSH1 0x40 MLOAD DUP1 SWAP2 SUB SWAP1 LOG1 PUSH1 0x0 PUSH1 0x40 MLOAD DUP1 PUSH1 0x60 ADD PUSH1 0x40 MSTORE DUP1 PUSH1 0x1 DUP2 MSTORE PUSH1 0x20 ADD PUSH1 0x2 DUP2 MSTORE PUSH1 0x20 ADD PUSH1 0x3 DUP2 MSTORE POP SWAP1 POP PUSH1 0x40 MLOAD SWAP3 POP MSIZE SWAP2 POP PUSH32 0xD2AA3925590D66962F2CB580CD67FAA1CB802464622CE19F2E4CE121D2CCA6F4 DUP4 DUP4 PUSH1 0x40 MLOAD PUSH2 0x658 SWAP3 SWAP2 SWAP1 PUSH2 0x9D5 JUMP JUMPDEST PUSH1 0x40 MLOAD DUP1 SWAP2 SUB SWAP1 LOG1 PUSH1 0xFF MLOAD POP PUSH1 0x40 MLOAD SWAP3 POP MSIZE SWAP2 POP PUSH32 0xD2AA3925590D66962F2CB580CD67FAA1CB802464622CE19F2E4CE121D2CCA6F4 DUP4 DUP4 PUSH1 0x40 MLOAD PUSH2 0x69D SWAP3 SWAP2 SWAP1 PUSH2 0x9D5 JUMP JUMPDEST PUSH1 0x40 MLOAD DUP1 SWAP2 SUB SWAP1 LOG1 POP POP POP JUMP JUMPDEST PUSH1 0x0 PUSH1 0x40 MLOAD SWAP1 POP PUSH32 0xB9C82E5571DDC0C3C64742683F3A1B8FB67E3B5997747E5B8BB81AC61CB9BF40 DUP2 PUSH1 0x40 MLOAD PUSH2 0x6E0 SWAP2 SWAP1 PUSH2 0x9BA JUMP JUMPDEST PUSH1 0x40 MLOAD DUP1 SWAP2 SUB SWAP1 LOG1 PUSH1 0x5 PUSH1 0x13 PUSH1 0x40 MLOAD PUSH1 0x20 ADD PUSH2 0x6FD SWAP3 SWAP2 SWAP1 PUSH2 0x962 JUMP JUMPDEST PUSH1 0x40 MLOAD PUSH1 0x20 DUP2 DUP4 SUB SUB DUP2 MSTORE SWAP1 PUSH1 0x40 MSTORE POP PUSH1 0x40 MLOAD SWAP1 POP PUSH32 0xB9C82E5571DDC0C3C64742683F3A1B8FB67E3B5997747E5B8BB81AC61CB9BF40 DUP2 PUSH1 0x40 MLOAD PUSH2 0x741 SWAP2 SWAP1 PUSH2 0x9BA JUMP JUMPDEST PUSH1 0x40 MLOAD DUP1 SWAP2 SUB SWAP1 LOG1 POP JUMP JUMPDEST PUSH1 0x0 PUSH2 0x75F PUSH2 0x75A DUP5 PUSH2 0xAD5 JUMP JUMPDEST PUSH2 0xAB0 JUMP JUMPDEST SWAP1 POP DUP1 DUP3 DUP6 PUSH1 0x20 DUP7 MUL DUP3 ADD GT ISZERO PUSH2 0x779 JUMPI PUSH2 0x778 PUSH2 0xC07 JUMP JUMPDEST JUMPDEST PUSH1 0x0 JUMPDEST DUP6 DUP2 LT ISZERO PUSH2 0x7A9 JUMPI DUP2 PUSH2 0x78F DUP9 DUP3 PUSH2 0x87C JUMP JUMPDEST DUP5 MSTORE PUSH1 0x20 DUP5 ADD SWAP4 POP PUSH1 0x20 DUP4 ADD SWAP3 POP POP PUSH1 0x1 DUP2 ADD SWAP1 POP PUSH2 0x77C JUMP JUMPDEST POP POP POP SWAP4 SWAP3 POP POP POP JUMP JUMPDEST PUSH1 0x0 PUSH2 0x7C6 PUSH2 0x7C1 DUP5 PUSH2 0xAFB JUMP JUMPDEST PUSH2 0xAB0 JUMP JUMPDEST SWAP1 POP DUP1 DUP4 DUP3 MSTORE PUSH1 0x20 DUP3 ADD SWAP1 POP DUP3 DUP6 PUSH1 0x20 DUP7 MUL DUP3 ADD GT ISZERO PUSH2 0x7E9 JUMPI PUSH2 0x7E8 PUSH2 0xC07 JUMP JUMPDEST JUMPDEST PUSH1 0x0 JUMPDEST DUP6 DUP2 LT ISZERO PUSH2 0x819 JUMPI DUP2 PUSH2 0x7FF DUP9 DUP3 PUSH2 0x87C JUMP JUMPDEST DUP5 MSTORE PUSH1 0x20 DUP5 ADD SWAP4 POP PUSH1 0x20 DUP4 ADD SWAP3 POP POP PUSH1 0x1 DUP2 ADD SWAP1 POP PUSH2 0x7EC JUMP JUMPDEST POP POP POP SWAP4 SWAP3 POP POP POP JUMP JUMPDEST PUSH1 0x0 DUP3 PUSH1 0x1F DUP4 ADD SLT PUSH2 0x838 JUMPI PUSH2 0x837 PUSH2 0xC02 JUMP JUMPDEST JUMPDEST PUSH1 0x1 PUSH2 0x845 DUP5 DUP3 DUP6 PUSH2 0x74C JUMP JUMPDEST SWAP2 POP POP SWAP3 SWAP2 POP POP JUMP JUMPDEST PUSH1 0x0 DUP3 PUSH1 0x1F DUP4 ADD SLT PUSH2 0x863 JUMPI PUSH2 0x862 PUSH2 0xC02 JUMP JUMPDEST JUMPDEST DUP2 CALLDATALOAD PUSH2 0x873 DUP5 DUP3 PUSH1 0x20 DUP7 ADD PUSH2 0x7B3 JUMP JUMPDEST SWAP2 POP POP SWAP3 SWAP2 POP POP JUMP JUMPDEST PUSH1 0x0 DUP2 CALLDATALOAD SWAP1 POP PUSH2 0x88B DUP2 PUSH2 0xC34 JUMP JUMPDEST SWAP3 SWAP2 POP POP JUMP JUMPDEST PUSH1 0x0 PUSH1 0x20 DUP3 DUP5 SUB SLT ISZERO PUSH2 0x8A7 JUMPI PUSH2 0x8A6 PUSH2 0xC11 JUMP JUMPDEST JUMPDEST PUSH1 0x0 PUSH2 0x8B5 DUP5 DUP3 DUP6 ADD PUSH2 0x823 JUMP JUMPDEST SWAP2 POP POP SWAP3 SWAP2 POP POP JUMP JUMPDEST PUSH1 0x0 PUSH1 0x20 DUP3 DUP5 SUB SLT ISZERO PUSH2 0x8D4 JUMPI PUSH2 0x8D3 PUSH2 0xC11 JUMP JUMPDEST JUMPDEST PUSH1 0x0 DUP3 ADD CALLDATALOAD PUSH8 0xFFFFFFFFFFFFFFFF DUP2 GT ISZERO PUSH2 0x8F2 JUMPI PUSH2 0x8F1 PUSH2 0xC0C JUMP JUMPDEST JUMPDEST PUSH2 0x8FE DUP5 DUP3 DUP6 ADD PUSH2 0x84E JUMP JUMPDEST SWAP2 POP POP SWAP3 SWAP2 POP POP JUMP JUMPDEST PUSH2 0x910 DUP2 PUSH2 0xB27 JUMP JUMPDEST DUP3 MSTORE POP POP JUMP JUMPDEST PUSH2 0x91F DUP2 PUSH2 0xB31 JUMP JUMPDEST DUP3 MSTORE POP POP JUMP JUMPDEST PUSH2 0x936 PUSH2 0x931 DUP3 PUSH2 0xB31 JUMP JUMPDEST PUSH2 0xB88 JUMP JUMPDEST DUP3 MSTORE POP POP JUMP JUMPDEST PUSH2 0x945 DUP2 PUSH2 0xB4D JUMP JUMPDEST DUP3 MSTORE POP POP JUMP JUMPDEST PUSH2 0x95C PUSH2 0x957 DUP3 PUSH2 0xB4D JUMP JUMPDEST PUSH2 0xB9A JUMP JUMPDEST DUP3 MSTORE POP POP JUMP JUMPDEST PUSH1 0x0 PUSH2 0x96E DUP3 DUP6 PUSH2 0x94B JUMP JUMPDEST PUSH1 0x20 DUP3 ADD SWAP2 POP PUSH2 0x97E DUP3 DUP5 PUSH2 0x925 JUMP JUMPDEST PUSH1 0x10 DUP3 ADD SWAP2 POP DUP2 SWAP1 POP SWAP4 SWAP3 POP POP POP JUMP JUMPDEST PUSH1 0x0 PUSH2 0x99A DUP3 DUP6 PUSH2 0x94B JUMP JUMPDEST PUSH1 0x20 DUP3 ADD SWAP2 POP PUSH2 0x9AA DUP3 DUP5 PUSH2 0x94B JUMP JUMPDEST PUSH1 0x20 DUP3 ADD SWAP2 POP DUP2 SWAP1 POP SWAP4 SWAP3 POP POP POP JUMP JUMPDEST PUSH1 0x0 PUSH1 0x20 DUP3 ADD SWAP1 POP PUSH2 0x9CF PUSH1 0x0 DUP4 ADD DUP5 PUSH2 0x907 JUMP JUMPDEST SWAP3 SWAP2 POP POP JUMP JUMPDEST PUSH1 0x0 PUSH1 0x40 DUP3 ADD SWAP1 POP PUSH2 0x9EA PUSH1 0x0 DUP4 ADD DUP6 PUSH2 0x907 JUMP JUMPDEST PUSH2 0x9F7 PUSH1 0x20 DUP4 ADD DUP5 PUSH2 0x907 JUMP JUMPDEST SWAP4 SWAP3 POP POP POP JUMP JUMPDEST PUSH1 0x0 PUSH1 0x80 DUP3 ADD SWAP1 POP PUSH2 0xA13 PUSH1 0x0 DUP4 ADD DUP8 PUSH2 0x907 JUMP JUMPDEST PUSH2 0xA20 PUSH1 0x20 DUP4 ADD DUP7 PUSH2 0x907 JUMP JUMPDEST PUSH2 0xA2D PUSH1 0x40 DUP4 ADD DUP6 PUSH2 0x907 JUMP JUMPDEST PUSH2 0xA3A PUSH1 0x60 DUP4 ADD DUP5 PUSH2 0x907 JUMP JUMPDEST SWAP6 SWAP5 POP POP POP POP POP JUMP JUMPDEST PUSH1 0x0 PUSH1 0x20 DUP3 ADD SWAP1 POP PUSH2 0xA58 PUSH1 0x0 DUP4 ADD DUP5 PUSH2 0x93C JUMP JUMPDEST SWAP3 SWAP2 POP POP JUMP JUMPDEST PUSH1 0x0 PUSH1 0x40 DUP3 ADD SWAP1 POP PUSH2 0xA73 PUSH1 0x0 DUP4 ADD DUP6 PUSH2 0x93C JUMP JUMPDEST PUSH2 0xA80 PUSH1 0x20 DUP4 ADD DUP5 PUSH2 0x916 JUMP JUMPDEST SWAP4 SWAP3 POP POP POP JUMP JUMPDEST PUSH1 0x0 PUSH1 0x40 DUP3 ADD SWAP1 POP PUSH2 0xA9C PUSH1 0x0 DUP4 ADD DUP6 PUSH2 0x93C JUMP JUMPDEST PUSH2 0xAA9 PUSH1 0x20 DUP4 ADD DUP5 PUSH2 0x93C JUMP JUMPDEST SWAP4 SWAP3 POP POP POP JUMP JUMPDEST PUSH1 0x0 PUSH2 0xABA PUSH2 0xACB JUMP JUMPDEST SWAP1 POP PUSH2 0xAC6 DUP3 DUP3 PUSH2 0xB57 JUMP JUMPDEST SWAP2 SWAP1 POP JUMP JUMPDEST PUSH1 0x0 PUSH1 0x40 MLOAD SWAP1 POP SWAP1 JUMP JUMPDEST PUSH1 0x0 PUSH8 0xFFFFFFFFFFFFFFFF DUP3 GT ISZERO PUSH2 0xAF0 JUMPI PUSH2 0xAEF PUSH2 0xBD3 JUMP JUMPDEST JUMPDEST PUSH1 0x20 DUP3 MUL SWAP1 POP SWAP2 SWAP1 POP JUMP JUMPDEST PUSH1 0x0 PUSH8 0xFFFFFFFFFFFFFFFF DUP3 GT ISZERO PUSH2 0xB16 JUMPI PUSH2 0xB15 PUSH2 0xBD3 JUMP JUMPDEST JUMPDEST PUSH1 0x20 DUP3 MUL SWAP1 POP PUSH1 0x20 DUP2 ADD SWAP1 POP SWAP2 SWAP1 POP JUMP JUMPDEST PUSH1 0x0 DUP2 SWAP1 POP SWAP2 SWAP1 POP JUMP JUMPDEST PUSH1 0x0 PUSH16 0xFFFFFFFFFFFFFFFFFFFFFFFFFFFFFFFF DUP3 AND SWAP1 POP SWAP2 SWAP1 POP JUMP JUMPDEST PUSH1 0x0 DUP2 SWAP1 POP SWAP2 SWAP1 POP JUMP JUMPDEST PUSH2 0xB60 DUP3 PUSH2 0xC16 JUMP JUMPDEST DUP2 ADD DUP2 DUP2 LT PUSH8 0xFFFFFFFFFFFFFFFF DUP3 GT OR ISZERO PUSH2 0xB7F JUMPI PUSH2 0xB7E PUSH2 0xBD3 JUMP JUMPDEST JUMPDEST DUP1 PUSH1 0x40 MSTORE POP POP POP JUMP JUMPDEST PUSH1 0x0 PUSH2 0xB93 DUP3 PUSH2 0xC27 JUMP JUMPDEST SWAP1 POP SWAP2 SWAP1 POP JUMP JUMPDEST PUSH1 0x0 DUP2 SWAP1 POP SWAP2 SWAP1 POP JUMP JUMPDEST PUSH32 0x4E487B7100000000000000000000000000000000000000000000000000000000 PUSH1 0x0 MSTORE PUSH1 0x32 PUSH1 0x4 MSTORE PUSH1 0x24 PUSH1 0x0 REVERT JUMPDEST PUSH32 0x4E487B7100000000000000000000000000000000000000000000000000000000 PUSH1 0x0 MSTORE PUSH1 0x41 PUSH1 0x4 MSTORE PUSH1 0x24 PUSH1 0x0 REVERT JUMPDEST PUSH1 0x0 DUP1 REVERT JUMPDEST PUSH1 0x0 DUP1 REVERT JUMPDEST PUSH1 0x0 DUP1 REVERT JUMPDEST PUSH1 0x0 DUP1 REVERT JUMPDEST PUSH1 0x0 PUSH1 0x1F NOT PUSH1 0x1F DUP4 ADD AND SWAP1 POP SWAP2 SWAP1 POP JUMP JUMPDEST PUSH1 0x0 DUP2 PUSH1 0x80 SHL SWAP1 POP SWAP2 SWAP1 POP JUMP JUMPDEST PUSH2 0xC3D DUP2 PUSH2 0xB4D JUMP JUMPDEST DUP2 EQ PUSH2 0xC48 JUMPI PUSH1 0x0 DUP1 REVERT JUMPDEST POP JUMP INVALID LOG2 PUSH5 0x6970667358 0x22 SLT KECCAK256 PUSH22 0x8359900D49CFAEB5DF9694B4DEE7D0B95E1255CCBC19 SWAP9 SWAP5 MSTORE8 MOD STATICCALL SMOD 0x4E 0xC 0xBC PUSH5 0x736F6C6343 STOP ADDMOD SMOD STOP CALLER "
		},
		"gasEstimates": {
			"creation": {
				"codeDepositCost": "640200",
				"executionCost": "infinite",
				"totalCost": "infinite"
			},
			"external": {
				"abiEncode1()": "infinite",
				"abiEncode2()": "infinite",
				"abiEncodePacked1()": "infinite",
				"abiEncodePacked2()": "infinite",
				"args(uint256[])": "infinite",
				"breakFreeMemoryPointer(uint256[1])": "infinite",
				"fixedArray()": "infinite",
				"highAccess()": "649037107316855185200368765108370",
				"memPointerV1()": "infinite",
				"memPointerV2()": "infinite",
				"mstore8()": "163",
				"unpacked()": "infinite"
			}
		},
		"methodIdentifiers": {
			"abiEncode1()": "c89aa0ba",
			"abiEncode2()": "3a8ad96c",
			"abiEncodePacked1()": "bd8b04e5",
			"abiEncodePacked2()": "fbc63386",
			"args(uint256[])": "e13ca35d",
			"breakFreeMemoryPointer(uint256[1])": "ccd8dfc3",
			"fixedArray()": "391e2457",
			"highAccess()": "c262325e",
			"memPointerV1()": "aa6490ef",
			"memPointerV2()": "f840b4c9",
			"mstore8()": "2695d291",
			"unpacked()": "76d04cf2"
		}
	},
	"abi": [
		{
			"anonymous": false,
			"inputs": [
				{
					"indexed": false,
					"internalType": "bytes32",
					"name": "",
					"type": "bytes32"
				},
				{
					"indexed": false,
					"internalType": "bytes32",
					"name": "",
					"type": "bytes32"
				},
				{
					"indexed": false,
					"internalType": "bytes32",
					"name": "",
					"type": "bytes32"
				},
				{
					"indexed": false,
					"internalType": "bytes32",
					"name": "",
					"type": "bytes32"
				}
			],
			"name": "Debug",
			"type": "event"
		},
		{
			"anonymous": false,
			"inputs": [
				{
					"indexed": false,
					"internalType": "bytes32",
					"name": "",
					"type": "bytes32"
				}
			],
			"name": "MemoryPointer",
			"type": "event"
		},
		{
			"anonymous": false,
			"inputs": [
				{
					"indexed": false,
					"internalType": "bytes32",
					"name": "",
					"type": "bytes32"
				},
				{
					"indexed": false,
					"internalType": "bytes32",
					"name": "",
					"type": "bytes32"
				}
			],
			"name": "MemoryPointerMsize",
			"type": "event"
		},
		{
			"inputs": [],
			"name": "abiEncode1",
			"outputs": [],
			"stateMutability": "nonpayable",
			"type": "function"
		},
		{
			"inputs": [],
			"name": "abiEncode2",
			"outputs": [],
			"stateMutability": "nonpayable",
			"type": "function"
		},
		{
			"inputs": [],
			"name": "abiEncodePacked1",
			"outputs": [],
			"stateMutability": "nonpayable",
			"type": "function"
		},
		{
			"inputs": [],
			"name": "abiEncodePacked2",
			"outputs": [],
			"stateMutability": "nonpayable",
			"type": "function"
		},
		{
			"inputs": [
				{
					"internalType": "uint256[]",
					"name": "arr",
					"type": "uint256[]"
				}
			],
			"name": "args",
			"outputs": [],
			"stateMutability": "nonpayable",
			"type": "function"
		},
		{
			"inputs": [
				{
					"internalType": "uint256[1]",
					"name": "foo",
					"type": "uint256[1]"
				}
			],
			"name": "breakFreeMemoryPointer",
			"outputs": [
				{
					"internalType": "uint256",
					"name": "",
					"type": "uint256"
				}
			],
			"stateMutability": "view",
			"type": "function"
		},
		{
			"inputs": [],
			"name": "fixedArray",
			"outputs": [],
			"stateMutability": "nonpayable",
			"type": "function"
		},
		{
			"inputs": [],
			"name": "highAccess",
			"outputs": [],
			"stateMutability": "pure",
			"type": "function"
		},
		{
			"inputs": [],
			"name": "memPointerV1",
			"outputs": [],
			"stateMutability": "nonpayable",
			"type": "function"
		},
		{
			"inputs": [],
			"name": "memPointerV2",
			"outputs": [],
			"stateMutability": "nonpayable",
			"type": "function"
		},
		{
			"inputs": [],
			"name": "mstore8",
			"outputs": [],
			"stateMutability": "pure",
			"type": "function"
		},
		{
			"inputs": [],
			"name": "unpacked",
			"outputs": [],
			"stateMutability": "nonpayable",
			"type": "function"
		}
	]
}