{
	"data": {
		"bytecode": {
			"linkReferences": {},
			"object": "608060405260046000806101000a8154816fffffffffffffffffffffffffffffffff02191690836fffffffffffffffffffffffffffffffff1602179055506006600060106101000a8154816bffffffffffffffffffffffff02191690836bffffffffffffffffffffffff16021790555060086000601c6101000a81548161ffff021916908361ffff16021790555060016000601e6101000a81548160ff021916908360ff1602179055503480156100b557600080fd5b50610620806100c56000396000f3fe608060405234801561001057600080fd5b50600436106100935760003560e01c806383dfe5fd1161006657806383dfe5fd146101135780638dbd22e51461013157806392bbf6e814610150578063c195f88c1461016e578063c9b3cbf91461019e57610093565b80630a11e879146100985780630f529ba2146100b757806328811f59146100d55780634315f65d146100f3575b600080fd5b6100a06101d2565b6040516100ae929190610495565b60405180910390f35b6100bf610216565b6040516100cc9190610539565b60405180910390f35b6100dd610234565b6040516100ea919061051e565b60405180910390f35b6100fb610247565b60405161010a939291906104be565b60405180910390f35b61011b610275565b604051610128919061045f565b60405180910390f35b610139610295565b6040516101479291906104f5565b60405180910390f35b6101586102a4565b604051610165919061047a565b60405180910390f35b6101886004803603810190610183919061036a565b6102b8565b60405161019591906103f1565b60405180910390f35b6101b860048036038101906101b3919061033d565b6102c3565b6040516101c995949392919061040c565b60405180910390f35b600080600054601c546000547c01ffff000000000000000000000000000000000000000000000000000081048061ffff1695508063ffffffff169450505050509091565b600060109054906101000a90046bffffffffffffffffffffffff1681565b6000601e9054906101000a900460ff1681565b60008060008054806008601c021c8063ffffffff1694508063ffffffff1693508061ffff1692505050909192565b60008054906101000a90046fffffffffffffffffffffffffffffffff1681565b60008060009150601c90509091565b6000601c9054906101000a900461ffff1681565b600081549050919050565b600080600080600085925060005494507fffff0000ffffffffffffffffffffffffffffffffffffffffffffffffffffffff85169350826008601c021b915083821790508060005591939590929450565b600081359050610322816105bc565b92915050565b600081359050610337816105d3565b92915050565b600060208284031215610353576103526105b7565b5b600061036184828501610313565b91505092915050565b6000602082840312156103805761037f6105b7565b5b600061038e84828501610328565b91505092915050565b6103a081610554565b82525050565b6103af8161055e565b82525050565b6103be8161057a565b82525050565b6103cd81610588565b82525050565b6103dc81610592565b82525050565b6103eb8161059f565b82525050565b60006020820190506104066000830184610397565b92915050565b600060a0820190506104216000830188610397565b61042e6020830187610397565b61043b6040830186610397565b6104486060830185610397565b6104556080830184610397565b9695505050505050565b600060208201905061047460008301846103a6565b92915050565b600060208201905061048f60008301846103b5565b92915050565b60006040820190506104aa60008301856103b5565b6104b760208301846103c4565b9392505050565b60006060820190506104d360008301866103b5565b6104e060208301856103c4565b6104ed60408301846103c4565b949350505050565b600060408201905061050a60008301856103c4565b61051760208301846103c4565b9392505050565b600060208201905061053360008301846103d3565b92915050565b600060208201905061054e60008301846103e2565b92915050565b6000819050919050565b60006fffffffffffffffffffffffffffffffff82169050919050565b600061ffff82169050919050565b6000819050919050565b600060ff82169050919050565b60006bffffffffffffffffffffffff82169050919050565b600080fd5b6105c58161057a565b81146105d057600080fd5b50565b6105dc81610588565b81146105e757600080fd5b5056fea2646970667358221220d1316e363a97e5b318c9d8536eceb751044f83d10004bcb71c439375ecdeb48864736f6c63430008070033",
			"opcodes": "PUSH1 0x80 PUSH1 0x40 MSTORE PUSH1 0x4 PUSH1 0x0 DUP1 PUSH2 0x100 EXP DUP2 SLOAD DUP2 PUSH16 0xFFFFFFFFFFFFFFFFFFFFFFFFFFFFFFFF MUL NOT AND SWAP1 DUP4 PUSH16 0xFFFFFFFFFFFFFFFFFFFFFFFFFFFFFFFF AND MUL OR SWAP1 SSTORE POP PUSH1 0x6 PUSH1 0x0 PUSH1 0x10 PUSH2 0x100 EXP DUP2 SLOAD DUP2 PUSH12 0xFFFFFFFFFFFFFFFFFFFFFFFF MUL NOT AND SWAP1 DUP4 PUSH12 0xFFFFFFFFFFFFFFFFFFFFFFFF AND MUL OR SWAP1 SSTORE POP PUSH1 0x8 PUSH1 0x0 PUSH1 0x1C PUSH2 0x100 EXP DUP2 SLOAD DUP2 PUSH2 0xFFFF MUL NOT AND SWAP1 DUP4 PUSH2 0xFFFF AND MUL OR SWAP1 SSTORE POP PUSH1 0x1 PUSH1 0x0 PUSH1 0x1E PUSH2 0x100 EXP DUP2 SLOAD DUP2 PUSH1 0xFF MUL NOT AND SWAP1 DUP4 PUSH1 0xFF AND MUL OR SWAP1 SSTORE POP CALLVALUE DUP1 ISZERO PUSH2 0xB5 JUMPI PUSH1 0x0 DUP1 REVERT JUMPDEST POP PUSH2 0x620 DUP1 PUSH2 0xC5 PUSH1 0x0 CODECOPY PUSH1 0x0 RETURN INVALID PUSH1 0x80 PUSH1 0x40 MSTORE CALLVALUE DUP1 ISZERO PUSH2 0x10 JUMPI PUSH1 0x0 DUP1 REVERT JUMPDEST POP PUSH1 0x4 CALLDATASIZE LT PUSH2 0x93 JUMPI PUSH1 0x0 CALLDATALOAD PUSH1 0xE0 SHR DUP1 PUSH4 0x83DFE5FD GT PUSH2 0x66 JUMPI DUP1 PUSH4 0x83DFE5FD EQ PUSH2 0x113 JUMPI DUP1 PUSH4 0x8DBD22E5 EQ PUSH2 0x131 JUMPI DUP1 PUSH4 0x92BBF6E8 EQ PUSH2 0x150 JUMPI DUP1 PUSH4 0xC195F88C EQ PUSH2 0x16E JUMPI DUP1 PUSH4 0xC9B3CBF9 EQ PUSH2 0x19E JUMPI PUSH2 0x93 JUMP JUMPDEST DUP1 PUSH4 0xA11E879 EQ PUSH2 0x98 JUMPI DUP1 PUSH4 0xF529BA2 EQ PUSH2 0xB7 JUMPI DUP1 PUSH4 0x28811F59 EQ PUSH2 0xD5 JUMPI DUP1 PUSH4 0x4315F65D EQ PUSH2 0xF3 JUMPI JUMPDEST PUSH1 0x0 DUP1 REVERT JUMPDEST PUSH2 0xA0 PUSH2 0x1D2 JUMP JUMPDEST PUSH1 0x40 MLOAD PUSH2 0xAE SWAP3 SWAP2 SWAP1 PUSH2 0x495 JUMP JUMPDEST PUSH1 0x40 MLOAD DUP1 SWAP2 SUB SWAP1 RETURN JUMPDEST PUSH2 0xBF PUSH2 0x216 JUMP JUMPDEST PUSH1 0x40 MLOAD PUSH2 0xCC SWAP2 SWAP1 PUSH2 0x539 JUMP JUMPDEST PUSH1 0x40 MLOAD DUP1 SWAP2 SUB SWAP1 RETURN JUMPDEST PUSH2 0xDD PUSH2 0x234 JUMP JUMPDEST PUSH1 0x40 MLOAD PUSH2 0xEA SWAP2 SWAP1 PUSH2 0x51E JUMP JUMPDEST PUSH1 0x40 MLOAD DUP1 SWAP2 SUB SWAP1 RETURN JUMPDEST PUSH2 0xFB PUSH2 0x247 JUMP JUMPDEST PUSH1 0x40 MLOAD PUSH2 0x10A SWAP4 SWAP3 SWAP2 SWAP1 PUSH2 0x4BE JUMP JUMPDEST PUSH1 0x40 MLOAD DUP1 SWAP2 SUB SWAP1 RETURN JUMPDEST PUSH2 0x11B PUSH2 0x275 JUMP JUMPDEST PUSH1 0x40 MLOAD PUSH2 0x128 SWAP2 SWAP1 PUSH2 0x45F JUMP JUMPDEST PUSH1 0x40 MLOAD DUP1 SWAP2 SUB SWAP1 RETURN JUMPDEST PUSH2 0x139 PUSH2 0x295 JUMP JUMPDEST PUSH1 0x40 MLOAD PUSH2 0x147 SWAP3 SWAP2 SWAP1 PUSH2 0x4F5 JUMP JUMPDEST PUSH1 0x40 MLOAD DUP1 SWAP2 SUB SWAP1 RETURN JUMPDEST PUSH2 0x158 PUSH2 0x2A4 JUMP JUMPDEST PUSH1 0x40 MLOAD PUSH2 0x165 SWAP2 SWAP1 PUSH2 0x47A JUMP JUMPDEST PUSH1 0x40 MLOAD DUP1 SWAP2 SUB SWAP1 RETURN JUMPDEST PUSH2 0x188 PUSH1 0x4 DUP1 CALLDATASIZE SUB DUP2 ADD SWAP1 PUSH2 0x183 SWAP2 SWAP1 PUSH2 0x36A JUMP JUMPDEST PUSH2 0x2B8 JUMP JUMPDEST PUSH1 0x40 MLOAD PUSH2 0x195 SWAP2 SWAP1 PUSH2 0x3F1 JUMP JUMPDEST PUSH1 0x40 MLOAD DUP1 SWAP2 SUB SWAP1 RETURN JUMPDEST PUSH2 0x1B8 PUSH1 0x4 DUP1 CALLDATASIZE SUB DUP2 ADD SWAP1 PUSH2 0x1B3 SWAP2 SWAP1 PUSH2 0x33D JUMP JUMPDEST PUSH2 0x2C3 JUMP JUMPDEST PUSH1 0x40 MLOAD PUSH2 0x1C9 SWAP6 SWAP5 SWAP4 SWAP3 SWAP2 SWAP1 PUSH2 0x40C JUMP JUMPDEST PUSH1 0x40 MLOAD DUP1 SWAP2 SUB SWAP1 RETURN JUMPDEST PUSH1 0x0 DUP1 PUSH1 0x0 SLOAD PUSH1 0x1C SLOAD PUSH1 0x0 SLOAD PUSH29 0x1FFFF0000000000000000000000000000000000000000000000000000 DUP2 DIV DUP1 PUSH2 0xFFFF AND SWAP6 POP DUP1 PUSH4 0xFFFFFFFF AND SWAP5 POP POP POP POP POP SWAP1 SWAP2 JUMP JUMPDEST PUSH1 0x0 PUSH1 0x10 SWAP1 SLOAD SWAP1 PUSH2 0x100 EXP SWAP1 DIV PUSH12 0xFFFFFFFFFFFFFFFFFFFFFFFF AND DUP2 JUMP JUMPDEST PUSH1 0x0 PUSH1 0x1E SWAP1 SLOAD SWAP1 PUSH2 0x100 EXP SWAP1 DIV PUSH1 0xFF AND DUP2 JUMP JUMPDEST PUSH1 0x0 DUP1 PUSH1 0x0 DUP1 SLOAD DUP1 PUSH1 0x8 PUSH1 0x1C MUL SHR DUP1 PUSH4 0xFFFFFFFF AND SWAP5 POP DUP1 PUSH4 0xFFFFFFFF AND SWAP4 POP DUP1 PUSH2 0xFFFF AND SWAP3 POP POP POP SWAP1 SWAP2 SWAP3 JUMP JUMPDEST PUSH1 0x0 DUP1 SLOAD SWAP1 PUSH2 0x100 EXP SWAP1 DIV PUSH16 0xFFFFFFFFFFFFFFFFFFFFFFFFFFFFFFFF AND DUP2 JUMP JUMPDEST PUSH1 0x0 DUP1 PUSH1 0x0 SWAP2 POP PUSH1 0x1C SWAP1 POP SWAP1 SWAP2 JUMP JUMPDEST PUSH1 0x0 PUSH1 0x1C SWAP1 SLOAD SWAP1 PUSH2 0x100 EXP SWAP1 DIV PUSH2 0xFFFF AND DUP2 JUMP JUMPDEST PUSH1 0x0 DUP2 SLOAD SWAP1 POP SWAP2 SWAP1 POP JUMP JUMPDEST PUSH1 0x0 DUP1 PUSH1 0x0 DUP1 PUSH1 0x0 DUP6 SWAP3 POP PUSH1 0x0 SLOAD SWAP5 POP PUSH32 0xFFFF0000FFFFFFFFFFFFFFFFFFFFFFFFFFFFFFFFFFFFFFFFFFFFFFFFFFFFFFFF DUP6 AND SWAP4 POP DUP3 PUSH1 0x8 PUSH1 0x1C MUL SHL SWAP2 POP DUP4 DUP3 OR SWAP1 POP DUP1 PUSH1 0x0 SSTORE SWAP2 SWAP4 SWAP6 SWAP1 SWAP3 SWAP5 POP JUMP JUMPDEST PUSH1 0x0 DUP2 CALLDATALOAD SWAP1 POP PUSH2 0x322 DUP2 PUSH2 0x5BC JUMP JUMPDEST SWAP3 SWAP2 POP POP JUMP JUMPDEST PUSH1 0x0 DUP2 CALLDATALOAD SWAP1 POP PUSH2 0x337 DUP2 PUSH2 0x5D3 JUMP JUMPDEST SWAP3 SWAP2 POP POP JUMP JUMPDEST PUSH1 0x0 PUSH1 0x20 DUP3 DUP5 SUB SLT ISZERO PUSH2 0x353 JUMPI PUSH2 0x352 PUSH2 0x5B7 JUMP JUMPDEST JUMPDEST PUSH1 0x0 PUSH2 0x361 DUP5 DUP3 DUP6 ADD PUSH2 0x313 JUMP JUMPDEST SWAP2 POP POP SWAP3 SWAP2 POP POP JUMP JUMPDEST PUSH1 0x0 PUSH1 0x20 DUP3 DUP5 SUB SLT ISZERO PUSH2 0x380 JUMPI PUSH2 0x37F PUSH2 0x5B7 JUMP JUMPDEST JUMPDEST PUSH1 0x0 PUSH2 0x38E DUP5 DUP3 DUP6 ADD PUSH2 0x328 JUMP JUMPDEST SWAP2 POP POP SWAP3 SWAP2 POP POP JUMP JUMPDEST PUSH2 0x3A0 DUP2 PUSH2 0x554 JUMP JUMPDEST DUP3 MSTORE POP POP JUMP JUMPDEST PUSH2 0x3AF DUP2 PUSH2 0x55E JUMP JUMPDEST DUP3 MSTORE POP POP JUMP JUMPDEST PUSH2 0x3BE DUP2 PUSH2 0x57A JUMP JUMPDEST DUP3 MSTORE POP POP JUMP JUMPDEST PUSH2 0x3CD DUP2 PUSH2 0x588 JUMP JUMPDEST DUP3 MSTORE POP POP JUMP JUMPDEST PUSH2 0x3DC DUP2 PUSH2 0x592 JUMP JUMPDEST DUP3 MSTORE POP POP JUMP JUMPDEST PUSH2 0x3EB DUP2 PUSH2 0x59F JUMP JUMPDEST DUP3 MSTORE POP POP JUMP JUMPDEST PUSH1 0x0 PUSH1 0x20 DUP3 ADD SWAP1 POP PUSH2 0x406 PUSH1 0x0 DUP4 ADD DUP5 PUSH2 0x397 JUMP JUMPDEST SWAP3 SWAP2 POP POP JUMP JUMPDEST PUSH1 0x0 PUSH1 0xA0 DUP3 ADD SWAP1 POP PUSH2 0x421 PUSH1 0x0 DUP4 ADD DUP9 PUSH2 0x397 JUMP JUMPDEST PUSH2 0x42E PUSH1 0x20 DUP4 ADD DUP8 PUSH2 0x397 JUMP JUMPDEST PUSH2 0x43B PUSH1 0x40 DUP4 ADD DUP7 PUSH2 0x397 JUMP JUMPDEST PUSH2 0x448 PUSH1 0x60 DUP4 ADD DUP6 PUSH2 0x397 JUMP JUMPDEST PUSH2 0x455 PUSH1 0x80 DUP4 ADD DUP5 PUSH2 0x397 JUMP JUMPDEST SWAP7 SWAP6 POP POP POP POP POP POP JUMP JUMPDEST PUSH1 0x0 PUSH1 0x20 DUP3 ADD SWAP1 POP PUSH2 0x474 PUSH1 0x0 DUP4 ADD DUP5 PUSH2 0x3A6 JUMP JUMPDEST SWAP3 SWAP2 POP POP JUMP JUMPDEST PUSH1 0x0 PUSH1 0x20 DUP3 ADD SWAP1 POP PUSH2 0x48F PUSH1 0x0 DUP4 ADD DUP5 PUSH2 0x3B5 JUMP JUMPDEST SWAP3 SWAP2 POP POP JUMP JUMPDEST PUSH1 0x0 PUSH1 0x40 DUP3 ADD SWAP1 POP PUSH2 0x4AA PUSH1 0x0 DUP4 ADD DUP6 PUSH2 0x3B5 JUMP JUMPDEST PUSH2 0x4B7 PUSH1 0x20 DUP4 ADD DUP5 PUSH2 0x3C4 JUMP JUMPDEST SWAP4 SWAP3 POP POP POP JUMP JUMPDEST PUSH1 0x0 PUSH1 0x60 DUP3 ADD SWAP1 POP PUSH2 0x4D3 PUSH1 0x0 DUP4 ADD DUP7 PUSH2 0x3B5 JUMP JUMPDEST PUSH2 0x4E0 PUSH1 0x20 DUP4 ADD DUP6 PUSH2 0x3C4 JUMP JUMPDEST PUSH2 0x4ED PUSH1 0x40 DUP4 ADD DUP5 PUSH2 0x3C4 JUMP JUMPDEST SWAP5 SWAP4 POP POP POP POP JUMP JUMPDEST PUSH1 0x0 PUSH1 0x40 DUP3 ADD SWAP1 POP PUSH2 0x50A PUSH1 0x0 DUP4 ADD DUP6 PUSH2 0x3C4 JUMP JUMPDEST PUSH2 0x517 PUSH1 0x20 DUP4 ADD DUP5 PUSH2 0x3C4 JUMP JUMPDEST SWAP4 SWAP3 POP POP POP JUMP JUMPDEST PUSH1 0x0 PUSH1 0x20 DUP3 ADD SWAP1 POP PUSH2 0x533 PUSH1 0x0 DUP4 ADD DUP5 PUSH2 0x3D3 JUMP JUMPDEST SWAP3 SWAP2 POP POP JUMP JUMPDEST PUSH1 0x0 PUSH1 0x20 DUP3 ADD SWAP1 POP PUSH2 0x54E PUSH1 0x0 DUP4 ADD DUP5 PUSH2 0x3E2 JUMP JUMPDEST SWAP3 SWAP2 POP POP JUMP JUMPDEST PUSH1 0x0 DUP2 SWAP1 POP SWAP2 SWAP1 POP JUMP JUMPDEST PUSH1 0x0 PUSH16 0xFFFFFFFFFFFFFFFFFFFFFFFFFFFFFFFF DUP3 AND SWAP1 POP SWAP2 SWAP1 POP JUMP JUMPDEST PUSH1 0x0 PUSH2 0xFFFF DUP3 AND SWAP1 POP SWAP2 SWAP1 POP JUMP JUMPDEST PUSH1 0x0 DUP2 SWAP1 POP SWAP2 SWAP1 POP JUMP JUMPDEST PUSH1 0x0 PUSH1 0xFF DUP3 AND SWAP1 POP SWAP2 SWAP1 POP JUMP JUMPDEST PUSH1 0x0 PUSH12 0xFFFFFFFFFFFFFFFFFFFFFFFF DUP3 AND SWAP1 POP SWAP2 SWAP1 POP JUMP JUMPDEST PUSH1 0x0 DUP1 REVERT JUMPDEST PUSH2 0x5C5 DUP2 PUSH2 0x57A JUMP JUMPDEST DUP2 EQ PUSH2 0x5D0 JUMPI PUSH1 0x0 DUP1 REVERT JUMPDEST POP JUMP JUMPDEST PUSH2 0x5DC DUP2 PUSH2 0x588 JUMP JUMPDEST DUP2 EQ PUSH2 0x5E7 JUMPI PUSH1 0x0 DUP1 REVERT JUMPDEST POP JUMP INVALID LOG2 PUSH5 0x6970667358 0x22 SLT KECCAK256 0xD1 BALANCE PUSH15 0x363A97E5B318C9D8536ECEB751044F DUP4 0xD1 STOP DIV 0xBC 0xB7 SHR NUMBER SWAP4 PUSH22 0xECDEB48864736F6C6343000807003300000000000000 "
		},
		"gasEstimates": {
			"creation": {
				"codeDepositCost": "313600",
				"executionCost": "97567",
				"totalCost": "411167"
			},
			"external": {
				"C()": "2468",
				"D()": "2544",
				"E()": "2565",
				"F()": "2566",
				"getOffsetE()": "infinite",
				"readBySlot(uint256)": "2768",
				"readE()": "infinite",
				"readEalt()": "6798",
				"writeToE(uint16)": "infinite"
			}
		},
		"methodIdentifiers": {
			"C()": "83dfe5fd",
			"D()": "0f529ba2",
			"E()": "92bbf6e8",
			"F()": "28811f59",
			"getOffsetE()": "8dbd22e5",
			"readBySlot(uint256)": "c195f88c",
			"readE()": "4315f65d",
			"readEalt()": "0a11e879",
			"writeToE(uint16)": "c9b3cbf9"
		}
	},
	"abi": [
		{
			"inputs": [],
			"name": "C",
			"outputs": [
				{
					"internalType": "uint128",
					"name": "",
					"type": "uint128"
				}
			],
			"stateMutability": "view",
			"type": "function"
		},
		{
			"inputs": [],
			"name": "D",
			"outputs": [
				{
					"internalType": "uint96",
					"name": "",
					"type": "uint96"
				}
			],
			"stateMutability": "view",
			"type": "function"
		},
		{
			"inputs": [],
			"name": "E",
			"outputs": [
				{
					"internalType": "uint16",
					"name": "",
					"type": "uint16"
				}
			],
			"stateMutability": "view",
			"type": "function"
		},
		{
			"inputs": [],
			"name": "F",
			"outputs": [
				{
					"internalType": "uint8",
					"name": "",
					"type": "uint8"
				}
			],
			"stateMutability": "view",
			"type": "function"
		},
		{
			"inputs": [],
			"name": "getOffsetE",
			"outputs": [
				{
					"internalType": "uint256",
					"name": "slot",
					"type": "uint256"
				},
				{
					"internalType": "uint256",
					"name": "offset",
					"type": "uint256"
				}
			],
			"stateMutability": "pure",
			"type": "function"
		},
		{
			"inputs": [
				{
					"internalType": "uint256",
					"name": "slot",
					"type": "uint256"
				}
			],
			"name": "readBySlot",
			"outputs": [
				{
					"internalType": "bytes32",
					"name": "result",
					"type": "bytes32"
				}
			],
			"stateMutability": "view",
			"type": "function"
		},
		{
			"inputs": [],
			"name": "readE",
			"outputs": [
				{
					"internalType": "uint16",
					"name": "e",
					"type": "uint16"
				},
				{
					"internalType": "uint256",
					"name": "e1",
					"type": "uint256"
				},
				{
					"internalType": "uint256",
					"name": "e2",
					"type": "uint256"
				}
			],
			"stateMutability": "view",
			"type": "function"
		},
		{
			"inputs": [],
			"name": "readEalt",
			"outputs": [
				{
					"internalType": "uint16",
					"name": "e",
					"type": "uint16"
				},
				{
					"internalType": "uint256",
					"name": "e1",
					"type": "uint256"
				}
			],
			"stateMutability": "view",
			"type": "function"
		},
		{
			"inputs": [
				{
					"internalType": "uint16",
					"name": "_newE",
					"type": "uint16"
				}
			],
			"name": "writeToE",
			"outputs": [
				{
					"internalType": "bytes32",
					"name": "c",
					"type": "bytes32"
				},
				{
					"internalType": "bytes32",
					"name": "clearedE",
					"type": "bytes32"
				},
				{
					"internalType": "bytes32",
					"name": "newE",
					"type": "bytes32"
				},
				{
					"internalType": "bytes32",
					"name": "shiftedNewE",
					"type": "bytes32"
				},
				{
					"internalType": "bytes32",
					"name": "newVal",
					"type": "bytes32"
				}
			],
			"stateMutability": "nonpayable",
			"type": "function"
		}
	]
}