{
	"data": {
		"bytecode": {
			"linkReferences": {},
			"object": "60806040526002600055602d60015560576002556001600360006101000a8154816fffffffffffffffffffffffffffffffff02191690836fffffffffffffffffffffffffffffffff1602179055506002600360106101000a8154816fffffffffffffffffffffffffffffffff02191690836fffffffffffffffffffffffffffffffff16021790555034801561009357600080fd5b50610322806100a36000396000f3fe608060405234801561001057600080fd5b506004361061007d5760003560e01c80634018d9aa1161005b5780634018d9aa146100fe5780635197c7aa1461011a5780636c877c8414610138578063e1e64c99146101575761007d565b806301f76538146100825780632171bfbe146100b25780632e32b404146100e2575b600080fd5b61009c600480360381019061009791906101d2565b610175565b6040516100a99190610278565b60405180910390f35b6100cc60048036038101906100c791906101d2565b610180565b6040516100d9919061025d565b60405180910390f35b6100fc60048036038101906100f791906101ff565b61018b565b005b610118600480360381019061011391906101d2565b610192565b005b61012261019c565b60405161012f9190610278565b60405180910390f35b6101406101a5565b60405161014e929190610293565b60405180910390f35b61015f6101b4565b60405161016c9190610278565b60405180910390f35b600081549050919050565b600081549050919050565b8082555050565b8060008190555050565b60008054905090565b60008060039150600390509091565b60008054905090565b6000813590506101cc816102d5565b92915050565b6000602082840312156101e8576101e76102d0565b5b60006101f6848285016101bd565b91505092915050565b60008060408385031215610216576102156102d0565b5b6000610224858286016101bd565b9250506020610235858286016101bd565b9150509250929050565b610248816102bc565b82525050565b610257816102c6565b82525050565b6000602082019050610272600083018461023f565b92915050565b600060208201905061028d600083018461024e565b92915050565b60006040820190506102a8600083018561024e565b6102b5602083018461024e565b9392505050565b6000819050919050565b6000819050919050565b600080fd5b6102de816102c6565b81146102e957600080fd5b5056fea26469706673582212205652400615ce6764d6cc8c1e2b0bd91d7a6495328426201c1fc1516379ee705264736f6c63430008070033",
			"opcodes": "PUSH1 0x80 PUSH1 0x40 MSTORE PUSH1 0x2 PUSH1 0x0 SSTORE PUSH1 0x2D PUSH1 0x1 SSTORE PUSH1 0x57 PUSH1 0x2 SSTORE PUSH1 0x1 PUSH1 0x3 PUSH1 0x0 PUSH2 0x100 EXP DUP2 SLOAD DUP2 PUSH16 0xFFFFFFFFFFFFFFFFFFFFFFFFFFFFFFFF MUL NOT AND SWAP1 DUP4 PUSH16 0xFFFFFFFFFFFFFFFFFFFFFFFFFFFFFFFF AND MUL OR SWAP1 SSTORE POP PUSH1 0x2 PUSH1 0x3 PUSH1 0x10 PUSH2 0x100 EXP DUP2 SLOAD DUP2 PUSH16 0xFFFFFFFFFFFFFFFFFFFFFFFFFFFFFFFF MUL NOT AND SWAP1 DUP4 PUSH16 0xFFFFFFFFFFFFFFFFFFFFFFFFFFFFFFFF AND MUL OR SWAP1 SSTORE POP CALLVALUE DUP1 ISZERO PUSH2 0x93 JUMPI PUSH1 0x0 DUP1 REVERT JUMPDEST POP PUSH2 0x322 DUP1 PUSH2 0xA3 PUSH1 0x0 CODECOPY PUSH1 0x0 RETURN INVALID PUSH1 0x80 PUSH1 0x40 MSTORE CALLVALUE DUP1 ISZERO PUSH2 0x10 JUMPI PUSH1 0x0 DUP1 REVERT JUMPDEST POP PUSH1 0x4 CALLDATASIZE LT PUSH2 0x7D JUMPI PUSH1 0x0 CALLDATALOAD PUSH1 0xE0 SHR DUP1 PUSH4 0x4018D9AA GT PUSH2 0x5B JUMPI DUP1 PUSH4 0x4018D9AA EQ PUSH2 0xFE JUMPI DUP1 PUSH4 0x5197C7AA EQ PUSH2 0x11A JUMPI DUP1 PUSH4 0x6C877C84 EQ PUSH2 0x138 JUMPI DUP1 PUSH4 0xE1E64C99 EQ PUSH2 0x157 JUMPI PUSH2 0x7D JUMP JUMPDEST DUP1 PUSH4 0x1F76538 EQ PUSH2 0x82 JUMPI DUP1 PUSH4 0x2171BFBE EQ PUSH2 0xB2 JUMPI DUP1 PUSH4 0x2E32B404 EQ PUSH2 0xE2 JUMPI JUMPDEST PUSH1 0x0 DUP1 REVERT JUMPDEST PUSH2 0x9C PUSH1 0x4 DUP1 CALLDATASIZE SUB DUP2 ADD SWAP1 PUSH2 0x97 SWAP2 SWAP1 PUSH2 0x1D2 JUMP JUMPDEST PUSH2 0x175 JUMP JUMPDEST PUSH1 0x40 MLOAD PUSH2 0xA9 SWAP2 SWAP1 PUSH2 0x278 JUMP JUMPDEST PUSH1 0x40 MLOAD DUP1 SWAP2 SUB SWAP1 RETURN JUMPDEST PUSH2 0xCC PUSH1 0x4 DUP1 CALLDATASIZE SUB DUP2 ADD SWAP1 PUSH2 0xC7 SWAP2 SWAP1 PUSH2 0x1D2 JUMP JUMPDEST PUSH2 0x180 JUMP JUMPDEST PUSH1 0x40 MLOAD PUSH2 0xD9 SWAP2 SWAP1 PUSH2 0x25D JUMP JUMPDEST PUSH1 0x40 MLOAD DUP1 SWAP2 SUB SWAP1 RETURN JUMPDEST PUSH2 0xFC PUSH1 0x4 DUP1 CALLDATASIZE SUB DUP2 ADD SWAP1 PUSH2 0xF7 SWAP2 SWAP1 PUSH2 0x1FF JUMP JUMPDEST PUSH2 0x18B JUMP JUMPDEST STOP JUMPDEST PUSH2 0x118 PUSH1 0x4 DUP1 CALLDATASIZE SUB DUP2 ADD SWAP1 PUSH2 0x113 SWAP2 SWAP1 PUSH2 0x1D2 JUMP JUMPDEST PUSH2 0x192 JUMP JUMPDEST STOP JUMPDEST PUSH2 0x122 PUSH2 0x19C JUMP JUMPDEST PUSH1 0x40 MLOAD PUSH2 0x12F SWAP2 SWAP1 PUSH2 0x278 JUMP JUMPDEST PUSH1 0x40 MLOAD DUP1 SWAP2 SUB SWAP1 RETURN JUMPDEST PUSH2 0x140 PUSH2 0x1A5 JUMP JUMPDEST PUSH1 0x40 MLOAD PUSH2 0x14E SWAP3 SWAP2 SWAP1 PUSH2 0x293 JUMP JUMPDEST PUSH1 0x40 MLOAD DUP1 SWAP2 SUB SWAP1 RETURN JUMPDEST PUSH2 0x15F PUSH2 0x1B4 JUMP JUMPDEST PUSH1 0x40 MLOAD PUSH2 0x16C SWAP2 SWAP1 PUSH2 0x278 JUMP JUMPDEST PUSH1 0x40 MLOAD DUP1 SWAP2 SUB SWAP1 RETURN JUMPDEST PUSH1 0x0 DUP2 SLOAD SWAP1 POP SWAP2 SWAP1 POP JUMP JUMPDEST PUSH1 0x0 DUP2 SLOAD SWAP1 POP SWAP2 SWAP1 POP JUMP JUMPDEST DUP1 DUP3 SSTORE POP POP JUMP JUMPDEST DUP1 PUSH1 0x0 DUP2 SWAP1 SSTORE POP POP JUMP JUMPDEST PUSH1 0x0 DUP1 SLOAD SWAP1 POP SWAP1 JUMP JUMPDEST PUSH1 0x0 DUP1 PUSH1 0x3 SWAP2 POP PUSH1 0x3 SWAP1 POP SWAP1 SWAP2 JUMP JUMPDEST PUSH1 0x0 DUP1 SLOAD SWAP1 POP SWAP1 JUMP JUMPDEST PUSH1 0x0 DUP2 CALLDATALOAD SWAP1 POP PUSH2 0x1CC DUP2 PUSH2 0x2D5 JUMP JUMPDEST SWAP3 SWAP2 POP POP JUMP JUMPDEST PUSH1 0x0 PUSH1 0x20 DUP3 DUP5 SUB SLT ISZERO PUSH2 0x1E8 JUMPI PUSH2 0x1E7 PUSH2 0x2D0 JUMP JUMPDEST JUMPDEST PUSH1 0x0 PUSH2 0x1F6 DUP5 DUP3 DUP6 ADD PUSH2 0x1BD JUMP JUMPDEST SWAP2 POP POP SWAP3 SWAP2 POP POP JUMP JUMPDEST PUSH1 0x0 DUP1 PUSH1 0x40 DUP4 DUP6 SUB SLT ISZERO PUSH2 0x216 JUMPI PUSH2 0x215 PUSH2 0x2D0 JUMP JUMPDEST JUMPDEST PUSH1 0x0 PUSH2 0x224 DUP6 DUP3 DUP7 ADD PUSH2 0x1BD JUMP JUMPDEST SWAP3 POP POP PUSH1 0x20 PUSH2 0x235 DUP6 DUP3 DUP7 ADD PUSH2 0x1BD JUMP JUMPDEST SWAP2 POP POP SWAP3 POP SWAP3 SWAP1 POP JUMP JUMPDEST PUSH2 0x248 DUP2 PUSH2 0x2BC JUMP JUMPDEST DUP3 MSTORE POP POP JUMP JUMPDEST PUSH2 0x257 DUP2 PUSH2 0x2C6 JUMP JUMPDEST DUP3 MSTORE POP POP JUMP JUMPDEST PUSH1 0x0 PUSH1 0x20 DUP3 ADD SWAP1 POP PUSH2 0x272 PUSH1 0x0 DUP4 ADD DUP5 PUSH2 0x23F JUMP JUMPDEST SWAP3 SWAP2 POP POP JUMP JUMPDEST PUSH1 0x0 PUSH1 0x20 DUP3 ADD SWAP1 POP PUSH2 0x28D PUSH1 0x0 DUP4 ADD DUP5 PUSH2 0x24E JUMP JUMPDEST SWAP3 SWAP2 POP POP JUMP JUMPDEST PUSH1 0x0 PUSH1 0x40 DUP3 ADD SWAP1 POP PUSH2 0x2A8 PUSH1 0x0 DUP4 ADD DUP6 PUSH2 0x24E JUMP JUMPDEST PUSH2 0x2B5 PUSH1 0x20 DUP4 ADD DUP5 PUSH2 0x24E JUMP JUMPDEST SWAP4 SWAP3 POP POP POP JUMP JUMPDEST PUSH1 0x0 DUP2 SWAP1 POP SWAP2 SWAP1 POP JUMP JUMPDEST PUSH1 0x0 DUP2 SWAP1 POP SWAP2 SWAP1 POP JUMP JUMPDEST PUSH1 0x0 DUP1 REVERT JUMPDEST PUSH2 0x2DE DUP2 PUSH2 0x2C6 JUMP JUMPDEST DUP2 EQ PUSH2 0x2E9 JUMPI PUSH1 0x0 DUP1 REVERT JUMPDEST POP JUMP INVALID LOG2 PUSH5 0x6970667358 0x22 SLT KECCAK256 JUMP MSTORE BLOCKHASH MOD ISZERO 0xCE PUSH8 0x64D6CC8C1E2B0BD9 SAR PUSH27 0x6495328426201C1FC1516379EE705264736F6C6343000807003300 "
		},
		"gasEstimates": {
			"creation": {
				"codeDepositCost": "160400",
				"executionCost": "115110",
				"totalCost": "275510"
			},
			"external": {
				"getSlot()": "infinite",
				"getVarinYulBySlotBytes32(uint256)": "2725",
				"getVarinYulBySlotUint256(uint256)": "infinite",
				"getX()": "2459",
				"getXinYul()": "2503",
				"setVarinYul(uint256,uint256)": "infinite",
				"setX(uint256)": "22520"
			}
		},
		"methodIdentifiers": {
			"getSlot()": "6c877c84",
			"getVarinYulBySlotBytes32(uint256)": "2171bfbe",
			"getVarinYulBySlotUint256(uint256)": "01f76538",
			"getX()": "5197c7aa",
			"getXinYul()": "e1e64c99",
			"setVarinYul(uint256,uint256)": "2e32b404",
			"setX(uint256)": "4018d9aa"
		}
	},
	"abi": [
		{
			"inputs": [],
			"name": "getSlot",
			"outputs": [
				{
					"internalType": "uint256",
					"name": "Aslot",
					"type": "uint256"
				},
				{
					"internalType": "uint256",
					"name": "Bslot",
					"type": "uint256"
				}
			],
			"stateMutability": "pure",
			"type": "function"
		},
		{
			"inputs": [
				{
					"internalType": "uint256",
					"name": "slot",
					"type": "uint256"
				}
			],
			"name": "getVarinYulBySlotBytes32",
			"outputs": [
				{
					"internalType": "bytes32",
					"name": "result",
					"type": "bytes32"
				}
			],
			"stateMutability": "view",
			"type": "function"
		},
		{
			"inputs": [
				{
					"internalType": "uint256",
					"name": "slot",
					"type": "uint256"
				}
			],
			"name": "getVarinYulBySlotUint256",
			"outputs": [
				{
					"internalType": "uint256",
					"name": "result",
					"type": "uint256"
				}
			],
			"stateMutability": "view",
			"type": "function"
		},
		{
			"inputs": [],
			"name": "getX",
			"outputs": [
				{
					"internalType": "uint256",
					"name": "",
					"type": "uint256"
				}
			],
			"stateMutability": "view",
			"type": "function"
		},
		{
			"inputs": [],
			"name": "getXinYul",
			"outputs": [
				{
					"internalType": "uint256",
					"name": "result",
					"type": "uint256"
				}
			],
			"stateMutability": "view",
			"type": "function"
		},
		{
			"inputs": [
				{
					"internalType": "uint256",
					"name": "slot",
					"type": "uint256"
				},
				{
					"internalType": "uint256",
					"name": "value",
					"type": "uint256"
				}
			],
			"name": "setVarinYul",
			"outputs": [],
			"stateMutability": "nonpayable",
			"type": "function"
		},
		{
			"inputs": [
				{
					"internalType": "uint256",
					"name": "newVal",
					"type": "uint256"
				}
			],
			"name": "setX",
			"outputs": [],
			"stateMutability": "nonpayable",
			"type": "function"
		}
	]
}