{
	"data": {
		"bytecode": {
			"linkReferences": {},
			"object": "608060405234801561001057600080fd5b506103d7806100206000396000f3fe608060405234801561001057600080fd5b50600436106100575760003560e01c80635529e72e1461005c578063876169b114610066578063a05fae9814610085578063c52cbdd71461008f578063f110bb96146100ae575b600080fd5b6100646100cc565b005b61006e61011a565b60405161007c9291906102c1565b60405180910390f35b61008d61012d565b005b61009761014f565b6040516100a592919061025a565b60405180910390f35b6100b6610190565b6040516100c3919061023f565b60405180910390f35b73ab8483f64d9c6d1ecf9b849ae677dd3315835cb273ffffffffffffffffffffffffffffffffffffffff163373ffffffffffffffffffffffffffffffffffffffff161461011857600080fd5b565b6000806002600052600460205260406000f35b73ab8483f64d9c6d1ecf9b849ae677dd3315835cb2331461014d57600080fd5b565b60006060600060016002600360405160200161016d9392919061028a565b604051602081830303815290604052905080805190602001208192509250509091565b6000604051600181526002602082015260036040820152606081016040526060812060005260206000f35b6101c481610306565b82525050565b60006101d5826102ea565b6101df81856102f5565b93506101ef81856020860161035d565b6101f881610390565b840191505092915050565b61020c81610327565b82525050565b61021b81610339565b82525050565b61022a8161034b565b82525050565b61023981610310565b82525050565b600060208201905061025460008301846101bb565b92915050565b600060408201905061026f60008301856101bb565b818103602083015261028181846101ca565b90509392505050565b600060608201905061029f6000830186610203565b6102ac6020830185610212565b6102b96040830184610221565b949350505050565b60006040820190506102d66000830185610230565b6102e36020830184610230565b9392505050565b600081519050919050565b600082825260208201905092915050565b6000819050919050565b6000819050919050565b600060ff82169050919050565b60006103328261031a565b9050919050565b60006103448261031a565b9050919050565b60006103568261031a565b9050919050565b60005b8381101561037b578082015181840152602081019050610360565b8381111561038a576000848401525b50505050565b6000601f19601f830116905091905056fea2646970667358221220b55eef5dd439327f526db373cb19a0956363390e8f1f15da3d65001bc9aa5e9e64736f6c63430008070033",
			"opcodes": "PUSH1 0x80 PUSH1 0x40 MSTORE CALLVALUE DUP1 ISZERO PUSH2 0x10 JUMPI PUSH1 0x0 DUP1 REVERT JUMPDEST POP PUSH2 0x3D7 DUP1 PUSH2 0x20 PUSH1 0x0 CODECOPY PUSH1 0x0 RETURN INVALID PUSH1 0x80 PUSH1 0x40 MSTORE CALLVALUE DUP1 ISZERO PUSH2 0x10 JUMPI PUSH1 0x0 DUP1 REVERT JUMPDEST POP PUSH1 0x4 CALLDATASIZE LT PUSH2 0x57 JUMPI PUSH1 0x0 CALLDATALOAD PUSH1 0xE0 SHR DUP1 PUSH4 0x5529E72E EQ PUSH2 0x5C JUMPI DUP1 PUSH4 0x876169B1 EQ PUSH2 0x66 JUMPI DUP1 PUSH4 0xA05FAE98 EQ PUSH2 0x85 JUMPI DUP1 PUSH4 0xC52CBDD7 EQ PUSH2 0x8F JUMPI DUP1 PUSH4 0xF110BB96 EQ PUSH2 0xAE JUMPI JUMPDEST PUSH1 0x0 DUP1 REVERT JUMPDEST PUSH2 0x64 PUSH2 0xCC JUMP JUMPDEST STOP JUMPDEST PUSH2 0x6E PUSH2 0x11A JUMP JUMPDEST PUSH1 0x40 MLOAD PUSH2 0x7C SWAP3 SWAP2 SWAP1 PUSH2 0x2C1 JUMP JUMPDEST PUSH1 0x40 MLOAD DUP1 SWAP2 SUB SWAP1 RETURN JUMPDEST PUSH2 0x8D PUSH2 0x12D JUMP JUMPDEST STOP JUMPDEST PUSH2 0x97 PUSH2 0x14F JUMP JUMPDEST PUSH1 0x40 MLOAD PUSH2 0xA5 SWAP3 SWAP2 SWAP1 PUSH2 0x25A JUMP JUMPDEST PUSH1 0x40 MLOAD DUP1 SWAP2 SUB SWAP1 RETURN JUMPDEST PUSH2 0xB6 PUSH2 0x190 JUMP JUMPDEST PUSH1 0x40 MLOAD PUSH2 0xC3 SWAP2 SWAP1 PUSH2 0x23F JUMP JUMPDEST PUSH1 0x40 MLOAD DUP1 SWAP2 SUB SWAP1 RETURN JUMPDEST PUSH20 0xAB8483F64D9C6D1ECF9B849AE677DD3315835CB2 PUSH20 0xFFFFFFFFFFFFFFFFFFFFFFFFFFFFFFFFFFFFFFFF AND CALLER PUSH20 0xFFFFFFFFFFFFFFFFFFFFFFFFFFFFFFFFFFFFFFFF AND EQ PUSH2 0x118 JUMPI PUSH1 0x0 DUP1 REVERT JUMPDEST JUMP JUMPDEST PUSH1 0x0 DUP1 PUSH1 0x2 PUSH1 0x0 MSTORE PUSH1 0x4 PUSH1 0x20 MSTORE PUSH1 0x40 PUSH1 0x0 RETURN JUMPDEST PUSH20 0xAB8483F64D9C6D1ECF9B849AE677DD3315835CB2 CALLER EQ PUSH2 0x14D JUMPI PUSH1 0x0 DUP1 REVERT JUMPDEST JUMP JUMPDEST PUSH1 0x0 PUSH1 0x60 PUSH1 0x0 PUSH1 0x1 PUSH1 0x2 PUSH1 0x3 PUSH1 0x40 MLOAD PUSH1 0x20 ADD PUSH2 0x16D SWAP4 SWAP3 SWAP2 SWAP1 PUSH2 0x28A JUMP JUMPDEST PUSH1 0x40 MLOAD PUSH1 0x20 DUP2 DUP4 SUB SUB DUP2 MSTORE SWAP1 PUSH1 0x40 MSTORE SWAP1 POP DUP1 DUP1 MLOAD SWAP1 PUSH1 0x20 ADD KECCAK256 DUP2 SWAP3 POP SWAP3 POP POP SWAP1 SWAP2 JUMP JUMPDEST PUSH1 0x0 PUSH1 0x40 MLOAD PUSH1 0x1 DUP2 MSTORE PUSH1 0x2 PUSH1 0x20 DUP3 ADD MSTORE PUSH1 0x3 PUSH1 0x40 DUP3 ADD MSTORE PUSH1 0x60 DUP2 ADD PUSH1 0x40 MSTORE PUSH1 0x60 DUP2 KECCAK256 PUSH1 0x0 MSTORE PUSH1 0x20 PUSH1 0x0 RETURN JUMPDEST PUSH2 0x1C4 DUP2 PUSH2 0x306 JUMP JUMPDEST DUP3 MSTORE POP POP JUMP JUMPDEST PUSH1 0x0 PUSH2 0x1D5 DUP3 PUSH2 0x2EA JUMP JUMPDEST PUSH2 0x1DF DUP2 DUP6 PUSH2 0x2F5 JUMP JUMPDEST SWAP4 POP PUSH2 0x1EF DUP2 DUP6 PUSH1 0x20 DUP7 ADD PUSH2 0x35D JUMP JUMPDEST PUSH2 0x1F8 DUP2 PUSH2 0x390 JUMP JUMPDEST DUP5 ADD SWAP2 POP POP SWAP3 SWAP2 POP POP JUMP JUMPDEST PUSH2 0x20C DUP2 PUSH2 0x327 JUMP JUMPDEST DUP3 MSTORE POP POP JUMP JUMPDEST PUSH2 0x21B DUP2 PUSH2 0x339 JUMP JUMPDEST DUP3 MSTORE POP POP JUMP JUMPDEST PUSH2 0x22A DUP2 PUSH2 0x34B JUMP JUMPDEST DUP3 MSTORE POP POP JUMP JUMPDEST PUSH2 0x239 DUP2 PUSH2 0x310 JUMP JUMPDEST DUP3 MSTORE POP POP JUMP JUMPDEST PUSH1 0x0 PUSH1 0x20 DUP3 ADD SWAP1 POP PUSH2 0x254 PUSH1 0x0 DUP4 ADD DUP5 PUSH2 0x1BB JUMP JUMPDEST SWAP3 SWAP2 POP POP JUMP JUMPDEST PUSH1 0x0 PUSH1 0x40 DUP3 ADD SWAP1 POP PUSH2 0x26F PUSH1 0x0 DUP4 ADD DUP6 PUSH2 0x1BB JUMP JUMPDEST DUP2 DUP2 SUB PUSH1 0x20 DUP4 ADD MSTORE PUSH2 0x281 DUP2 DUP5 PUSH2 0x1CA JUMP JUMPDEST SWAP1 POP SWAP4 SWAP3 POP POP POP JUMP JUMPDEST PUSH1 0x0 PUSH1 0x60 DUP3 ADD SWAP1 POP PUSH2 0x29F PUSH1 0x0 DUP4 ADD DUP7 PUSH2 0x203 JUMP JUMPDEST PUSH2 0x2AC PUSH1 0x20 DUP4 ADD DUP6 PUSH2 0x212 JUMP JUMPDEST PUSH2 0x2B9 PUSH1 0x40 DUP4 ADD DUP5 PUSH2 0x221 JUMP JUMPDEST SWAP5 SWAP4 POP POP POP POP JUMP JUMPDEST PUSH1 0x0 PUSH1 0x40 DUP3 ADD SWAP1 POP PUSH2 0x2D6 PUSH1 0x0 DUP4 ADD DUP6 PUSH2 0x230 JUMP JUMPDEST PUSH2 0x2E3 PUSH1 0x20 DUP4 ADD DUP5 PUSH2 0x230 JUMP JUMPDEST SWAP4 SWAP3 POP POP POP JUMP JUMPDEST PUSH1 0x0 DUP2 MLOAD SWAP1 POP SWAP2 SWAP1 POP JUMP JUMPDEST PUSH1 0x0 DUP3 DUP3 MSTORE PUSH1 0x20 DUP3 ADD SWAP1 POP SWAP3 SWAP2 POP POP JUMP JUMPDEST PUSH1 0x0 DUP2 SWAP1 POP SWAP2 SWAP1 POP JUMP JUMPDEST PUSH1 0x0 DUP2 SWAP1 POP SWAP2 SWAP1 POP JUMP JUMPDEST PUSH1 0x0 PUSH1 0xFF DUP3 AND SWAP1 POP SWAP2 SWAP1 POP JUMP JUMPDEST PUSH1 0x0 PUSH2 0x332 DUP3 PUSH2 0x31A JUMP JUMPDEST SWAP1 POP SWAP2 SWAP1 POP JUMP JUMPDEST PUSH1 0x0 PUSH2 0x344 DUP3 PUSH2 0x31A JUMP JUMPDEST SWAP1 POP SWAP2 SWAP1 POP JUMP JUMPDEST PUSH1 0x0 PUSH2 0x356 DUP3 PUSH2 0x31A JUMP JUMPDEST SWAP1 POP SWAP2 SWAP1 POP JUMP JUMPDEST PUSH1 0x0 JUMPDEST DUP4 DUP2 LT ISZERO PUSH2 0x37B JUMPI DUP1 DUP3 ADD MLOAD DUP2 DUP5 ADD MSTORE PUSH1 0x20 DUP2 ADD SWAP1 POP PUSH2 0x360 JUMP JUMPDEST DUP4 DUP2 GT ISZERO PUSH2 0x38A JUMPI PUSH1 0x0 DUP5 DUP5 ADD MSTORE JUMPDEST POP POP POP POP JUMP JUMPDEST PUSH1 0x0 PUSH1 0x1F NOT PUSH1 0x1F DUP4 ADD AND SWAP1 POP SWAP2 SWAP1 POP JUMP INVALID LOG2 PUSH5 0x6970667358 0x22 SLT KECCAK256 0xB5 0x5E 0xEF 0x5D 0xD4 CODECOPY ORIGIN PUSH32 0x526DB373CB19A0956363390E8F1F15DA3D65001BC9AA5E9E64736F6C63430008 SMOD STOP CALLER "
		},
		"gasEstimates": {
			"creation": {
				"codeDepositCost": "196600",
				"executionCost": "238",
				"totalCost": "196838"
			},
			"external": {
				"hashV1()": "infinite",
				"hashV2()": "342",
				"requireV1()": "156",
				"requireV2()": "188",
				"return2and4()": "165"
			}
		},
		"methodIdentifiers": {
			"hashV1()": "c52cbdd7",
			"hashV2()": "f110bb96",
			"requireV1()": "5529e72e",
			"requireV2()": "a05fae98",
			"return2and4()": "876169b1"
		}
	},
	"abi": [
		{
			"inputs": [],
			"name": "hashV1",
			"outputs": [
				{
					"internalType": "bytes32",
					"name": "",
					"type": "bytes32"
				},
				{
					"internalType": "bytes",
					"name": "",
					"type": "bytes"
				}
			],
			"stateMutability": "pure",
			"type": "function"
		},
		{
			"inputs": [],
			"name": "hashV2",
			"outputs": [
				{
					"internalType": "bytes32",
					"name": "",
					"type": "bytes32"
				}
			],
			"stateMutability": "pure",
			"type": "function"
		},
		{
			"inputs": [],
			"name": "requireV1",
			"outputs": [],
			"stateMutability": "view",
			"type": "function"
		},
		{
			"inputs": [],
			"name": "requireV2",
			"outputs": [],
			"stateMutability": "view",
			"type": "function"
		},
		{
			"inputs": [],
			"name": "return2and4",
			"outputs": [
				{
					"internalType": "uint256",
					"name": "",
					"type": "uint256"
				},
				{
					"internalType": "uint256",
					"name": "",
					"type": "uint256"
				}
			],
			"stateMutability": "pure",
			"type": "function"
		}
	]
}